:100000000C9430020C944D020C944D020C947A2006
:100010000C944D020C944D020C944D020C944D0224
:100020000C944D020C944D020C9490100C944C10B6
:100030000C94A11A0C944D020C944D020C944D0298
:100040000C944D020C944D020C944D020C944D02F4
:100050000C944D020C9468110C944D020C944D02BA
:100060000C944D020C944D020C944D020C944D02D4
:100070000C944D020C944D020C944D020C944D02C4
:100080000C944D020C944D020C944D020C944D02B4
:100090000C944D020C944D020C944D020C944D02A4
:1000A0000C944D020C944D020C944D02167C1E00D3
:1000B0001F002000210022002B0014001A0008005D
:1000C00015001700E00004001600070009000A00F0
:1000D000E1001D001B000600190005000000E20001
:1000E000E30021522C004C00167C2700260025003E
:1000F000240023003100130012000C0018001C0023
:10010000340033000F000E000D000B00E500383105
:1001100037003600100011000000E200E700225214
:1001200028002A003A003B003C003D003E003F0012
:100130000100010034002F003000010001002352B3
:1001400033022F023002240201003802380031004D
:1001500031022502000001000100010028002A00F0
:100160004500440043004200410040002B0046008F
:100170004D004B004E004A00280049004F0052003D
:1001800051005000010038023702360231022502C8
:100190000000E60001000100010030003A003B00D1
:1001A0003C003D003E003F000100310035022302CB
:1001B00034003500010033002D002E022E002D02E8
:1001C00001001E021F022002210222020000010083
:1001D000010001000100010045004400430042000D
:1001E000410040002B004C00300230002F002F0255
:1001F00039002900330227022602240201003802B6
:1002000037023602310225020000E600010001003B
:100210002C004C0000000000000000000000000066
:1002200000000000000000000000000000000100CD
:1002300000000000000000000000000000000000BE
:1002400000000000000001000100010001004C005E
:1002500000002102220237003600230231022E0064
:100260002600250024002E0024022D002300220059
:100270002100540000002E0220001F001E00250255
:10028000000027002700270001002A0000DA028171
:10029000FFD9F1DB20A4A62EAF00A0C000A1C800AA
:1002A000AED580A81FD300408D14200000010101AD
:1002B0000101010101010202020202020202020323
:1002C00003030303030303040404040404040505F3
:1002D00005050506060606060707070707080808B6
:1002E00008090909090A0A0A0B0B0B0C0C0C0D0D65
:1002F0000D0E0E0E0F0F0F101011111112121313FD
:100300001414151516161717181819191A1A1B1B75
:100310001C1D1D1E1E1F20202122222324242526D1
:1003200026272829292A2B2C2D2D2E2F3031323209
:10033000333435363738393A3B3C3D3E3F40414215
:10034000434445464748494A4C4D4E4F50515354FB
:10035000555658595A5B5D5E5F61626465666869AF
:100360006B6C6D6F7072737577787A7B7D7E80822F
:10037000838587888A8C8E8F91939596989A9C9E78
:10038000A0A2A3A5A7A9ABADAFB1B3B5B7BABCBE88
:10039000C0C2C4C6C9CBCDCFD1D4D6D8DBDDDFE255
:1003A000E4E7E9EBEEF0F3F5F8FAFDFF00AF00AE9D
:1003B00005010906A101050719E029E71500250136
:1003C00095087501810295017508810105071900DD
:1003D00029FF150026FF00950675088100050819FC
:1003E000012905950575019102950175039101C0DB
:1003F00009022200010100A0FA0904000001030122
:1004000001000921110100012240000705810308B4
:100410000001120100020000000851FC5900000117
:10042000010200011C034C0069006C0079003500DA
:10043000380047006C006F00770045006E006300D5
:10044000000018034F0052005600490053004500B9
:10045000560041004E0053002B0000000403090425
:1004600011241FBECFEFDAE0DEBFCDBF11E0A0E068
:10047000B1E0EEE5F5E402C005900D92A037B107BA
:10048000D9F725E0A0E7B1E001C01D92AB37B20774
:10049000E1F70E94C81A0C9459220C940000982F7E
:1004A0009093E900891779F05091EC002091ED00CC
:1004B0004091F00021FD0AC09F5F973089F780933B
:1004C000E90081E00895562F40E022E03091EB00F2
:1004D0003E7F3093EB003091ED003D7F3093ED0097
:1004E0003091EB0031603093EB005093EC0020939F
:1004F000ED004093F0002091EE0027FDDDCF80E07D
:100500000895E8EDF0E080818E7F80831092E20014
:100510001092DA001092E100A0EEB0E08C918160C0
:100520008C9380818F77808319BCA7EDB0E08C918C
:100530008E7F8C9380818F7E8083109261050895D9
:10054000B0E0A0E0E6EAF2E00C94B421C8EDD0E01F
:1005500088818F7E8883E7EDF0E0808181608083F1
:1005600084E082BF81E08093610588818E7F8883EB
:1005700002EE10E0F80110821092DA0081EEC82E2F
:10058000D12CF601108288818F77888388818068DA
:10059000888388818F7D888319BC1092770510929B
:1005A0006E0510926D0510926C0590EEE92EF12CFF
:1005B000F70180818B7F808388818160888360E000
:1005C00080E00E944F02F60180818E7F8083F801D7
:1005D000808181608083808188608083F701808151
:1005E0008E7F8083888180618883CDB7DEB7E8E025
:1005F0000C94D0212091E4003091E50095E6A9010A
:100600002091EC00822F817020FF06C08091E800CD
:1006100080FF06C080E008952091E80022FD1AC006
:1006200080917705882389F0853089F08091EB00EF
:1006300085FD0FC02091E4003091E500421753077B
:10064000F9F29150E1F684E0089582E0089583E0A4
:10065000089581E0089580916F0587FF13C0809110
:10066000E80082FF06C08091E8008B778093E80065
:1006700004C0809177058111F2CF089580917705AC
:100680008823D9F38091E80080FFF8CF8091E800BB
:100690008E77ECCFFC0180917505909176058617D9
:1006A0009707A0F06115710529F49091E8009E77F5
:1006B0009093E80090E06115710551F4911108C024
:1006C0008091E80082FF34C080E00895BC01F2CF41
:1006D000809177058823C1F18530C1F18091E800D0
:1006E00083FD30C08091E80082FDEACF8091E80070
:1006F00080FFE1CF8091F3002091F200382F611547
:10070000710519F02830310558F091E02830310595
:1007100009F090E02091E8002E772093E800CBCFFD
:1007200081918093F100615071092F5F3F4FE7CFB6
:1007300080917705882341F0853041F08091E80071
:1007400083FFBECF81E0089582E0089583E008959D
:10075000089508958091630508952FB7F8946091E6
:100760005D0570915E0580915F05909160052FBFDA
:1007700008959C01FC0132969FEF80E0419146175D
:1007800051F09F3F19F4411101C0982F8F5F8630BF
:10079000A9F79F3F09F40895290F311D97FD3A9558
:1007A000F90162830895FC01680F791F8FEF91E3CF
:1007B0002191822728E030E087FF09C0880F892730
:1007C00021503109C9F7E617F70791F70895880F07
:1007D000F7CFFA01811101C0FB01099508958091BD
:1007E0004F05982F9E7F71F480914F058170826034
:1007F00080934F0580915205893718F088E78093E0
:1008000052050895843080F7F5CF80E00895F8947C
:10081000E82FE295EF70F0E031A1282F2F7081E0F2
:1008200090E001C0880F2A95EAF7982F90959323BE
:1008300091A392A1892B82A37894089590912C0280
:1008400092FF06C0282F28712830F9F4877F846032
:1008500093FF06C0282F28712831F1F4877E846128
:1008600020912D0220FF06C0382F38713830D9F47E
:10087000877F816021FF06C0282F28712831D1F49D
:10088000877E816194FD877E0895282F247124300E
:10089000F9F68B7F8860DCCF282F2471243101F793
:1008A0008B7E8861DDCF382F3171313019F78E7F23
:1008B0008860E0CF282F2171213121F78E7E886159
:1008C000E1CF82389105B9F1B0F48133910509F493
:1008D0007DC048F48932910509F46DC08A329105D2
:1008E00009F47BC008958533910509F45FC089330D
:1008F000910509F10895833E9105D9F138F4803EC0
:10090000910529F1823E910579F10895863E910580
:10091000D9F1873E910509F43EC0843E910541F529
:1009200020912D0221FF24C080912C0284FD19C04A
:1009300087EE90E0089520912C02237009F05AC0B0
:1009400020912D0223FF14C089E290E008952091A8
:100950002C0220FD38C030912D0230FF09C024FF49
:1009600043C090E080E0089520912C0222FDF7CF53
:10097000089520912C0222FD3AC030912D0230FDC5
:1009800039C024FFF5CFEDCF20912C0223FFF0CF0B
:1009900024FDE7CFCDCF20912C0223FD2EC0309136
:1009A0002D0231FFEECF84EE90E0089520912C02CD
:1009B00025FFDECFC9CF20912C0225FD21C020913B
:1009C0002D0223FFD5CF89E390E0D2CF20912C02D6
:1009D00026FFCECF8AE290E0089520912C0226FFD8
:1009E000C7CF81E390E0089583EE90E0089582EE12
:1009F00090E0089580EE90E0089586EE90E00895EE
:100A000085E390E00895972F7A30B8F46630A8F423
:100A10008430B0F470E026E0929F600D711D1124C7
:100A2000FB019CE3899FE00DF11D1124EE0FFF1FD8
:100A3000E455FF4F85919491089580E090E00895EA
:100A400081E0FCCF1F93CF93DF930E946104EC0100
:100A5000C11582E5D80708F03FC0C11590E5D90758
:100A600008F0C2C0C83ED105C0F4C03ED10580F434
:100A7000C53AD10548F4C430D10550F4C130D10590
:100A800039F0D0E0C0E004C0CD3CD105D0F3D06552
:100A9000CE01DF91CF911F910895C11580E4D80751
:100AA00008F053C0C11590E2D90708F0B7C0C115CE
:100AB00081E0D80730F38D2F0E941E04182FCE013D
:100AC00099270E946104C12FD0E0DC2FCC27CC27CE
:100AD000DF71C82BD92BDCCFC03892E5D907A8F439
:100AE000C03682E5D80708F063C0C03492E5D90764
:100AF00008F049C0C03282E5D80788F1CF71D0E054
:100B0000DC2FCC27C16FD06AC3CFC03C92E5D90798
:100B100080F48C2F8F71C03AD24508F45EC00E94D9
:100B20001E04C82FD0E0DC2FCC27CC27DF71D06289
:100B3000AFCFC03E82E5D80708F0A3CFDC2FCC278B
:100B4000CC27DF71C06FD06AA3CFCE0199270E9456
:100B50006104CC27DF70C82BD92BD06A99CF2C2FFA
:100B60002695269590E2299F900111248C2F837061
:100B7000C1E0D0E002C0CC0FDD1F8A95E2F7C22BA6
:100B8000D32BDD6885CF2C2F26952695277080E204
:100B9000289F900111248C2F8370C1E0D0E002C007
:100BA000CC0FDD1F8A95E2F7C22BD32BDC6870CF08
:100BB0002C2F26952695277090E2299F90011124CD
:100BC0008C2F8370C1E0D0E002C0CC0FDD1F8A956E
:100BD000E2F7C22BD32BDA685BCFC82FD0E0DC2F33
:100BE000CC27C46FD06A54CF8C2F8F710E941E0403
:100BF00055E0D695C7955A95E1F7CF70D0E0DC2F38
:100C0000CC27282F30E084FF05C044E0220F331F9B
:100C10004A95E1F7C22BD32BD0693ACF8D2F8F7134
:100C20000E941E04182FCE0199270E946104C12F33
:100C3000D0E0DC2FCC27CC27DF71C82BD92B77CF86
:100C40000E94AD0308958091DE0181111092DE01B2
:100C5000089580959091DD0198239093DD0108958A
:100C60002091D2019091A10156E0291302C080E0A9
:100C7000089530E0529FF001539FF00D1124EE557E
:100C8000FE4F7181761306C07081781303C07281A4
:100C9000741304C02F5F3F4F2770E7CF81E00895A2
:100CA0008091D2019091A101981301C008958F5FA6
:100CB0008770FACFB0E0A0E0E0E6F6E00C94B32154
:100CC0007C0100912A0210912B028091DF0190910A
:100CD000E001082B192BCFE0D0E0CC24C394D12C19
:100CE000BC2EC6010C2E02C0880F991F0A94E2F791
:100CF00080239123892B49F4219790F7B12C8B2DD8
:100D0000CDB7DEB7E9E00C94CF21B7018C2F0E945C
:100D100003050E942205019779F3F1CFCF93DF936A
:100D2000EC010E945A06BE010E9403050E942205A2
:100D3000DF91CF9108959A3078F5863068F5E82FE5
:100D4000F0E086E0989FE00DF11D11249E2F977032
:100D500083E0F695E7958A95E1F7EE0FFF1FEE0F1A
:100D6000FF1FE558FE4F50E040E080E0219130E069
:100D7000092E02C0369527950A94E2F72170332791
:100D8000042E01C0220F0A94EAF7822B4F5F5F4FB7
:100D90004430510559F7089580E008959A3098F548
:100DA000863088F5E82FF0E086E0989FE00DF11D91
:100DB00011248E2F877041E001C0440F8A95EAF715
:100DC00083E0F695E7958A95E1F7EE0FFF1FEE0FAA
:100DD000FF1FE558FE4F30E020E070E05191DF0149
:100DE0001197CB01022E02C0969587950A94E2F7DF
:100DF000817081958527842385278C932F5F3F4FB2
:100E00002430310559F7089590932B0280932A02DC
:100E1000089521E030E002C0220F331F8A95E2F7E7
:100E20002095309580912A0290912B028223932362
:100E30000E94040708959091D3018095892380939F
:100E4000D301282F277091F4282F082E000C330B84
:100E50009217130659F090912D0292FF07C08595C5
:100E6000859585950E9409071092D301089521E088
:100E700030E002C0220F331F8A95E2F780912A02E8
:100E800090912B02822B932B0E940407089590933C
:100E9000E0018093DF010895FC0183819481892B17
:100EA00029F08081918189238F3F51F480E008955A
:100EB000843FE1F717C0883EA8F0813FB9F712C020
:100EC000808191810E948E0692959F70963099F351
:100ED00058F4925F9F70923048F7803F19F040F7C6
:100EE000883E20F781E008959A5FF4CF0F931F9317
:100EF000CF93DF938C0180917705843059F581E0A1
:100F00008093E9008FEF9091E800815095FD06C035
:100F100095ED9A95F1F700008111F5CF8091E800E9
:100F200085FF18C00E94FA0281110FC0C8E0D0E00E
:100F30008091E80085FD13C08091E8008E77809352
:100F4000E8000E94FA02882399F38091E8008E77E6
:100F50008093E800DF91CF911F910F910895F801E0
:100F600081918F018093F100219711F7EECFCF93FC
:100F7000DF93EC010E94760788E0FE01A4E6B5E06D
:100F800001900D928A95E1F7DF91CF9108956091DC
:100F9000430180914F0580FF20C08091420143E0D2
:100FA000849FC001112489589B4F849A21B32F7EBE
:100FB00031B330615FB7F894FC01649FE00DF11D1F
:100FC0001124BF0168177907D1F45FBF8FE594E062
:100FD0000197F1F700C000000895809144019091BD
:100FE000450123E0829FF0011124E958FB4F891746
:100FF000A0F61182108212828F5F3396F8CFFC0127
:101000004191CF01E8E031BB000000C047FF21BBA8
:10101000440F000000C000C000C021BB00C0EA9522
:1010200091F7D0CFB0E0A0E0E8E1F8E00C94B22175
:101030007C015B016A018091170201E010E08A30B7
:1010400010F40AE010E0C1E0D0E0B501C701F601FC
:101050000995811104C021960C171D072CF4CDB7FA
:10106000DEB7EAE00C94CE21CC9F9001CD9F300DED
:10107000300D112490E080E045E34A95F1F700003F
:10108000019682179307C1F7E0CF8091ED0181119E
:1010900010C08091D80080618093D8008AE18A9541
:1010A000F1F700C08091D90080FF0AC081E08093F1
:1010B000ED0181E09091ED01913009F080E008951B
:1010C00082E08093ED010E94810210927705F1CFBA
:1010D0000E944508882359F0E0915A05F0915B057C
:1010E000309729F00190F081E02D0995089580E076
:1010F0000895B0E0A0E0EFE7F8E00C94B4216C01B3
:101100007B0164E670E088E70E94F41EEC0197FD25
:1011100012C010E000E0F601E00FF11F849164E6D8
:1011200070E00E94601FEC01892B29F40F5F1F4FB4
:101130000E151F0581F70E94D61FCE01CDB7DEB771
:10114000E8E00C94D02180915805909159059111B7
:1011500003C091E089270895882369F062E070E078
:101160008EEA93E00E947908892B19F08091580546
:1011700008951092580580915805EBCFCF93C091F8
:101180005805809159058823D1F00E94AD03605A1B
:1011900075418F4F9F4F6093540570935505809311
:1011A000560590935705C11108C062E070E08CEAC3
:1011B00093E00E947908892B29F0C09158058C2F63
:1011C000CF91089581E080935805F7CFCF92DF92B9
:1011D000EF92FF926B017C010E94EF03B701A60121
:1011E00088E090E00E943722FF90EF90DF90CF9050
:1011F0000895B0E0A0E0EFEFF8E00C94B021182FD4
:10120000C62FD42F822E00914F0500FF4CC0809135
:101210005005811308C080915105861304C0809148
:101220005205841729F080917604826080937604B9
:10123000E02FE695F0E0E359FE4F8081809374043F
:10124000802F8E7F8230E9F4ED2FD93708F0E8E760
:10125000F0E0E455FD4FC1112BC02491F22FE22F95
:1012600000FF0FC0809144019091450133E0839FBE
:10127000D0011124A958BB4F891708F48EC00E94D1
:10128000C70710935005C0935105D093520588208D
:1012900051F060914F0570915005809151059091EA
:1012A00052050E94E608CDB7DEB7ECE00C94CC21E5
:1012B000EC2EF12CE4919E2ECE2ED12C26E0129F06
:1012C000C00111242FEF30E0B9010E949621812F37
:1012D00090E0880F991FF5E5F69FA001F79F500D4C
:1012E0001124841B950BB82EBB0CB80EA9014E1906
:1012F0005F094C9DC0014D9D900D5C9D900D11248A
:10130000F92FCB9DA0011124452F5527D901A41BEE
:10131000B50BAC9DA001AD9D500DBC9D500D112491
:10132000D901AB19B1095D01AE9CD001AF9CB00DE4
:10133000BE9CB00D1124AB2FBB272A1B3B0B2C9D51
:10134000D0012D9DB00D3C9DB00D11242B2F62308E
:101350007105A1F050F46115710509F481CF613078
:10136000710581F0292FF52F7BCF6430710569F06D
:1013700080F06630710509F473CFF4CF2E2FE92F7A
:10138000FB2F6ECF2E2FE52F6BCF292FFE2FEB2FAC
:1013900067CFE92FF92D252F63CF1196EC93119785
:1013A0002C931296FC9312978F5F139665CFEFE400
:1013B000F5E0438121E1421B08F440E021E0628135
:1013C00081810E94F9080895EFE4F5E0438121E16D
:1013D000420F08F44FEF21E0628181810E94F908F9
:1013E0000895EFE4F5E0628121E1621B08F460E01A
:1013F00021E0438181810E94F9080895EFE4F5E03E
:10140000628121E1620F08F46FEF21E04381818165
:101410000E94F9080895EFE4F5E0818121E043811D
:10142000628188500E94F9080895EFE4F5E0818117
:1014300021E043816281885F0E94F90808958091CC
:101440005305882319F081508093530560914F050F
:101450007091500580915105909152050E94E608C7
:10146000089580915305833018F48F5F809353055E
:1014700060914F05709150058091510590915205F2
:101480000E94E608089580914F0580FF1EC081707C
:10149000826080934F05809176048160809376040A
:1014A000662351F060914F05709150058091510570
:1014B000909152050E94E60820E04091520560910B
:1014C0005105809150050E94F908089580914F05BB
:1014D0008695815009F481E061E00E94430A0895F5
:1014E00061E081E00E94430A0895EFE4F5E083E0C3
:1014F000808311828FEF828388E783831482A4E73D
:10150000B4E012968C911297836012968C9360814E
:101510007181828193810E94E6080895A8E0B0E07D
:10152000E4E9FAE00C94BA2185E0EFE4F5E0DE01AD
:10153000119601900D928A95E1F780917404909133
:101540007504A09176048E839F83A8872885409197
:1015500013025091140260911502709116023FB768
:10156000F89480915D0590915E05A0915F05B09122
:1015700060053FBF841B950BA60BB70B8436910506
:10158000A105B10510F4222319F180912901909150
:101590002A0181509E4F4091280150E04930510569
:1015A00010F048E050E0BE016F5F7F4F0E940822BC
:1015B00085E090E00E942021882369F00E94AD031D
:1015C0006093130270931402809315029093160295
:1015D0001092760481E02896E2E00C94D621A4E0F3
:1015E000B0E0E5EFFAE00C94B8214091FB01509196
:1015F000FC016091FD017091FE012FB7F89480917C
:101600005D0590915E05A0915F05B09160052FBFCB
:10161000841B950BA60BB70B11E084369105A10531
:10162000B10590F10E944508882399F10E94AD030D
:101630006E5F7F4F8F4F9F4F69837A838B839C832D
:10164000809121019091220181509E4F4091200173
:1016500050E04530510510F044E050E0BE016F5FAE
:101660007F4F0E94082284E090E00E942021182FE2
:10167000882351F00E94AD036093FB017093FC013D
:101680008093FD019093FE01812F2496E4E00C9459
:10169000D4210E94AD0300911802109119022091EB
:1016A0001A0230911B02600F711F821F931FC0CF5F
:1016B0004F925F927F928F929F92AF92BF92CF9202
:1016C000DF92EF92FF920F931F93CF93DF930F92CE
:1016D000CDB7DEB7C62E4A015901482E880F5508EE
:1016E000C2010E942021782E882309F480C0C20103
:1016F00033E0880F991F3A95E1F7FC01E050FF4F66
:10170000438150E04115510511F041E050E0805017
:101710009F4FFC016481758161507E4FCE0101961F
:101720000E940822F40140815181628173812FB7A8
:10173000F89480915D0590915E05A0915F05B09150
:1017400060052FBF841B950BA60BB70B8436910544
:10175000A105B10540F4B701C8010E94D3039981E6
:10176000891709F444C00C2C000CDD08C6010E9446
:101770002021782E811113C0712C872D0F90DF91BD
:10178000CF911F910F91FF90EF90DF90CF90BF907E
:10179000AF909F908F907F905F904F900895C6017B
:1017A00023E0880F991F2A95E1F7FC01E050FF4FD5
:1017B000438150E0E416F50608F4A70180509F4FDE
:1017C000FC016481758161507E4FC5010E94082231
:1017D000B701C8010E94D30399818913CDCF0E941C
:1017E000AD03F4016083718382839383C6CFA70125
:1017F000B801C5010E940822C0CFA1E0B0E0E3E03B
:10180000FCE00C94B621EE24E394F12C06E012E007
:101810009E012F5F3F4F47EF51E063E082E00E945F
:10182000580B182F882369F040911C0250911D021B
:10183000DE01119690E020E0941308C021110E946F
:101840002006812F2196E6E00C94D2218D91E52F80
:10185000E90FF0E0EC5BFD4F3081831B382F13164E
:1018600044F0382F87FD30E0831B811108C09F5F53
:10187000E3CF315020812F5F2083212FF0CF8F5F66
:10188000208121502083212FF0CFA5E0B0E0EBE4B0
:10189000FCE00C94B4216B0185E0E82EF12C00E013
:1018A00012E09E012F5F3F4F43EF51E061E080E087
:1018B0000E94580B882349F095E0FE013196AEEE68
:1018C000B1E001900D929A95E1F795E0EEEEF1E02E
:1018D000D60101900D929A95E1F72596E8E00C94D7
:1018E000D0218091DD019091DC01892B80937201E0
:1018F0009091DE01992391F0892B8093720120E071
:1019000084E791E0FC013191CF0131112F5FF1E0CB
:101910008A379F07B9F721110E94230648E050E05B
:1019200064ED71E082E791E00E94FB21892BA9F030
:1019300088E0E2E7F1E0A4EDB1E001900D928A9534
:10194000E1F7E0915A05F0915B05309731F00280A4
:10195000F381E02D82E791E0099508951092DD0171
:10196000E4E7F1E086E0DF011D928A95E9F7109245
:10197000DC010E94710C0895AAE2B0E0E2ECFCE008
:101980000C94B9218FE695E02091F100FC012193A0
:10199000CF01F5E087379F07B9F780917005833055
:1019A00009F470C0B8F4813009F447C0823009F4FA
:1019B000B1C08091E80083FF64C280916F0590916F
:1019C00070059A3008F05DC2E92FF0E0E55AFD4D50
:1019D0000C94F5218A3009F48CC08B3009F46FC067
:1019E000893039F780916F05813219F7809173053D
:1019F00090917405892BE9F68091E800877F8093A8
:101A0000E8008091E80082FF38C09091F300809157
:101A1000F200029731F48091F100813011F08630AC
:101A200021F48091F100809363058091E8008B7729
:101A30008093E8000E942B03BCCF80916F05813A10
:101A400009F0B7CF8091E800877F8093E80080910C
:101A5000730590917405892B61F468E084E695E044
:101A600070E00E944A038091E8008B778093E80041
:101A7000A0CF60E090E080E0F3CF80917705811106
:101A8000C0CF97CF80916F05813A09F092CF8091B6
:101A9000730590917405892B09F08BCF8091E80034
:101AA000877F8093E8008091E80080FFFCCF8091E1
:101AB00047018093F1008091E8008E77B9CF809143
:101AC0006F05813209F075CF80917305909174058F
:101AD000892B09F06ECF8091E800877F8093E80022
:101AE0000E942B0380917105809347010E94AE0CE8
:101AF00060CF80916F05813209F05BCF8091E80063
:101B0000877F8093E8000E942B0380917205809369
:101B100062054FCF80916F05813A09F04ACF8091DD
:101B2000E800877F8093E8008091E80080FFFCCF89
:101B300080916205BECF803899F0823809F0A1C14A
:101B4000809173058F70873008F09BC18093E90006
:101B50008091EB0085FB882780F91092E90006C090
:101B600080916C0590916D05911182609091E800D3
:101B7000977F9093E8008093F1001092F10080919C
:101B8000E8008E777AC1882309F468C1823009F0B1
:101B900078C18091710581116BC1809173058F703F
:101BA0002FEF280F263008F06CC18093E9002091B8
:101BB000EB0020FF5DC1933031F48091EB00806237
:101BC0008093EB0055C19091EB0090619093EB00F6
:101BD00021E030E001C0220F8A95EAF72093EA0065
:101BE0001092EA008091EB008860EACF811149C130
:101BF000109171051F778091E3008078812B80938D
:101C0000E3008091E800877F8093E8000E942B0327
:101C10008091E80080FFFCCF8091E3008068809392
:101C2000E30082E0111183E0809377052AC1805898
:101C3000823008F026C180917105909172058C3D2B
:101C400023E09207A1F583E08A838AE289834FB774
:101C5000F894DE01139620E03EE051E2E32FF0E03D
:101C600050935700E49120FF03C0E295EF703F5F6F
:101C7000EF708E2F90E0EA30C0F0C7968D939D9361
:101C80002F5F243159F74FBF8091E800877F809301
:101C9000E8006AE270E0CE0101960E944A0380915A
:101CA000E8008B778093E800ECC0C096E7CF4091C6
:101CB000730550917405292F33272330310509F41A
:101CC0003FC078F52130310509F466C082E290E02A
:101CD000E0EFF3E02230310509F0D3C02091E800B5
:101CE000277F2093E80020917505309176058217B3
:101CF000930708F49C0140E02115310509F051C01B
:101D000041114FC08091E80082FDC9CF80917705D5
:101D1000882329F2853019F28091E80083FFF2CF01
:101D2000BECF2132310581F12232310509F0A9C03F
:101D3000452B09F0A6C080E490E0E0EBF3E0CECFC5
:101D4000992781309105C1F0009759F0029709F069
:101D500098C0E4E2F4E0E4918E2F90E0E4E2F4E055
:101D600007C0ECE5F4E0E4918E2F90E0ECE5F4E0C0
:101D7000009709F0B3CF85C0E2E4F4E0E4918E2F40
:101D800090E0E2E4F4E0F4CF452B09F07AC089E07A
:101D900090E0E2E0F4E0A2CF82E190E0E2E1F4E062
:101DA0009DCF80917705882309F479CF853009F498
:101DB00076CF8091E80083FD72CF8091E80082FDAC
:101DC000A1CF8091E80080FF97CF9091F3008091A0
:101DD000F2002115310519F08830910550F041E0ED
:101DE000089709F040E08091E8008E778093E80042
:101DF00083CF44914093F1003196215031090196EF
:101E0000E8CF8038F1F58091E800877F8093E80083
:101E100080916E058093F100B2CE811132C0109195
:101E20007105123070F58091E800877F8093E8009B
:101E300010936E050E942B03112311F084E005C05E
:101E40008091E30087FDFACF81E08093770561EC14
:101E500081E00E944F028091770513C08091710547
:101E6000813079F481E0933009F080E080936D0552
:101E70001092E9008091E800877F8093E8000E943B
:101E80002B038091E80083FF0AC08091E800877FE0
:101E90008093E8008091EB0080628093EB00AA962B
:101EA000E3E00C94D5210E94AE0C2FEF84E39CE07C
:101EB000215080409040E1F700C0000088E19AE0A6
:101EC0000FB6F894A895809360000FBE90936000C1
:101ED000FFCF882321F00E9429060E94710C0895EB
:101EE000882339F09091DD01982B9093DD010E94B9
:101EF000710C0895882391F09CEF980F913A78F433
:101F0000E4E7F1E09191891303C0DF0111971C927E
:101F100091E0EA37F907B1F70E94710C089590E259
:101F2000980F9830D8F7877091E001C0990F8A9583
:101F3000EAF7892F0E942906EFCFCF93C82F882375
:101F4000A9F08CEF8C0F813A00F5E4E7F1E0DF01B6
:101F50008D91C81769F081E0AA37B807C9F76C2FCF
:101F600082E791E00E94B9030E94710CCF9108951D
:101F70008191C81303C0DF0111971C9281E0EA37F9
:101F8000F807B1F70E94710CEACF80E28C0F88301D
:101F900068F7C77021E030E001C0220FCA95EAF768
:101FA0008091DD01822B8093DD01DECF90912D02A7
:101FB00092FB222720F9281779F080FB92F9909361
:101FC0002D0260912C0270912D0284E090E00E941D
:101FD000432282E00E941B07089567EE7EEF90E0A7
:101FE00080E00E94432260E082E090E00E9425228F
:101FF00060E083E090E00E9425221092E0011092C0
:10200000DF0160E074E184E090E00E94432260E040
:1020100086E090E00E9425226FEF87E090E00E942A
:10202000252240E050E0BA0188E090E00E9437228B
:1020300060E08DE090E00E94252240E050E0BA018F
:1020400088E190E00E94372260E087E190E00E9402
:10205000252240E050E0BA018CE190E00E94372256
:1020600070E060E080E290E00E94432240E050E0B7
:10207000BA0188E190E00E94372240E050E0BA01C6
:102080008FE090E00E94372240E050E0BA0183E107
:1020900090E00E94372208951F920F920FB60F9280
:1020A00011242F933F934F935F936F937F938F935D
:1020B0009F93AF93BF93CF93DF93EF93FF93D09111
:1020C000E900DF708091EC00C82FC17080FDC0E88E
:1020D0001092E9008091F000877F8093F00078945F
:1020E0000E94BC0C1092E9008091F00088608093FF
:1020F000F000CD2BCF70C093E900FF91EF91DF91FD
:10210000CF91BF91AF919F918F917F916F915F918F
:102110004F913F912F910F900FBE0F901F901895E8
:102120001F920F920FB60F9211242F933F934F934C
:102130005F936F937F938F939F93AF93BF93EF932F
:10214000FF938091E10082FF09C08091E20082FF4D
:1021500005C08091E1008B7F8093E1008091DA00DF
:1021600080FF24C08091D80080FF20C08091DA00D9
:102170008E7F8093DA008091D90080FF9CC080E13F
:1021800089BD82E189BD09B400FEFDCF81E0809365
:10219000770580916105811109C00E9481020E942A
:1021A000A0028091E20084608093E2008091E100CF
:1021B00080FF17C08091E20080FF13C08091E20091
:1021C0008E7F8093E2008091E20080618093E20044
:1021D0008091D80080628093D80019BC85E08093FC
:1021E00077058091E10084FF2BC08091E20084FF9D
:1021F00027C080E189BD82E189BD89B5982F9170A2
:1022000080FFFBCF8091D8008F7D8093D800809194
:10221000E1008F7E8093E1008091E2008F7E8093C9
:10222000E2008091E20081608093E20080916E057F
:10223000882309F446C084E0809377058091770570
:102240008091E10083FF26C08091E20083FF22C0DD
:102250008091E100877F8093E10082E080937705A1
:1022600010926E058091E1008E7F8093E100809155
:10227000E2008E7F8093E2008091E2008061809393
:10228000E20060E080E00E944F028091F0008860F0
:102290008093F000FF91EF91BF91AF919F918F914B
:1022A0007F916F915F914F913F912F910F900FBE52
:1022B0000F901F90189519BC109277051092610528
:1022C00075CF8091E30087FD93E090937705B6CFBB
:1022D00078941F921FB61F9211248F939F93AF93F0
:1022E000BF9380915D0590915E05A0915F05B091CF
:1022F00060050196A11DB11D80935D0590935E055B
:10230000A0935F05B0936005BF91AF919F918F91AE
:102310001F901FBE1F9018959C014FB7F894809195
:102320005D0590915E05A0915F05B09160054FBF7E
:10233000821B930B08952FB7F89480915D059091BF
:102340005E05A0915F05B09160052FBF08950F93C2
:102350001F93CF93DF93C62FD42F022FFC018281CE
:102360008823A9F060937A050E949B1190937905C8
:1023700080937805C77081E001C0880FCA95EAF79D
:102380000E94700FDF91CF911F910F91089580915E
:102390007A05681335C080917805909179050E947F
:1023A0008C11883C910560F510E21D0FCD17B9F036
:1023B00080E28C0F883040F4C77081E001C0880F44
:1023C000CA95EAF70E94690F183048F481E09D2F02
:1023D000977001C0880F9A95EAF70E94700F802FBE
:1023E0000E949D0F802F0E947A0F183058F6D770E8
:1023F00081E001C0880FDA95EAF70E94690FC2CF29
:10240000C77081E001C0880FCA95EAF7F6CFA5E052
:10241000B0E0EDE0F2E10C94B0217C01FC0183819D
:102420009481892B31F08081918189238F3F09F03C
:10243000FEC32596ECE00C94CC210E945A06182F7E
:10244000682F89819A810E94CE0669817A81812FC5
:102450000E9403058C01FC01E851FC47E730F105BF
:1024600088F5EB59FD4D0C94F52126E241EE61EE25
:10247000C7010E94A7118091D3018770D1F2F701A3
:1024800082818823B1F280912D0282FFD2CF82E037
:102490000E941B07CECF27E245EE65EEE9CF26E28C
:1024A00041EE60EEE5CF27E245EE64EEE1CF26E2B5
:1024B00041EE62EEDDCF27E245EE66EED9CF28E2AF
:1024C00041E0EBCFF7018281882309F4D7C3109252
:1024D0007A05C8019057839708F0BAC384E090E06A
:1024E0000E941F2290932D0280932C02F801E1504C
:1024F000F047E232F10520F4E459FD4D0C94F5214A
:1025000080912C02816080932C0295C080912D02D5
:10251000886080932D028FC080912C028260F3CF5F
:1025200080912C028460EFCF80912C028860EBCFE9
:1025300080912D028160EDCF80912D028260E9CFE4
:1025400080912C028061DFCF80912C028062DBCFF2
:1025500080912C028064D7CF0E94AE0C80912C0217
:102560008068D1CF80912C028C60CDCF80912D02DC
:102570008360CFCF80912C028E7FC5CF80912D02BA
:10258000877FC7CF80912C028D7FBDCF80912C0299
:102590008B7FB9CF80912C02877FB5CF80912D02A0
:1025A0008E7FB7CF80912D028D7FB3CF80912C028B
:1025B0008F7EA9CF80912C028F7DA5CF80912C0298
:1025C0008F7BA1CF0E94AE0C80912C028F779BCF86
:1025D00080912C02837F97CF80912D028C7F99CFA1
:1025E00080912C0282FB992790F921E0922790FBA1
:1025F00082F990FB83F987CF80912D02982F9095D7
:1026000091708E7F892B90FB81F983CF90912C0262
:10261000892F8F7B96FF806476CF0E94AE0C9091BD
:102620002C02892F97FB87F980586DCF61E08EE0EF
:1026300090E00E94252260912C0270912D0284E08E
:1026400090E00E9443220E94AE0C15CF60E0EFCFD5
:1026500090912C02892F8F7E94FF806154CF9091AE
:102660002C02892F8E7F90FF81604DCF90912D029B
:10267000892F877F93FF88604CCF80917A018111E9
:102680000FC089E2E4E7F1E02AE731E09191891394
:1026900003C0DF0111971C922E173F07B9F7EBC259
:1026A00085E3F0CF80914F0580FF15C08E7F80932A
:1026B0004F0560914F0570915005809151059091A3
:1026C00052050E94E608809176048160809376042A
:1026D0000E94C707D0CE816080934F0561E0869548
:1026E0000E94430AC8CE46E65AE060E77AE00E94BC
:1026F000E903C1CE40E75AE066E67AE0F8CF4BE066
:102700005AE065E17AE0F3CF45E15AE06BE07AE028
:10271000EECF41EF59E06EEF79E0E9CF4EEF59E0AF
:1027200061EF79E0E4CF47ED59E064EE79E0DFCF87
:1027300044EE59E067ED79E0DACF4FE15AE061E32A
:102740007AE0D5CF41E35AE06FE17AE0D0CF61E0A3
:1027500081E0C6CF0E94AE0CFFEF24E33CE0F150D5
:1027600020403040E1F700C0000087E797E79093F2
:1027700001088093000888E19AE00FB6F894A895C4
:10278000809360000FBE90936000FFCF6FEF7FEFEC
:1027900090E080E00E9443220E94530F80912D021E
:1027A00082FB882780F991E089270E94D60FF701E4
:1027B000828100811181882309F44AC0C8010E94E6
:1027C0005A06D82E682FC8010E94CE06B8018D2D5A
:1027D0000E9403050E942205B82E192F882EF701AA
:1027E000A280958092949FE099228091D301877076
:1027F000F1F0DA2CAA20E1F0812F807F803451F0B3
:1028000080E28B0D883098F0911004C0812F807E7B
:10281000803269F080912D0282FF09C082E00E941F
:102820001B078091D3018770DD24D3948111D12CB3
:10283000C12EC2948FE0C822FBE0FC1508F471C0E1
:10284000EC2DF0E0E257FD4D0C94F52180E0ADCF8A
:10285000C8010E949B06D82EB9CF012F0F70107FA0
:1028600011F00295007FAA20B9F0002369F080E200
:102870008B0D883010F0811009C08091DD01082B8C
:102880000093DD010E94710C8B2D49C08091DC0109
:10289000082B0093DC01F6CF8B2D0E947A0F0023CA
:1028A00009F43FC080E28B0D883010F0811004C025
:1028B000802F0E94290606C000958091DC01082324
:1028C0000093DC010E94710C2CC0012F0F70107F4F
:1028D000103211F00295007F882089F021E08216E5
:1028E00009F47CC0AA2009F486C0992009F47CC0B0
:1028F000F701858180FFC8CF8F70858375C02091D7
:102900002D0222FD43C0AA20D9F1002339F0809185
:10291000DD01082B0093DD010E94710C80E00E9414
:102920009D0FEC2DE850FF0B349710F40E946808BF
:10293000DD20A9F08091D30180FD11C0F701128242
:102940008595859585950E943707C7010E940712D6
:102950008091D3018595859585950E94090785E02D
:10296000F701DE01119601900D928A95E1F7098138
:102970001A81C8010E949B06B8010E94030559CD27
:1029800080E00E947A0F002361F292CFAA20A1F08A
:102990009091DE01802F892B911003C00E94700F4F
:1029A000C0CF31E09312FACF22FFBBCF891709F4D1
:1029B000B8CF8093DE01B5CF911006C00E942306E8
:1029C000802F0E94690FADCF81E0981609F4A9CF3E
:1029D000802F0E94690F0E942306A3CFAA2031F006
:1029E00095E0991508F49DCF802FD8CFE4E0E91544
:1029F00008F497CFE5CF992019F3F9E38F1210C1AE
:102A00002FEF37EE83E0215030408040E1F700C0E7
:102A1000000006C1812F837009F03FC0A11081CF53
:102A20004B2D429546954770440F440F8B2D8F7068
:102A300090E0042E02C0880F991F0A94E2F730E05C
:102A400020E0B4FE09C02FE030E002C0220F331FA7
:102A50004A95E2F720953095169516951370123029
:102A600099F078F44091DF015091E001113039F094
:102A7000822B932B842395230E94470752CF842BCC
:102A8000952B822B932BF8CF822B932B2091DF0158
:102A90003091E00182279327EFCF8695AA2011F08D
:102AA000812F8170882309F43CCF4B2D42954695A8
:102AB0004770440F440F8B2D8F7090E0042E02C09E
:102AC000880F991F0A94E2F730E020E0B4FE09C0B5
:102AD0002FE030E002C0220F331F4A95E2F7209525
:102AE0003095169516951370123099F078F4409140
:102AF0002A0250912B02113039F0822B932B842320
:102B000095230E9404070DCF842B952B822B932BAA
:102B1000F8CF822B932B20912A0230912B0282270F
:102B20009327EFCF1F70AA2029F0812F0E9437072B
:102B30008B2D34CF8B2D0E94690F812F0E940907A6
:102B4000F0CE8B2D92EF891699F1981570F0E0EF89
:102B50008E16D1F0F1EF8F1691F0AA2009F45BC028
:102B6000911092CE812F8F7127C023EF821639F1F9
:102B700034EF8312F2CF80912D0282FD2EC0812F7F
:102B80008F71AA20D9F218C0AA2069F084E08915B3
:102B900008F4C7CE1F7181E090E002C0880F991F32
:102BA0001A95E2F7B8CF95E0991508F4BACEF2CFAE
:102BB000812F8F71A110C2CF0E943707B2CE90E053
:102BC00080E0AA2009F49DCF1F7181E090E002C04F
:102BD000880F991F1A95E2F794CFAA2089F01F71E8
:102BE000812F0E94370780912D0282FF07C0E8E005
:102BF0001E9FC001112483608093D301812FDCCFFD
:102C000081E00E941B07F1E0F91508F08ACE82E00E
:102C10000E941B0786CE992039F0893309F4F0CE43
:102C20008B2D0E947A0F7DCE812F8F7187CF85E00B
:102C3000DE01119601900D928A95E1F7F70122814C
:102C400089819A812111F9CB0E949B06182FFDCB17
:102C50000631FCE71F0729F58091DD018A7A91E0B2
:102C600009F490E090937A0169E2811165E382E7CB
:102C700091E00E94B9030E94710CFDCB06312CE754
:102C8000120709F4FACC8091DD018272F801E0525A
:102C9000F847E531F10508F08ACDE656FD4D0C9474
:102CA000F52103303CE7130709F470CD50F401150A
:102CB0009CE7190709F44ECD01301C4709F46CCD8F
:102CC00076CD0B35FCE71F0709F4C0CD0C352CE79A
:102CD000120709F463CD0A351C4709F068CD81E07D
:102CE00064CD1F93CF93DF938091A001807F09F083
:102CF0004BC080919D01882309F446C08091D20188
:102D0000C091A10140919B0150919C0160919E0155
:102D100070919F01D42FD52316E0C817A9F190E038
:102D200061157105A9F1DF3F99F1189FF001199F15
:102D3000F00D1124DF01AE55BE4F11962C91119765
:102D4000251326C02C91241323C012962C91129780
:102D500021111EC013962D913C91261B370B283C48
:102D60003105B0F48091A0018F7080618093A00143
:102D7000E955FE4F80818F70806180838BE991E0FF
:102D80000E9407120E945006DF91CF911F91089573
:102D900001968770C2CFA1E1B0E0E1EDF6E10C94BD
:102DA000B0218C0185E0F801DE011D9601900D92A5
:102DB0008A95E1F7F801E2808BE9882E81E0982E70
:102DC00040919E0150919F014115510509F430C178
:102DD00090919B0120919C01892F82238F3F09F4C0
:102DE00027C1D080C180A380B480F0909D01B5013F
:102DF000641B750BFF2009F4E7C08091A001382FF8
:102E0000307F683C710508F0ABC0311178C0FE2CF2
:102E10002C1114C09D1112C0E11010C08F70806180
:102E20008093A001C4010E9407128091A001F801C3
:102E300085838F2D6196ECE00C94CC21A114B10414
:102E4000C9F18D2D8C218F3FA9F181E08E2580FF66
:102E500005C04E2D6C2D8D2D0E943006A114B1049D
:102E600059F18D2D8C218F3F39F181E08E25F82F7E
:102E7000F170BF2E80FF39C04E2D6C2D8D2D0E941C
:102E80003006A82E811131C0DD86CE868D859E85C7
:102E90000E948E06292F22952F70243078F49F707F
:102EA0002230A8F09923B9F0F8019581907F99F428
:102EB000FA2CBFCF80E0CBCF80E0D9CF2A5F2F7034
:102EC000223068F0C8010E940712AB2CF1CF992381
:102ED00011F0882369F3805E883050F3F3CF803F90
:102EE00038F3815F833070F7E3CFEE2009F4A1CF90
:102EF0008091A00181608093A001F12C9ACF2C11C8
:102F000005C09D1103C0EE2009F477C0C8010E94DE
:102F10004C07882309F1EE20F9F08091A00180325E
:102F200070F020919B0130919C0138872F83198686
:102F3000BB86AA868C87CE0107960E94071286E080
:102F4000F801ABE9B1E001900D928A95E1F70E949A
:102F50007116FF24F3946DCFC8010E940712F9CFB8
:102F600031110AC08BE991E00E94071286E0F4015A
:102F700011928A95E9F7C1CF2C110EC09D110CC09A
:102F8000E1100AC08583C8010E94071286E0F4019F
:102F900011928A95E9F74DCFC8010E944C0788230A
:102FA000D9F2EE20C9F28091A001803240F2209146
:102FB0009B0130919C013A8329831B82BD82AC82A4
:102FC0008E83CE010196B9CF683C7105F8F6FE2CD0
:102FD000EE2011F22C111EC09D111CC08091A00189
:102FE00080FD0FC0982F907F61F08583903F31F076
:102FF000982F907F905F8F70892B8583C8010E94E6
:10300000071286E0F801ABE9B1E001900D928A95D4
:10301000E1F70FCFC8010E944C07811190CF80913A
:10302000A00181608093A001C8010E94071201CF16
:10303000EE2009F491CFC8010E944C07F82E882396
:1030400009F48ACF86E0F801ABE9B1E001900D9276
:103050008A95E1F780919B0190919C010E948E06D8
:103060000E947116E6CEA7E1B0E0E9E3F8E10C9426
:10307000B9214B8B5C8B6D8B7E8B8F8B611110928A
:10308000DC011A8A198A85E0FE017396DE011D961D
:1030900001900D928A95E1F786E0FE013D96DE01F2
:1030A000179601900D928A95E1F7CE0107960E943E
:1030B000CB16811112C086E0FE013796DE01119613
:1030C00001900D928A95E1F78A859B85892B29F0DD
:1030D00088859F8189238F3F81F516E08091D201F9
:1030E0009091A101891317C06796E3E00C94D52154
:1030F00096E0929FD001939FB00D1124AE55BE4F24
:10310000FE01319601900D929A95E1F78093A1010D
:103110000E945006E2CF819FC00111248E559E4F20
:103120000E94CB16882301F38091D20190E0019692
:10313000877099278093D201D1CF2091A10130E0EF
:10314000C9010196877099274091D2014817190645
:1031500079F60E94AE0C1092A1011092D20186E085
:10316000EBE9F1E0DF011D928A95E9F7B6CFA2E124
:10317000B0E0EDEBF8E10C94AF218E010F5F1F4F33
:103180008AE0D8011D928A95E9F78AE4C82E81E089
:10319000D82EF12CE12CAA24A394B12C25E5822E63
:1031A00021E0922EF60181916F018F3F09F442C018
:1031B000F894E82FE295EF70F0E021A18F70A5015F
:1031C00002C0440F551F8A95E2F7CA01922F982B2F
:1031D00091A392A18095892382A3789400C0EFE403
:1031E000F1E0712C31E021912F3F09F46BC0A22F47
:1031F000A295AF70B0E090968C9190E02F7002C0D5
:10320000959587952A95E2F780FD5CC0832F782AF3
:10321000330F8E169F0639F7F601319780818F3F65
:1032200011F00E94070450EA5A95F1F7F801EE0DEB
:10323000FF1D70828FEFE81AF80A95E0E916F10495
:1032400009F0B0CF4AE050E0B8018EE192E00E9470
:10325000FB21009741F02AE0F801AEE1B2E00190D5
:103260000D922A95E1F700912902892B69F181E0FD
:103270008093E5010E949B119093E4018093E30108
:103280008091E3019091E4010E948C11059700F177
:1032900010E0015D1D4F45E050E06EE172E0C801B5
:1032A0000E94FB21D12C892B51F085E0EEE1F2E068
:1032B000D80101900D928A95E1F7DD24D394109204
:1032C000E50107C080E0A3CF8091E5018111D8CF4F
:1032D000D12C0E944508C82EE0912902DE011B96E0
:1032E0007D01882309F47AC085E01D928A95E9F76B
:1032F0000E2F10E0015D1D4F809117028A30D8F526
:1033000045E45CE0B701C8010E941208882309F473
:1033100054C04DEF5BE0B701C8010E94120888233A
:1033200009F44BC04FEE5AE0B701C8010E941208E1
:10333000882309F442C04EE85AE0B701C8010E9450
:1033400012088823D1F1109217028091280290E090
:1033500045E050E0B701815D9D4F0E94FB2121E0D7
:103360002093EC01892BE1F4C12C8C2D8D296296E0
:10337000EDE00C94CB218091E6019091E7010E9451
:103380008C11843F914008F0BBCF8091EC018823E1
:1033900059F385E0F70111928A95E9F71092EC0153
:1033A000A0912802B0E0A15DBD4F85E0FE013B96F3
:1033B00001900D928A95E1F7D8CF809117028F3F47
:1033C00031F08F5F809317028A3008F4BECF0E94DD
:1033D0009B119093E7018093E601D7CFF0E0E15D88
:1033E000FD4F85E0A0E0B2E001900D928A95E1F7F3
:1033F00065E070E080E092E00E94D3038093FF01DB
:103400004091490250E06091480270E06C5B7D4F52
:10341000C7010E9408228B858093060261E070E05C
:10342000C7010E94D3038093050280900702909009
:103430000802A0900902B0900A028091E8019091E0
:10344000E901A091EA01B091EB0188169906AA065C
:10345000BB06D1F08092E8019092E901A092EA01C6
:10346000B092EB010E94450881110EC00E94AD038D
:10347000861A970AA80AB90A80921802909219022D
:10348000A0921A02B0921B0288E0EBE0F2E0DE01AB
:103490001B9601900D928A95E1F72B85822F8695D8
:1034A0000C85FD84EE841A8910921202112309F40E
:1034B0005CCF10FF0AC090914F0520FF0FC09160B4
:1034C00090934F0560E00E94430A11FF4ECF20E029
:1034D0004E2D6F2D802F0E94F90847CF9E7F90932D
:1034E0004F05809176048160809376040E94C7071F
:1034F000ECCFA5E0B0E0EFE7FAE10C94B8210E9430
:103500009B118C018091E1019091E201801791075C
:10351000A1F08FEF89838A831B820E949B118160B7
:10352000782F9D838C8349815A816B818D810E9484
:1035300033181093E2010093E1012596E4E00C9426
:10354000D4211F921FB61F9211248F939F93AF9384
:10355000BF9380915C05811113C080915D059091AE
:103560005E05A0915F05B09160054196A11DB11D5A
:1035700080935D0590935E05A0935F05B093600511
:10358000BF91AF919F918F911F901FBE1F90189573
:1035900000D000D000D00F92CDB7DEB785B78068DD
:1035A00085BF85B7806885BF84B7877F84BF0FB626
:1035B000F894A895809160008861809360001092D3
:1035C00060000FBE80E890E00FB6F8948093610031
:1035D000909361000FBE85E094E090937101809319
:1035E00070010E9481020E94A0028091E20084602A
:1035F0008093E2007894809177058823A1F0109160
:10360000E9001F709091EC00892F817090FD80E897
:10361000182B1092E9008091E80083FD0E94BC0CF9
:103620001F701093E90082E084BD93E095BD9AEF8E
:1036300097BD80936E00109218021092190210929A
:103640001A0210921B020E9445088093300180915B
:103650003001882309F461C01092420184E2809312
:1036600043010E94450881110E943420909130014D
:1036700081E0982790934802282F291B20931D0250
:1036800090913001809349029091300180931C0207
:1036900080913001811106C084E980933A0185EF61
:1036A0008093390120913A01E22FE295EF70F0E02A
:1036B00061A12F7081E090E0AC0101C0440F2A9518
:1036C000EAF7342F3095362331A322A1242B22A3ED
:1036D00020913901E22FE295EF70F0E031A12F70D7
:1036E00001C0880F2A95EAF7982F9095932391A30C
:1036F00092A1892B82A38FE891E00197F1F700C096
:103700000000109149026AE472E04AE351E089E363
:10371000E82E81E0F82EFB012CC084E28093420168
:103720009ECFDA012D91AD01822F82958F7090E0AE
:10373000DC0190968C9190E02F7002C09595879552
:103740002A95E2F78170D7019D917D01292F22955D
:103750002F7030E0D90190962C9130E09F7002C01C
:10376000359527959A95E2F790E020FD92E0892B18
:1037700081938E2F861B8117A0F28091300180915A
:10378000300195E0811190E09093290285E0891B3A
:10379000809328020AE411E0F80181918F018F3FA4
:1037A00011F00E940704F1E00F341F07A9F70FE49E
:1037B00011E0D8018D918D018F3F11F00E94070417
:1037C000B1E005351B07A9F78AE0EFE2F2E0DF017F
:1037D000282F1D922A95E9F7EEE1F2E0DF011D9214
:1037E0008A95E9F790E080E00E941F22873E9E4F75
:1037F00011F00E94ED0F82E090E00E941122809370
:10380000390284E090E00E941F2290932D02809361
:103810002C0283E090E00E94112290E00E94470772
:1038200010926D0480E880934C020E94EE1E6DE0C1
:1038300070E08FE992E00E947908892BC9F58091A8
:103840006D0463E070E081FDD3C08CE992E00E94DA
:103850007908892B69F56DE070E08CE892E00E94B0
:103860007908892B29F50E94AD03605A75418F4F65
:103870009F4F609354057093550580935605909320
:103880005705EDE6F2E080E092E0DF019C011D9239
:1038900021503040E1F78FEF9FEF909370048093B9
:1038A0006F0481E0809359058093580510926E044F
:1038B00080912E02811139C090E080E00E941F2289
:1038C000873E9E4F21F00E94ED0F0E94750A88E00E
:1038D00090E00E94192260934F05709350058093E9
:1038E000510590935205809176048360809376040D
:1038F0006E7F71F40E94750A88E090E00E941922A0
:1039000060934F0570935005809351059093520535
:103910000E94EF0380914F0580FF04C060E0869510
:103920000E94430A81E080932E020E944508811183
:1039300002C00E94372081E391E090935B05809361
:103940005A0570E4672E8091770500E112E1853019
:1039500009F489C00E94B7185AE3E52E52E0F52E0B
:103960006FE2C62E62E0D62ED601F70191918D91BD
:1039700022E0E434F20709F480C09817B9F30E94FA
:103980004508882E10E0D6010D916D01F701919048
:103990007F01901629F1B12CAA24A3949026892D99
:1039A0008A21B1F08820A1F0B9821A8391E08A2D92
:1039B000802309F490E09B830E949B118160782F03
:1039C0009D838C8349815A816B818D810E9433183C
:1039D000B394AA0CF6E0BF12E2CFF701319700834F
:1039E0001F5F1A3081F60E94AD03EE24E3944AC0B3
:1039F00089E992E02CCF80917705843029F10E94EB
:103A0000A30810925C0588E190E00FB6F894A895A1
:103A1000809360000FBE6092600083B7817F8460F6
:103A200083BF83B7816083BF7894889583B78E7F87
:103A300083BF0FB6F894A895809160008861809349
:103A40006000109260000FBE80916D05882359F0D0
:103A50000E94B718EFE2F2E081918111A9C192E0D2
:103A6000E933F907C9F780917705853009F4C3CFA9
:103A70000E94AE0C0E9468086DCF981380CF0E9400
:103A8000791AE12C0E944508D12CF12C8091490231
:103A9000D81608F446C0F1100E94200680915905FE
:103AA000882371F180917104909172040E948C11AD
:103AB000C29730F00E949B1190937204809371041E
:103AC00080916F0490917004892B09F097C08091C8
:103AD00058058823A9F00E94AD0300915405109168
:103AE00055052091560530915705601B710B820BCF
:103AF000930B6F3F7F4F8F4F9F4710F40E94A30897
:103B0000E11001C0F1100E94BE080E946808909167
:103B10007304891709F417CF809373040E94AD03CF
:103B200012CF0D2D10E0F801E65CFE4F8081E82FEA
:103B3000E295EF70F0E0E0A1F0E08F7002C0F59543
:103B4000E7958A95E2F7E170D801A75CBE4F2C910A
:103B5000A22FA295AF70B0E090968C9190E02F705C
:103B600002C0959587952A95E2F780FD45C080E0D3
:103B70008E2BD801A65BBD4FEC919E2F93708917B9
:103B8000C9F1EE0FEE0FE82BEC93C0904802CD0C7C
:103B9000EF70F0E0EB5AFE4F0A5B1D4F8081D801B9
:103BA0009C91890F8C9320E0843054F0EC2DF0E050
:103BB000EC5BFD4F80818F5F80830E94450821E090
:103BC000F80180818D3F54F4EC2DF0E0EC5BFD4F6B
:103BD0008081815080830E94450821E0D8018C912A
:103BE000082E000C990B64E070E00E94E121F801BE
:103BF0008083F22AD3944ACF82E0BACF80916E04B8
:103C0000811165CF0E94BE0820916F04309170042D
:103C10002115310509F45BCF80E041E050E0082F29
:103C200010E02A01082E02C0440C551C0A94E2F749
:103C3000B20162237323672B11F48F5FF0CF909151
:103C40006D0490FF9CC0880F880F880F80933D0102
:103C500010924001895F80933E0183E0809341018F
:103C600024E630E047E050E06BE371E088E70E9433
:103C70008E1F892B09F02BCFA80125E0440F551F7B
:103C80002A95E1F780916D0480FF8BC0EDE4F2E0AE
:103C900080E2DF011D928A95E9F7E9E6F1E0FF8312
:103CA000EE8305E611E097E0A92E99249394AE8166
:103CB000BF812D91BF83AE83F80121908F01240E27
:103CC000352E311CC10183599D4F1C01E22FF0E0BC
:103CD000E35BFD4F30E020E07A2C721AB92C022E03
:103CE00001C0BB0C0A94EAF7610190E0D6018D9106
:103CF0006D018B21672D691B6770862E062E000CC7
:103D0000770BB82F01C0BB0F8A94EAF78B2E719501
:103D1000619571096770772701C086956A95EAF702
:103D2000882A8081882A80829F5F9830F9F62F5FE9
:103D30003F4F31962830310579F6EDE6F1E02E81DE
:103D40003F81E217F30709F0B2CF04E610E020E26A
:103D500030E04DE452E060E488E70E94AF1F892B19
:103D600009F0B5CE4094509480916F049091700406
:103D7000482259225092700440926F04A8CE829536
:103D8000880F807680933D0198013695279536956A
:103D9000279520934001815E80933E01109241015E
:103DA0005FCF43595D4F04E610E020E230E0D3CF0F
:103DB00009BD19BD09B400FEFDCF8091D8008F7DEB
:103DC0008093D8008091E00082608093E000809131
:103DD000E00081FDFCCF0E94AE0C45CE1092B900F0
:103DE0008CE08093B8000895B0E0A0E0EAEFFEE137
:103DF0000C94B121B82EEB010E949B116C01EE24B2
:103E0000E394F12CC431D10560F025E0E22EF12CD1
:103E1000CF3FDC0731F0CE0164E170E00E949621D3
:103E20007B0184EAA82E94E8992E1092BC00A092FF
:103E3000BC000E949B118C018091BC0087FF0DC0CB
:103E40008091B900887F8830F9F08091B900887F2F
:103E50008031D1F00FEF1FEF08C0C8010E948C1114
:103E6000E816F90648F70EEF1FEFCF3FDC07E9F23F
:103E7000C6010E948C11C817D907B8F6C801CDB782
:103E8000DEB7EBE00C94CD21B092BB009092BC0069
:103E90000E949B118C018091BC0087FF0AC0809119
:103EA000B900887F883111F08034A1F610E000E07D
:103EB000E5CFC8010E948C11E816F90660F7D3CF50
:103EC0000F931F93CF93DF93EB018093BB0084E8A4
:103ED0008093BC000E949B118C018091BC0087FFE5
:103EE00011C02091B900287F81E090E0283211F4C0
:103EF00090E080E0919581959109DF91CF911F919C
:103F00000F910895CF3FDC0741F3C8010E948C1147
:103F1000C817D90710F78EEF9FEFEFCFB0E0A0E002
:103F2000E4E9FFE10C94B4216B018A017901B90144
:103F30000E94F41EE6010C0D1D1DC017D10711F0E3
:103F400097FF08C024E92093BC00CDB7DEB7E8E0B6
:103F50000C94D021B70189910E94601FEECFB0E090
:103F6000A0E0E5EBFFE10C94B421C62F6A017901D2
:103F7000B8010E94F41E97FD0CC0B8018C2F0E945E
:103F8000601FE601EC0CFD1CCE15DF0511F097FF5C
:103F900008C024E92093BC00CDB7DEB7E8E00C945C
:103FA000D021B80189910E94601FEECF84E98093EF
:103FB000BC0008958EE14A9B02C08150E1F74A9B04
:103FC000FECF08955A9880E28A95F1F75A9A08959B
:103FD000FC013BE03A95F1F798E020E080E031E029
:103FE00040E14A95F1F7880F4A9B02C08160232780
:103FF00042E04A95F1F7000040E14A95F1F791500F
:1040000079F790E19A95F1F799B132E03A95F1F7A5
:10401000000040E14A95F1F792FB992790F9922729
:104020002081920F90830895A1E0B0E0EAE1F0E2F0
:104030000C94B62119828C017C01E60EF11C0E1540
:104040001F0541F481E09981911180E02196E6E01D
:104050000C94D2210E94DA1FCE0101960E94E81F23
:10406000F80181938F01EBCF529A5A9A0895529892
:104070005A9AEA9AE9E6F0E080818F7C808308957D
:104080006150770B91E001C0990F6A95EAF720E043
:1040900031E0911108C0222391F05A9A80E28A956A
:1040A000F1F75A980895492F482339F05A9A23274F
:1040B00040E24A95F1F79695ECCF5A98F9CF5A9885
:1040C000EDCFFF920F931F93CF93DF93EC018C0101
:1040D000060F111DC017D10729F4CDB7DEB7E5E0F3
:1040E0000C94D321F9900E94E21F68E08F2D0E946A
:1040F0004020F0CF1F920F920FB60F9211240F9312
:104100001F932F933F934F935F936F937F938F935F
:104110009F93AF93BF93EF93FF93CF93DF930F9250
:10412000CDB7DEB719820E94DA1FCE0101960E9438
:10413000E81F082F069506950695282F22952570CD
:10414000902F9570290F922F937026952695920F98
:10415000982797708981982B09F05CC0073008F088
:1041600059C080E18A95F1F75A9A529A82E08A956D
:10417000F1F700C05A9888E0089F80011124D80107
:10418000A050BF4F1696ED91FC9117973097A9F06C
:10419000609148017091490114962D913C911597B9
:1041A000260F371F11968D919C911297680F791FDA
:1041B00013964C9113978C910995F801E050FF4F9D
:1041C0006381662351F02091480130914901848137
:1041D0009581820F931F0E9461200E94E21F80E15F
:1041E0008A95F1F75A9852985A9A80E18A95F1F790
:1041F000F801E050FF4F6081662351F020914801A3
:104200003091490181819281820F931F0E94142075
:104210000E94DA1F0F90DF91CF91FF91EF91BF9134
:10422000AF919F918F917F916F915F914F913F914E
:104230002F911F910F910F900FBE0F901F90189507
:104240000F931F93CF93DF93EC0107970CF04CC0B3
:10425000F894529A5A9885E08A95F1F700009C2FBD
:10426000969595708C2F8570980F892F83709695F1
:10427000969523E0CC0FDD1F2A95E1F7980F8E016C
:10428000092B0E94E21F00C068E0802F0E9440209E
:1042900080E18A95F1F752985A9A4A9B1EC087E0AE
:1042A00090E04A991CC0FE01E050FF4F63816623F5
:1042B000F9F0209148013091490184819581820F64
:1042C000931F0E941420811113C0529A5A9A789415
:1042D000DF91CF911F910F91089500C0DECF01971C
:1042E00029F4529A5A9A789480E0F2CF00C0D9CF3C
:1042F0000E94DA1F80E28A95F1F75A98529A80E17B
:104300008A95F1F7C050DF4F6881662351F0209104
:1043100048013091490189819A81820F931F0E943F
:1043200061200E94E21F789481E0D2CFAA1BBB1BC0
:1043300051E107C0AA1FBB1FA617B70710F0A61BA5
:10434000B70B881F991F5A95A9F780959095BC01C6
:10435000CD0108952F923F924F925F926F927F927C
:104360008F929F92AF92BF92CF92DF92EF92FF9285
:104370000F931F93CF93DF93CDB7DEB7CA1BDB0B31
:104380000FB6F894DEBF0FBECDBF09942A883988D6
:1043900048885F846E847D848C849B84AA84B984DD
:1043A000C884DF80EE80FD800C811B81AA81B981E9
:1043B000CE0FD11D0FB6F894DEBF0FBECDBFED01FD
:1043C000089597FB072E16F4009407D077FD09D0C7
:1043D0000E94962107FC05D03EF4909581959F4F51
:1043E0000895709561957F4F0895EE0FFF1F05901A
:1043F000F491E02D0994FB01DC0104C08D91019042
:10440000801921F441505040C8F7881B990B08953A
:10441000FB01DC0102C001900D9241505040D8F7E1
:104420000895F999FECF92BD81BDF89A992780B57C
:104430000895A6E1B0E044E050E00C944B22A8E1DE
:10444000B0E042E050E00C944B22262FF999FECFC9
:1044500092BD81BDF89A019700B4021639F01FBAD7
:1044600020BD0FB6F894FA9AF99A0FBE08950396F4
:10447000272F0E9426220E942522252F0E942622D5
:10448000242F0C9426220196272F0E9426220C947A
:104490002522DC01CB01FC01F999FECF06C0F2BD5B
:1044A000E1BDF89A319600B40D9241505040B8F7F2
:1044B0000895F894FFCF9B0DC30D410FC30D410F1D
:1044C000F60D170E410F010F0D0F4F12531235123B
:1044D0004B1257125B125F12BA122F13C2128C12B8
:1044E0009012C6129412CA12D612A0122813A41245
:1044F000DA12A812DE120613AC12E2120D13B21277
:10450000E812F0129812CE129C12D212B612EC12CD
:10451000FC12161326138612BE1236132D142D14F8
:104520006514651491149114911491140A1592153F
:10453000A115A115521373137A137F1384138913D2
:104540008E13931398139D13A213A7133B123B12C0
:0E4550003B123B123B123B123B123B123B1242
:10455E000000000100000000000000050100000046
:10456E00000000010600000000000001070000002E
:10457E000408000000000000080C0000000000000D
:10458E0001AA03B707A803A90394F50021007F220F
:10459E000003004800484801FF016697C63435F60F
:1045AE00F73133323600FF0100010000FFFF00003B
:1045BE00010001FF0000081018181008000001008B
:00000001FF
