:100000000C946C020C9489020C9489020C94B72114
:100010000C9489020C9489020C9489020C94890234
:100020000C9489020C9489020C9400110C94BC105D
:100030000C94E11B0C9489020C9489020C948902A3
:100040000C9489020C9489020C9489020C94890204
:100050000C9489020C94D8110C9489020C94890296
:100060000C9489020C9489020C9489020C948902E4
:100070000C9489020C9489020C9489020C948902D4
:100080000C9489020C9489020C9489020C948902C4
:100090000C9489020C9489020C9489020C948902B4
:1000A0000C9489020C9489020C948902165C1E003F
:1000B0001F002000210022002B0014001A0008005D
:1000C00015001700296104001600070009000A0046
:1000D00039621D001B000600190005000000E20047
:1000E000E30001512C004C003502270026002500BA
:1000F000240023003100130012000C0018001C0023
:10010000340033000F000E000D000B00E5003871C5
:1001100037003600100011000000E200E700025135
:1001200028002A003A003B003C003D003E003F0012
:100130000100045101000100010001000100035110
:1001400001000100010001000100010001000100A7
:1001500001000100000001000100010028002F0043
:100160004500440043004200410040002B002A00AB
:100170004D004B004E004A0028004C004F0052003A
:1001800051005000010038023702360231022502C8
:100190000000E60001000100010030003A003B00D1
:1001A0003C003D003E003F000100310035022302CB
:1001B00034003500010033002D002E022E002D02E8
:1001C00001001E021F022002210222020000010083
:1001D000010001000100010045004400430042000D
:1001E00041004000E4004C00300230002F002F029C
:1001F0002B002900330227022602240201003802C4
:1002000037023602310225020000E600010001003B
:100210002C000100000000000000000000000000B1
:1002200000000100000000000000000000000100CC
:1002300000000000000000000000000000000000BE
:1002400000000000000001000100010001004C005E
:1002500039000000000037003600230200002D00A6
:100260002600250024002E0000002E02230022007C
:100270002100540000002E0020001F001E00250257
:10028000000027002700270001002A0000000000CE
:10029000000000000000000000000100000000005D
:1002A000000000000000010000000000000000004D
:1002B000000000000000000000000000000001003D
:1002C0000100010001004C00000049004800470007
:1002D000460000000000FF00F400F300F200F1000F
:1002E0000000FE00F000ED00EE00EF000000FD0059
:1002F000FC00F900FA00FB00000001000100010011
:1003000001002A0000DA0281FFD9F1DB20A4A62E29
:10031000AF00A0C000A1C800AED580A81FD3004088
:100320008D142000000101010101010101010202FF
:100330000202020202020203030303030303030493
:10034000040404040404050505050506060606065E
:10035000070707070708080808090909090A0A0A18
:100360000B0B0B0C0C0C0D0D0D0E0E0E0F0F0F10BA
:100370001011111112121313141415151616171744
:10038000181819191A1A1B1B1C1D1D1E1E1F2020B0
:10039000212222232424252626272829292A2B2CFA
:1003A0002D2D2E2F30313232333435363738393A1D
:1003B0003B3C3D3E3F404142434445464748494A15
:1003C0004C4D4E4F50515354555658595A5B5D5EE3
:1003D0005F616264656668696B6C6D6F707273757E
:1003E00077787A7B7D7E8082838587888A8C8E8FE2
:1003F00091939596989A9C9EA0A2A3A5A7A9ABAD10
:10040000AFB1B3B5B7BABCBEC0C2C4C6C9CBCDCFFD
:10041000D1D4D6D8DBDDDFE2E4E7E9EBEEF0F3F5AB
:10042000F8FAFDFF00AF00AE05010906A1010507BE
:1004300019E029E71500250195087501810295014C
:10044000750881010507190029FF150026FF009591
:1004500006750881000508190129059505750191A2
:1004600002950175039101C009022200010100A05B
:10047000FA09040000010301010009211101000132
:10048000224000070581030800011201000200005C
:10049000000851FC59000001010200011C034C003E
:1004A00069006C0079003500380047006C006F006F
:1004B000770045006E006300000018034F005200F3
:1004C0005600490053004500560041004E005300BD
:1004D0002B0000000403090411241FBECFEFDAE053
:1004E000DEBFCDBF11E0A0E0B1E0ECE5F7E402C073
:1004F00005900D92A437B107D9F725E0A4E7B1E044
:1005000001C01D92AD38B207E1F70E94081C0C949F
:1005100096230C940000982F9093E900891779F0A6
:100520005091EC002091ED004091F00021FD0AC0B7
:100530009F5F973089F78093E90081E00895562FF7
:1005400040E022E03091EB003E7F3093EB003091B1
:10055000ED003D7F3093ED003091EB003160309342
:10056000EB005093EC002093ED004093F0002091BD
:10057000EE0027FDDDCF80E00895E8EDF0E080811A
:100580008E7F80831092E2001092DA001092E100D8
:10059000A0EEB0E08C9181608C9380818F77808316
:1005A00019BCA7EDB0E08C918E7F8C9380818F7EFB
:1005B0008083109273050895B0E0A0E0E2EEF2E0CF
:1005C0000C94F122C8EDD0E088818F7E8883E7ED1E
:1005D000F0E080818160808384E082BF81E080934D
:1005E000730588818E7F888302EE10E0F801108207
:1005F0001092DA0081EEC82ED12CF601108288818B
:100600008F77888388818068888388818F7D8883BD
:1006100019BC109280051092810510927F051092EE
:100620007E0590EEE92EF12CF70180818B7F80838F
:1006300088818160888360E080E00E948B02F601FF
:1006400080818E7F8083F8018081816080838081BA
:1006500088608083F70180818E7F808388818061BC
:100660008883CDB7DEB7E8E00C940D232091E40039
:100670003091E50095E6A9012091EC00822F817070
:1006800020FF06C08091E80080FF06C080E008954A
:100690002091E80022FD1AC080918005882389F00E
:1006A000853089F08091EB0085FD0FC02091E4003A
:1006B0003091E50042175307F9F29150E1F684E0DA
:1006C000089582E0089583E0089581E00895EF920F
:1006D000FF920F931F93CF937C010E943603C82F84
:1006E000811119C008E010E08091E80085FD0BC081
:1006F0008091E8008E778093E8000E94360388237B
:1007000099F3C82F08C0F70181917F018093F10010
:100710000150110949F78C2FCF911F910F91FF9034
:10072000EF9008958091820587FF13C08091E800C3
:1007300082FF06C08091E8008B778093E80004C0B8
:10074000809180058111F2CF0895809180058823E2
:10075000D9F38091E80080FFF8CF8091E8008E7790
:10076000ECCFFC0180918805909189058617970749
:10077000A0F06115710529F49091E8009E7790939F
:10078000E80090E06115710551F4911108C0809165
:10079000E80082FF34C080E00895BC01F2CF809170
:1007A00080058823C1F18530C1F18091E80083FD87
:1007B00030C08091E80082FDEACF8091E80080FFA0
:1007C000E1CF8091F3002091F200382F611571057F
:1007D00019F02830310558F091E02830310509F042
:1007E00090E02091E8002E772093E800CBCF819114
:1007F0008093F100615071092F5F3F4FE7CF8091E7
:100800008005882341F0853041F08091E80083FF26
:10081000BECF81E0089582E0089583E008950895B1
:100820000895089508958091750508952FB7F89457
:1008300060916F05709170058091710590917205BE
:100840002FBF08959C01FC0132969FEF80E04191FB
:10085000461751F09F3F19F4411101C0982F8F5F47
:100860008630A9F79F3F09F40895290F311D97FDA0
:100870003A95F90162830895FC01680F791F8FEFA3
:1008800091E32191822728E030E087FF09C0880F9B
:10089000892721503109C9F7E617F70791F708951D
:1008A000880FF7CFFA01811101C0FB010995089566
:1008B00080916105982F9E7F71F480916105817010
:1008C00082608093610580916405893718F088E71C
:1008D000809364050895843080F7F5CF80E0089513
:1008E000F894E82FE295EF70F0E031A1282F2F70F7
:1008F00081E090E001C0880F2A95EAF7982F909543
:10090000932391A392A1892B82A378940895909127
:100910003C0292FF06C0282F28712830F9F4877F07
:10092000846093FF06C0282F28712831F1F4877E58
:10093000846120913D0220FF06C0382F3871383085
:10094000D9F4877F816021FF06C0282F28712831C4
:10095000D1F4877E816194FD877E0895282F2471CC
:100960002430F9F68B7F8860DCCF282F2471243166
:1009700001F78B7E8861DDCF382F3171313019F767
:100980008E7F8860E0CF282F2171213121F78E7E64
:100990008861E1CF972F7A30A8F4663098F470E040
:1009A00026E0929F600D711D1124FB019CE3899F3D
:1009B000E00DF11D1124EE0FFF1FE455FF4F85914F
:1009C0009491089580E090E00895CF93DF93EC0137
:1009D0008238910589F1B8F58133910509F492C007
:1009E00028F58932910509F486C08A9709F491C0E7
:1009F000C11523E5D20708F0ACC0C11532E5D30715
:100A000008F011C1C11540E2D40708F090C0C1152B
:100A100081E0D80730F5C53AD10508F081C0C4306F
:100A2000D105F8F4C130D105E1F040C0853391051E
:100A300009F45AC0C997E1F680913C02837089F0AD
:100A4000C0EED0E00EC0833E910599F170F4803E77
:100A5000910501F1823E910559F680913C0282FD9B
:100A600021C0CE01DF91CF910895863E910561F1BD
:100A7000873E910571F1843E910509F0B9CF8091CF
:100A80003D0281FFEECF80913C02C7EED0E084FDB5
:100A90000DC0E7CF80913C0280FDF4C090913D02F3
:100AA00090FFDFCFC3EED0E084FFDBCFD0E0C0E02B
:100AB000D8CF80913C0282FDE8C090913D0290FD2C
:100AC000BFCF84FFCECFF2CF80913C0283FDDDCF3C
:100AD000C8CF80913C0283FDDBC090913D0291FF25
:100AE000F0CFC4EED0E0BDCF80913C0285FFB9CFFE
:100AF000C9E2D0E0B6CF80913C0285FFB2CFC5E31A
:100B0000D0E0AFCF80913C0286FFABCFCAE2D0E00D
:100B1000A8CF80913C0286FFA4CFC1E3D0E0A1CF53
:100B2000CE01805E9109089708F49BCFBFCFC11515
:100B300091E5D90708F072C0C11520E5D20708F089
:100B400050C0C11530E4D30708F4B0CFDF70D06ACD
:100B500088CFC11546E5D407F0F4C11585E5D8075F
:100B600008F077C0C11594E5D90708F06DC0CE0133
:100B70008370992721E030E002C0220F331F8A954D
:100B8000E2F7C695C69590E2C99FE0011124C22BF9
:100B9000D32BDA6866CFC1152AE5D20778F4C115E0
:100BA00039E5D30708F060C0C11548E5D40708F45B
:100BB0007DCFDC2FCC27C06FD06A53CFCE019056AB
:100BC0008115904208F072CF8D2F8F710E9487049B
:100BD00090E0982F882788279F719C012C2BE90192
:100BE00041C0CE01E4E096958795EA95E1F78370E0
:100BF0002C2F26952695237040E2249F90011124E6
:100C0000382B8C2F8370C1E0D0E002C0CC0FDD1FE9
:100C10008A95E2F7C22BD32BDC6823CFDC2FCC27BD
:100C2000C16FD06A1ECFCE018370992721E030E0DA
:100C300002C0220F331F8A95E2F7C695C69580E25F
:100C4000C89FE0011124E6CFDC2FCC27C46FD06A07
:100C500008CF8C2F0E948704C82FD0E0DC2FCC2730
:100C6000CC27DF71D062FDCE8C2F8F700E9487045D
:100C700034E0D695C7953A95E1F7CF709C2FEC01FB
:100C8000D069EFCEC9E3D0E0ECCEC2EED0E0E9CE41
:100C9000C6EED0E0E6CE0E94160408958091EE01E3
:100CA00081111092EE01089580959091ED019823A5
:100CB0009093ED0108958091E2019091B101981314
:100CC00001C008958F5F8770FACFB0E0A0E0EBE637
:100CD000F6E00C94F0228C01C0903802D0903902DA
:100CE000E0903A02F0903B028091EF019091F00188
:100CF000A091F101B091F201C82AD92AEA2AFB2A6F
:100D0000CFE1D0E0BC2ED701C6010C2E04C0B695B1
:100D1000A795979587950A94D2F780FD09C02197EA
:100D200088F7B12C8B2DCDB7DEB7E9E00C940C23FE
:100D3000B8018C2F0E94CA040E94E504019779F340
:100D4000F1CFCF93DF93EC010E946506BE010E94B4
:100D5000CA040E94E504DF91CF910895292F9A30AB
:100D600080F5863070F590E036E0239F800D911D70
:100D70001124682F677023E0969587952A95E1F7EF
:100D800025E0289FF001299FF00D1124ED57FE4F1B
:100D900050E040E080E0219130E0062E02C0369520
:100DA00027950A94E2F721703327042E01C0220F01
:100DB0000A94EAF7822B4F5F5F4F4530510559F790
:100DC000089580E00895292F9A30A0F5863090F597
:100DD00090E036E0239F800D911D1124282F27706D
:100DE00041E001C0440F2A95EAF723E096958795E4
:100DF0002A95E1F725E0289FF001299FF00D1124A5
:100E0000ED57FE4F30E020E070E05191DF01119787
:100E1000CB01022E02C0969587950A94E2F7817065
:100E200081958527842385278C932F5F3F4F25301D
:100E3000310559F70895FC01808191810E94A10636
:100E400092959F70963091F058F4925F9F70923017
:100E500058F4803F19F030F4883E30F481E0089572
:100E60009A5FF4CF843FD1F380E00895883EB0F3D9
:100E7000813FD1F7F3CFCF93DF93EC0181E08093F3
:100E8000E9008FEF9091E800815095FD06C095ED47
:100E90009A95F1F700008111F5CF8091E80085FF68
:100EA00014C050E040E068E070E0CE010E946703AB
:100EB0008091E8008E778093E80088E0FE01A6E745
:100EC000B5E001900D928A95E1F7DF91CF910895F9
:100ED000609147018091610580FF20C080914601AB
:100EE00043E0849FC001112487579B4F849A21B30C
:100EF0002F7E31B330615FB7F894FC01649FE00D41
:100F0000F11D1124BF0168177907D1F45FBF8FE588
:100F100094E00197F1F700C0000008958091480126
:100F20009091490123E0829FF0011124E757FB4F84
:100F30008917A0F61182108212828F5F3396F8CF44
:100F4000FC014191CF01E8E031BB000000C047FF48
:100F500021BB440F000000C000C000C021BB00C086
:100F6000EA9591F7D0CFB0E0A0E0E9EBF7E00C9480
:100F7000EF227C015B016A018091270201E010E011
:100F80008A3010F40AE010E0C1E0D0E0B501C701FA
:100F9000F6010995811104C021960C171D072CF448
:100FA000CDB7DEB7EAE00C940B23CC9F9001CD9F28
:100FB000300D300D112490E080E045E34A95F1F7C3
:100FC0000000019682179307C1F7E0CF8091FD01E1
:100FD000811110C08091D80080618093D8008AE18F
:100FE0008A95F1F700C08091D90080FF0AC081E0A6
:100FF0008093FD0181E09091FD01913009F080E046
:10100000089582E08093FD010E94BD021092800548
:10101000F1CF0E94E607882359F0E0916C05F0912A
:101020006D05309729F00190F081E02D0995089524
:1010300080E00895B0E0A0E0E0E2F8E00C94F12256
:101040006C017B0164E670E088E70E942E20EC01D1
:1010500097FD12C010E000E0F601E00FF11F84914F
:1010600064E670E00E949C20EC01892B29F40F5F5C
:101070001F4F0E151F0581F70E941321CE01CDB71A
:10108000DEB7E8E00C940D2380916A0590916B0522
:10109000911103C091E089270895882369F062E0E7
:1010A00070E086E294E00E941A08892B19F0809182
:1010B0006A05089510926A0580916A05EBCFCF9377
:1010C000C0916A0580916B058823D1F00E941604B7
:1010D000605A75418F4F9F4F609366057093670507
:1010E0008093680590936905C11108C062E070E0C3
:1010F00084E294E00E941A08892B29F0C0916A05C5
:101100008C2FCF91089581E080936A05F7CFCF921D
:10111000DF92EF92FF926B017C010E945804B701AD
:10112000A60188E090E00E947423FF90EF90DF908A
:10113000CF900895B0E0A0E0E0EAF8E00C94ED2252
:10114000182FC62FD42F822E0091610500FF4CC0AE
:10115000E02FE695F0E0EF58FE4F80818093860403
:10116000802F8E7F8230E9F4E42F493708F0E8E7DA
:10117000F0E0EC5DFC4FC1113CC02491F22FE22F56
:1011800000FF0FC0809148019091490133E0839F97
:10119000D0011124A757BB4F891708F49FC00E94A4
:1011A000680780916205811308C0809163058C13E4
:1011B00004C0809164058D1729F0809188048260B5
:1011C0008093880410936205C0936305D0936405EF
:1011D000882051F0609161057091620580916305EE
:1011E000909164050E948708CDB7DEB7ECE00C94BF
:1011F0000923EC2EF12CE4919E2ECE2ED12C26E04C
:10120000129FC00111242FEF30E0B9010E94D322B8
:10121000812F90E0880F991FF5E5F69FA001F79FB9
:10122000500D1124841B950BB82EBB0CB80EA901D0
:101230004E195F094C9DC0014D9D900D5C9D900D18
:101240001124F92FCB9DA0011124452F5527D90139
:10125000A41BB50BAC9DA001AD9D500DBC9D500DC8
:101260001124D901AB19B1095D01AE9CD001AF9C2D
:10127000B00DBE9CB00D1124AB2FBB272A1B3B0B1E
:101280002C9DD0012D9DB00D3C9DB00D11242B2F18
:1012900062307105A1F050F46115710509F470CF49
:1012A0006130710581F0292FF52F6ACF6430710507
:1012B00069F080F06630710509F462CFF4CF2E2F0B
:1012C000E92FFB2F5DCF2E2FE52F5ACF292FFE2F91
:1012D000EB2F56CFE92FF92D252F52CF1196EC93F6
:1012E00011972C931296FC9312978F5F139654CFFD
:1012F000E1E6F5E0438121E1421B08F440E021E012
:10130000628181810E949A080895E1E6F5E04381B7
:1013100021E1420F08F44FEF21E0628181810E94B8
:101320009A080895E1E6F5E0628121E1621B08F484
:1013300060E021E0438181810E949A080895E1E6FE
:10134000F5E0628121E1620F08F46FEF21E0438153
:1013500081810E949A080895E1E6F5E0818121E00B
:101360004381628188500E949A080895E1E6F5E081
:10137000818121E043816281885F0E949A080895FB
:1013800080916505882319F08150809365056091EF
:1013900061057091620580916305909164050E94DA
:1013A0008708089580916505833018F48F5F8093D6
:1013B000650560916105709162058091630590916A
:1013C00064050E94870808958091610580FF1EC012
:1013D0008170826080936105809188048160809330
:1013E0008804662351F060916105709162058091D7
:1013F0006305909164050E94870820E04091640590
:1014000060916305809162050E949A080895809119
:1014100061058695815009F481E061E00E94E4094C
:10142000089561E081E00E94E4090895E1E6F5E0B5
:1014300083E0808311828FEF828388E78383148225
:10144000A6E8B4E012968C911297836012968C9362
:1014500060817181828193810E9487080895CF9372
:1014600084E090E00E944E23C82F82E290E00E9428
:101470004E23982F8C2FCF910895A8E0B0E0E3E49D
:10148000FAE00C94F72285E0E1E6F5E0DE01119642
:1014900001900D928A95E1F78091860490918704DE
:1014A000A09188048E839F83A8872885409123027A
:1014B0005091240260912502709126023FB7F89462
:1014C00080916F0590917005A0917105B0917205A2
:1014D0003FBF841B950BA60BB70B84369105A10566
:1014E000B10510F4222319F18091290190912A016C
:1014F000815F9D4F4091280150E04930510510F027
:1015000048E050E0BE016F5F7F4F0E94452385E0B9
:1015100090E00E945D22882369F00E941604609387
:101520002302709324028093250290932602109246
:10153000880481E02896E2E00C941323A4E0B0E054
:10154000E4EAFAE00C94F52240910B0250910C026F
:1015500060910D0270910E022FB7F89480916F0583
:1015600090917005A0917105B09172052FBF841BF9
:10157000950BA60BB70B11E084369105A105B105BB
:1015800090F10E94E607882399F10E9416046E5F8D
:101590007F4F8F4F9F4F69837A838B839C8380918A
:1015A000210190912201815F9D4F4091200150E0E7
:1015B0004530510510F044E050E0BE016F5F7F4FB1
:1015C0000E94452384E090E00E945D22182F88232A
:1015D00051F00E94160460930B0270930C028093EA
:1015E0000D0290930E02812F2496E4E00C941123B7
:1015F0000E941604009128021091290220912A02CB
:1016000030912B02600F711F821F931FC0CF4F922A
:101610005F927F928F929F92AF92BF92CF92DF9212
:10162000EF92FF920F931F93CF93DF930F92CDB75B
:10163000DEB7C62E4A015901482E880F5508C2014F
:101640000E945D22782E882309F480C0C20133E015
:10165000880F991F3A95E1F7FC01E050FF4F438155
:1016600050E04115510511F041E050E080509F4F8E
:10167000FC0164817581615F7D4FCE0101960E94FE
:101680004523F40140815181628173812FB7F89421
:1016900080916F0590917005A0917105B0917205D0
:1016A0002FBF841B950BA60BB70B84369105A105A4
:1016B000B10540F4B701C8010E943C049981891723
:1016C00009F444C00C2C000CDD08C6010E945D2208
:1016D000782E811113C0712C872D0F90DF91CF913F
:1016E0001F910F91FF90EF90DF90CF90BF90AF9040
:1016F0009F908F907F905F904F900895C60123E058
:10170000880F991F2A95E1F7FC01E050FF4F4381B4
:1017100050E0E416F50608F4A70180509F4FFC0145
:1017200064817581615F7D4FC5010E944523B701CA
:10173000C8010E943C0499818913CDCF0E941604F0
:10174000F4016083718382839383C6CFA701B801BC
:10175000C5010E944523C0CFA1E0B0E0E2EBFBE071
:101760000C94F322EE24E394F12C06E112E09E01A6
:101770002F5F3F4F47E052E063E082E00E94070B9B
:10178000182F882369F040913F0250914002DE01FA
:10179000119690E020E0941308C021110E944B069E
:1017A000812F2196E6E00C940F238D91E52FE90F10
:1017B000F0E0EA5AFD4F3081831B382F131644F0B6
:1017C000382F87FD30E0831B811108C09F5FE3CF76
:1017D000315020812F5F2083212FF0CF8F5F208118
:1017E00021502083212FF0CFA5E0B0E0EAEFFBE00D
:1017F0000C94F1226B0185E0E82EF12C00E112E05F
:101800009E012F5F3F4F43E052E061E080E00E9485
:10181000070B882349F095E0FE013196AEEFB1E069
:1018200001900D929A95E1F795E0EEEFF1E0D60187
:1018300001900D929A95E1F72596E8E00C940D231E
:101840008091ED019091EC01892B8093760190912C
:10185000EE01992391F0892B8093760120E088E7AF
:1018600091E0FC013191CF0131112F5FF1E08E3712
:101870009F07B9F721110E944E0648E050E064EE40
:1018800071E086E791E00E943823892BA9F088E077
:10189000E6E7F1E0A4EEB1E001900D928A95E1F760
:1018A000E0916C05F0916D05309731F00280F38185
:1018B000E02D86E791E0099508951092ED01E8E7A3
:1018C000F1E086E0DF011D928A95E9F71092EC01C4
:1018D0000E94200C0895AAE2B0E0E1E7FCE00C943D
:1018E000F62282E895E02091F100FC012193CF01DE
:1018F000F5E08A389F07B9F780918305833009F4B2
:1019000070C0B8F4813009F447C0823009F4B1C026
:101910008091E80083FF64C28091820590918305E5
:101920009A3008F05DC2E92FF0E0E856FC4D0C94C7
:1019300032238A3009F48CC08B3009F46FC08930AF
:1019400039F780918205813219F78091860590914F
:101950008705892BE9F68091E800877F8093E8006E
:101960008091E80082FF38C09091F3008091F200EE
:10197000029731F48091F100813011F0863021F42A
:101980008091F100809375058091E8008B778093BA
:10199000E8000E949203BCCF80918205813A09F051
:1019A000B7CF8091E800877F8093E800809186051B
:1019B00090918705892B61F468E086E795E070E0F7
:1019C0000E94B1038091E8008B778093E800A0CF5C
:1019D00060E090E080E0F3CF809180058111C0CF7E
:1019E00097CF80918205813A09F092CF8091860548
:1019F00090918705892B09F08BCF8091E800877F34
:101A00008093E8008091E80080FFFCCF80914B013B
:101A10008093F1008091E8008E77B9CF80918205A4
:101A2000813209F075CF8091860590918705892BC9
:101A300009F06ECF8091E800877F8093E8000E94D4
:101A400092038091840580934B010E945D0C60CFCE
:101A500080918205813209F05BCF8091E800877F19
:101A60008093E8000E94920380918505809374051D
:101A70004FCF80918205813A09F04ACF8091E800EA
:101A8000877F8093E8008091E80080FFFCCF809101
:101A90007405BECF803899F0823809F0A1C18091D9
:101AA00086058F70873008F09BC18093E900809194
:101AB000EB0085FB882780F91092E90006C0809131
:101AC0007E0590917F05911182609091E800977F4B
:101AD0009093E8008093F1001092F1008091E8006B
:101AE0008E777AC1882309F468C1823009F078C101
:101AF0008091840581116BC1809186058F702FEFD5
:101B0000280F263008F06CC18093E9002091EB008B
:101B100020FF5DC1933031F48091EB0080628093AF
:101B2000EB0055C19091EB0090619093EB0021E0A8
:101B300030E001C0220F8A95EAF72093EA00109264
:101B4000EA008091EB008860EACF811149C11091D1
:101B500084051F778091E3008078812B8093E300D8
:101B60008091E800877F8093E8000E949203809133
:101B7000E80080FFFCCF8091E30080688093E30061
:101B800082E0111183E0809380052AC18058823061
:101B900008F026C180918405909185058C3D23E055
:101BA0009207A1F583E08A838AE289834FB7F8948C
:101BB000DE01139620E03EE051E2E32FF0E0509387
:101BC0005700E49120FF03C0E295EF703F5FEF7094
:101BD0008E2F90E0EA30C0F0C7968D939D932F5FD3
:101BE000243159F74FBF8091E800877F8093E80048
:101BF0006AE270E0CE0101960E94B1038091E80094
:101C00008B778093E800ECC0C096E7CF40918605C3
:101C100050918705292F33272330310509F43FC020
:101C200078F52130310509F466C082E290E0E8E6FB
:101C3000F4E02230310509F0D3C02091E800277F7D
:101C40002093E80020918805309189058217930739
:101C500008F49C0140E02115310509F051C0411103
:101C60004FC08091E80082FDC9CF80918005882314
:101C700029F2853019F28091E80083FFF2CFBECFC0
:101C80002132310581F12232310509F0A9C0452BFD
:101C900009F0A6C080E490E0E8E2F4E0CECF992716
:101CA00081309105C1F0009759F0029709F098C072
:101CB000ECE9F4E0E4918E2F90E0ECE9F4E007C069
:101CC000E4EDF4E0E4918E2F90E0E4EDF4E0009791
:101CD00009F0B3CF85C0EAEBF4E0E4918E2F90E0F9
:101CE000EAEBF4E0F4CF452B09F07AC089E090E00C
:101CF000EAE7F4E0A2CF82E190E0EAE8F4E09DCFE9
:101D000080918005882309F479CF853009F476CF56
:101D10008091E80083FD72CF8091E80082FDA1CF21
:101D20008091E80080FF97CF9091F3008091F200BE
:101D30002115310519F08830910550F041E00897E0
:101D400009F040E08091E8008E778093E80083CF2F
:101D500044914093F1003196215031090196E8CF2A
:101D60008038F1F58091E800877F8093E8008091CA
:101D700081058093F100B2CE811132C010918405AB
:101D8000123070F58091E800877F8093E80010930F
:101D900081050E949203112311F084E005C0809117
:101DA000E30087FDFACF81E08093800561EC81E05C
:101DB0000E948B028091800513C080918405813040
:101DC00079F481E0933009F080E080937F051092F0
:101DD000E9008091E800877F8093E8000E949203E9
:101DE0008091E80083FF0AC08091E800877F80939C
:101DF000E8008091EB0080628093EB00AA96E3E01C
:101E00000C9412230E945D0C2FEF84E39CE0215080
:101E100080409040E1F700C0000088E19AE00FB6F2
:101E2000F894A895809360000FBE90936000FFCF58
:101E3000609338027093390280933A0290933B0288
:101E40001092EC010E94200C08950F931F9341E023
:101E500050E060E070E004C0440F551F661F771F1C
:101E60008A95D2F7CB01BA016095709580959095CF
:101E7000009138021091390220913A0230913B02D0
:101E800060237123822393230E94180F1F910F91C7
:101E900008959091E301809589238093E301282F91
:101EA000277091F4282F082E000C330B921713067D
:101EB00059F090913D0292FF07C0859585958595D3
:101EC0000E94250F1092E30108950F931F9341E0A4
:101ED00050E060E070E004C0440F551F661F771F9C
:101EE0008A95D2F78091380290913902A0913A02F6
:101EF000B0913B028A019B01082B192B2A2B3B2B0B
:101F0000C901B8010E94180F1F910F9108956093A5
:101F1000EF017093F0018093F1019093F201109220
:101F2000EC010E94200C0895882321F00E945406A1
:101F30000E94200C0895882339F09091ED01982B90
:101F40009093ED010E94200C08958823E1F19CEF0D
:101F5000980F913A80F4E8E7F1E02EE731E09191B3
:101F6000891303C0DF0111971C922E173F07B9F7A1
:101F70000E94200C089590E2980F983050F48770DA
:101F800091E001C0990F8A95EAF7892F0E945406C3
:101F9000EFCF9BE5980F9330B8F480917F0190913B
:101FA0008001892B81F01092800110927F01E091D5
:101FB0006C05F0916D05309731F00680F781E02DCA
:101FC00090E080E009950895885A8731E0F7809184
:101FD000810190918201892BB1F3109282011092BC
:101FE0008101E0916C05F0916D05309761F30084FB
:101FF000F185E02DE5CFCF93C82F8823A9F08CEF92
:102000008C0F813A00F5E8E7F1E0DF018D91C81708
:1020100069F081E0AE37B807C9F76C2F86E791E029
:102020000E9422040E94200CCF9108958191C81330
:1020300003C0DF0111971C9281E0EE37F807B1F77A
:102040000E94200CEACF80E28C0F883068F7C770BE
:1020500021E030E001C0220FCA95EAF78091ED013E
:10206000822B8093ED01DECF68EE7EEF90E080E082
:102070000E94802360E082E090E00E94622360E0A2
:1020800083E090E00E9462231092EF011092F00131
:102090001092F1011092F20160E084E090E00E9461
:1020A000622364E082E290E00E94622360E085E0C7
:1020B00090E00E94622360E086E090E00E9462234C
:1020C0006FEF87E090E00E94622340E050E0BA01A9
:1020D00088E090E00E94742360E08DE090E00E9430
:1020E000622340E050E0BA0188E190E00E9474234E
:1020F00060E087E190E00E94622340E050E0BA0196
:102100008CE190E00E94742370E060E080E290E057
:102110000E94802340E050E0BA0188E190E00E94F4
:10212000742340E050E0BA018FE090E00E947423F5
:1021300040E050E0BA0183E190E00E9474230895EA
:10214000CF93C0913D02C2FB992790F9981791F067
:1021500080FBC2F9C0933D0260913C0284E090E0B4
:102160000E9462236C2F82E290E00E94622382E050
:102170000E94490FCF9108951F920F920FB60F92B0
:1021800011242F933F934F935F936F937F938F937C
:102190009F93AF93BF93CF93DF93EF93FF93D09130
:1021A000E900DF708091EC00C82FC17080FDC0E8AD
:1021B0001092E9008091F000877F8093F00078947E
:1021C0000E946B0C1092E9008091F000886080936F
:1021D000F000CD2BCF70C093E900FF91EF91DF911C
:1021E000CF91BF91AF919F918F917F916F915F91AF
:1021F0004F913F912F910F900FBE0F901F90189508
:102200001F920F920FB60F9211242F933F934F936B
:102210005F936F937F938F939F93AF93BF93EF934E
:10222000FF938091E10082FF09C08091E20082FF6C
:1022300005C08091E1008B7F8093E1008091DA00FE
:1022400080FF24C08091D80080FF20C08091DA00F8
:102250008E7F8093DA008091D90080FF9CC080E15E
:1022600089BD82E189BD09B400FEFDCF81E0809384
:10227000800580917305811109C00E94BD020E94F2
:10228000DC028091E20084608093E2008091E100B2
:1022900080FF17C08091E20080FF13C08091E200B0
:1022A0008E7F8093E2008091E20080618093E20063
:1022B0008091D80080628093D80019BC85E080931B
:1022C00080058091E10084FF2BC08091E20084FFB3
:1022D00027C080E189BD82E189BD89B5982F9170C1
:1022E00080FFFBCF8091D8008F7D8093D8008091B4
:1022F000E1008F7E8093E1008091E2008F7E8093E9
:10230000E2008091E20081608093E200809181058B
:10231000882309F446C084E080938005809180057D
:102320008091E10083FF26C08091E20083FF22C0FC
:102330008091E100877F8093E10082E080938005B7
:10234000109281058091E1008E7F8093E100809161
:10235000E2008E7F8093E2008091E20080618093B2
:10236000E20060E080E00E948B028091F0008860D3
:102370008093F000FF91EF91BF91AF919F918F916A
:102380007F916F915F914F913F912F910F900FBE71
:102390000F901F90189519BC10928005109273052C
:1023A00075CF8091E30087FD93E090938005B6CFD1
:1023B00078941F921FB61F9211248F939F93AF930F
:1023C000BF9380916F0590917005A0917105B091B8
:1023D00072050196A11DB11D80936F059093700544
:1023E000A0937105B0937205BF91AF919F918F91AA
:1023F0001F901FBE1F9018959C014FB7F8948091B5
:102400006F0590917005A0917105B09172054FBF55
:10241000821B930B08952FB7F89480916F059091CC
:102420007005A0917105B09172052FBF08950F93AB
:102430001F93CF93DF93C62FD42F022FFC018281ED
:102440008823A9F060938C050E940B1290938B0552
:1024500080938A05C77081E001C0880FCA95EAF7AA
:102460000E949B0FDF91CF911F910F910895809152
:102470008C05681335C080918A0590918B050E9468
:10248000FC11883C910560F510E21D0FCD17B9F0E5
:1024900080E28C0F883040F4C77081E001C0880F63
:1024A000CA95EAF70E94940F183048F481E09D2FF6
:1024B000977001C0880F9A95EAF70E949B0F802FB2
:1024C0000E94FB0F802F0E94A50F183058F6D7707E
:1024D00081E001C0880FDA95EAF70E94940FC2CF1D
:1024E000C77081E001C0880FCA95EAF7F6CFA5E072
:1024F000B0E0EDE7F2E10C94E9227C01FC0183817C
:102500009481892B31F08081918189238F3F09F05B
:10251000B0C42596E0E10C9405230E946506182FAF
:10252000682F89819A810E94E30669817A81812FCF
:102530000E94CA048C01843FFCE59F0709F483C014
:1025400018F5893D9C4509F47AC00A3D8CE51807C9
:1025500009F489C0083D9CE5190709F526E241EE1A
:1025600061EEC7010E9417128091E301877089F222
:10257000F7018281882369F280913D0282FFC9CFF1
:1025800082E00E94490FC5CF863FECE59E0709F423
:1025900062C008F45CC0873F9C4509F460C0F70145
:1025A0008281882309F476C410928C050430FDE5FD
:1025B0001F0708F05BC00B3F2CE5120730F4C80181
:1025C00082509C45449708F05BC00E942F0A90936C
:1025D0003D0280933C0201319CE5190709F42BC1AF
:1025E00008F0A7C00930FCE51F0709F40EC108F088
:1025F00072C005303CE5130709F4FFC008F057C06E
:1026000003309CE5190709F4EEC008F0F2C0809190
:102610003C0281600230FCE51F0709F4E7C06091CD
:102620003C0210913D0284E090E00E946223612F01
:1026300082E290E00E9462230E945D0C95CF27E227
:1026400045EE65EE8ECF26E241EE60EE8ACF27E2C0
:1026500045EE64EE86CF26E241EE62EE82CF27E2BF
:1026600045EE66EE7ECF28E241E0EBCF02363DE557
:10267000130709F4AACF063A8DE5180709F4A5CF88
:1026800006312CE5120709F087C48091ED018A7AA2
:1026900091E009F490E090937E0169E2811165E395
:1026A00086E791E00E9422040E94200C5DCF809179
:1026B0003C02806207302CE5120709F497C0809134
:1026C0003C02806108303CE5130708F48FC080911C
:1026D0003C0280648BC00D308CE5180709F49FC064
:1026E000A0F480913C028E7F0B30ECE51E0709F4CC
:1026F0007DC080913C028C600C30FCE51F0708F423
:1027000075C080913C028D7F71C080913C028F7EAC
:102710000F302CE5120709F469C080913C02877FD5
:1027200000313CE5130708F461C080913C028F7DC5
:102730005DC00E3F8CE5180709F479C058F50531E6
:10274000ECE51E0709F481C098F480913C02837F78
:1027500003312CE5120709F449C008F470C00E9447
:102760005D0C90913C02892F97FB87F980583EC001
:102770000C3F8CE5180709F444C008F054C0809160
:102780003D0281600B3FECE51E0709F048CF8093C6
:102790003D0245CF0230FDE51F0709F462C090F409
:1027A00080913D028C7F01153DE5130781F398F17F
:1027B00080913D02982F909591708E7F892B90FB90
:1027C00081F9E5CF02369DE5190709F450C0063AB4
:1027D000EDE51E0709F452C00330FDE51F0709F0BF
:1027E0001ECF60E03FC080913C02826080933C023B
:1027F00016CF80913C028460F9CF80913C028860C2
:10280000F5CF80913D028260C2CF0E945D0C809125
:102810003C028068EBCF80913D028360B8CF80910D
:102820003C028B7FE3CF80913D028E7FB0CF8091C1
:102830003D028D7FACCF80913C028F7BD7CF0E9431
:102840005D0C80913C028F77D1CF80913C0282FB5E
:10285000992790F921E0922790FB82F990FB83F968
:10286000C5CF61E08EE090E00E946223D8CE9091C7
:102870003C02892F8F7E94FF8061B8CF90913C02FB
:10288000892F8E7F90FF8160B1CF80917E01811171
:102890000FC089E2E8E7F1E02EE731E0919189137A
:1028A00003C0DF0111971C922E173F07B9F7FCCE2A
:1028B00085E3F0CF81608093610561E086950E9499
:1028C000E40952CE47E05AE061E17AE00E94520406
:1028D0004BCE41E15AE067E07AE0F8CF4CEA59E0AC
:1028E00066EB79E0F3CF48E759E065E879E0EECFB1
:1028F00061E081E0E4CF0E945D0CEFEFF4E32CE0B7
:10290000E150F0402040E1F700C0000087E797E782
:10291000909301088093000888E19AE00FB6F8943C
:10292000A895809360000FBE90936000FFCF8091C8
:102930003D0282FB882780F991E089270E94A01040
:10294000F701828100811181882309F445C0C80103
:102950000E946506D82E682FC8010E94E306B801C0
:102960008D2D0E94CA040E94E5048C01882EF70177
:10297000C280958092943FE093228091E30187701A
:10298000C1F0BC2CCC20B1F0812F807F803421F0AD
:1029900080E2800F883068F080913D0282FF09C09C
:1029A00082E00E94490F8091E3018770BB24B394B9
:1029B0008111B12CA12EA2942FE0A222FBE0FA15E6
:1029C00008F476C0EA2DF0E0EE55FC4D0C9432236D
:1029D00081E0B4CF80E0B2CFC8010E94AE06D82E0D
:1029E000BECF212F2F70D22E107F19F0D29490EFEE
:1029F000D922CC20B9F0DD2069F080E2800F883048
:102A000010F0811009C08091ED01D82AD092ED011B
:102A10000E94200C802F4AC08091EC01D82AD092CD
:102A2000EC01F6CF802F0E94A50FDD2009F440C0F5
:102A3000005E083010F0811004C08D2D0E945406F5
:102A400006C0D0948091EC01D822D092EC010E9473
:102A5000200C2EC0312F3F70D32E107F103219F072
:102A6000D29480EFD822882089F081E0881609F47A
:102A700077C0CC2009F481C0992009F477C0F70110
:102A8000858180FFC7CF8F70858370C020913D0204
:102A900022FD43C0CC20D9F1DD2039F08091ED0139
:102AA000D82AD092ED010E94200C80E00E94FB0FFA
:102AB000EA2DE850FF0B349710F40E940908BB2060
:102AC000A9F08091E30180FD11C0F7011282859584
:102AD000859585950E94650FC7010E9477128091A8
:102AE000E3018595859585950E94250F85E0F70181
:102AF000DE01119601900D928A95E1F709811A8104
:102B0000C8010E94AE06B8010E94CA0402CD80E04E
:102B10000E94A50FDD2061F290CFCC20A1F0909112
:102B2000EE01892F8D29911003C00E949B0FC0CF09
:102B3000E1E09E12FACF22FFBBCF981709F4B8CF7D
:102B40008093EE01B5CF911006C00E944E068D2DE8
:102B50000E94940FADCFF1E09F1609F4A9CFF5CFF5
:102B6000CC2031F025E0291508F4A2CF8D2DDDCF42
:102B700034E0391508F49CCFEACF992041F3F9E30A
:102B80008F1270C12FEF37EE83E02150304080402C
:102B9000E1F700C0000066C1812F837009F066C0B4
:102BA000C11086CF802F829586958770880F880FF9
:102BB000602F6F70462E512C712C612C082E04C092
:102BC000440C551C661C771C0A94D2F740E050E078
:102BD000BA0104FF0FC04FE050E060E070E004C0B5
:102BE000440F551F661F771F8A95D2F74095509561
:102BF00060957095812F869586958370823019F146
:102C0000D8F40091EF011091F0012091F101309181
:102C1000F201813069F04429552966297729CB01D1
:102C2000BA0160237123822393230E94870F40CF30
:102C3000402A512A622A732ACB01BA0164297529D4
:102C400086299729F2CF44295529662977290091A9
:102C5000EF011091F0012091F1013091F201CB01CF
:102C6000BA016027712782279327DFCF8695CC2072
:102C700011F0812F8170882309F41ACF802F82955B
:102C800086958770880F880F602F6F70462E512CA5
:102C9000712C612C082E04C0440C551C661C771C3A
:102CA0000A94D2F740E050E0BA0104FF0FC04FE0B1
:102CB00050E060E070E004C0440F551F661F771FAE
:102CC0008A95D2F74095509560957095812F86959D
:102CD00086958370823019F1D8F4009138021091F2
:102CE000390220913A0230913B02813069F0442947
:102CF000552966297729CB01BA01602371238223E4
:102D000093230E94180FD4CE402A512A622A732A94
:102D1000CB01BA016429752986299729F2CF442964
:102D2000552966297729009138021091390220919E
:102D30003A0230913B02CB01BA016027712782270A
:102D40009327DFCF1F70CC2029F0812F0E94650FC1
:102D5000802FEBCE802F0E94940F812F0E94250F91
:102D6000A7CE802F92EF891609F43FC0981570F016
:102D7000E0EF8E16D1F0F1EF8F1691F0CC2009F430
:102D80006CC0911047CE812F8F7133C023EF821614
:102D900099F134EF8312F2CF80913D0282FD3FC062
:102DA000812F8F71CC20D1F224C0CC20C9F084E0D7
:102DB000891508F47DCE1F7161E070E080E090E03D
:102DC00004C0660F771F881F991F1A95D2F70091CC
:102DD00038021091390220913A0230913B02ADCF76
:102DE00095E0991508F464CEE6CF812F8F71C1105C
:102DF000B5CF0E94650F5CCE60E070E0CB01CC20C7
:102E000009F47FCF1F7161E070E080E090E004C0C2
:102E1000660F771F881F991F1A95D2F772CFCC20A3
:102E200089F01F71812F0E94650F80913D0282FF02
:102E300007C0E8E01E9FC001112483608093E30176
:102E4000812FD7CF81E00E94490FF1E0F91508F0FA
:102E50002FCE82E00E94490F2BCE992039F0893382
:102E600009F490CE802F0E94A50F22CE812F8F7162
:102E700075CF85E0DE01119601900D928A95E1F7FC
:102E8000F701228189819A81211147CB0E94AE06E8
:102E9000182F4BCB0631FCE51F0709F4F6CC8091C7
:102EA000ED0182720A3C2CE5120709F41CCD08F0F2
:102EB0004BC0063C9CE5190709F410CD70F5043CA5
:102EC000FCE51F0709F4FECC08F003CD033C3CE50C
:102ED000130709F035CD8091610580FFEBCC8E7F23
:102EE0008093610560916105709162058091630531
:102EF000909164050E948708809188048160809386
:102F000088043FEF80E792E0315080409040E1F745
:102F100000C000000E94680727CB42E959E06FE932
:102F200079E0083C9CE5190709F4D0CC46EB59E060
:102F30006CEA79E0093CECE51E0708F4C7CC4FE9E0
:102F400059E062E979E0C2CC0E3CFCE51F0709F4C8
:102F5000CFCCB8F440EC59E062ED79E00C3C3CE5B4
:102F6000130709F4B3CC45E859E068E779E00D3C74
:102F70009CE5190708F4AACC42ED59E060EC79E031
:102F8000A5CC073DECE51E0708F4EECA0E35FDE5BD
:102F90001F0709F4E9CAD4CC0B352DE5120709F453
:102FA00017CD68F401158CE5180709F4A4CC0F3D82
:102FB0001C4509F0C5CC0E9434100E94020F0D354B
:102FC000EDE51E0709F4B3CC08F404CD083A1D451D
:102FD000A1F3B6CC1F93CF93DF938091B001807F94
:102FE00009F049C08091AD01882309F444C0809163
:102FF000E201D091B1016091AB017091AC01A0915F
:10300000AE01B091AF01C62FC72316E0D81799F1D2
:1030100090E0109711F0CF3F19F401968770F6CF2A
:10302000189F9001199F300D1124F901EE54FE4FA5
:1030300041814713F2CF40814613EFCF42814111C6
:10304000ECCF438154814A1B5B0B483C510528F768
:103050008091B0018F7080618093B001F901E954D3
:10306000FE4F80818F70806180838BEA91E00E94A7
:1030700077120E945B06DF91CF911F910895A1E125
:10308000B0E0E5E4F8E10C94EF228C0185E0F80172
:10309000DE011D9601900D928A95E1F7F801E2801C
:1030A0008BEAA82E81E0B82E6091AE017091AF013D
:1030B0006115710509F426C19091AB014091AC01F5
:1030C000892F84238F3F09F41DC120813181C38062
:1030D000D480F090AD01F601E61BF70BFF2009F458
:1030E000DCC08091B001582F507FE83CF10508F01A
:1030F0009FC051116BC0FE2C431314C0921312C019
:10310000E11010C08F7080618093B001C5010E94F2
:1031100077128091B001F80185838F2D6196EAE0E6
:103120000C940B23C114D10429F0822F83238F3FE9
:1031300009F003C180E0F82FF170DF2E80FF3CC062
:103140008091E2014091B10156E0841315C02D87B2
:103150003E878D859E850E94A106292F22952F707E
:103160002230F0F0243018F59F70F1F0F8019581CD
:10317000907FD1F4D12C1EC090E0589FF001599F50
:10318000F00D1124EE54FE4F6181361306C06081AC
:10319000261303C06281E6120FC001968770D5CF57
:1031A0009F7011F0882331F3805E883018F3C801D6
:1031B0000E947712FD2CB1CFEE2009F4AECF8091A2
:1031C000B00181608093B001F12CA7CF431306C0FA
:1031D000921304C0F801EE2009F479C0C8010E94DE
:1031E0001B07882309F1EE20F9F08091B0018032AD
:1031F00070F02091AB013091AC0138872F83198694
:10320000DB86CA868C87CE0107960E94771286E0FD
:10321000F801ABEAB1E001900D928A95E1F70E94C6
:10322000EA17FF24F39479CFC8010E947712F9CFEF
:1032300051110AC08BEA91E00E94771286E0F501F5
:1032400011928A95E9F7C0CF43130FC092130DC0B6
:10325000E1100BC0F8018583C8010E94771286E057
:10326000F50111928A95E9F758CFC8010E941B0712
:103270008823D1F2EE20C1F28091B001803238F281
:103280002091AB013091AC013A8329831B82DD820E
:10329000CC828E83CE010196B8CFE83CF105F8F6DA
:1032A000FE2CEE2009F243131FC092131DC0809123
:1032B000B00180FD10C0982F907F69F0F8018583E0
:1032C000903F31F0982F907F905F8F70892B85838E
:1032D000C8010E94771286E0F801ABEAB1E00190E4
:1032E0000D928A95E1F719CFC8010E941B07811141
:1032F0008ECF8091B00181608093B001C8010E949F
:1033000077120BCFEE2009F48FCFC8010E941B0764
:10331000F82E882309F488CF86E0F801ABEAB1E003
:1033200001900D928A95E1F78091AB019091AC01EB
:103330000E94A1060E94EA17F0CE81E08E25FBCE06
:10334000A7E1B0E0E6EAF9E10C94F6224B8B5C8B46
:103350006D8B7E8B8F8B61111092EC011A8A198A0A
:1033600085E0FE017396DE011D9601900D928A950F
:10337000E1F786E0FE013D96DE01179601900D9281
:103380008A95E1F7CE0107960E943F18811112C07D
:1033900086E0FE013796DE01119601900D928A9526
:1033A000E1F78A859B85892B29F088859F81892370
:1033B0008F3F81F516E08091E2019091B101891370
:1033C00017C06796E3E00C94122396E0929FD00119
:1033D000939FB00D1124AE54BE4FFE013196019063
:1033E0000D929A95E1F78093B1010E945B06E2CFBE
:1033F000819FC00111248E549E4F0E943F18882344
:1034000001F38091E20190E0019687709927809303
:10341000E201D1CF2091B10130E0C901019687705E
:1034200099274091E2014817190679F60E945D0C30
:103430001092B1011092E20186E0EBEAF1E0DF01C7
:103440001D928A95E9F7B6CFAFE0B0E0EAE2FAE183
:103450000C94EC228E010F5F1F4F8AE0D8011D9261
:103460008A95E9F78EE4C82E81E0D82EF12CE12C64
:10347000AA24A394B12C29E5822E21E0922EF601F4
:1034800081916F018F3F09F442C0F894E82FE295D3
:10349000EF70F0E021A18F70A50102C0440F551F0D
:1034A0008A95E2F7CA01922F982B91A392A1809559
:1034B000892382A3789400C0E3E5F1E0712C31E028
:1034C00021912F3F09F46BC0A22FA295AF70B0E0FD
:1034D00090968C9190E02F7002C0959587952A95D3
:1034E000E2F780FD5CC0832F782A330F8E169F068B
:1034F00039F7F601319780818F3F11F00E947004F7
:1035000050EA5A95F1F7F801EE0DFF1D70828FEF2A
:10351000E81AF80A95E0E916F10409F0B0CF4AE09C
:1035200050E0B8018CE292E00E9438237C01892BA4
:1035300041F08AE0F801ACE2B2E001900D928A9588
:10354000E1F710913702E114F10459F181E0809321
:10355000F5010E940B129093F4018093F301809186
:10356000F3019091F4010E94FC11059778F0ACE210
:10357000B2E0E12FF0E0EF5BFD4F81E392E02D91AF
:1035800021938A179B07D9F71092F50181E090E00B
:10359000E114F10451F02F96EDE00C94082380E043
:1035A000A3CF8091F5018111DACF0E94E607D82ED2
:1035B000E0913702DE011B967D01882309F473C078
:1035C00085E01D928A95E9F70E2F10E00F5B1D4FE5
:1035D000809127028A30A0F544EF5BE0B701C80173
:1035E0000E94B3078823D9F14CEA5BE0B701C80118
:1035F0000E94B307882399F14EE95AE0B701C80148
:103600000E94B307882359F14DE35AE0B701C8017E
:103610000E94B307882319F1109227028091360285
:1036200090E045E050E0B7018F5B9D4F0E9438234A
:1036300021E02093FC01892B49F5D12C8D2DABCFB6
:103640008091F6019091F7010E94FC11843F914016
:1036500018F68091FC01811112C080E09CCF80910E
:1036600027028F3F29F08F5F809327028A30B0F2C4
:103670000E940B129093F7018093F601EACF85E048
:10368000F70111928A95E9F71092FC01A091360298
:10369000B0E0AF5BBD4F85E0FE013B9601900D921F
:1036A0008A95E1F7CBCFF0E0EF5BFD4F85E0A0E13D
:1036B000B2E001900D928A95E1F765E070E080E15B
:1036C00092E00E943C0480930F0240915B0250E024
:1036D00060915A0270E06A5A7D4FC7010E944523EB
:1036E0008B858093160261E070E0C7010E943C0464
:1036F00080931502C0901702D0901802E090190232
:10370000F0901A028091F8019091F901A091FA01CC
:10371000B091FB01C816D906EA06FB06D1F0C092AB
:10372000F801D092F901E092FA01F092FB010E94B7
:10373000E60781110EC00E941604C61AD70AE80ACD
:10374000F90AC0922802D0922902E0922A02F0924D
:103750002B0280912202882309F47FCF80FF0DC0C5
:1037600080911B029091610580FF17C0916090933A
:10377000610560E086950E94E4098091220281FF44
:1037800009C020E040911E0260911D0280911C0240
:103790000E949A081092220260CF9E7F909361054A
:1037A00080918804816080938804FFEF20E742E0E5
:1037B000F15020404040E1F700C000000E9468073F
:1037C000DCCF1F921FB61F9211248F939F93AF934C
:1037D000BF9380916E05811113C080916F05909108
:1037E0007005A0917105B09172054196A11DB11DA2
:1037F00080936F0590937005A0937105B093720547
:10380000BF91AF919F918F911F901FBE1F901895F0
:10381000CDB7DEB72C970FB6F894DEBF0FBECDBF85
:1038200085B7806885BF85B7806885BF84B7877F87
:1038300084BF0FB6F894A89580916000886180934A
:103840006000109260000FBE80E890E00FB6F89420
:1038500080936100909361000FBE8EE694E0909398
:103860007501809374010E94BD020E94DC02809168
:10387000E20084608093E200789480918005882340
:10388000A1F01091E9001F709091EC00892F8170D8
:1038900090FD80E8182B1092E9008091E80083FDEC
:1038A0000E946B0C1F701093E90082E084BD93E0CE
:1038B00095BD9AEF97BD80936E00109228021092EA
:1038C000290210922A0210922B020E94E60780938E
:1038D000300180913001882309F43DC110924601E6
:1038E00084E2809347010E94E60781110E947121C2
:1038F000809130018091300195E0811190E09093AA
:10390000370285E0891B809336020EE411E0D8016E
:103910008D918D018F3F11F00E947004B1E003354D
:103920001B07A9F703E511E0E9E5EE2EE1E0FE2E25
:10393000F80181918F018F3F11F00E947004E01611
:10394000F106B1F78AE0E1E4F2E0DF01282F1D92F1
:103950002A95E9F7ECE2F2E0DF011D928A95E9F79A
:1039600090E080E00E945C23883E9E4F11F00E9410
:10397000341082E090E00E944E2380934B020E941C
:103980002F0A90933D0280933C0283E090E00E94D6
:103990004E23682F70E090E080E00E94870F109225
:1039A0007F0480E880935E020E9428206DE070E032
:1039B00087E193E00E941A08892BC9F580917F0462
:1039C00063E070E081FDCBC084E193E00E941A08BF
:1039D000892B69F56DE070E084E093E00E941A089D
:1039E000892B29F50E941604605A75418F4F9F4F0D
:1039F00060936605709367058093680590936905E9
:103A0000EFE7F2E080E092E0DF019C011D9221509F
:103A10003040E1F78FEF9FEF909382048093810411
:103A200081E080936B0580936A05109280048091F9
:103A30003E02811139C090E080E00E945C23883E04
:103A40009E4F21F00E9434100E94160A88E090E0F8
:103A50000E9456236093610570936205809363050D
:103A600090936405809188048360809388046E7FBE
:103A700071F40E94160A88E090E00E945623609339
:103A800061057093620580936305909364050E94BD
:103A900058048091610580FF04C060E086950E9413
:103AA000E40981E080933E029091300181E0982703
:103AB00090935A02A82FA91BA09340029091300125
:103AC00080935B029091300180933F02809130019E
:103AD000811106C084E980933E0185EF80933D010A
:103AE00020913E01E22FE295EF70F0E061A12F708E
:103AF00081E090E0AC0101C0440F2A95EAF7342F31
:103B00003095362331A322A1242B22A320913D01FD
:103B1000E22FE295EF70F0E031A12F7001C0880F25
:103B20002A95EAF7982F9095932391A392A1892B38
:103B300082A38FE891E00197F1F700C00000109197
:103B40005B026CE572E04DE351E08EE3E82E81E02C
:103B5000F82EFB012FC084E280934601C2CE81E1A2
:103B600093E034CFD7012D917D01822F82958F7004
:103B700090E0DC0190968C9190E02F7002C09595BA
:103B800087952A95E2F78170DA019D91AD01292F81
:103B900022952F7030E0D90190962C9130E09F70E3
:103BA00002C0359527959A95E2F790E020FD92E0C6
:103BB000892B81938E2F861B8117A0F20E94E60726
:103BC000811102C00E94742181E391E090936D0500
:103BD00080936C0570E4672E8091800500E112E10E
:103BE000853009F4D1C00E94241AE82E81110E9468
:103BF0001604A1E4B2E0ECE4F2E010E000E0B02E44
:103C0000DD9081918D1509F4CEC0C12CFF24F39471
:103C10008D25982F9F2109F4C1C00E94E6078823B3
:103C200099F0C982BA82DF2081E009F480E08B83B9
:103C30000E940B128160782F9D838C8349815A8169
:103C40006B818D810E94A019F801E45BFD4F80819A
:103C5000F826F0820E94E60790905B0280905A025C
:103C600028E532E05DE3C52E51E0D52E6EE3A62EA9
:103C700061E0B62E0CE512E040E0F12C4911AAC03B
:103C8000F1100E944B0680916B058823A9F1809169
:103C90008304909184040E94FC11C29730F00E942A
:103CA0000B129093840480938304209181043091BB
:103CB00082042115310539F08091800461E070E0C3
:103CC000882309F4E5C080916A058823A9F00E9441
:103CD00016040091660510916705209168053091E2
:103CE0006905601B710B820B930B6F3F7F4F8F4FEA
:103CF0009F4710F40E944408E11001C0F1100E9497
:103D00005F080E94090890918504891709F464CF1F
:103D10008093850461CF80918005843029F10E94D1
:103D2000440810926E05E8E1F0E00FB6F894A8950B
:103D3000E09360000FBE6092600083B7817F846073
:103D400083BF83B7816083BF7894889583B78E7F64
:103D500083BF0FB6F894A895809160008861809326
:103D60006000109260000FBE80917F05882361F093
:103D70000E94241AE1E4F2E08191811153C12BE405
:103D800032E02E173F07C1F780918005853009F496
:103D9000C2CF0E945D0C0E94090825CFC394FF0C7E
:103DA00036E0C31236CF0F5F1F4F0A30110509F0FE
:103DB00026CF8FEF8E838F8318860E940B1281602F
:103DC000782F9A8789874E815F8168858A850E94CE
:103DD000A01940CFD5018D915D01E82FE295EF70DC
:103DE000F0E0E0A1F0E08F7002C0F595E7958A95CC
:103DF000E2F7E170D6015D916D01A52FA295AF703C
:103E0000B0E090968C9190E05F7002C09595879598
:103E10005A95E2F790E080FD92E09E2BD801ED915B
:103E20008D015E2F5370951721F1EE0FEE0FE92BE8
:103E30001197EC93942F980DEF70F0E0E75AFE4F36
:103E40005081F9018081850F80838430B4F0E92F9F
:103E5000F0E0EA5AFD4F90819F5F9083E1E0082EE9
:103E6000000C990B64E070E00E941E23D9018C9332
:103E7000FE2A4F5F2F5F3F4F01CFE0E08D3F7CF781
:103E8000E92FF0E0EA5AFD4F90819150E6CF8F5F25
:103E9000082F10E02B01082E02C0440C551C0A9478
:103EA000E2F7A90144215521452B89F390917F0424
:103EB00090FD44C08295880F8076809341019801DF
:103EC000369527953695279520934401815E8093FA
:103ED00042011092450124E630E047E050E06FE3F4
:103EE00071E088E70E94CB20892B09F0ECCEA80175
:103EF00025E0440F551F2A95E1F780917F0480FD4E
:103F00002BC041585D4F04E610E020E230E060E451
:103F100088E70E94EC20892B09F0D5CE0E945F082B
:103F2000C20180959095409081045090820448226F
:103F300059225092820440928104C5CE880F880F86
:103F4000880F8093410110924401895F8093420160
:103F500083E080934501BFCFEFE5F2E080E2DF012F
:103F60001D928A95E9F7EDE6F1E0FC87EB8709E61B
:103F700011E097E0A92E99249394AB85BC852D91EF
:103F8000BC87AB87F80121908F01240E352E311CA0
:103F9000C10181589D4F1C01E22FF0E0E15AFD4F15
:103FA00030E020E07A2C721AB92C022E01C0BB0C32
:103FB0000A94EAF7610190E0D6018D916D018B21A1
:103FC000672D691B6770862E062E000C770BB82FA5
:103FD00001C0BB0F8A94EAF78B2E71956195710928
:103FE0006770772701C086956A95EAF7882A8081ED
:103FF000882A80829F5F9830F9F62F5F3F4F319675
:104000002830310579F6E1E7F1E02B853C85E217B0
:10401000F30709F0B2CF04E610E020E230E04FE50C
:1040200052E075CF09BD19BD09B400FEFDCF8091E6
:10403000D8008F7D8093D8008091E00082608093CB
:10404000E0008091E00081FDFCCF0E945D0C9CCEE1
:104050001092B9008CE08093B8000895B0E0A0E021
:10406000E4E3F0E20C94EE22B82EEB010E940B1276
:104070006C01EE24E394F12CC431D10560F025E00D
:10408000E22EF12CCF3FDC0731F0CE0164E170E08D
:104090000E94D3227B0184EAA82E94E8992E1092E4
:1040A000BC00A092BC000E940B128C018091BC004D
:1040B00087FF0DC08091B900887F883001F1809121
:1040C000B900887F8031D9F00FEF1FEF09C00E943F
:1040D0000B12801B910B8E159F0540F30EEF1FEF07
:1040E000CF3FDC07E1F2C6010E94FC118C179D074F
:1040F000B0F2C801CDB7DEB7EBE00C940A23B09262
:10410000BB009092BC000E940B128C018091BC00FD
:1041100087FF0AC08091B900887F883111F0803410
:1041200099F610E000E0E5CF0E940B12801B910B86
:104130008E159F0558F3D2CF0F931F93CF93DF9324
:10414000EB018093BB0084E88093BC000E940B12BB
:104150008C018091BC0087FF11C02091B900287F9D
:1041600081E090E0283211F490E080E09195819513
:104170009109DF91CF911F910F910895CF3FDC07F7
:1041800041F30E940B12801B910B8C179D0708F3C3
:104190008EEF9FEFEECFB0E0A0E0E1EDF0E20C9407
:1041A000F1226B018A017901B9010E942E20E601FA
:1041B0000C0D1D1DC017D10711F097FF08C024E991
:1041C0002093BC00CDB7DEB7E8E00C940D23B70117
:1041D00089910E949C20EECFB0E0A0E0E2EFF0E2F7
:1041E0000C94F122C62F6A017901B8010E942E2099
:1041F00097FD0CC0B8018C2F0E949C20E601EC0CAE
:10420000FD1CCE15DF0511F097FF08C024E92093AF
:10421000BC00CDB7DEB7E8E00C940D23B80189915E
:104220000E949C20EECF84E98093BC0008958EE12B
:104230004A9B02C08150E1F74A9BFECF08955A98ED
:1042400080E28A95F1F75A9A0895FC013BE03A958D
:10425000F1F798E020E080E031E040E14A95F1F7A5
:10426000880F4A9B02C08160232742E04A95F1F7FC
:10427000000040E14A95F1F7915079F790E19A9565
:10428000F1F799B132E03A95F1F7000040E14A9533
:10429000F1F792FB992790F992272081920F908352
:1042A0000895A1E0B0E0E7E5F1E20C94F322198271
:1042B0008C017C01E60EF11C0E151F0541F481E016
:1042C0009981911180E02196E6E00C940F230E94E1
:1042D0001721CE0101960E942521F80181938F01BB
:1042E000EBCF529A5A9A089552985A9AEA9AE9E666
:1042F000F0E080818F7C808308956150770B91E09E
:1043000001C0990F6A95EAF720E031E0911108C0E9
:10431000222391F05A9A80E28A95F1F75A980895EB
:10432000492F482339F05A9A232740E24A95F1F75A
:104330009695ECCF5A98F9CF5A98EDCFFF920F93FC
:104340001F93CF93DF93EC018C01060F111DC01753
:10435000D10729F4CDB7DEB7E5E00C941023F9902E
:104360000E941F2168E08F2D0E947D21F0CF1F92B7
:104370000F920FB60F9211240F931F932F933F9319
:104380004F935F936F937F938F939F93AF93BF935D
:10439000EF93FF93CF93DF930F92CDB7DEB71982E0
:1043A0000E941721CE0101960E942521082F069513
:1043B00006950695282F22952570902F9570290F28
:1043C000922F937026952695920F98279770898142
:1043D000982B09F05CC0073008F059C080E18A953D
:1043E000F1F75A9A529A82E08A95F1F700C05A98EA
:1043F00088E0089F80011124D801A050BF4F169675
:10440000ED91FC9117973097A9F060914C01709154
:104410004D0114962D913C911597260F371F11963B
:104420008D919C911297680F791F13964C91139759
:104430008C910995F801E050FF4F6381662351F09C
:1044400020914C0130914D0184819581820F931F01
:104450000E949E210E941F2180E18A95F1F75A98BF
:1044600052985A9A80E18A95F1F7F801E050FF4F8F
:104470006081662351F020914C0130914D01818182
:104480009281820F931F0E9451210E9417210F9049
:10449000DF91CF91FF91EF91BF91AF919F918F915C
:1044A0007F916F915F914F913F912F911F910F914C
:1044B0000F900FBE0F901F9018950F931F93CF93DF
:1044C000DF93EC0107970CF04CC0F894529A5A987D
:1044D00085E08A95F1F700009C2F969595708C2FBA
:1044E0008570980F892F83709695969523E0CC0F51
:1044F000DD1F2A95E1F7980F8E01092B0E941F21DD
:1045000000C068E0802F0E947D2180E18A95F1F74C
:1045100052985A9A4A9B1EC087E090E04A991CC064
:10452000FE01E050FF4F63816623F9F020914C01BA
:1045300030914D0184819581820F931F0E945121FA
:10454000811113C0529A5A9A7894DF91CF911F919A
:104550000F91089500C0DECF019729F4529A5A9A1C
:10456000789480E0F2CF00C0D9CF0E94172180E27A
:104570008A95F1F75A98529A80E18A95F1F7C050DE
:10458000DF4F6881662351F020914C0130914D013D
:1045900089819A81820F931F0E949E210E941F2170
:1045A000789481E0D2CFAA1BBB1B51E107C0AA1FA0
:1045B000BB1FA617B70710F0A61BB70B881F991FC4
:1045C0005A95A9F780959095BC01CD0108952F9239
:1045D0003F924F925F926F927F928F929F92AF9293
:1045E000BF92CF92DF92EF92FF920F931F93CF93E0
:1045F000DF93CDB7DEB7CA1BDB0B0FB6F894DEBF77
:104600000FBECDBF09942A88398848885F846E849C
:104610007D848C849B84AA84B984C884DF80EE80E6
:10462000FD800C811B81AA81B981CE0FD11D0FB6EF
:10463000F894DEBF0FBECDBFED01089597FB072EA6
:1046400016F4009407D077FD09D00E94D32207FC0E
:1046500005D03EF4909581959F4F08957095619592
:104660007F4F0895EE0FFF1F0590F491E02D099400
:10467000FB01DC0104C08D910190801921F44150AF
:104680005040C8F7881B990B0895FB01DC0102C05C
:1046900001900D9241505040D8F70895F999FECFFE
:1046A00092BD81BDF89A992780B50895A6E1B0E042
:1046B00044E050E00C948823A8E1B0E042E050E0F0
:1046C0000C948823262FF999FECF92BD81BDF89ACC
:1046D000019700B4021639F01FBA20BD0FB6F89446
:1046E000FA9AF99A0FBE08950396272F0E94632322
:1046F0000E946223252F0E946323242F0C9463239E
:104700000196272F0E9463230C946223DC01CB01C6
:10471000FC01F999FECF06C0F2BDE1BDF89A3196D1
:1047200000B40D9241505040B8F70895F894FFCF6F
:104730004A0D720DF00E720DF00EA50DC60DF00EA5
:10474000B00EBC0EF114F1142A152A15581558157F
:0C47500058155815CC15A216B116B1165C
:10475C000000000100000000000000050100000046
:10476C00000000010600000000000001070000002E
:10477C000408000000000000080C0000000000000D
:10478C000113043B071204100411040F0494F500E8
:10479C0021007F2200030048004848010F02669761
:1047AC00C63435F6F73133323600FF010001000014
:1047BC00FFFF0000010001FF00000810181810088E
:0447CC0000000100E8
:00000001FF
