:100000000C9482020C949F020C949F020C946E2319
:100010000C949F020C949F020C949F020C949F02DC
:100020000C949F020C949F020C94BA0E0C94F70D42
:100030000C94DD0F0C949F020C949F020C949F0271
:100040000C949F020C949F020C949F020C949F02AC
:100050000C949F020C94900F0C949F020C949F029E
:100060000C949F020C949F020C949F020C949F028C
:100070000C949F020C949F020C949F020C949F027C
:100080000C949F020C949F020C949F020C949F026C
:100090000C949F020C949F020C949F020C949F025C
:1000A0000C949F020C949F020C949F02B906B9060F
:1000B000EB06EB06E908E908E908E9085D073B08F3
:1000C0004C084C08280C4F0CCF0D4F0CCF0D970C43
:1000D000BA0CCF0D970DAA0D05010906A101050760
:1000E00019E029E7150025019508750181029501A0
:1000F000750881010507190029FF150026FF0095E5
:1001000006750881000508190129059505750191F5
:1001100002950175039101C009022200010100A0AE
:10012000FA09040000010301010009211101000185
:1001300022400007058103080001120100020000AF
:10014000000851FC59000001010200011C034C0091
:1001500069006C0079003500380047006C006F00C2
:10016000770045006E006300000018034F00520046
:100170005600490053004500560041004E00530010
:100180002B0000000403090400DA0281FFD9F1DB2F
:1001900020A4A62EAF00A0C000A1C800AED580A8A4
:1001A0001FD300408D142000165C1E001F0020008D
:1001B000210022002B0014001A000800150017006F
:1001C000296104001600070009000A00E1001D0073
:1001D0001B000600190005000000E200E3000151C9
:1001E0002C004C00350227002600250024002300A7
:1001F0003100130012000C0018001C003400330002
:100200000F000E000D000B00E500387137003600BE
:10021000100011000000E200E700025128002A004F
:100220003A003B003C003D003E003F00010004510D
:100230000100010001000100010003510100010063
:1002400001000100010001000100010001000100A6
:10025000000001000100010001002F0045004400E2
:1002600043004200410040002B002A004D004B009B
:100270004E004A0028004C004F0052005100500030
:100280000100380237023602310225020000E60082
:1002900001000100010030003A003B003C003D003D
:1002A0003E003F00010031003502230234003500DA
:1002B000010033002D002E022E002D0201001E022F
:1002C0001F022002210222020000010001000100A1
:1002D000010001004500440043004200410040008D
:1002E000E4004C00300230002F002F022B002900C8
:1002F00033022702260224020100380237023602A6
:10030000310225020000E6000100010001000100A9
:1003100000000000000000000000000000000100DC
:1003200000000000000000000000010000000000CC
:1003300000000000000000000000000000000000BD
:10034000000001000100010001004C00000000005D
:10035000000037003600230200002D002600250093
:1003600024002E0000002E02230022002100540051
:1003700000002E0020001F001E00250200002700A4
:100380002700270001002A000000000000000000F4
:10039000000000000000010000000000000000005C
:1003A000000001000000000000000000000000004C
:1003B000000000000000000000000100010001003A
:1003C00001004C00000049004800470046000000C2
:1003D0000000FF00F400F300F200F1000000FE0056
:1003E000F000ED00EE00EF000000FD00FC00F90061
:1003F000FA00FB00000001000100010001002A00DA
:1004000000010101010101010101020202020202D7
:1004100002020203030303030303030404040404AA
:100420000404050505050506060606060707070771
:100430000708080808090909090A0A0A0B0B0B0C26
:100440000C0C0D0D0D0E0E0E0F0F0F1010111111C3
:100450001212131314141515161617171818191944
:100460001A1A1B1B1C1D1D1E1E1F202021222223A9
:100470002424252626272829292A2B2C2D2D2E2FEA
:1004800030313232333435363738393A3B3C3D3E01
:100490003F404142434445464748494A4C4D4E4FF0
:1004A00050515354555658595A5B5D5E5F616264B2
:1004B000656668696B6C6D6F7072737577787A7B3F
:1004C0007D7E8082838587888A8C8E8F9193959696
:1004D000989A9C9EA0A2A3A5A7A9ABADAFB1B3B5B6
:1004E000B7BABCBEC0C2C4C6C9CBCDCFD1D4D6D892
:1004F000DBDDDFE2E4E7E9EBEEF0F3F5F8FAFDFF30
:1005000000AF00AE11241FBECFEFDAE0DEBFCDBFDB
:1005100011E0A0E0B1E0EAE3FAE402C005900D9238
:10052000A437B107D9F725E0A4E7B1E001C01D92D7
:10053000A938B207E1F70E9454160C941B250C94BD
:100540000000882321F00E94CA1A0C94D11A089541
:10055000882339F090919804892B809398040C9407
:10056000D11A0895882309F450C09CEF980F913A4E
:1005700060F4E6E2F4E09281891301C012823196C0
:1005800094E0EC32F907B9F70DC090E2980F98307B
:1005900058F4982F977081E001C0880F9A95EAF778
:1005A0000E94CA1A0C94D11A9BE5980F9330A0F4BC
:1005B0008091770190917801892B39F1109278011F
:1005C00010927701E0918705F09188053097E9F066
:1005D0000680F781E02D16C0885A8731B0F48091EB
:1005E000790190917A01892B81F010927A01109211
:1005F0007901E0918705F0918805309731F000840A
:10060000F185E02D80E090E009940895CF93882350
:10061000C9F19CEF980F913AF8F4C82FE8E2F4E0A2
:100620008191C81729F044E0EE32F407C9F70EC0F3
:10063000E6E2F4E08CE294E02281C21301C012826F
:1006400031968E179F07C1F70E94D11A6C2F86E250
:1006500094E00E94061013C090E2980F983090F436
:10066000877021E030E0A90102C0440F551F8A9530
:10067000E2F7CA0190919804892B80939804CF9156
:100680000C94D11ACF9108951F93CF93DF93CDB7D8
:10069000DEB767970FB6F894DEBF0FBECDBF4B8BAA
:1006A0005C8B6D8B7E8B8F8B61111092970486E033
:1006B0009E01235F3F4FD901E82F1D92EA95E9F78C
:1006C00095E0FE017396D90101900D929A95E1F79C
:1006D0009C894E895F897B897D879E876F87598B2F
:1006E000488BF901DE01179601900D928A95E1F78A
:1006F000CE0107960E94181C81113EC086E0FE01C3
:100700003796DE01119601900D928A95E1F7FF81EF
:10071000E8856A857B856115710531F0EF3F31F41D
:1007200081E0FF3F19F403C081E001C080E080FD5B
:1007300023C020915C0430E0C9010196877099279D
:1007400040918D0450E08417950779F1F983EA838D
:100750007D836C8396E0929FD001939FB00D11240E
:10076000A35ABB4FFE01319601900D929A95E1F785
:1007700080935C040E940D1B16E080918D04909183
:100780005C048917F9F0189FC0011124835A9B4F0C
:100790000E94181C8823B1F080918D0490E001968E
:1007A0008770992780938D04E8CF0E94AA1E10922B
:1007B0005C0410928D04E6E5F4E086E0DF011D9212
:1007C0008A95E9F767960FB6F894DEBF0FBECDBFE6
:1007D000DF91CF911F9108958F929F92AF92BF9218
:1007E000CF92DF92EF92FF920F931F93CF93DF93FD
:1007F000CDB7DEB72A970FB6F894DEBF0FBECDBFD8
:10080000FC010081D18083819481892B39F01FEF15
:10081000D11206C091E00F3F19F403C091E001C06E
:1008200090E090FDB6C57F0185E0DE01169601904F
:100830000D928A95E1F7F70122818E819F81222313
:1008400049F00E94831B182F682F8E819F810E9480
:10085000E61D03C00E94B91D182F2CE3129FF00162
:10086000112436E0D39EE00DF11D1124E00FF11D9F
:10087000EE0FFF1FE855FE4F05911491043F8CE5E4
:10088000180759F190F4093DECE51E07E9F00A3D1F
:10089000FCE51F07A1F1083D2CE51207B1F506E2C2
:1008A00021EE41EE68ED7CE514C0063F3CE5130700
:1008B00001F1C8F0073F9CE5190739F507E225EE7D
:1008C00046EE67EF7CE505C007E225EE45EE69EDF3
:1008D0007CE5C7010E943121C3C406E221EE40EE4F
:1008E00064EF7CE5F6CF07E225EE44EE65EF7CE5AC
:1008F000F0CF06E221EE42EE66EF7CE5EACF08E2B9
:1009000021E045EE6AED7CE5E4CFF70182818823A2
:1009100009F45BC1109286050430FDE51F0758F409
:100920000B3F2CE5120780F4C80182509C45449788
:1009300008F035C109C002363DE5130729F0063A33
:100940008DE5180709F02BC10E941D149093E10159
:100950008093E00101319CE5190709F4C6C008F055
:1009600042C00930FCE51F0709F49BC000F50530C3
:100970003CE5130709F485C078F403309CE51907BA
:1009800009F478C008F07AC002301C4509F0F7C0BD
:100990008091E0018160F1C007302CE5120709F475
:1009A00078C008F07AC08091E0018061E6C00D3027
:1009B0008CE5180709F487C058F40B30ECE51E07E6
:1009C00009F479C008F07BC08091E00188606FC0B5
:1009D0000F302CE5120709F480C008F082C0809126
:1009E000E001877FCAC00E3F8CE5180709F471C08B
:1009F00000F50531ECE51E0709F485C068F4033104
:100A00002CE5120709F475C008F095C00E94AA1ED3
:100A10008091E0018F77B1C00C3F8CE51807A9F1F8
:100A200008F054C00B3F1C4509F0A9C08091E101BA
:100A300040C00230FDE51F0709F489C058F40115D4
:100A40003DE5130709F45AC008F069C08091E1013F
:100A500082602FC002369DE5190709F47EC0063A70
:100A6000EDE51E0709F483C003301D4509F087C07A
:100A700060E06EC08091E00182607FC08091E00103
:100A800016C08091E001886078C08091E1018260A9
:100A90004FC08091E001806270C08091E00180646D
:100AA0006CC00E94AA1E8091E001806866C08460CC
:100AB00064C081603DC08091E0018E7F5EC0809106
:100AC000E0018D7F5AC08091E00116C08091E10164
:100AD00018C08091E1018D7F2BC08091E0018F7E55
:100AE0004CC08091E0018F7D48C08091E0018F7BF8
:100AF00044C08091E001877F8B7F3FC08091E101FE
:100B00008D7F8E7F15C08091E00182FB222720F926
:100B100091E0922790FB82F990FB83F92EC080919F
:100B2000E101982F909591708E7F892B90FB81F930
:100B30008093E10124C00E94AA1E8091E00187FBFE
:100B4000222720F991E0922790FB87F916C061E0F7
:100B50008EE090E00E94B72412C08091E00184FBF7
:100B6000222720F991E0922790FB84F906C080911A
:100B7000E001982F909590FB80F98093E0016091BF
:100B8000E0011091E10184E090E00E94B724612F20
:100B900082E290E00E94B7240E94AA1E61C306313F
:100BA0002CE5120761F5809198048A7A91E009F4A6
:100BB00090E090937601882311F065E301C069E22B
:100BC00086E294E00E94061017C00631FCE51F077C
:100BD00009F057C080917601882309F464C385E346
:100BE000E6E2F4E02CE234E09281891301C0128243
:100BF00031962E173F07C1F70E94D11A31C30B352A
:100C00003DE51307C1F158F401159CE51907B9F04A
:100C10000F3D1C4509F051C00E94591A21C30C35E3
:100C2000FDE51F0751F10D351D4509F046C08091C6
:100C3000E10182FB882780F991E089271FC00E948B
:100C4000AA1E3FEF84E39CE0315080409040E1F7E2
:100C500000C0000087E797E79093010880930008A1
:100C60009AE088E10FB6F894A895809360000FBED3
:100C700090936000FFCF81E001C080E00E94601E81
:100C80001CC08091980482720A3C2CE5120709F47A
:100C90006AC308F0DBC2063C9CE5190709F454C39B
:100CA00008F003C3043CFCE51F0709F443C308F044
:100CB00046C3033C1C4509F415C3F701828100813A
:100CC000D180882359F0802F9D2D0E94831B182FDF
:100CD000682F802F9D2D0E94E61D05C0802F9D2D21
:100CE0000E94B91D182F2CE3129FF001112436E049
:100CF000D39EE00DF11D1124E00FF11DEE0FFF1F3B
:100D0000E855FE4F859194910E9460128C01982EB7
:100D1000F701B280A580A2943FE0A32280918E04C7
:100D20008770B9F0BB20A9F0812F807F803421F03B
:100D300080E2800F883068F08091E10182FD09C077
:100D400082E00E94431E80918E048770DD24D3943C
:100D50008111D12CC12EC2949FE0C9228C2D90E02C
:100D60008C30910508F035C2FC01EA5AFF4F0C9413
:100D7000FF24812F807F1F70882311F01295107F30
:100D8000BB20B9F0112309F411C280E2800F883032
:100D900010F0911006C080919804182B10939804BD
:100DA00005C080919704182B109397040E94D11AC4
:100DB000FDC1802F0E94B202112309F40AC2005E15
:100DC000083078F1992069F11095809197041823E3
:100DD0001093970429C0812F807F1F70803211F0FB
:100DE0001295107F992021F0F1E09F16D9F149C0AA
:100DF0008091E10182FF1BC0BB2069F0112339F013
:100E000080919804182B109398040E94D11A80E0C6
:100E10000E940603DEC180E00E94B202112309F4A1
:100E2000D8C1812F0E94CA1A0E94D11AD2C1BB20F8
:100E300081F080919904AA2051F001E0A01207C02E
:100E4000182B181709F4C5C110939904C2C1812B3E
:100E500010C0AA2021F021E0A21609F4BAC10E9414
:100E6000C41A27C0BB2041F035E03A1508F4B1C1DF
:100E7000812F0E94A802ADC184E08A1508F4A9C19F
:100E800018C0BB2049F0AA2099F3F701858180FFA3
:100E90008DC18F708583ECCFAA2059F0093309F0FA
:100EA00095C1FFEF17EE23E0F15010402040E1F72D
:100EB0008BC1812F0E94A1028CC1812F837009F008
:100EC00069C0B1108AC1902F929596959770990F2D
:100ED000990F802F8F70882E912CA12CB12C092E68
:100EE00004C0880C991CAA1CBB1C0A94D2F704FFEE
:100EF00012C04FE050E060E070E004C0440F551FA6
:100F0000661F771F9A95D2F7DB01CA0180959095ED
:100F1000A095B09503C080E090E0DC011695169591
:100F2000412F4370423019F1C8F400919A04109196
:100F30009B0420919C0430919D04413059F08829F4
:100F40009929AA29BB29BC01CD01602371238223E1
:100F500093230AC0802A912AA22AB32ABC01CD0178
:100F6000682979298A299B290E949E1E36C18829D1
:100F70009929AA29BB2900919A0410919B042091D8
:100F80009C0430919D04BC01CD016027712782270C
:100F90009327EACFBB2019F0812F817001C086957D
:100FA000882309F41AC1902F929596959770990FFE
:100FB000990F802F8F70882E912CA12CB12C092E87
:100FC00004C0880C991CAA1CBB1C0A94D2F704FF0D
:100FD00012C04FE050E060E070E004C0440F551FC5
:100FE000661F771F9A95D2F7DB01CA01809590950D
:100FF000A095B09503C080E090E0DC0116951695B1
:10100000412F43704230D9F068F50091DC01109116
:10101000DD012091DE013091DF01413059F0882956
:101020009929AA29BB29BC01CD0160237123822300
:1010300093231EC0802A912AA22AB32A13C088298A
:101040009929AA29BB290091DC011091DD01209189
:10105000DE013091DF01BC01CD01602771278227BD
:10106000932706C0BC01CD01682979298A299B29CB
:101070000E94121EB2C01F70BB2039F0812F0E9447
:101080007D1E802F0E94A802A8C0802F0E94A1026E
:10109000812F0E941E1EA1C0802F32EF931609F4EB
:1010A00043C0391538F090EF991659F0E1EF9E16CC
:1010B000B1F177C0F3EF9F16F1F124EF921659F1D9
:1010C00070C0BB2019F134E03A1508F482C01F71DA
:1010D00081E090E0A0E0B0E0AC01BD0104C0440FAD
:1010E000551F661F771F1A95D2F78091DC019091EA
:1010F000DD01A091DE01B091DF018A019B0108278B
:1011000019272A273B27C901B80129C025E02A153C
:1011100008F45FC0DCCF8091E10182FF23C0BB20D7
:1011200029F0812F8F7130C0BB20D9F3812F8F71AF
:101130000E941E1E4EC0BB2079F01F7181E090E01E
:10114000A0E0B0E0BC01CD0104C0660F771F881F8E
:10115000991F1A95D2F703C060E070E0CB010E949E
:10116000121E37C0BB2099F01F71812F0E947D1E77
:101170008091E10182FD07C038E0139FC001112476
:10118000836080938E04812F0E947D1E22C081E0A7
:101190000E94431E81E08A15E0F482E00E94431E13
:1011A00018C0BB2029F0AA2009F4BBCF802F30CE75
:1011B000AA2009F4BBCF893349F49FEFE7EEF3E0AF
:1011C0009150E040F040E1F700C00000802F0E9405
:1011D000B20288EF8C0D843010F40E94B71EDD201F
:1011E000A9F080918E0480FD11C0F70112828595CF
:1011F000859585950E947D1EC7010E94EC03809114
:101200008E048595859585950E941E1E85E0F701C3
:10121000DE01119601900D928A95E1F789819A81FC
:101220000E94B91D9A810CE3809FF001112416E001
:10123000919FE00DF11D11248981E80FF11DEE0F42
:10124000FF1FE855FE4F85919491A3C00E3CFCE52D
:101250001F0709F499C0A8F1073DECE51E07E8F562
:1012600080918E04877009F494C0F70182818823ED
:1012700009F48FC08091E10182FD8BC082E02A9643
:101280000FB6F894DEBF0FBECDBFDF91CF911F9197
:101290000F91FF90EF90DF90CF90BF90AF909F9015
:1012A0008F900C94431E89E29BCC083C9CE5190767
:1012B00009F44FC008F052C04EEB50E265EB70E20B
:1012C00060C00C3C3CE5130709F452C008F055C05F
:1012D00041E950E265E870E254C00E351D4509F45D
:1012E000BFCFEBCC8091790580FF1EC08E7F8093AD
:1012F00079056091790570917A0580917B059091CF
:101300007C050E94821F8091A00481608093A004CC
:101310000FEF10E722E0015010402040E1F700C03D
:1013200000000E94241F9CCF81608093790561E0BA
:1013300086952CC04CE051E265E171E222C045E1A6
:1013400051E26CE071E21DC045EB50E26EEB70E2E1
:1013500018C04DE950E269EA70E213C049EA50E270
:101360006DE970E20EC045E850E261E970E209C043
:1013700047EC50E268ED70E204C048ED50E267ECE3
:1013800070E20E941E1F6CCF61E081E00E94E920A4
:1013900067CF2A960FB6F894DEBF0FBECDBFDF91A0
:1013A000CF911F910F91FF90EF90DF90CF90BF9062
:1013B000AF909F908F900895982F973068F59093F5
:1013C000E900981739F05091EC002091ED00409120
:1013D000F00003C0562F40E022E021FD02C09F5FD5
:1013E000ECCF3091EB003E7F3093EB003091ED007D
:1013F0003D7F3093ED003091EB0031603093EB0096
:101400005093EC002093ED004093F0002091EE000B
:1014100027FDE5CF80E008958F708093E90081E09B
:1014200008952091E4003091E50095E64091EC00AC
:10143000842F817040FF23C08091E80080FD1DC093
:1014400080918D01882399F0853099F08091EB008F
:1014500085FD11C04091E4005091E5002417350747
:1014600029F3915011F09A01E1CF84E0089582E0D0
:10147000089583E0089581E0089580E00895409103
:10148000E80042FFDDCF08950F931F93CF93DF93C2
:101490008C010E94110A811118C0E80108E010E0D7
:1014A0008091E80085FD0AC08091E8008E778093E6
:1014B000E8000E94110A882399F307C0899180935C
:1014C000F1000150110961F780E0DF91CF911F9188
:1014D0000F91089580918F0187FF11C08091E800DE
:1014E00082FD05C080918D018111F8CF11C08091DE
:1014F000E8008B770BC080918D01882349F08091A3
:10150000E80080FFF8CF8091E8008E778093E800B4
:10151000089520919501309196012617370748F0DC
:101520006115710539F42091E8002E772093E800C9
:1015300001C0B901FC0120E06115710579F18091CC
:101540008D018823F1F18530F1F18091E80083FD70
:101550003CC08091E80082FD2EC08091E80080FFB1
:10156000EBCF2091F3008091F20090E0922B611577
:10157000710551F08830910538F421912093F100E4
:10158000615071090196F3CF21E0089709F020E03E
:101590008091E8008E778093E800CECF2111CFCFE5
:1015A0000AC080918D01882361F0853061F08091BF
:1015B000E80083FD0AC08091E80082FFF2CF80E05E
:1015C000089582E0089583E0089581E008950895E4
:1015D000089508950895809182010895CF93DF932F
:1015E00021E02093E9002FEF3091E800215035FDF4
:1015F00006C035ED3A95F1F700002111F5CF2091A5
:10160000E80025FF14C0EC0140E050E068E070E025
:101610000E94440A8091E8008E778093E80088E079
:10162000FE01A3E8B1E001900D928A95E1F7DF9108
:10163000CF910895EF92FF920F931F93CF93DF9373
:10164000EC017B0164E670E088E70E94C2218C0116
:10165000EC0EFD1ECE15DF0561F017FD0AC0FE0180
:10166000849164E670E00E9443228C012196892BCC
:1016700089F30E94C722C801DF91CF911F910F917A
:10168000FF90EF9008951F93CF93DF93CDB7DEB710
:10169000AA970FB6F894DEBF0FBECDBFEFE8F1E01A
:1016A0008091F100819321E0E739F207C9F7809139
:1016B0009001833009F461C030F4813071F08230E0
:1016C00009F49BC0B2C08A3009F487C08B3009F49A
:1016D0006CC0893009F0A9C020C080918F01813A87
:1016E00009F0A3C08091E800877F8093E800809193
:1016F000930190919401892B21F468E083E891E0B3
:1017000003C060E080E090E070E00E94890A809170
:10171000E8008B778093E80088C080918F01813248
:1017200009F083C08091930190919401892B09F075
:101730007CC08091E800877F8093E8008091E8007A
:1017400082FD05C080918D018111F8CF6EC020917E
:10175000F3008091F20090E0922B029731F4809197
:10176000F100813011F0863021F48091F1008093F6
:1017700082018091E8008B7754C080918F01813A7B
:1017800009F053C08091930190919401892B09F045
:101790004CC08091E800877F8093E8008091E8004A
:1017A00080FFFCCF8091000137C080918F01813292
:1017B000E1F58091930190919401892BB1F580918D
:1017C000E800877F8093E8000E946A0A8091910177
:1017D000809300010E94AA1E28C080918F0181324F
:1017E00021F58091E800877F8093E8000E946A0AD3
:1017F000809192018093810118C080918F01813A7C
:10180000A1F48091E800877F8093E8008091E80050
:1018100080FFFCCF809181018093F1008091E800EE
:101820008E778093E8000E946A0A8091E80083FF27
:10183000B6C180918F0190919001492F50E04A30BC
:10184000510508F0ACC1FA01EE59FF4F0C94FF248A
:10185000803821F0823809F0A2C108C080918B0144
:1018600090918C01992389F082600FC0809193013F
:101870008F70873008F093C18093E9008091EB006E
:1018800085FB882780F91092E9009091E800977F06
:101890009093E8008093F1001092F10053C1282F3B
:1018A0002D7F09F07CC1882319F0823061F077C167
:1018B00080919101813009F072C1933009F080E08C
:1018C00080938C012EC08091910181112AC080915A
:1018D00093018F702FEF280F263008F060C180939E
:1018E000E9002091EB0020FF1CC0933021F480918F
:1018F000EB00806214C09091EB0090619093EB003C
:1019000021E030E0A90102C0440F551F8A95E2F79B
:101910004093EA001092EA008091EB008860809387
:10192000EB001092E9008091E800877F0EC18111E1
:1019300036C1109191011F778091E3008078812B4F
:101940008093E3008091E800877F8093E8000E9405
:101950006A0A8091E80080FFFCCF8091E3008068F4
:101960008093E300111102C082E001C083E0809304
:101970008D0115C18058823008F011C1809191010C
:10198000909192018C3D53E0950779F583E08A832D
:101990008AE289834FB7F894DE01139620E03EE097
:1019A00051E2E32FF0E050935700E49120FF03C091
:1019B000E295EF703F5FEF708E2F90E0EA3010F00D
:1019C000C79601C0C0968D939D932F5F243149F730
:1019D0004FBF8091E800877F8093E8006AE270E063
:1019E000CE0101960E94890A9CC0409193015091BA
:1019F0009401292F332723303105A9F068F42130D1
:101A0000310509F4DBC02230310509F0C8C082E29B
:101A100090E0E8E1F1E032C02132310521F12232DB
:101A2000310529F1BCC0992781309105A1F058F00A
:101A3000029709F0B4C0ECE4F1E0E4918E2F90E05D
:101A4000ECE4F1E018C0E4E8F1E0E4918E2F90E0DE
:101A5000E4E8F1E010C0EAE6F1E0E4918E2F90E0D6
:101A6000EAE6F1E008C0452B09F4ADC098C0452B6B
:101A700009F4AEC094C0009709F491C02091E80029
:101A8000277F2093E80020919501309196018217DD
:101A9000930708F49C0140E02115310589F18091FC
:101AA0008D01882309F43DC08530D9F18091E8008B
:101AB00083FD37C08091E80082FD2FC08091E8004F
:101AC00080FFEACF4091F3008091F20090E0942BE8
:101AD0002115310559F08830910540F44491409327
:101AE000F1003196215031090196F2CF41E008977B
:101AF00009F040E08091E8008E778093E800CCCF39
:101B00004111CDCF0AC080918D01882351F08530DD
:101B100041F08091E80083FD04C08091E80082FFDD
:101B2000F2CF8091E8008B778093E80038C080384E
:101B3000B1F58091E800877F8093E80080918E0165
:101B40008093F1008091E8008E778093E8000E94F6
:101B50006A0A25C0811123C0809191019091920160
:101B600099270297E4F48091E800877F8093E8004A
:101B70001091910110938E010E946A0A111106C002
:101B80008091E30087FD02C081E001C084E0809382
:101B90008D0161EC81E00E94DC0980918D018091D2
:101BA000E80083FF1AC08091E800877F8093E800F7
:101BB0008091EB0080628093EB000FC082E190E0A7
:101BC000EAE3F1E05BCF89E090E0EAE2F1E056CFB2
:101BD00080E490E0E8EDF0E051CFAA960FB6F894DB
:101BE000DEBF0FBECDBFDF91CF911F9108951F9231
:101BF0000F920FB60F9211242F933F934F935F9341
:101C00006F937F938F939F93AF93BF93CF93DF9304
:101C1000EF93FF93C091E900CF708091EC00D82F33
:101C2000D17080FDD0E81092E9008091F000877FAC
:101C30008093F00078940E94430B1092E900809109
:101C4000F00088608093F000CD2BCF70C093E90046
:101C5000FF91EF91DF91CF91BF91AF919F918F91C4
:101C60007F916F915F914F913F912F910F900FBE98
:101C70000F901F901895E8EDF0E080818E7F8083B3
:101C80001092E2001092DA001092E100A0EEB0E0B3
:101C90008C9181608C9380818F77808319BCA7EDB4
:101CA000B0E08C918E7F8C9380818F7E80831092A8
:101CB00080010895CF92DF92EF92FF920F931F93CE
:101CC000CF93DF93C8EDD0E088818F7E8883E7EDE6
:101CD000F0E080818160808384E082BF81E0809336
:101CE000800188818E7F888302EE10E0F8011082E7
:101CF0001092DA0081EEC82ED12CF6011082888174
:101D00008F77888388818068888388818F7D8883A6
:101D100019BC10928D0110928E0110928C011092BC
:101D20008B0190EEE92EF12CF70180818B7F80836F
:101D300088818160888360E080E00E94DC09F60190
:101D400080818E7F8083F8018081816080838081A3
:101D500088608083F70180818E7F808388818061A5
:101D60008883DF91CF911F910F91FF90EF90DF90CB
:101D7000CF9008951F920F920FB60F9211242F93B8
:101D80003F934F935F936F937F938F939F93AF9303
:101D9000BF93EF93FF938091E10082FF09C0809190
:101DA000E20082FF05C08091E1008B7F8093E1001B
:101DB0008091DA0080FF2AC08091D80080FF26C081
:101DC0008091DA008E7F8093DA008091D90080FFC5
:101DD00018C080E189BD82E189BD09B400FEFDCF54
:101DE00081E080938D018091800181110FC00E945C
:101DF0003B0E0E945A0E8091E20084608093E200C4
:101E000005C019BC10928D01109280018091E100F3
:101E100080FF17C08091E20080FF13C08091E20034
:101E20008E7F8093E2008091E20080618093E200E7
:101E30008091D80080628093D80019BC85E080939F
:101E40008D018091E10084FF30C08091E20084FF29
:101E50002CC080E189BD82E189BD09B400FEFDCFBF
:101E60008091D8008F7D8093D8008091E1008F7E93
:101E70008093E1008091E2008F7E8093E200809168
:101E8000E20081608093E20080918E01882311F04E
:101E900084E007C08091E30087FD02C081E001C0BB
:101EA00083E080938D0180918D018091E10083FF1B
:101EB00026C08091E20083FF22C08091E100877FED
:101EC0008093E10082E080938D0110928E018091D9
:101ED000E1008E7F8093E1008091E2008E7F80930D
:101EE000E2008091E20080618093E20060E080E0A7
:101EF0000E94DC098091F00088608093F000FF91DF
:101F0000EF91BF91AF919F918F917F916F915F9171
:101F10004F913F912F910F900FBE0F901F901895EA
:101F200078941F920F920FB60F9211248F939F9364
:101F3000AF93BF9380917C0190917D01A0917E0130
:101F4000B0917F010196A11DB11D80937C019093FA
:101F50007D01A0937E01B0937F01BF91AF919F91CE
:101F60008F910F900FBE0F901F9018959C014FB747
:101F7000F89480917C0190917D01A0917E01B091B7
:101F80007F014FBF821B930B08952FB7F894609188
:101F90007C0170917D0180917E0190917F012FBF26
:101FA00008952FB7F89480917C0190917D01A091C4
:101FB0007E01B0917F012FBF08951F920F920FB63F
:101FC0000F9211248F939F93AF93BF9380917B01C6
:101FD000811113C080917C0190917D01A0917E01BF
:101FE000B0917F014196A11DB11D80937C0190931A
:101FF0007D01A0937E01B0937F01BF91AF919F912E
:102000008F910F900FBE0F901F9018959C01FC01AF
:1020100032969FEF80E04191461789F09F3F19F477
:10202000411101C0982F8F5F8630A9F79F3F39F08B
:10203000F901E90FF11D97FDFA956283089508955E
:1020400080E008959091E00192FF0DC0282F287143
:10205000283019F4877F846006C0282F247124302B
:1020600011F48B7F886093FF0DC0282F28712831D1
:1020700019F4877E846106C0282F2471243111F45D
:102080008B7E88612091E10120FF0DC0382F3871CF
:10209000383019F4877F816006C0382F31713130B4
:1020A00011F48E7F886021FF0DC0282F2871283100
:1020B00019F4877E816106C0282F2171213111F426
:1020C0008E7E886194FD877E0895CF93DF93CDB790
:1020D000DEB728970FB6F894DEBF0FBECDBF85E000
:1020E000E9E7F5E0DE01119601900D928A95E1F79E
:1020F00080919E0490919F04A091A0048E839F8361
:10210000A88728854091C7015091C8016091C901F5
:102110007091CA013FB7F89480917C0190917D0144
:10212000A0917E01B0917F013FBF841B950BA60B50
:10213000B70B84369105A105B10510F4222319F1DE
:1021400080912A0190912B018D549E4F409129013D
:1021500050E04930510510F048E050E0BE016F5F9B
:102160007F4F0E94122585E090E00E94142488236E
:1021700069F00E94C50F6093C7017093C8018093F6
:10218000C9019093CA011092A00481E028960FB66D
:10219000F894DEBF0FBECDBFDF91CF9108956F924F
:1021A0007F928F929F92AF92BF92CF92DF92EF92E7
:1021B000FF920F931F93CF93DF931F92CDB7DEB79C
:1021C000C62E4A015901682E880F7708C3010E9464
:1021D0001424882309F473C0C30123E0880F991FD6
:1021E0002A95E1F7FC01EF5FFE4F438150E0411576
:1021F000510511F041E050E0FC01EF5FFE4F6481BA
:1022000075816D547E4FCE0101960E941225F40116
:1022100040815181628173812FB7F89480917C0154
:1022200090917D01A0917E01B0917F012FBF841B11
:10223000950BA60BB70B84369105A105B10538F4B3
:10224000B701C8010E94071F99818917D1F10C2C91
:10225000000CDD08C6010E941424782E8823E1F0CA
:10226000E114F104C9F0960183E0220F331F8A952F
:10227000E1F7F901EF5FFE4F438150E0E416F50608
:1022800008F4A701F901EF5FFE4F648175816D5479
:102290007E4FC5010E941225B701C8010E94071F89
:1022A00091E02981281390E0D92ED72089F00E944F
:1022B000C50FF401608371838283938309C0D12C9D
:1022C00002C0DD24D394A701B801C5010E941225E4
:1022D0008D2D0F90DF91CF911F910F91FF90EF9077
:1022E000DF90CF90BF90AF909F908F907F906F9036
:1022F0000895CF92DF92EF92FF920F931F93CF93A7
:10230000DF9300D000D01F92CDB7DEB76B0185E020
:10231000E82EF12C04EB11E09E012F5F3F4F47EABE
:1023200051E061E080E00E94CF10882349F095E001
:10233000FE013196A2EAB1E001900D929A95E1F783
:1023400095E0E2EAF1E0D60101900D929A95E1F76D
:102350000F900F900F900F900F90DF91CF911F91E2
:102360000F91FF90EF90DF90CF9008958091A101A1
:10237000811118C08091D80080618093D8008AE1D3
:102380008A95F1F700C08091D90080FD02C082E0FB
:1023900001C081E08093A101823021F40E943B0EB4
:1023A00010928D0181E09091A101913009F080E0BF
:1023B00008950F931F93CF93DF9300D000D0CDB734
:1023C000DEB74091AF015091B0016091B1017091C1
:1023D000B2012FB7F89480917C0190917D01A0917A
:1023E0007E01B0917F012FBF841B950BA60BB70B0D
:1023F00084369105A105B10508F441C00E94B611CB
:10240000882319F00E94C50F0EC00E94C50F0091CD
:10241000CC011091CD012091CE013091CF01600F00
:10242000711F821F931FDC01CB010296A11DB11DFC
:1024300089839A83AB83BC8380912201909123018D
:102440008D549E4F4091210150E04530510510F0D0
:1024500044E050E0BE016F5F7F4F0E94122584E090
:1024600090E00E941424882359F00E94C50F6093C5
:10247000AF017093B0018093B1019093B20181E0FC
:102480000F900F900F900F90DF91CF911F910F91B0
:102490000895F894E82FE295EF70F0E031A1282F2D
:1024A0002F7081E090E001C0880F2A95EAF7982FFD
:1024B0009095932391A392A1892B82A37894089558
:1024C000CF93DF938238910569F1B0F481339105A0
:1024D00009F46FC048F48932910509F465C08A3265
:1024E000910509F46BC06FC08533910509F457C09D
:1024F00089339105B9F067C0833E910571F138F4D5
:10250000803E9105B1F0823E910511F15CC0863E9E
:102510009105B9F1873E9105C9F1843E910509F015
:1025200052C024C02091E00120FD2AC121FD28C114
:102530004AC08091E00180FD1DC18091E10180FFD2
:102540001FC18091E00184FD12C183EE90E02CC197
:102550008091E00182FF11C1F4CF8091E00182FD02
:102560000CC18091E10180FD0BC1EBCF8091E101B5
:1025700081FF0CC18091E00184FDF9C087EE90E0FD
:1025800013C18091E00183FFFEC0F4CF8091E00190
:1025900083FDF9C08091E10181FDF8C0EBCF80910E
:1025A000E00185FDF6C0F8C08091E00185FDF4C032
:1025B000F0C08091E00186FDF2C0F4C08091E0019E
:1025C00086FDF0C0ECC0811523E59207A8F58115C2
:1025D00032E5930708F099C0811540E29407D0F4E2
:1025E000811521E0920708F0DFC0853A910550F48B
:1025F0008430910508F0D8C0019709F0B8C081E097
:1026000090E0D2C09C01205E31092830310508F0ED
:10261000AEC0CAC0811531E5930708F071C08115BD
:1026200040E5940708F04EC0811520E4920708F4B5
:102630009EC09F70906AB8C0EC01811536E5930783
:10264000F0F4811545E5940708F078C0C11584E5DC
:10265000D80708F06EC09E012370332781E090E018
:1026600002C0880F991F2A95E2F7C695C69520E209
:10267000C29FE00111248C2B9D2B9A6895C0811577
:102680002AE5920778F4811539E5930708F05EC0D2
:10269000811548E5940708F46AC0982F8827806F51
:1026A000906A82C090568115904208F060C08D2FCC
:1026B0008F710E942210282F2F71CE0199279062CE
:1026C000922B72C09C0174E0369527957A95E1F7BC
:1026D000922F9370482F437021E030E002C0220F08
:1026E000331F4A95E2F73C68392B8F70982F9695E7
:1026F000969540E2949FC0011124822B932B54C0E5
:10270000982F8827816F906A4FC0AC01437055277E
:1027100021E030E002C0220F331F4A95E2F7869590
:10272000869540E2849FC0011124822B932B9C68E4
:102730003BC09C2F8827846F906A36C00E9422106D
:102740008F7190E0982F882790622EC08F700E9422
:10275000221094E0D695C7959A95E1F7CF70D0E016
:10276000DC2FCC27D0699E01282BC9011DC080E039
:1027700090E01AC089E390E017C082EE90E014C0A8
:1027800080EE90E011C086EE90E00EC084EE90E006
:102790000BC089E290E008C085E390E005C08AE2C2
:1027A00090E002C081E390E0DF91CF9108950C9416
:1027B000C50FEF92FF920F931F93CF93DF931F925A
:1027C000CDB7DEB7EE24E394F12C0AEB11E09E01C5
:1027D0002F5F3F4F4BEA51E063E082E00E94CF1051
:1027E000182F882309F1E091E301F0E0E750FE4F54
:1027F00089819081891B282F90E0121634F4215092
:1028000090819F5F908391E0F8CF282F87FD20E093
:10281000821B882331F08F5F90819150908391E0EB
:10282000F8CF91110E94D713812F0F90DF91CF9194
:102830001F910F91FF90EF900895CF9384E090E067
:102840000E94A324C82F82E290E00E94A3242C2F90
:1028500030E0A901582BCA01CF9108955F926F9281
:102860007F928F929F92AF92BF92CF92DF92EF9220
:10287000FF920F931F93CF93DF93CDB7DEB72F97C0
:102880000FB6F894DEBF0FBECDBF9E012F5F3F4F46
:1028900079018AE0D9011D928A95E9F70EE411E0E9
:1028A000690183E5682E81E0782EAA24A394B12CD7
:1028B00029E5822E21E0922EF80180818F3F09F4D4
:1028C00040C0F894E82FE295EF70F0E021A18F70FE
:1028D000A50102C0440F551F8A95E2F7CA01922F45
:1028E000982B91A392A18095892382A3789400C00C
:1028F000E3E5F1E0512C31E021912F3F89F0A22F47
:10290000A295AF70B0E090968C9190E02F7002C0CD
:10291000959587952A95E2F780FD02C0832F01C027
:1029200080E0582A330F8E169F0631F7D8018C911C
:102930008F3F11F00E944912B0EABA95F1F7F60103
:1029400050820F5F1F4FFFEFCF1ADF0A601671062C
:1029500009F0B2CF4AE050E0B70180ED91E00E946B
:1029600005258C01892B41F08AE0F701A0EDB1E04B
:1029700001900D928A95E1F7F090DB0101151105A8
:1029800049F081E0809399010E94D10F90939801C2
:1029900080939701809199018823B9F080919701E4
:1029A000909198010E94B60F059778F0A0EDB1E0E4
:1029B000EF2DF0E0EC51FE4F85ED91E02D9121934C
:1029C0008A179B07D9F7109299010115110509F093
:1029D00011C10E94B611E091DB019E01255F3F4FBE
:1029E0007901882309F475C085E0D9011D928A9583
:1029F000E9F70E2F10E00C511E4F8091CB018A3069
:102A000048F449E751E1B701C8010E941316882331
:102A1000B1F10AC080919A0190919B010E94B60F7A
:102A2000843F914070F73CC049ED53E1B701C801C4
:102A30000E941316882319F149ED51E1B701C8012D
:102A40000E9413168823D9F045E650E1B701C8016A
:102A50000E941316882399F01092CB018091DA011D
:102A600090E045E050E0B7018C519E4F0E94052553
:102A700021E02093A001892BF1F400E0BDC08091FA
:102A8000CB018F3F19F08F5F8093CB018091CB01F9
:102A90008A3020F30E94D10F90939B0180939A017A
:102AA0008091A001882349F385E0F70111928A956E
:102AB000E9F71092A001A091DA01B0E0AC51BE4F4D
:102AC00085E0FE013B9601900D928A95E1F701E0C9
:102AD00093C0F0E0EC51FE4FF89485E0A4EBB1E038
:102AE00001900D928A95E1F765E070E084EB91E04A
:102AF0000E94071F8093B3017894F894E091FC0141
:102B0000F0E0E750FE4F80818B878093BA0161E04F
:102B100070E0C7010E94071F8093B9017894F89470
:102B2000C090BB01D090BC01E090BD01F090BE010F
:102B300080919C0190919D01A0919E01B0919F0177
:102B4000C816D906EA06FB06D1F0C0929C01D092C5
:102B50009D01E0929E01F0929F010E94B6118111A9
:102B60000EC00E94C50FC61AD70AE80AF90AC09219
:102B7000CC01D092CD01E092CE01F092CF017894B9
:102B8000F8948091C601882399F180FF22C090912A
:102B9000BF018091790590FF09C08160809379051C
:102BA00060E0892F86950E94E92013C08E7F809374
:102BB00079058091A00481608093A004FFEF20E755
:102BC00032E0F15020403040E1F700C000000E94A8
:102BD000241F8091C60181FF09C020E04091C201FD
:102BE0006091C1018091C0010E94941F1092C601A2
:102BF000789402C001E010E0802F2F960FB6F89471
:102C0000DEBF0FBECDBFDF91CF911F910F91FF901F
:102C1000EF90DF90CF90BF90AF909F908F907F907C
:102C20006F905F900895AF92BF92CF92DF92EF9234
:102C3000FF920F931F93CF93DF937C015B016A0197
:102C40008091CB018A3018F001E010E002C00AE068
:102C500010E0C1E0D0E0F894B501C701F601099594
:102C60007894811115C021960C171D0794F0CC9F04
:102C70009001CD9F300D300D112480E090E045E3B0
:102C80004A95F1F70000019682179307C1F7E3CF49
:102C900081E0DF91CF911F910F91FF90EF90DF9036
:102CA000CF90BF90AF900895CF93DF93CDB7DEB7AD
:102CB0002C970FB6F894DEBF0FBECDBF84B7877FC9
:102CC00084BF0FB6F894A8958091600088618093C6
:102CD0006000109260000FBE90E080E80FB6F8949C
:102CE00080936100909361000FBE85B7806885BFB7
:102CF00085B7806885BF80E290E1909375018093ED
:102D000074010E943B0E0E945A0E8091E200846082
:102D10008093E200789480918D018823A1F0109136
:102D2000E9001F709091EC00892F817090FD80E880
:102D3000182B1092E9008091E80083FD0E94430B5C
:102D40001F701093E90082E084BD93E095BD9AEF77
:102D500097BD80936E001092CC011092CD0110921D
:102D6000CE011092CF010E94B61180933101809163
:102D70003101882321F01092470184E203C084E2EC
:102D800080934701809348010E94B61181110E94EF
:102D900028238091310180913101811102C095E099
:102DA00001C090E09093DB0185E0891B8093DA01FC
:102DB0000EE411E0B3E5EB2EB1E0FB2ED8018D91CE
:102DC0008D018F3F11F00E944912E016F106B1F714
:102DD00003E511E0A9E5EA2EA1E0FA2EF8018191C0
:102DE0008F018F3F11F00E944912E016F106B1F7F2
:102DF0008AE0E4EEF1E0DF01282F1D922A95E9F741
:102E0000E0EDF1E0DF011D928A95E9F780E090E0C6
:102E10000E94B124893E9E4F11F00E94591A82E00F
:102E200090E00E94A3248093EE010E941D149093D1
:102E3000E1018093E00183E090E00E94A324682FE9
:102E400070E080E090E00E949E1E10921F0480E8D7
:102E50008093FE010E94BC216DE070E08BE991E05F
:102E60000E941A0B892B09F03FC080911F0463E078
:102E700070E081FD36C088E991E00E941A0B892B31
:102E800099F56DE070E088E891E00E941A0B892BBB
:102E900059F50E94C50FDC01CB01805A9541AF4F17
:102EA000BF4F80937E0590937F05A0938005B093DC
:102EB000810580E092E0EFE1F2E0DF019C011D92EC
:102EC00021503040E1F78FEF9FEF909322048093E1
:102ED000210481E080938305809382051092200471
:102EE00003C085E991E0C9CF8091E201811139C029
:102EF00080E090E00E94B124893E9E4F21F00E9424
:102F0000591A0E94192188E090E00E94AB24609336
:102F1000790570937A0580937B0590937C05809169
:102F2000A00483608093A0046E7F71F40E94192135
:102F300088E090E00E94AB246093790570937A0555
:102F400080937B0590937C050E94701F809179058A
:102F500080FF04C060E086950E94E92081E08093B4
:102F6000E20180913101811106C084E980933F0123
:102F700085EF80933E0180913F01E82FE295EF704D
:102F8000F0E041A1282F2F7081E090E0BC0102C049
:102F9000660F771F2A95E2F79B01362F3095342371
:102FA00031A332A1232B22A320913E01E22FE295EF
:102FB000EF70F0E031A12F7001C0880F2A95EAF779
:102FC000982F9095932391A392A1892B82A38FE8A8
:102FD00091E00197F1F700C0000020913F01E22F3E
:102FE000E295EF70F0E080A190E02F7002C095951F
:102FF00087952A95E2F7817090913E01E92FE2953D
:10300000EF70F0E020A130E09F7002C03595279569
:103010009A95E2F720FD02C090E001C092E0892B72
:103020008093FD019091310181E098279093FC01FC
:10303000891B8093E3010E94B611811102C00E9496
:103040002B2382E391E09093880580938705E0E449
:103050006E2E22242394312C80918D01853009F02D
:1030600046C000E112E180918D01853009F03BC03E
:1030700080918D01843029F10E94C71E10927B013E
:10308000A8E1B0E00FB6F894A895A09360000FBE39
:103090006092600083B7817F846083BF83B7816063
:1030A00083BF7894889583B78E7F83BF0FB6F894DB
:1030B000A895809160008861809360001092600004
:1030C0000FBE80918C01882309F4CDCF0E942E146D
:1030D000E4EEF1E081918111D6C12EEE31E02E17A0
:1030E0003F07C1F7C0CF0E94AA1E0E94B71E0E94D0
:1030F0002E14C82E81110E94C50FA4EEB1E0EFEE90
:10310000F1E000E010E0B02EDD9081918D2549F1D5
:10311000E12CFF24F394982F9F21F1F00E94B61127
:10312000882399F0E982BA82DF2081E009F480E007
:103130008B830E94D10F8160782F9D838C8349817E
:103140005A816B818D810E944403F801E151FE4F49
:103150008081F826F0821AC0E394FF0C36E0E31277
:10316000DACF0F5F1F4F0A30110569F68FEF8E839C
:103170008F8318860E94D10F8160782F9A87898764
:103180004E815F8168858A850E9444030E94B61142
:10319000A091FD015A2F550F550F20913F01E22FAD
:1031A000E295EF70F0E080A190E02F7002C095955D
:1031B00087952A95E2F78170992740913E01E42F87
:1031C000E295EF70F0E020A130E04F7002C035953D
:1031D00027954A95E2F7D901A170BB2720FF02C0CD
:1031E000A2E0B0E0A82BB92BA52BA093FD01E091A4
:1031F000FC01AF70B0E0A75ABE4F9C918091FB01DB
:10320000890F843034F0F0E0E750FE4F90819F5FEB
:1032100007C08D3F4CF4F0E0E750FE4F9081915095
:103220009083DD24D39401C0D12C082E000C990B7F
:1032300064E070E00E94EB248093FB01D1100E94B7
:10324000D71380918305882309F40EC1809123044C
:10325000909124040E94B60FC29730F00E94D10FC3
:10326000909324048093230480918305882309F498
:10327000E0C020912104309122042115310509F488
:10328000D8C0809120048111D4C0482E512C7101E6
:10329000082E02C0EE0CFF1C0A94E2F7A9014E2191
:1032A0005F21452B11F48F5FF0CF90911F049201A5
:1032B00075E0220F331F7A95E1F790FD12C08295D9
:1032C000880F807680934201220F232F221F330B19
:1032D000319520934501815E809343011092460110
:1032E00012C055E0369527955A95E1F7220F220F27
:1032F000220F2093420110924501295F2093430140
:1033000083E08093460124E630E047E050E060E44B
:1033100071E088E70E947322892B09F08AC08091AE
:103320001F0480FD23C0C20145E0880F991F4A9504
:10333000E1F7AC01415E5D4F04E610E020E230E0D1
:1033400060E488E70E949A22892B09F072C00E94EB
:10335000E11EE094F0948091210490912204E822EF
:10336000F922F0922204E092210463C080E2EFEFA0
:10337000F1E0DF011D928A95E9F735E0440C551C18
:103380003A95E1F7EDE6F1E0FC87EB8769E671E05D
:10339000AB85BC858D91BC87AB87FB019191BF014B
:1033A000A201490F511D415E5D4F90E081509E4F3B
:1033B000FC0127E0A22E9F01281B390B822C01C0A3
:1033C000880C2A95EAF78A01912CD801BD908D01CD
:1033D000B8202A2D29192770722E022E000C330BCB
:1033E000BB2D01C0BB0F7A94EAF77B2E3195219556
:1033F00031092770332701C0B6942A95EAF77B2854
:10340000B0807B287082939428E09212DECFAA9439
:1034100031963FEFA312CFCF8B859C85815791408A
:1034200009F0B6CF04E610E020E230E04FEF51E0C3
:1034300087CF809182058823B9F00E94C50F009143
:103440007E0510917F052091800530918105DC017A
:10345000CB01801B910BA20BB30B8F3F9F4FAF4F44
:10346000BF4710F40E94C71EC11001C0D1100E94B6
:10347000E11E0E94B71E90912504891709F4ECCD36
:1034800080932504E9CD09BD19BD09B400FEFDCF27
:103490008091D8008F7D8093D8008091E000826079
:1034A0008093E0008091E00081FDFCCF0E94AA1E85
:1034B000DACD69EE7EEF80E090E00E94D52460E0F6
:1034C00082E090E00E94B72460E083E090E00E94F8
:1034D000B72410929A0410929B0410929C041092AC
:1034E0009D0460E084E090E00E94B72460E082E206
:1034F00090E00E94B72460E085E090E00E94B7244D
:1035000060E086E090E00E94B7246FEF87E090E0F3
:103510000E94B72440E050E0BA0188E090E00E94A9
:10352000C92460E08DE090E00E94B72440E050E0C4
:10353000BA0188E190E00E94C92460E087E190E050
:103540000E94B72440E050E0BA018CE190E00E9474
:10355000C92460E070E080E290E00E94D52440E061
:1035600050E0BA0188E190E00E94C92440E050E0B8
:10357000BA018FE090E00E94C92440E050E0BA0117
:1035800083E190E00C94C9248091990481111092F8
:1035900099040895809590919804892380939804C4
:1035A00008959091980480919704982B9093260405
:1035B00080919904882389F0892B80932604E8E27E
:1035C000F4E097E080E0915029F021912223D9F393
:1035D0008F5FF9CF81110E94C41A48E050E06FE874
:1035E00074E086E294E00E940525892BA9F088E02A
:1035F000E6E2F4E0AFE8B4E001900D928A95E1F7DD
:10360000E0918705F0918805309731F00280F381D1
:10361000E02D86E294E00994089580918D049091C4
:103620005C04891719F08F5F8770FBCF08950F93A3
:103630001F93CF93DF9380915B0482958F7009F085
:103640005DC080915804882309F458C080918D048E
:1036500010915C046091560470915704C091590414
:10366000D0915A0491E06F3F09F090E0292F06E0D5
:10367000811709F443C0209721F07F3F21F030E00B
:1036800003C031E001C0322F90E030FD34C0089F0C
:10369000F001099FF00D1124DF01A35ABB4F1196D1
:1036A0003C911197371327C03C91361324C01296D2
:1036B0003C91129731111FC013964D915C91149754
:1036C0004C1B5D0B483C5105B0F480915B048F703E
:1036D000806180935B04EE59FB4F80818F70806125
:1036E000808386E594E00E94EC03DF91CF911F91E7
:1036F0000F910C940D1B01968770BACFDF91CF917B
:103700001F910F9108958F929F92AF92BF92DF9277
:10371000EF92FF920F931F93CF93DF938090DC0182
:103720009090DD01A090DE01B090DF0140919A04FD
:1037300050919B0460919C0470919D04842A952A69
:10374000A62AB72ACFE1D0E026E0929F700111248B
:103750009CE3D92E082F10E0D501C4010C2E04C023
:10376000B695A795979587950A94D2F780FD04C0E2
:10377000219790F780E014C0DC9EF001DD9EF00DF3
:103780001124EE0DFF1DE00FF11FEE0FFF1FE85596
:10379000FE4F859194910E946012019749F38C2FFE
:1037A000DF91CF911F910F91FF90EF90DF90BF902D
:1037B000AF909F908F900895CF93DF93EC010E947C
:1037C000831B2CE3829FC0011124FC0126E0D29FC1
:1037D000E00DF11D1124EC0FF11DEE0FFF1FE85558
:1037E000FE4F859194910E946012DF91CF910895D0
:1037F000FC01808191810E94DC1B92959F70963024
:1038000079F010F4925001C09A50923068F4803FE1
:1038100069F018F4883E40F409C0843F29F406C0DA
:10382000883E20F0813F11F080E0089581E0089506
:103830009F92AF92BF92CF92DF92EF92FF920F933F
:103840001F93CF93DF93CDB7DEB761970FB6F89490
:10385000DEBF0FBECDBF8C0185E0F801DE011D96F5
:1038600001900D928A95E1F7F801E280909156045B
:10387000609157044091590450915A0441155105E3
:1038800031F06F3F31F481E09F3F19F403C081E0D4
:1038900001C080E0F82FF1709F2E80FD1AC1F80161
:1038A00030812181C380D48086E5A82E84E0B82EA3
:1038B000F0905804F601E41BF50BFF2009F4C6C094
:1038C00080915B04E83CF10508F091C0482F407FEF
:1038D00009F050C0621311C093130FC0FE2CE11009
:1038E0000CC08F70806180935B04C5010E94EC0363
:1038F00080915B04F801858329C1CD2831F02F3FE9
:1039000031F481E03F3F19F403C081E001C080E061
:1039100080FD03C081E08E2502C080E090E0F82F9A
:10392000F170FF2E80FF1CC080918D0440915C04DB
:1039300056E0841709F4E8C090E0589FF001599FC1
:10394000F00D1124E35AFB4F6181261306C06081FC
:10395000631303C06281E61203C001968770E9CF4A
:10396000FE2CEE2009F4F2C080915B04816080930C
:103970005B0449C0621306C0931304C0E11002C087
:10398000F80186C0C8010E94F81B882351F1EE207F
:1039900041F120915B04822F82958F7090E0029715
:1039A00074F0809156049091570498878F831986FC
:1039B000DB86CA862C87CE0107960E94EC0386E040
:1039C000F801A6E5B4E001900D928A95E1F70E9416
:1039D000171B0AC06217C9F0C8010E94F81B8111A9
:1039E0001EC0C8010E94EC03FF24F394AFC0482F0F
:1039F000407F81F786E594E00E94EC0386E0F501C4
:103A000011928A95E9F7F12CA1C09313E5CFE1104B
:103A1000E3CFF8018583C8010E94EC0354C0EE2077
:103A200001F320915B04822F82958F7090E00297C2
:103A300034F280915604909157049A8389831B82B3
:103A4000DD82CC822E83CE010196B7CFE83CF10512
:103A5000D0F5FE2CEE2029F2621327C0931325C067
:103A600020915B0420FD18C0822F82958F70482F13
:103A700050E04115510581F0F80125834F30510583
:103A800041F08F5F982F9295907F822F8F70892BB6
:103A90008583C8010E94EC0386E0F801A6E5B4E046
:103AA00001900D928A95E1F751C0C8010E94F81B60
:103AB000811185CF80915B04816080935B04C80194
:103AC0000E94EC0343C086E0F50111928A95E9F764
:103AD0003DC0EE2009F485CFC8010E94F81BF82EE6
:103AE000882309F47ECF86E0F801A6E5B4E00190D2
:103AF0000D928A95E1F780915604909157040E94A7
:103B0000DC1B0E94171B22C03D872E878D859E855A
:103B10000E94DC1B292F22952F70223028F49F70E1
:103B200039F0811105C00BC0243028F49F7049F48E
:103B3000805E883020F0C8010E94EC039F2CF92C95
:103B400005C0F8019581907F99F7F9CF8F2D619687
:103B50000FB6F894DEBF0FBECDBFDF91CF911F919E
:103B60000F91FF90EF90DF90CF90BF90AF909F901C
:103B70000895292F220F920F990F890F682F6695AC
:103B800066956695982F977085E0689FB00111241F
:103B900040E050E080E0FB01E40FF51FE25DFB4FE9
:103BA000208130E0092E02C0369527950A94E2F76D
:103BB00021703327042E01C0220F0A94EAF7822BCA
:103BC0004F5F5F4F4530510531F70895292F220F80
:103BD000920F990F890FE82FE695E695E695877085
:103BE00051E001C0550F8A95EAF785E0E89FF001A2
:103BF0001124E25DFB4F20E030E070E04081CB011A
:103C0000022E02C0969587950A94E2F781708195FD
:103C100084278523842781932F5F3F4F25303105EB
:103C200069F708956093DC017093DD018093DE01F4
:103C30009093DF01109297040C94D11A0F931F9365
:103C400041E050E060E070E004C0440F551F661F83
:103C5000771F8A95D2F74095509560957095809121
:103C6000DC019091DD01A091DE01B091DF018A01BC
:103C70009B01082319232A233B23C901B8011F9163
:103C80000F910C94121E20918E04809582238093B4
:103C90008E04982F977099F430E0482F082E000C6E
:103CA000550B2417350759F09091E10192FD07C09B
:103CB0008595859585950E941E1E10928E04089507
:103CC000CF93C091E101C2FB992790F9981799F021
:103CD00080FBC2F9C093E1016091E00184E090E0D3
:103CE0000E94B7246C2F82E290E00E94B72482E009
:103CF000CF910C94431ECF9108950F931F9341E0F1
:103D000050E060E070E004C0440F551F661F771F4D
:103D10008A95D2F78091DC019091DD01A091DE01BE
:103D2000B091DF018A019B01082B192B2A2B3B2B19
:103D3000C901B8011F910F910C94121E60939A044F
:103D400070939B0480939C0490939D04109297041D
:103D50000C94D11A1092980486E0E8E2F4E0DF01B6
:103D60001D928A95E9F7109297040C94D11A0E943B
:103D7000B611882351F0E0918705F09188053097BE
:103D800021F00190F081E02D099480E00895809168
:103D9000830590918205882389F0992369F062E078
:103DA00070E082E095E00E941A0B892B19F0809157
:103DB00082050895109282059091820581E08927FD
:103DC0000895809183058823F9F00E94C50FDC01D6
:103DD000CB01805A9541AF4FBF4F80937E059093A2
:103DE0007F05A0938005B0938105809182058111A4
:103DF0000BC062E070E080E095E00E941A0B892B16
:103E000019F481E080938205809182050895FC0178
:103E1000680F791F8FEF91E3E617F70771F0219193
:103E2000822728E030E087FF03C0880F892701C080
:103E3000880F21503109B9F7EFCF0895882311F089
:103E4000FA0101C0FB010994309148018091790584
:103E500080FF16C0E091470163E0E69FF001112466
:103E6000EF55FB4F849A81B38F7E91B390612FB74A
:103E7000F894AF0163E0369F400D511D112414C02A
:103E80008091490190914A01891720F7E82FF0E0CD
:103E9000AF01440F551FE40FF51FEF55FB4F118283
:103EA000108212828F5FF0CFE417F50789F031910D
:103EB00068E091BB000000C037FF81BB330F0000FA
:103EC00000C000C000C081BB00C06A9591F7ECCF74
:103ED0002FBF8FE594E00197F1F700C0000008952F
:103EE00080917905982F9695913021F081708260AC
:103EF0008093790580917C05893718F088E7809355
:103F00007C050895CF92DF92EF92FF926B017C01C6
:103F10000E94701FB701A60188E090E0FF90EF902B
:103F2000DF90CF900C94C9249F92AF92BF92CF9212
:103F3000DF92EF92FF920F931F93CF93DF939091B5
:103F4000790590FFD6C0922E142FC62FD82FE92FB7
:103F5000E695F0E0EF58FE4F808180939E049E7FAF
:103F6000923009F098C0E42F493708F0E8E7F0E014
:103F7000C11106C0E050FC4FE491FE2F2E2F72C0FD
:103F8000EC2EF12CE050FC4FF4910F2FCF2ED12CC2
:103F900026E0D29FC00111242FEF30E0B9010E942A
:103FA0008F244BEA4603C001479F900D11248D0FCB
:103FB000911D8D0F911DB82EBB0CB80EA9014E1985
:103FC0005F094C9DC0014D9D900D5C9D900D11248D
:103FD000E92FCB9DA0011124452F5527D901A41B02
:103FE000B50BAC9DA001AD9D500DBC9D500D112495
:103FF000D901AB19B1095D01AE9CD001AF9CB00DE8
:10400000BE9CB00D1124AB2FBB272A1B3B0B2C9D54
:10401000D0012D9DB00D3C9DB00D11242B2F623091
:10402000710591F048F461157105E1F06130710599
:10403000B9F42F2FF52F16C06430710569F040F0E8
:104040006630710579F00CC02F2FF92FEB2F0AC0C5
:10405000F92FE02F252F06C0292FEF2FFB2F02C0AD
:10406000292FE52F8091490190914A01891788F401
:10407000A82FB0E0AD01440F551FA40FB51FAF55D9
:10408000BB4F1196FC9311972C931296EC938F5F74
:10409000EDCF0E94241F80917A05D81308C080912B
:1040A0007B05C81304C080917C05181729F0809106
:1040B000A00482608093A004D0937A05C0937B050E
:1040C00010937C059920A9F06091790570917A058B
:1040D00080917B0590917C05DF91CF911F910F918D
:1040E000FF90EF90DF90CF90BF90AF909F900C9497
:1040F000821FDF91CF911F910F91FF90EF90DF9082
:10410000CF90BF90AF909F900895E9E7F5E043818D
:1041100021E1421B08F440E021E0628181810C949E
:10412000941FE9E7F5E0438121E1420F08F44FEFE6
:1041300021E0628181810C94941FE9E7F5E06281BE
:1041400021E1621B08F460E021E0438181810C944D
:10415000941FE9E7F5E0628121E1620F08F46FEF57
:1041600021E0438181810C94941FE9E7F5E081818E
:1041700021E04381628188500C94941FE9E7F5E0C7
:10418000818121E043816281885F0C94941F80913A
:104190007D05882319F0815080937D056091790514
:1041A00070917A0580917B0590917C050C94821F1B
:1041B00080917D05833018F48F5F80937D05609139
:1041C000790570917A0580917B0590917C050C941E
:1041D000821F8091790580FF1EC08170826080936C
:1041E00079058091A00481608093A004662351F03A
:1041F0006091790570917A0580917B0590917C059D
:104200000E94821F20E040917C0560917B05809197
:104210007A050C94941F08958091790586958150B4
:1042200009F481E061E00C94E92061E081E00C9404
:10423000E920E9E7F5E083E0808311828FEF828354
:1042400088E783831482AEE9B4E012968C911297CA
:10425000836012968C9360817181828193810C942A
:10426000821FEF92FF920F93CF93DF93C42FD22F31
:10427000FC0182818823D1F0409386050E94D10FF2
:10428000909385058093840580E28C0F883008F038
:104290006DC0C77081E001C0880FCA95EAF7DF9151
:1042A000CF910F91FF90EF900C94A802809186051A
:1042B00048134BC080918405909185050E94B60FEC
:1042C000883C910508F041C0CD17C9F080E28C0F01
:1042D000883040F4C77081E001C0880FCA95EAF7C2
:1042E0000E94A10280E28D0F883048F481E09D2F6A
:1042F000977001C0880F9A95EAF70E94A8020933C7
:1043000019F0E12CF12C03C080E5E82EF12C802F70
:104310000E940603E114F10451F08FE99FE0019738
:10432000F1F700C0000091E0E91AF108F3CF802F07
:104330000E94B20280E28D0F8830C0F4D77081E015
:1043400001C0880FDA95EAF70AC080E28C0F883046
:1043500068F4C77081E001C0880FCA95EAF7DF9161
:10436000CF910F91FF90EF900C94A102DF91CF912C
:104370000F91FF90EF9008951092B9008CE0809318
:10438000B80008959F92AF92BF92CF92DF92EF92C2
:10439000FF920F931F93CF93DF93B82EEB010E94F0
:1043A000D10F6C01C431D10558F0CF3F8FEFD80742
:1043B00059F0CE0164E170E00E948F247B0107C0B8
:1043C000EE24E394F12C03C025E0E22EF12C84E8E6
:1043D000A82E94EA992E1092BC009092BC000E94E4
:1043E000D10F8C018091BC0087FD08C00E94D10FC5
:1043F000801B910B8E159F05A8F32AC08091B900F0
:10440000887F883041F08091B900887F803119F031
:104410000FEF1FEF1FC0B092BB00A092BC000E9424
:10442000D10F8C018091BC0087FD08C00E94D10F84
:10443000801B910B8E159F05A8F30AC08091B900CF
:10444000887F883111F0803419F700E010E00EC049
:104450000EEF1FEFCF3F8FEFD80709F4BCCFC60197
:104460000E94B60F8C179D0708F4B5CFC801DF91E5
:10447000CF911F910F91FF90EF90DF90CF90BF9061
:10448000AF909F9008950F931F93CF93DF93EB010D
:104490008093BB0084E88093BC000E94D10F8C0104
:1044A0008091BC0087FD0EC0CF3F8FEFD807C1F3CE
:1044B0000E94D10F801B910B8C179D0788F38EEF04
:1044C0009FEF0CC02091B900287F81E090E0283256
:1044D00011F480E090E0919581959109DF91CF9161
:1044E0001F910F910895CF92DF92EF92FF920F9359
:1044F0001F93CF93DF936B018A017901B9010E9469
:10450000C221E6010C0D1D1DC017D10761F424E97D
:104510002093BC00DF91CF911F910F91FF90EF90FE
:10452000DF90CF90089597FDF2CFB70189910E9457
:104530004322EACFCF92DF92EF92FF920F931F9325
:10454000CF93DF93C62F6A017901B8010E94C2217F
:1045500097FD11C0B8018C2F0E944322E601EC0C9C
:10456000FD1CCE15DF0539F097FD05C0B801899116
:104570000E944322F6CF24E92093BC00DF91CF9123
:104580001F910F91FF90EF90DF90CF90089584E9F5
:104590008093BC0008958EE14A9B02C08150E1F7F0
:1045A0004A9BFECF08955A9880E28A95F1F75A9A6D
:1045B0000895FC012AE02A95F1F728E090E080E0D8
:1045C00031E040E14A95F1F7880F4A9B02C08160D3
:1045D000932700C0000040E14A95F1F7215089F788
:1045E00020E12A95F1F729B100C0000030E13A95A9
:1045F000F1F722FB222720F992272081920F908346
:104600000895EF92FF920F931F93CF93DF931F9222
:10461000CDB7DEB719828C017C01E60EF11C0E15B8
:104620001F0551F00E94CB22CE0101960E94D92293
:10463000F80181938F01F3CF81E09981911180E09E
:104640000F90DF91CF911F910F91FF90EF90089500
:10465000529A5A9A089552985A9AEA9AE9E6F0E0DC
:1046600080818F7C80830895615091E001C0990F13
:104670006A95EAF720E031E0992361F0492F482359
:1046800019F05A9A232701C05A9840E24A95F1F747
:104690009695F2CF222311F05A9A01C05A9880E2DF
:1046A0008A95F1F75A980895FF920F931F93CF932D
:1046B000DF93EC018C01060F111DC017D10741F0EB
:1046C000F9900E94D32268E08F2D0E943423F5CF09
:1046D000DF91CF911F910F91FF9008951F920F923C
:1046E0000FB60F9211240F931F932F933F934F9365
:1046F0005F936F937F938F939F93AF93BF93EF934A
:10470000FF93CF93DF931F92CDB7DEB719820E943C
:10471000CB22CE0101960E94D922082F069506953C
:104720000695902F96959570202F2570920F292F22
:10473000237096959695920F877089135FC0898133
:1047400081115CC0073008F059C080E18A95F1F70B
:104750005A9A529A82E08A95F1F700C05A9888E0F6
:10476000089F80011124D801AF5FBE4F1696ED91CE
:10477000FC9117973097A9F060914C0170914D0111
:1047800014962D913C911597260F371F11968D91F8
:104790009C911297680F791F13964C9113978C91E7
:1047A0000995F801EF5FFE4F6381662351F0809118
:1047B0004C0190914D0124813581820F931F0E94FD
:1047C00054230E94D32280E18A95F1F75A98529897
:1047D0005A9A80E18A95F1F7F801EF5FFE4F608108
:1047E000662351F080914C0190914D0121813281DD
:1047F000820F931F0E9401230E94CB220F90DF9112
:10480000CF91FF91EF91BF91AF919F918F917F9148
:104810006F915F914F913F912F911F910F910F9049
:104820000FBE0F901F9018950F931F93CF93DF9398
:10483000873091050CF06DC0EC01F894529A5A98AB
:1048400085E08A95F1F700009C2F969595702C2FA6
:104850002570920F892F83709695969523E0CC0F43
:10486000DD1F2A95E1F7980F8E01092B0E94D322B4
:1048700084E08A95F1F700C068E0802F0E9434231D
:1048800080E18A95F1F752985A9A4A9902C000C07D
:10489000FCCF87E090E04A9B08C0019721F4529A30
:1048A0005A9A789436C000C0F6CFFE01EF5FFE4FF3
:1048B0006381662381F080914C0190914D012481A8
:1048C0003581820F931F0E940123811104C0529AE7
:1048D0005A9A78941FC00E94CB2280E28A95F1F701
:1048E0005A98529A80E18A95F1F7CF5FDE4F68813E
:1048F000662351F080914C0190914D0129813A81BC
:10490000820F931F0E9454230E94D322789481E047
:1049100001C080E0DF91CF911F910F910895AA1BF4
:10492000BB1B51E107C0AA1FBB1FA617B70710F09A
:10493000A61BB70B881F991F5A95A9F780959095CC
:10494000BC01CD010895F999FECF92BD81BDF89AC1
:10495000992780B50895A6E1B0E044E050E00C94BA
:10496000DD24A8E1B0E042E050E00C94DD24262FE5
:10497000F999FECF92BD81BDF89A019700B4021655
:1049800039F01FBA20BD0FB6F894FA9AF99A0FBE03
:1049900008950396272F0E94B8240E94B724252F3C
:1049A0000E94B824242F0C94B8240196272F0E942B
:1049B000B8240C94B724DC01CB01FC01F999FECF9B
:1049C00006C0F2BDE1BDF89A319600B40D92415097
:1049D0005040B8F7089597FB072E16F4009407D0BF
:1049E00077FD09D00E948F2407FC05D03EF49095F6
:1049F00081959F4F0895709561957F4F0895EE0FB3
:104A0000FF1F0590F491E02D0994FB01DC0104C027
:104A10008D910190801921F441505040C8F7881BB6
:104A2000990B0895FB01DC0102C001900D924150E9
:0A4A30005040D8F70895F894FFCF26
:104A3A000100000001000000000000000501000064
:104A4A00000000000106000000000000010700004D
:104A5A00000408000000000000080C00000000002C
:104A6A000001EB0AEE0AEA0AE80AE90AE70A94F5FB
:104A7A000021007F2200030048004848B3016697DE
:104A8A00C63435F6F73133323600FF010001000033
:104A9A00FFFF0000010001FF0000081018181008AD
:044AAA000000010007
:00000001FF
