:100000000C9433020C9450020C9450020C94C721AF
:100010000C9450020C9450020C9450020C94500218
:100020000C9450020C9450020C94D1100C948D102E
:100030000C94111C0C9450020C9450020C9450021D
:100040000C9450020C9450020C9450020C945002E8
:100050000C9450020C94B7110C9450020C94500262
:100060000C9450020C9450020C9450020C945002C8
:100070000C9450020C9450020C9450020C945002B8
:100080000C9450020C9450020C9450020C945002A8
:100090000C9450020C9450020C9450020C94500298
:1000A0000C9450020C9450020C9450024C001E0010
:1000B0001F002000210022002B0014001A0008005D
:1000C00015001724290004001600070009000A0083
:1000D00000001D001B0006001900050000000000C4
:1000E000E30021522C22E0002A00270026002500F0
:1000F000240023003100130012000C0018001C24FF
:10010000340033000F000E000D000B00000038001B
:10011000370036001000110000000000E7002252F6
:100120002832E4003A003B003C003D003E003F0026
:100130000100010034002F003000010001002352B3
:1001400033022F023002240200003802380031004E
:100150003102250200000000010001002800E0003B
:100160004500440043004200410040002B002A00AB
:100170004D004B004E004A0049004C004F00520019
:1001800051005000000038023702360231022502C9
:10019000000000000100010001002A003A003B00BD
:1001A0003C003D003E003F000100310035022302CB
:1001B00034003500010033002D002E022E002D02E8
:1001C00000001E021F022002210222020000000085
:1001D0000100010001004C004500440043004200C2
:1001E00041004000E6004C00300230002F002F029A
:1001F00039002900330227022602240200003802B7
:100200003702360231022502000000000100010021
:100210002C00E400000000000000000000000000CE
:1002200000000000000000000000000000000100CD
:1002300000000000000000000000000000000000BE
:1002400000000000000000000100010001004C005F
:100250002A002102220237003600230231022E003A
:100260002600250024002E0024022D002300220059
:100270002100540000002E0220001F001E00250255
:10028000000000002700270001004C0000DA028176
:10029000FFD9F1DB20A4A62EAF00A0C0D30000A19F
:1002A000C8D30000AED580A81F408D1420000001E7
:1002B0000101010101010101020202020202020226
:1002C00002030303030303030304040404040404F8
:1002D00005050505050606060606070707070708BC
:1002E000080808090909090A0A0A0B0B0B0C0C0C6F
:1002F0000D0D0D0E0E0E0F0F0F1010111111121209
:1003000013131414151516161717181819191A1A85
:100310001B1B1C1D1D1E1E1F2020212222232424E6
:10032000252626272829292A2B2C2D2D2E2F303122
:100330003232333435363738393A3B3C3D3E3F4034
:100340004142434445464748494A4C4D4E4F50511F
:100350005354555658595A5B5D5E5F6162646566D9
:1003600068696B6C6D6F7072737577787A7B7D7E60
:100370008082838587888A8C8E8F91939596989AB0
:100380009C9EA0A2A3A5A7A9ABADAFB1B3B5B7BAC8
:10039000BCBEC0C2C4C6C9CBCDCFD1D4D6D8DBDD9C
:1003A000DFE2E4E7E9EBEEF0F3F5F8FAFDFF00AF8A
:1003B00000AE05010906A101050719E029E71500AE
:1003C00025019508750181029501750881010507D0
:1003D000190029FF150026FF009506750881000504
:1003E000081901290515002501950575019102954A
:1003F0000175039101C009022200010100A0FA0960
:10040000040000010301010009211101000122443F
:100410000007058103080001120100020000000826
:1004200051FC59000001010200011C034C0069004D
:100430006C0079003500380047006C006F007700D1
:1004400045006E006300000018034F005200560084
:10045000490053004500560041004E0053002B0058
:1004600000000403090411241FBECFEFDAE0DEBF51
:10047000CDBF11E0A0E0B1E0E0E7F8E402C00590F4
:100480000D92AC37B107D9F725E0ACE7B1E001C078
:100490001D92A33AB207E1F70E94381C0C94EC239A
:1004A0000C940000482F20919F059091660557E01D
:1004B000291302C080E0089530E0529FF001539F5D
:1004C000F00D1124E959FA4F8181681306C080812B
:1004D000481303C085818111EECF2F5F3F4F2770F6
:1004E000E7CF982F9093E900891779F05091EC00AD
:1004F0002091ED004091F00021FD0AC09F5F9730F0
:1005000089F78093E90081E00895562F40E022E0CA
:100510003091EB003E7F3093EB003091ED003D7F5A
:100520003093ED003091EB0031603093EB0050934D
:10053000EC002093ED004093F0002091EE0027FDA9
:10054000DDCF80E00895E8EDF0E080818E7F80834C
:100550001092E2001092DA001092E100A0EEB0E0FA
:100560008C9181608C9380818F77808319BCA7EDFB
:10057000B0E08C918E7F8C9380818F7E80831092EF
:1005800051050895B0E0A0E0E8ECF2E00C940123FE
:10059000C8EDD0E088818F7E8883E7EDF0E0808130
:1005A0008160808384E082BF81E0809351058881EF
:1005B0008E7F888302EE10E0F80110821092DA003C
:1005C00081EEC82ED12CF601108288818F77888326
:1005D00088818068888388818F7D888319BC109288
:1005E000650510925C0510925B0510925A0590EE1D
:1005F000E92EF12CF70180818B7F808388818160D7
:10060000888360E080E00E947102F60180818E7F25
:100610008083F8018081816080838081886080830D
:10062000F70180818E7F8083888180618883CDB748
:10063000DEB7E8E00C941D232091E4003091E50042
:1006400095E6A9012091EC00822F817020FF06C061
:100650008091E80080FF06C080E008952091E800C6
:1006600022FD1AC080916505882389F0853089F0C4
:100670008091EB0085FD0FC02091E4003091E500F2
:1006800042175307F9F29150E1F684E0089582E0B1
:10069000089583E0089581E0089580915D0587FFC6
:1006A00013C08091E80082FF06C08091E8008B773C
:1006B0008093E80004C0809165058111F2CF089510
:1006C000809165058823D9F38091E80080FFF8CFF9
:1006D0008091E8008E77ECCFFC01809163059091CA
:1006E000640586179707A0F06115710529F49091AC
:1006F000E8009E779093E80090E06115710551F451
:10070000911108C08091E80082FF34C080E0089514
:10071000BC01F2CF809165058823C1F18530C1F11C
:100720008091E80083FD30C08091E80082FDEACF2F
:100730008091E80080FFE1CF8091F3002091F200EA
:10074000382F6115710519F02830310558F091E006
:100750002830310509F090E02091E8002E772093B1
:10076000E800CBCF81918093F100615071092F5F38
:100770003F4FE7CF80916505882341F0853041F0F8
:100780008091E80083FFBECF81E0089582E0089564
:1007900083E008950895089508952FB7F89460911F
:1007A0004D0570914E0580914F05909150052FBFDA
:1007B00008958091520108959C01FC0132969FEFAB
:1007C00080E04191461751F09F3F19F4411101C05B
:1007D000982F8F5F8630A9F79F3F09F40895290F5E
:1007E000311D97FD3A95F90162830895809148057E
:1007F000882359F0E0914A05F0914B05309729F094
:100800000190F081E02D0995089580E00895FC01A4
:10081000680F791F8FEF91E32191822728E030E064
:1008200087FF09C0880F892721503109C9F7E617CA
:10083000F70791F70895880FF7CFFC01EE0FFF1F20
:10084000E80FF91FE059FB4F61834083228308952D
:10085000849A089590E06623A1F0805B9E4FFC018E
:1008600020812F3F89F0E22FE295EF70F0E080A128
:1008700090E02F7002C0959587952A95E2F78170D8
:100880000895815B9E4FEBCF80E0089590E0662352
:10089000E9F0805B9E4FFC0180818F3FB1F0E82F33
:1008A000E295EF70F0E041A18F7021E030E0B901F6
:1008B00002C0660F771F8A95E2F7CB01962F9095BD
:1008C000942391A392A1892B82A30895815B9E4FCB
:1008D000E2CF90916A04E92FF0E040916B049F0110
:1008E0002F5F3F4F2370332742171306A9F0E459B7
:1008F000FB4F282F2F7780818078822B60FB87F930
:1009000080839F5F937090936A04809168048F5FE7
:100910008093680481E0089580E00895CF938091EA
:10092000330280FF04C00E949C08CF910895C091BB
:10093000450180914601C817B0F7809143019C2F73
:10094000981B892F20E040E060E090E00E941D04A9
:10095000CF5FEFCF80913302982F9C7F71F480910D
:10096000330283708460809333028091360289372A
:1009700018F088E7809336020895883080F7F5CF25
:1009800080E0089581E080932E020895F894E82F86
:10099000E295EF70F0E031A1282F2F7081E090E018
:1009A00001C0880F2A95EAF7982F9095932391A379
:1009B00092A1892B82A3789408950F931F9380911D
:1009C0004805882329F00E94CD031F910F910895B7
:1009D0000E94CD030091FC011091FD012091FE01C8
:1009E0003091FF01600F711F821F931FEECF909116
:1009F000100292FF10C041E0282F2471243009F02A
:100A000040E031E0282F2871283009F030E043170A
:100A100011F02CE0822793FF10C041E0282F2471B1
:100A2000243109F040E031E0282F2871283109F005
:100A300030E0431711F02CE082273091110230FF93
:100A400010C051E0282F2171213009F050E041E021
:100A5000282F2871283009F040E0541711F029E0C0
:100A6000822731FF10C041E0282F2171213109F088
:100A700040E031E0282F2871283109F030E0431799
:100A800011F029E0822794FD877E08958238910530
:100A9000B9F1B0F48133910509F47DC048F489328D
:100AA000910509F46DC08A32910509F47BC008955F
:100AB0008533910509F45FC08933910509F10895E3
:100AC000833E9105D9F138F4803E910529F1823EAB
:100AD000910579F10895863E9105D9F1873E9105FA
:100AE00009F43EC0843E910541F52091110221FF99
:100AF00024C08091100284FD19C087EE90E0089513
:100B000020911002237009F05AC02091110223FF96
:100B100014C089E290E008952091100220FD38C0B1
:100B20003091110230FF09C024FF43C090E080E003
:100B300008952091100222FDF7CF08952091100210
:100B400022FD3AC03091110230FD39C024FFF5CFAB
:100B5000EDCF2091100223FFF0CF24FDE7CFCDCFC2
:100B60002091100223FD2EC03091110231FFEECFF3
:100B700084EE90E008952091100225FFDECFC9CFCA
:100B80002091100225FD21C02091110223FFD5CF15
:100B900089E390E0D2CF2091100226FFCECF8AE2E7
:100BA00090E008952091100226FFC7CF81E390E0E6
:100BB000089583EE90E0089582EE90E0089580EE2F
:100BC00090E0089586EE90E0089585E390E0089522
:100BD000972F7A30B8F46630A8F48430B0F470E01F
:100BE00026E0929F600D711D1124FB019CE3899FFB
:100BF000E00DF11D1124EE0FFF1FE455FF4F85910D
:100C00009491089580E090E0089581E0FCCF1F93D7
:100C1000CF93DF930E944605EC01C11582E5D8070A
:100C200008F03FC0C11590E5D90708F0C2C0C83E22
:100C3000D105C0F4C03ED10580F4C53AD10548F4D1
:100C4000C430D10550F4C130D10539F0D0E0C0E056
:100C500004C0CD3CD105D0F3D065CE01DF91CF915A
:100C60001F910895C11580E4D80708F053C0C1153D
:100C700090E2D90708F0B7C0C11581E0D80730F37A
:100C80008D2F0E94F704182FCE0199270E94460548
:100C9000C12FD0E0DC2FCC27CC27DF71C82BD92B7C
:100CA000DCCFC03892E5D907A8F4C03682E5D80772
:100CB00008F063C0C03492E5D90708F049C0C032DB
:100CC00082E5D80788F1CF71D0E0DC2FCC27C16F47
:100CD000D06AC3CFC03C92E5D90780F48C2F8F71C6
:100CE000C03AD24508F45EC00E94F704C82FD0E095
:100CF000DC2FCC27CC27DF71D062AFCFC03E82E59E
:100D0000D80708F0A3CFDC2FCC27CC27DF71C06F2A
:100D1000D06AA3CFCE0199270E944605CC27DF7069
:100D2000C82BD92BD06A99CF2C2F2695269590E2E7
:100D3000299F900111248C2F8370C1E0D0E002C064
:100D4000CC0FDD1F8A95E2F7C22BD32BDD6885CF50
:100D50002C2F26952695277080E2289F900111243C
:100D60008C2F8370C1E0D0E002C0CC0FDD1F8A95CC
:100D7000E2F7C22BD32BDC6870CF2C2F269526955B
:100D8000277090E2299F900111248C2F8370C1E07D
:100D9000D0E002C0CC0FDD1F8A95E2F7C22BD32B27
:100DA000DA685BCFC82FD0E0DC2FCC27C46FD06AC5
:100DB00054CF8C2F8F710E94F70455E0D695C795BC
:100DC0005A95E1F7CF70D0E0DC2FCC27282F30E008
:100DD00084FF05C044E0220F331F4A95E1F7C22B80
:100DE000D32BD0693ACF8D2F8F710E94F704182F23
:100DF000CE0199270E944605C12FD0E0DC2FCC27D9
:100E0000CC27DF71C82BD92B77CF80959091BA0171
:100E100098239093BA01089580919F05909166055B
:100E2000981301C008958F5F8770FACFB0E0A0E0FB
:100E3000ECE1F7E00C9400237C0100910E0210918C
:100E40000F0280910C0290910D02082B192BCFE01C
:100E5000D0E0CC24C394D12CBC2EC6010C2E02C0F1
:100E6000880F991F0A94E2F780239123892B49F474
:100E7000219790F7B12C8B2DCDB7DEB7E9E00C941C
:100E80001C23B7018C2F0E94E8050E9407060197DA
:100E900079F3F1CFCF93DF93EC010E941607BE01E7
:100EA0000E94E8050E940706DF91CF9108959A30CD
:100EB00078F5863068F5E82FF0E086E0989FE00D41
:100EC000F11D11249E2F977083E0F695E7958A9582
:100ED000E1F7EE0FFF1FEE0FFF1FE857FE4F50E048
:100EE00040E080E0219130E0092E02C03695279540
:100EF0000A94E2F721703327042E01C0220F0A94CE
:100F0000EAF7822B4F5F5F4F4430510559F7089540
:100F100080E008959A3098F5863088F5E82FF0E063
:100F200086E0989FE00DF11D11248E2F877041E01F
:100F300001C0440F8A95EAF783E0F695E7958A9514
:100F4000E1F7EE0FFF1FEE0FFF1FE857FE4F30E0F7
:100F500020E070E05191DF011197CB01022E02C019
:100F6000969587950A94E2F7817081958527842369
:100F700085278C932F5F3F4F2430310559F7089513
:100F800090930F0280930E02089521E030E002C09A
:100F9000220F331F8A95E2F72095309580910E023B
:100FA00090910F02822393230E94C007089590918D
:100FB000AF01809589238093AF01282F277069F4B2
:100FC000891759F09091110292FF07C08695869576
:100FD00086950E94C5071092AF01089521E030E088
:100FE00002C0220F331F8A95E2F780910E02909182
:100FF0000F02822B932B0E94C007089590930D023D
:1010000080930C020895FC0124812223C1F0808189
:1010100091810E944A0792959F70963091F058F402
:10102000925F9F70923058F4803F19F030F4883E00
:1010300030F481E008959A5FF4CF843FD1F380E0EB
:101040000895883EB0F3813FD1F7F3CFA6E0B0E03A
:10105000ECE2F8E00C94062349835A8349815A81D3
:101060009923A1F0222391F0CA010E941607182F9C
:10107000682F89819A810E948A0769817A81812FEC
:101080000E94E8052696E3E00C942223CA010E9400
:101090005707182FF2CF0F931F93CF93DF938C0135
:1010A00080916505843059F581E08093E9008FEFE8
:1010B0009091E800815095FD06C095ED9A95F1F765
:1010C00000008111F5CF8091E80085FF18C00E94D3
:1010D0001C0381110FC0C8E0D0E08091E80085FDBD
:1010E00013C08091E8008E778093E8000E941C0373
:1010F000882399F38091E8008E778093E800DF9150
:10110000CF911F910F910895F80181918F018093E4
:10111000F100219711F7EECFCF93DF93EC010E94FE
:101120004B0888E0FE01A2E5B5E001900D928A959A
:10113000E1F7DF91CF91089531B33F7E21B3206174
:101140004FB7F89480E794E0FC015191CF0168E03B
:1011500021BB000000C057FF31BB550F000000C08D
:1011600000C000C031BB00C06A9591F7F5E088343B
:101170009F0751F74FBF8FE594E00197F1F700C04B
:1011800000000895B0E0A0E0E8ECF8E00C94FF2245
:101190007C015B016A018091FB0101E010E08A3073
:1011A00010F40AE010E0C1E0D0E0B501C701F6019B
:1011B0000995811104C021960C171D072CF4CDB799
:1011C000DEB7EAE00C941B23CC9F9001CD9F300D3D
:1011D000300D112490E080E045E34A95F1F70000DE
:1011E000019682179307C1F7E0CFAB0124E630E008
:1011F000BC0188E70E94972021E0892B09F020E0BC
:10120000822F08958091640490916704911103C026
:1012100091E089270895882369F062E070E080EB0F
:1012200093E00E94F508811103C080916404089541
:101230001092640480916404EBCFCF93C091640456
:10124000809167048823D1F00E94CD03605A7541D4
:101250008F4F9F4F6093600470936104809362048A
:1012600090936304C11108C062E070E08EEA93E0DD
:101270000E94F508811105C0C09164048C2FCF91A4
:10128000089581E080936404F7CFB0E0A0E0EBE440
:10129000F9E00C94FD2249015A016B017C010E9486
:1012A000AA048401A4016A2D7B2D88E090E00E94AD
:1012B000CA2394014A2D5B2DB601C70100E20E94AA
:1012C0006323622F83E290E00E94B823CDB7DEB79C
:1012D000ECE00C941923B0E0A0E0E1E7F9E00C9415
:1012E000FD22D82E162F042F822EC0903302C0FE6E
:1012F0004CC0809134028D1108C080913502861354
:1013000004C080913602841729F0809132028260F5
:1013100080933202EC2DE695E695F0E0EE58FE4F14
:101320008081809330028C2D8C7F8430B9F4E02F43
:10133000093708F0E8E7F0E0E255FD4F11112AC047
:10134000C491DC2FFC2EC0FE09C0E09045018091C5
:101350004601E81608F493C00E948E04D09234022D
:101360001093350200933602882079F020913302E1
:1013700060913702709138023D2D412F502F80919E
:10138000390290913A020E944509CDB7DEB7ECE0F0
:101390000C941923E12EF12CC4919C2EEC2FF0E03B
:1013A00026E0D29EC00111242FEF30E0B9010E9447
:1013B000E3228D2D90E0880F991FA5E5A69FA0013F
:1013C000A79F500D1124841B950BA82FAA0FA80FBF
:1013D000A9014E195F094E9FC0014F9F900D5E9F5E
:1013E000900D1124D92F1A9FA0011124452F5527A4
:1013F0005901A41AB50AA5014E9F50014F9FB00C88
:101400005E9FB00C1124A9014A1B5109DA01AE9D5F
:10141000A001AF9D500DBE9D500D1124452F5527A5
:10142000241B350B2E9FA0012F9F500D3E9F500D6A
:101430001124F52E62307105A1F050F4611571058B
:1014400009F481CF6130710581F0F92EDB2D7BCF5E
:101450006430710569F080F06630710509F473CF6E
:10146000F4CFC92FD52FF92C6ECFFC2ECB2D6BCFFF
:10147000C52FF92ED92D67CFFB2CC92FFBCF80911B
:1014800043015E2D581B852F2D2F4F2D6C2F90E083
:101490000E941D04E3945BCFE3E3F2E0438121E18A
:1014A000421B08F440E021E0628181810E946B09C7
:1014B0000895E3E3F2E0438121E1420F08F44FEFA6
:1014C00021E0628181810E946B090895E3E3F2E0EB
:1014D000628121E1621B08F460E021E043818181A7
:1014E0000E946B090895E3E3F2E0628121E1620F5B
:1014F00008F46FEF21E0438181810E946B09089518
:10150000E3E3F2E0818121E04381628188500E941F
:101510006B090895E3E3F2E0818121E04381628178
:10152000885F0E946B09089580913702882319F023
:1015300081508093370220913302309134024091E0
:1015400035025091360260913702709138028091D5
:10155000390290913A020E9445090895809137021C
:10156000833018F48F5F80933702209133023091DB
:1015700034024091350250913602609137027091E9
:1015800038028091390290913A020E9445090895EB
:101590002091330220FF24C0237024602093330263
:1015A00080913202816080933202662381F0309113
:1015B00034024091350250913602609137027091A9
:1015C00038028091390290913A020E94450920E048
:1015D0004091360260913502809134020E946B097D
:1015E00008958091330286958695815009F481E0B3
:1015F00061E00E94C80A089561E081E00E94C80A83
:1016000008959091110292FB222720F9281779F072
:1016100080FB92F990931102609110027091110277
:1016200084E090E00E94D62382E00E94D7070895CC
:10163000ABE0B0E0EEE1FBE00C94072388E0E3E3ED
:10164000F2E0DE01119601900D928A95E1F780910A
:10165000300290913102A091320289879A87AB873C
:101660002B854091F7015091F8016091F90170913B
:10167000FA013FB7F89480914D0590914E05A091E5
:101680004F05B09150053FBF841B950BA60BB70BC0
:1016900084369105A105B10510F4222319F180913A
:1016A00031019091320187529E4F4091300150E0BC
:1016B0004C30510510F04BE050E0BE016F5F7F4FA2
:1016C0000E948B2386E090E00E946D22882369F0BF
:1016D0000E94CD036093F7017093F8018093F901A4
:1016E0009093FA011092320281E02B96E2E00C9482
:1016F0002323A4E0B0E0EFE7FBE00C940623409145
:10170000D5015091D6016091D7017091D8012FB7C2
:10171000F89480914D0590914E05A0914F05B091A0
:1017200050052FBF841B950BA60BB70B11E0843619
:101730009105A105B10570F10E94DD046E5F7F4F38
:101740008F4F9F4F69837A838B839C83809129017C
:1017500090912A0187529E4F4091280150E04530D8
:10176000510510F044E050E0BE016F5F7F4F0E94D2
:101770008B2385E090E00E946D22182F882351F082
:101780000E94CD036093D5017093D6018093D70159
:101790009093D801812F2496E3E00C9422234F925A
:1017A0005F927F928F929F92AF92BF92CF92DF9281
:1017B000EF92FF920F931F93CF93DF930F92CDB7CA
:1017C000DEB7C62E4A015901482E880F5508C201BE
:1017D0000E946D22782E882309F480C0C20133E074
:1017E000880F991F3A95E1F7FC01E050FF4F4381C4
:1017F00050E04115510511F041E050E080509F4FFD
:10180000FC016481758167527E4FCE0101960E9472
:101810008B23F40140815181628173812FB7F89449
:1018200080914D0590914E05A0914F05B0915005C6
:101830002FBF841B950BA60BB70B84369105A10512
:10184000B10540F4B701C8010E94070499818917C6
:1018500009F444C00C2C000CDD08C6010E946D2266
:10186000782E811113C0712C872D0F90DF91CF91AD
:101870001F910F91FF90EF90DF90CF90BF90AF90AE
:101880009F908F907F905F904F900895C60123E0C6
:10189000880F991F2A95E1F7FC01E050FF4F438123
:1018A00050E0E416F50608F4A70180509F4FFC01B4
:1018B0006481758167527E4FC5010E948B23B701F9
:1018C000C8010E94070499818913CDCF0E94CD03DE
:1018D000F4016083718382839383C6CFA701B8012B
:1018E000C5010E948B23C0CFA8E0B0E0EAE7FCE08E
:1018F0000C94032388E0E82EF12C00EE11E09E0109
:101900002F5F3F4F41ED51E063E082E00E94CF0B3B
:10191000082F882389F19091DF018091D0019817D9
:1019200059F110E09091E3018091E2018917F1F003
:10193000E92FF0E0E352FE4F878187FB662760F9CD
:101940009F5F93709093E3019091E1019F5F90936B
:10195000E1018F770E946904182F8111E3CF84E0A1
:1019600090E00E946D22012F082302C01111F7CFD1
:101970008091DF018093D001802F2896E6E00C94BF
:101980001F23A5E0B0E0E7ECFCE00C9401236B0121
:1019900085E0E82EF12C0AED11E09E012F5F3F4F0C
:1019A0004CEC51E061E080E00E94CF0B882349F0CD
:1019B00095E0FE013196A7ECB1E001900D929A9569
:1019C000E1F795E0E7ECF1E0D60101900D929A95F0
:1019D000E1F72596E8E00C941D232091BA0180914F
:1019E000B101282B8091B001882381F0282B30E0B1
:1019F00080E891E0FC014191CF0141113F5FF1E0AE
:101A000086389F07B9F731111092B00120937E01FB
:101A100048E050E062EB71E08EE791E00E947E23A7
:101A2000892BA9F088E0EEE7F1E0A2EBB1E00190AC
:101A30000D928A95E1F7E0914A05F0914B053097B8
:101A400031F00280F381E02D8EE791E00995089551
:101A50001092BA01E0E8F1E086E0DF011D928A957C
:101A6000E9F71092B1010E94ED0C0895AAE2B0E0EE
:101A7000ECE3FDE00C9406238DE595E02091F10068
:101A8000FC012193CF01F5E085369F07B9F78091DE
:101A90005E05833009F470C0B8F4813009F447C0A2
:101AA000823009F4B5C08091E80083FF70C2809154
:101AB0005D0590915E059A3008F069C2E92FF0E06B
:101AC000E251FC4D0C9442238A3009F490C08B30D3
:101AD00009F46FC0893039F780915D05813219F7BB
:101AE0008091610590916205892BE9F68091E8006B
:101AF000877F8093E8008091E80082FF38C0909152
:101B0000F3008091F200029731F48091F10081306E
:101B100011F0863021F48091F10080935201809180
:101B2000E8008B778093E8000E944D03BCCF809142
:101B30005D05813A09F0B7CF8091E800877F8093F7
:101B4000E8008091610590916205892B61F468E05D
:101B500082E595E070E00E946C038091E8008B774D
:101B60008093E800A0CF60E090E080E0F3CF809128
:101B700065058111C0CF97CF80915D05813A09F04D
:101B800092CF8091610590916205892B09F08BCFEE
:101B90008091E800877F8093E8008091E80080FFD3
:101BA000FCCF809153018093F1008091E8008E7703
:101BB000B9CF80915D05813209F075CF80916105C3
:101BC00090916205892B09F06ECF8091E800877FA4
:101BD0008093E8000E944D0381E090915F05911190
:101BE00001C080E0809353010E94280D5CCF80915A
:101BF0005D05813209F057CF8091E800877F80939F
:101C0000E8000E944D0380916005809351014BCF05
:101C100080915D05813A09F046CF8091E800877F89
:101C20008093E8008091E80080FFFCCF8091510113
:101C3000BACF803899F0823809F0A9C18091610546
:101C40008F70873008F0A3C18093E9008091EB008A
:101C500085FB882780F91092E90006C080915A051B
:101C600090915B05911182609091E800977F90932D
:101C7000E8008093F1001092F1008091E8008E77E7
:101C800082C1882309F470C1823009F080C180913B
:101C90005F05811173C1809161058F702FEF280F4F
:101CA000263008F074C18093E9002091EB0020FFFA
:101CB00065C1933031F48091EB0080628093EB003A
:101CC0005DC19091EB0090619093EB0021E030E0DA
:101CD00001C0220F8A95EAF72093EA001092EA00E9
:101CE0008091EB008860EACF811151C110915F05AE
:101CF0001F778091E3008078812B8093E3008091AF
:101D0000E800877F8093E8000E944D038091E800FF
:101D100080FFFCCF8091E30080688093E30082E045
:101D2000111183E08093650532C18058823008F03C
:101D30002EC180915F05909160058C3D23E0920754
:101D4000A1F583E08A838AE289834FB7F894DE01A4
:101D5000139620E03EE051E2E32FF0E0509357006D
:101D6000E49120FF03C0E295EF703F5FEF708E2F8C
:101D700090E0EA30C0F0C7968D939D932F5F243199
:101D800059F74FBF8091E800877F8093E8006AE2AF
:101D900070E0CE0101960E946C038091E8008B7781
:101DA0008093E800F4C0C096E7CF40916105509160
:101DB0006205292F33272330310509F43FC078F518
:101DC0002130310509F466C082E290E0E6EFF3E0ED
:101DD0002230310509F0DBC02091E800277F2093F5
:101DE000E80020916305309164058217930708F499
:101DF0009C0140E02115310509F051C041114FC04F
:101E00008091E80082FDC9CF80916505882329F281
:101E1000853019F28091E80083FFF2CFBECF2132E6
:101E2000310581F12232310509F0B1C0452B09F0AD
:101E3000AEC084E490E0E2EBF3E0CECF99278130AE
:101E40009105C1F0009759F0029709F0A0C0EAE2AD
:101E5000F4E0E4918E2F90E0EAE2F4E007C0E2E6DD
:101E6000F4E0E4918E2F90E0E2E6F4E0009709F0D0
:101E7000B3CF8DC0E8E4F4E0E4918E2F90E0E8E485
:101E8000F4E0F4CF452B09F082C089E090E0E8E06F
:101E9000F4E0A2CF82E190E0E8E1F4E09DCF809110
:101EA0006505882309F479CF853009F476CF8091D0
:101EB000E80083FD72CF8091E80082FDA1CF809180
:101EC000E80080FF97CF9091F3008091F2002115F8
:101ED000310519F08830910550F041E0089709F07C
:101EE00040E08091E8008E778093E80083CF4491B2
:101EF0004093F1003196215031090196E8CF8038A6
:101F000009F045C08091E800877F8093E8008091C8
:101F10005C058093F100B1CE811139C010915F054D
:101F20001230A8F58091E800877F8093E800109335
:101F30005C050E944D03112311F084E005C08091DF
:101F4000E30087FDFACF81E08093650561EC81E0D5
:101F50000E94710280916505843021F081E08093B8
:101F6000540115C082E0FBCF80915F05813079F488
:101F700081E0933009F080E080935B051092E900E6
:101F80008091E800877F8093E8000E944D03809154
:101F9000E80083FF0AC08091E800877F8093E80013
:101FA0008091EB0080628093EB00AA96E3E00C94B2
:101FB00022230E94280D2FEF84E39CE021508040D3
:101FC0009040E1F700C0000088E19AE00FB6F89475
:101FD000A895809360000FBE90936000FFCF882388
:101FE00021F00E9405070E94ED0C0895882339F026
:101FF0009091BA01982B9093BA010E94ED0C08952C
:10200000882391F09CEF980F913A78F4E0E8F1E0A2
:102010009191891303C0DF0111971C9291E0E6387A
:10202000F907B1F70E94ED0C089590E2980F9830EF
:10203000D8F7877091E001C0990F8A95EAF7892F48
:102040000E940507EFCFCF93C82F8823A9F08CEF0C
:102050008C0F813A00F5E0E8F1E0DF018D91C817BF
:1020600069F081E0A638B807C9F76C2F8EE791E0D8
:102070000E94DC030E94ED0CCF9108958191C8135A
:1020800003C0DF0111971C9281E0E638F807B1F731
:102090000E94ED0CEACF80E28C0F883068F7C770A1
:1020A00021E030E001C0220FCA95EAF78091BA0121
:1020B000822B8093BA01DECF80E090916B04209157
:1020C0006A04291749F1E92FF0E0E459FB4F208118
:1020D0009F5F937090936B04809169048F5F8093EE
:1020E000690427FD0BC08BE40E9423108FE39CE959
:1020F0000197F1F700C000008BE40AC08EE40E9453
:1021000023108FE39CE90197F1F700C000008EE4F3
:102110000E94001081E0D1CF08951F920F920FB658
:102120000F9211242F933F934F935F936F937F935D
:102130008F939F93AF93BF93CF93DF93EF93FF93CF
:10214000D091E900DF708091EC00C82FC17080FD54
:10215000C0E81092E9008091F000877F8093F00042
:1021600078940E94360D1092E9008091F00088600A
:102170008093F000CD2BCF70C093E900FF91EF91D9
:10218000DF91CF91BF91AF919F918F917F916F918F
:102190005F914F913F912F910F900FBE0F901F9025
:1021A00018951F920F920FB60F9211242F933F9301
:1021B0004F935F936F937F938F939F93AF93BF934F
:1021C000EF93FF938091E10082FF09C08091E200CC
:1021D00082FF05C08091E1008B7F8093E1008091B8
:1021E000DA0080FF24C08091D80080FF20C0809159
:1021F000DA008E7F8093DA008091D90080FFA9C039
:1022000080E189BD82E189BD09B400FEFDCF81E096
:102210008093650580915105811109C00E94A30238
:102220000E94C2028091E20084608093E20080916B
:10223000E10080FF1AC08091E20080FF16C080910B
:10224000E2008E7F8093E2008091E20080618093C3
:10225000E2008091D80080628093D80019BC85E0AC
:102260008093650583E0809354018091E10084FFB1
:1022700030C08091E20084FF2CC080E189BD82E102
:1022800089BD99B5892F817090FFFBCF9091D800BF
:102290009F7D9093D8009091E1009F7E9093E10004
:1022A0009091E2009F7E9093E2009091E200916015
:1022B0009093E20090915C05992309F450C094E05A
:1022C0009093650590916505943009F482E08093C0
:1022D00054018091E10083FF2BC08091E20083FFD5
:1022E00027C08091E100877F8093E10082E08093A6
:1022F000650510925C058091E1008E7F8093E1007E
:102300008091E2008E7F8093E2008091E200806104
:102310008093E20060E080E00E9471028091F00012
:1023200088608093F00081E0809354018093530192
:10233000FF91EF91BF91AF919F918F917F916F919D
:102340005F914F913F912F910F900FBE0F901F9073
:10235000189519BC109265051092510568CF90919F
:10236000E30097FD02C0982FABCF93E0A9CF7894FC
:102370001F921FB61F9211248F939F93AF93BF9309
:1023800080914D0590914E05A0914F05B09150055B
:102390000196A11DB11D80934D0590934E05A0930C
:1023A0004F05B0935005BF91AF919F918F911F90B2
:1023B0001FBE1F9018959C014FB7F89480914D0552
:1023C00090914E05A0914F05B09150054FBF821BD3
:1023D000930B08952FB7F89480914D0590914E0579
:1023E000A0914F05B09150052FBF08950F931F93F3
:1023F000CF93DF93C62FD42F022FFC018581882332
:10240000A9F06093A2050E94EA119093A105809320
:10241000A005C77081E001C0880FCA95EAF70E9445
:10242000F60FDF91CF911F910F9108958091A20532
:10243000681335C08091A0059091A1050E94DB1121
:10244000883C910560F510E21D0FCD17B9F080E2D0
:102450008C0F883040F4C77081E001C0880FCA95A6
:10246000EAF70E94EF0F183048F481E09D2F977033
:1024700001C0880F9A95EAF70E94F60F802F0E94FC
:102480002310802F0E940010183058F6D77081E07A
:1024900001C0880FDA95EAF70E94EF0FC2CFC7702C
:1024A00081E001C0880FCA95EAF7F6CFB0E0A0E05E
:1024B000ECE5F2E10C94FF228C01FC01848188237D
:1024C00041F121E0408151816281738195810E94B7
:1024D0002608EC01FC01E851FC47E730F105A8F5BE
:1024E000E850FC4D0C94422326E241EE61EEC80117
:1024F0000E94F6118091AF01877059F0F801858133
:10250000882339F08091110282FF03C082E00E948B
:10251000D707CDB7DEB7EAE00C941B2327E245EEE0
:1025200065EEE5CF26E241EE60EEE1CF27E245EE33
:1025300064EEDDCF26E241EE62EED9CF27E245EE32
:1025400066EED5CF28E241E0EBCFF80195819923E3
:1025500009F4F8C31092A2059E01305723323105C9
:1025600008F0DAC384E090E00E94A2239093110265
:1025700080931002FE01E150F047E232F10520F4B1
:10258000E150FC4D0C9442238091100281608093B5
:10259000100295C0809111028860809311028FC053
:1025A000809110028260F3CF809110028460EFCF9F
:1025B000809110028860EBCF809111028160EDCF95
:1025C000809111028260E9CF809110028061DFCF9B
:1025D000809110028062DBCF809110028064D7CF9F
:1025E0000E94280D809110028068D1CF8091100246
:1025F0008C60CDCF809111028360CFCF809110028B
:102600008E7FC5CF80911102877FC7CF8091100246
:102610008D7FBDCF809110028B7FB9CF809110024A
:10262000877FB5CF809111028E7FB7CF8091110245
:102630008D7FB3CF809110028F7EA9CF8091100241
:102640008F7DA5CF809110028F7BA1CF0E94280D96
:10265000809110028F779BCF80911002837F97CF5C
:10266000809111028C7F99CF8091100282FB992773
:1026700090F921E0922790FB82F990FB83F987CFB4
:1026800080911102982F909591708E7F892B90FBED
:1026900081F983CF90911002892F8F7B96FF806400
:1026A00076CF0E94280D90911002892F97FB87F911
:1026B00080586DCF61E08EE090E00E94B823609179
:1026C00010027091110284E090E00E94D6230E94D3
:1026D000280D10CF60E0EFCF90911002892F8F7EF0
:1026E00094FF806154CF90911002892F8E7F90FFCC
:1026F00081604DCF90911102892F877F93FF886071
:102700004CCF85E329C38091330280FF1CC0282F62
:102710002E7F209333023091340240913502509144
:10272000360260913702709138028091390290919F
:102730003A020E9445098091320281608093320200
:102740000E948E04D7CE81608093330261E086952B
:1027500086950E94C80ACECE882329F00E94F10AED
:10276000C9CE8823D9F30E94FC0AC4CE882329F05D
:102770000E94800ABFCE8823D9F30E948A0ABACE6B
:10278000882329F00E94660AB5CE8823D9F30E94D7
:10279000730AB0CE882329F00E944C0AABCE88235E
:1027A000D9F30E94590AA6CE882329F00E94940AE0
:1027B000A1CE8823D9F30E94AE0A9CCE9E01205E52
:1027C000324520323105A8F4911115C0CF7181E056
:1027D00090E09C0102C0220F331FCA95E2F7E90185
:1027E000622F83E090E00E94B823CE010E94FE0792
:1027F00081CE992381F0C3303CE7D30709F487C029
:1028000008F05BC0C1159CE7D90709F464C0C1306A
:10281000DC4709F482C0F8018581C081D181882319
:1028200009F489C0CE010E941607F82E682FCE0148
:102830000E948A07BE018F2D0E94E8050E940706AC
:10284000D82FC92FA82EF801C580B680B2943FE0DA
:10285000B3228091AF01877009F1FC2CCC20F9F0F4
:10286000892F807F803469F080E28D0F8830B0F04E
:10287000892F807E803229F4F1E0FD1778F4BB20A7
:1028800069F08091110282FF09C082E00E94D7079F
:102890008091AF018770FF24F3948111F12CEC2E0D
:1028A000E2942FE0E2222BE02E1508F4A9C0EE2DD1
:1028B000F0E0EF5DFB4D0C944223CB35FCE7DF07E6
:1028C000C1F1CC352CE7D20751F1CA35DC4709F00C
:1028D000A2CF81E02BC00E94280D8FEF94E3ECE0A3
:1028E00081509040E040E1F700C0000087E797E7A3
:1028F000909301088093000888E19AE00FB6F8945D
:10290000A895809360000FBE90936000FFCF6FEF9B
:102910007FEF90E080E00E94D6230E94D90F809143
:10292000110282FB882780F991E089270E94010B20
:1029300072CF80E0FBCFCE010E945707F82E7ACFEE
:102940003C2F3F70D32EC07F19F0D29490EFD92244
:10295000CC20B9F0DD2069F080E28D0F883010F0D6
:10296000A11009C08091BA01D82AD092BA010E9460
:10297000ED0C8D2F43C08091B101D82AD092B101C6
:10298000F6CF8D2F0E940010DD20D1F1D05ED8301F
:1029900010F0A11004C08D2D0E94050706C0D09430
:1029A0008091B101D822D092B1010E94ED0C28C0D3
:1029B0008C2F8F70D82EC07FC03219F0D29480EF48
:1029C000D822AA2059F091E0A91609F478C0CC20A9
:1029D00009F484C0BB2009F446C0CBCF809111021A
:1029E00082FD3DC0CC20A9F1DD2039F08091BA01F3
:1029F000D82AD092BA010E94ED0C80E00E942310E8
:102A0000EE2DE850FF0B349710F40E94F603FF20E0
:102A1000A9F08091AF0180FD11C0F8011582869563
:102A2000869586950E94EE07C8010E9456128091F5
:102A3000AF018695869586950E94C50720E0F8012E
:102A40004081518162817381848195810E94260831
:102A500060CD80E00E940010DD2091F29CCFCC2060
:102A6000A1F0B11004C08D2D0E94F60FC9CFE1E096
:102A7000BE12C6CF8091B0019D2D9823D91609F4BE
:102A8000BFCFD82AD092B001BBCFB110B9CF8D2D16
:102A90000E94EF0F9091B0018D2D892329F08D2D8B
:102AA000809589238093B001809187019D2D982383
:102AB00009F4A6CFD094D822D0928701A1CFCC2000
:102AC00029F0F5E0FB1508F49BCFCDCF24E02B15C2
:102AD00008F496CF8D2D0E94EF0F92CFBB20D1F33B
:102AE00039E3A31209C08FEF97EEE3E081509040E5
:102AF000E040E1F700C000008D2F0E94001080CF61
:102B00008C2F837009F03FC0C1107ACF4D2F4295B2
:102B100046954770440F440F2D2F2F7030E0042E40
:102B200002C0220F331F0A94E2F790E080E0D4FF46
:102B300009C08FE090E002C0880F991F4A95E2F724
:102B400080959095C695C695C370C23099F078F47B
:102B500040910C0250910D02C13039F0822B932B21
:102B6000842395230E94FE074BCF242B352B822BE9
:102B7000932BF8CF822B932B20910C0230910D02D6
:102B800082279327EFCF8695CC2011F08C2F817070
:102B9000882309F435CF4D2F429546954770440F51
:102BA000440F2D2F2F7030E0042E02C0220F331F50
:102BB0000A94E2F790E080E0D4FF09C08FE090E053
:102BC00002C0880F991F4A95E2F780959095C695A7
:102BD000C695C370C23099F078F440910E025091BE
:102BE0000F02C13039F0822B932B842395230E944E
:102BF000C00706CF242B352B822B932BF8CF822BAB
:102C0000932B20910E0230910F0282279327EFCF52
:102C1000CF70CC2029F08C2F0E94EE078D2F24CF6F
:102C20008D2F0E94EF0F8C2F0E94C507E9CE8D2FAC
:102C3000F2EFAF1699F1FA1570F020EFA216D1F06D
:102C400031EFA31691F0CC2009F456C0B11091CE0B
:102C50008C2F8F7127C093EFA91639F1E4EFAE12D4
:102C6000F2CF9091110292FD2EC08C2F8F71CC204B
:102C7000D9F218C0CC2069F0F4E0FB1508F4C0CEFE
:102C8000CF7181E090E002C0880F991FCA95E2F7EA
:102C9000B8CF25E02B1508F4B3CEF2CF8C2F8F716F
:102CA000C110C2CF0E94EE07ABCE90E080E0CC20F6
:102CB00009F49DCFCF7181E090E002C0880F991F89
:102CC000CA95E2F794CFCC2061F08C2F8F7192FFE0
:102CD000E9CF98E0899F9001112423602093AF01F0
:102CE000E1CF81E00E94D707E1E0EB1508F088CE44
:102CF00082E00E94D70784CEBB2059F0893309F0C7
:102D0000FBCEFFEF27EE33E0F15020403040E1F7FB
:102D1000F1CE8C2F8F7188CF8091BA01C631FCE73C
:102D2000DF0741F58A7A91E009F490E090938601FB
:102D300069E2811165E38EE791E00E94DC030E9465
:102D4000ED0CD8CBC6312CE7D20709F037CD8091F6
:102D500086018111D6CC89E2E0E8F1E026E831E095
:102D60009191891303C0DF0111971C922E173F0721
:102D7000B9F7E5CF8272FE01E052F847EB30F1057A
:102D800008F01CCDE35DFB4D0C944223CF93DF9301
:102D90008091AE01807F09F04DC08091AD01882304
:102DA00009F448C0E0919F0550916605C091A901C2
:102DB000D091A8016091AA017091AB0147E05E1724
:102DC000C9F18E2F90E0E49FF0011124E959FA4FE8
:102DD0002481222391F1489FF001499FF00D112495
:102DE000DF01A959BA4F11962C9111972C1325C0C8
:102DF0002C912D1322C015962C91159721111DC0D1
:102E000012962D913C91261B370B283C3105A8F4D6
:102E10008091AE018F7080618093AE01E359FA4FCB
:102E200080818F708061808388EA91E00E945612D1
:102E30000E940C07DF91CF910895FC013196E77055
:102E4000BECFA4E1B0E0E7E2F7E10C94FD228C01F3
:102E500086E0F801DE011F9601900D928A95E1F758
:102E6000F8018481E58098EAA92E91E0B92E90912D
:102E7000AC01911128C0882319F1EE20F1F0C801AE
:102E80000E940308F82E8823C1F087E0F801D501DD
:102E900001900D928A95E1F78091AC01813031F477
:102EA0008091A8019091A9010E944A070E94C6162C
:102EB0008F2D6496ECE00C941923C8010E945612E1
:102EC000FF24F394F5CFD080C18082809380F0906E
:102ED000AD012091AA013091AB01A401421B530B1B
:102EE000FF2009F4D9C0483C510508F092C088235E
:102EF000F9F29091A9018091AE01282F207F09F06D
:102F000056C0C91214C09091A801D91210C0E11086
:102F100048C08F7080618093AE0188EA91E00E9482
:102F200056128091AE01F8018683F12CC1CFE110D9
:102F300038C06C2D8D2D0E9452026C2D8D2D0E945B
:102F40005202E82E8111F1CFDF86C88A8F859889D9
:102F50000E944A07292F22952F70243058F49F7021
:102F6000223088F0992399F0F8019681907F79F4C6
:102F7000FE2C9ECF2A5F2F70223068F0C8010E947D
:102F80005612EF2CF5CF992311F0882389F3805E38
:102F9000883070F3F3CF803F58F3815F833070F750
:102FA000E7CF8091AE0181608093AE01BECFC912A0
:102FB00007C09091A801D91203C0EE2009F48DC07A
:102FC000C8010E940308882309F477CFEE2009F492
:102FD00074CF8091AE01803288F02091A8013091A9
:102FE000A901398728879B868A869091AC019C87A6
:102FF0001D868E87CE0108960E94561287E0F80142
:10300000A8EAB1E001900D928A95E1F70E94C616F8
:1030100057CF9091AE01292F207F51F488EA91E09B
:103020000E94561287E0F50111928A95E9F77DCF4B
:10303000882309F43DCF8091A9018C1110C08091A3
:10304000A801D8120CC0E1100AC09683C8010E94E2
:10305000561287E0F50111928A95E9F729CFC80148
:103060000E940308882309F428CFEE2009F425CF15
:103070008091AE01803210F22091A8013091A90117
:103080003A8329839C828B829091AC019D831E821E
:103090008F83CE010196B0CF483C5105D0F68823EE
:1030A00009F40ECFFE2CEE2009F407CF8091A90180
:1030B0008C1120C08091A801D8121CC08091AE0153
:1030C00080FD0FC0982F907F61F08683903F31F094
:1030D000982F907F905F8F70892B8683C8010E9404
:1030E000561287E0F801A8EAB1E001900D928A95A6
:1030F000E1F7DECEC8010E94030881117FCF8091E5
:10310000AE0181608093AE01C8010E945612D0CEFC
:10311000ABE1B0E0EEE8F8E10C9405234E8B5F8B59
:10312000688F798F8A8F9B8F192F91111092B1011F
:103130001D8A86E0FE017696DE011F9601900D92B3
:103140008A95E1F70A8D002341F021E04F855889E7
:1031500069897A89C8010E9426080B8B1C8B87E03D
:10316000FE013F96DE01189601900D928A95E1F7D7
:10317000CE0108960E94211781112AC087E0FE0126
:103180003896DE01119601900D928A95E1F78C85B3
:103190008823F1F02091660530E0C901019687701F
:1031A000992740919F0548171906E9F097E0929FEB
:1031B000D001939FB00D1124A959BA4FFE01319649
:1031C00001900D929A95E1F7809366050E940C0795
:1031D00017E080919F0590916605891312C06B9648
:1031E000E4E00C9421230E94280D109266051092B1
:1031F0009F0587E0E8EAF1E0DF011D928A95E9F793
:10320000E7CF819FC001112489599A4F0E9421174D
:10321000882329F380919F0590E001968770992774
:1032200080939F05D6CF2F923F925F926F927F92AD
:103230008F929F92AF92BF92CF92DF92EF92FF92C6
:103240000F931F93CF93DF9380916704882369F1D5
:1032500080916504909166040E94DB11C29730F062
:103260000E94EA11909366048093650480915E0445
:1032700090915F04892B59F5809164048823A9F00B
:103280000E94CD03009160041091610420916204BA
:1032900030916304601B710B820B930B6F3F7F4F68
:1032A0008F4F9F4710F40E940209DF91CF911F9129
:1032B0000F91FF90EF90DF90CF90BF90AF909F90D5
:1032C0008F907F906F905F903F902F9008958091A6
:1032D0005D048111D1CF0E941D0920915E043091BF
:1032E0005F042115310541F280E041E050E0082FF4
:1032F00010E01A01082E02C0220C331C0A94E2F7D7
:10330000B10162237323672B11F48F5FF0CF90918B
:103310005C0490FF95C0880F880F880F80934A0146
:1033200010924D01895F80934B0183E080934E01A1
:1033300024E630E047E050E068E471E088E70E946E
:103340005320892B09F098CFA80125E0440F551F81
:103350002A95E1F780915C0480FF84C0ECE3F2E001
:1033600080E2DF011D928A95E9F7A8E7B1E004E762
:1033700011E08CE7C82E81E0D82E97E0592E7724F3
:1033800073948D91E80129918E01240F352F311D01
:10339000245A3D4FE82FF0E0E45CFD4F90E080E0E0
:1033A000652C681A872C082E01C0880C0A94EAF74D
:1033B0007901A12CE701B9907E01B820662D6A1928
:1033C0006770962E062E000C770BDB2D01C0DD0FEB
:1033D0009A94EAF77195619571096770772701C032
:1033E000B6946A95EAF7BD2A6081962E9B28908252
:1033F000A39468E0A612DECF01963196883091053D
:1034000079F6CA16DB0609F0BCCF04E610E020E22C
:1034100030E04CE352E060E488E70E94DD20892B35
:1034200009F02ACFE101C095D09580915E0490917A
:103430005F04C823D923D0935F04C0935E041CCFDC
:103440008295880F807680934A019801369527955A
:103450003695279520934D01815E80934B012093F3
:103460004E0166CF445A5D4F04E610E020E230E0A2
:10347000D2CFA5E1B0E0EFE3FAE10C94FC228E019B
:10348000045F1F4F8AE0F80111928A95E9F787E5FA
:10349000C82E81E0D82EF12CE12CAA24A394B12CC3
:1034A00022E6822E21E0922EF60181916F018F3F5C
:1034B00009F442C0F894E82FE295EF70F0E021A102
:1034C0008F70A50102C0440F551F8A95E2F7CA010B
:1034D000922F982B91A392A18095892382A378940F
:1034E00000C0ECE5F1E0712C31E021912F3F09F4AF
:1034F0009CC0A22FA295AF70B0E090968C9190E006
:103500002F7002C0959587952A95E2F780FD8DC0B2
:10351000832F782A330F8E169F0639F7F6013197DD
:1035200080818F3F11F00E94C60450EA5A95F1F74E
:10353000F801EE0DFF1D70828FEFE81AF80A95E092
:10354000E916F10409F0B0CF4AE050E0B80180E09C
:1035500092E00E947E23009741F02AE0F801A0E06B
:10356000B2E001900D922A95E1F700910B0210E074
:103570000D5E1D4F892B09F45AC081E08093BF0175
:103580000E94EA119093BE018093BD01D12CC0909E
:103590004805FE0131967F0185E0CC2009F49DC0ED
:1035A00011928A95E9F78091FB018A3008F063C097
:1035B00041EC5CE0B701C8010E94C208882309F40D
:1035C0007BC044E75CE0B701C8010E94C2088823C1
:1035D00009F472C049E75BE0B701C8010E94C20864
:1035E000882309F469C048E15BE0B701C8010E9483
:1035F000C208882309F460C01092FB0180910A027E
:1036000090E045E050E0B7018D5E9D4F0E947E2323
:1036100021E02093C601892B09F042C0C12C8C2DDA
:103620008D296596EDE00C94182380E072CFD09040
:10363000BF01DD2009F4AACF8091BD019091BE01A8
:103640000E94DB11059708F4A1CF45E050E060E04F
:1036500072E0C8010E947E23892B59F085E0E0E0EA
:10366000F2E0D80101900D928A95E1F71092BF0126
:103670008ECFD12CFBCF8091C0019091C1010E94CF
:10368000DB11843F914008F093CF8091C6018823DD
:1036900029F285E0F70111928A95E9F71092C601A7
:1036A000A0910A02B0E0AD5EBD4F85E0F701019048
:1036B0000D928A95E1F7B3CF8091FB018F3F31F0F6
:1036C0008F5F8093FB018A3008F498CF0E94EA1143
:1036D0009093C1018093C001D8CFF801AAEDB1E069
:1036E00001900D928A95E1F765E070E08AED91E036
:1036F0000E9407048093D90188E0E8E6F4E0A0EE98
:10370000B1E001900D928A95E1F768E070E080EEFB
:1037100091E00E9407048093DF018090E80190907F
:10372000E901A090EA01B090EB018091C201909173
:10373000C301A091C401B091C50188169906AA06DB
:10374000BB06B1F08092C2019092C301A092C40165
:10375000B092C5010E94CD03861A970AA80AB90A39
:103760008092FC019092FD01A092FE01B092FF01B7
:103770008BE0ECEEF1E0D70101900D928A95E1F734
:103780002981822F869586950A81FB80EC801B8596
:103790001092F601112309F442CF10FF0AC0909154
:1037A000330220FF0FC091609093330260E00E94CB
:1037B000C80A11FF34CF20E04E2D6F2D802F0E94BC
:1037C0006B092DCF9E7F90933302809132028160EE
:1037D000809332020E948E04ECCFA6E0B0E0E3EFCB
:1037E000FBE10C9405230E94EA118C018091BB013E
:1037F0009091BC018017910781F019821A820E9472
:10380000EA11682F49815A81792F80E090E00E9467
:1038100088181093BC010093BB012696E4E00C9439
:1038200021231F921FB61F9211248F939F93AF9352
:10383000BF9380914C05811113C080914D059091EB
:103840004E05A0914F05B09150054196A11DB11DA7
:1038500080934D0590934E05A0934F05B09350056E
:10386000BF91AF919F918F911F901FBE1F90189590
:10387000CDB7DEB728970FB6F894DEBF0FBECDBF29
:1038800085B7806885BF85B7806885BF84B7877F27
:1038900084BF0FB6F894A8958091600088618093EA
:1038A0006000109260000FBE80E890E00FB6F894C0
:1038B00080936100909361000FBE81E0809354017A
:1038C00080EC94E090937D0180937C010E94A302A0
:1038D0000E94C2028091E20084608093E2007894AA
:1038E000809165058823A1F01091E9001F709091E7
:1038F000EC00892F817090FD80E8182B1092E90070
:103900008091E80083FD0E94360D1F701093E9003E
:1039100082E084BD93E095BD9AEF97BD80936E00E1
:103920001092FC011092FD011092FE011092FF0115
:103930008091D80080618093D8002AE12A95F1F720
:1039400000C08091D900182F117080FD04C00E9422
:10395000A302109265051093480510934905109332
:103960003801112309F42AC21092430184E28093A2
:1039700044010E948121E8E6F4E088E0DF011D9225
:103980008A95E9F78091380191E0892780932A028E
:103990008091380190932D028091380180913801F7
:1039A000811106C084E980934F0185EF8093500117
:1039B00060E080E00E94460461E080E00E944604EE
:1039C000EFE8F1E03197F1F700C0000010E08091DE
:1039D0002D02181708F4F8C1809138018091380140
:1039E00095E0811190E090930B0285E0891B809314
:1039F0000A0207E511E05CE5E52E51E0F52ED8015D
:103A00008D918D018F3F11F00E94C604E016F106E2
:103A1000B1F70CE511E042E6E42E41E0F42EF801A6
:103A200081918F018F3F11F00E94C604E016F106CC
:103A3000B1F78AE0E3E1F2E0DF01282F1D922A9539
:103A4000E9F7E0E0F2E0DF011D928A95E9F790E006
:103A500080E00E94A223853E9E4F09F461C065EE7E
:103A60007EEF90E080E00E94D62360E082E090E06C
:103A70000E94B82381E090E090930D0280930C02A5
:103A800061E083E090E00E94B82360E074E184E0AC
:103A900090E00E94D62360E086E090E00E94B82388
:103AA00060E087E090E00E94B82340E050E0BA0177
:103AB00088E090E00E94CA2360E083E290E00E94E8
:103AC000B82360E08CE090E00E94B82360E08DE0D5
:103AD00090E00E94B82319821A821B821C821D82E8
:103AE0001E821F82188648E050E067E170E0CE0138
:103AF00001960E94A82340E050E0BA018FE190E0D7
:103B00000E94CA2340E050E0BA018FE090E00E949A
:103B1000CA2340E050E0BA0183E190E00E94CA234A
:103B200082E090E00E94942380931D0284E090E064
:103B30000E94A223909311028093100283E090E0F0
:103B40000E94942390E00E94FE0710925C0480E89B
:103B500080933B020E941F206BE070E083EA92E0BA
:103B60000E94F5088823C9F180915C0465E070E04B
:103B700081FD3CC18EE992E00E94F508882369F13D
:103B80006DE070E08CE892E00E94F508882329F14E
:103B90000E94CD03605A75418F4F9F4F6093600420
:103BA000709361048093620490936304ECE5F2E007
:103BB00080E092E0DF019C011D9221503040E1F74E
:103BC0008FEF9FEF90935F0480935E0481E080937A
:103BD00067048093640410925D0480911202811145
:103BE00084C088E090E00E949C234B015C0183E24A
:103BF00090E00E949423282F30E040E050E060E005
:103C000070E080E090E000E20E94482328293929F2
:103C10004A295B29209333023093340240933502C2
:103C200050933602609337027093380280933902C2
:103C300090933A02309132023360309332022C7FFB
:103C400009F043C025E020933302109234022FEF95
:103C50002093350228E7209336021092370225E0A0
:103C600030E04FEF58E760E00E94450988E090E0BF
:103C70000E949C236B017C0183E290E00E949423CC
:103C8000282F30E040E050E060E070E080E090E01D
:103C90000E944823B22FA32FF42FE52F5B01970139
:103CA0008601BC29A12BFE29E32BB0933302A093FC
:103CB0003402F0933502E093360260933702B092FB
:103CC00038028093390290933A020E94AA040E941B
:103CD00028048091330280FF05C060E086958695B8
:103CE0000E94C80A81E080931202809148058111E8
:103CF00002C00E94842189E391E090934B05809358
:103D00004A0598E1C92ED12C2DE1A22E22E0B22E37
:103D100034E0832E912C8091650510E4853009F400
:103D200099C00E94391A0EE112E083E1E82E82E088
:103D3000F82ED701F80191918D9122E0E832F20737
:103D400009F492C09817B9F320904805712CD70157
:103D50006D907D01F80131908F01361431F1512CB5
:103D6000442443943624832D8421B9F02220A9F0E1
:103D700059827A820E94EA119C838B83F1E0FD8351
:103D800091E0862D842109F490E09E8349815A8137
:103D90006B817C818D810E9488185394440C26E0AD
:103DA0005212E1CFF8013197608273943AE07312B6
:103DB000CECF0E94DD04772473945BC084E28093AD
:103DC000430180934401D7CD60E0812F0E942A04F3
:103DD000082F61E0812F0E942A04E12FF0E0E55DC9
:103DE000FD4F880F802B80831F5FF1CD89E992E022
:103DF000C3CE80916505843019F10E9402091092AA
:103E00004C050FB6F894A895C09260000FBE1093B1
:103E1000600083B7817F846083BF83B7816083BF85
:103E20007894889583B78E7F83BF0FB6F894A89552
:103E300080916000886180936000109260000FBEE6
:103E40000E94391AE3E1F2E08191811189C0AE1636
:103E5000BF06D1F780916505853009F4CACF0E946D
:103E6000280D0E94F6035DCF98136ECF0E94ED1BC4
:103E7000712CE0904805EE2019F00E945C10E82EAD
:103E800080912E02882351F010922E0280916A04B4
:103E900080936B048091680480936904F12C809175
:103EA0002D02F81688F080914805882319F00E94A9
:103EB0005C10E82AEE2009F443C00E94DD040E9451
:103EC00013190E941D0940C061E08F2D0E942A0431
:103ED000182F60E08F2D0E942A04E12FEE0F8E2B09
:103EE0000F2D10E0D801A55DBD4FEC919E2F937072
:103EF000891721F1EE0FEE0FE82BEC9380912A0247
:103F00008F0DEF70F0E0EE59FE4F085D1D4F6080A1
:103F1000D8019C91690E6C92B3E060E0B61524F074
:103F2000EDEF6E161CF461E00E946904862D660CAC
:103F3000990BB4010E942E23D8018C93F394AFCF38
:103F40000E9413197110BDCF0E94F60390912F02A9
:103F5000891709F4E0CE80932F020E94CD03DBCEB7
:103F600080915B05882309F475CF30E139BD82E18A
:103F700089BD09B400FEFDCF8091D8008F7D80936C
:103F8000D8008091E00082608093E0008091E000A2
:103F900081FDFCCF0E94280D5DCFEF92FF920F9321
:103FA0001F93CF93DF93182FEB011092BC0084EA8C
:103FB0008093BC000E94EA117C018091BC0087FFC5
:103FC00027C08091B900887F883029F08091B9009E
:103FD000887F803189F51093BB0084E88093BC0012
:103FE0000E94EA118C018091BC0087FF1EC02091C5
:103FF000B900287F90E080E0283191F081E090E0E6
:10400000203411F490E080E091958195910908C0E9
:10401000C7010E94DB11C817D90778F68EEF9FEF12
:10402000CDB7DEB7E6E00C941F23C8010E94DB1178
:10403000C817D907C0F6F2CF8FEF9FEFF1CF1092DC
:10404000B9008CE08093B80008950F931F93CF932D
:10405000DF93EB018093BB0084E88093BC000E9457
:10406000EA118C018091BC0087FF11C02091B9003A
:10407000287F81E090E0283211F490E080E0919573
:1040800081959109DF91CF911F910F910895CF3FB5
:10409000DC0741F3C8010E94DB11C817D90710F7EC
:1040A0008EEF9FEFEFCFB0E0A0E0E9E5F0E20C94F7
:1040B000FC22782E5B016A0189010E94EA114C0101
:1040C000C1E0D0E00431110558F0C5E0D0E00F3F69
:1040D000100731F0C80164E170E00E94E322EB01B7
:1040E000BE01872D0E94CD1F7C0197FF09C00F3FA5
:1040F0001007B1F3C4010E94DB110817190780F7FC
:10410000E501CA0CDB1CCC15DD0511F0F7FE09C07A
:1041100084E98093BC00C701CDB7DEB7EDE00C9415
:104120001823B80189910E9425207C01ECCFB0E0D2
:10413000A0E0EDE9F0E20C94FC22782E5B016A012C
:1041400089010E94EA114C01C1E0D0E0043111055F
:1041500058F0C5E0D0E00F3F100731F0C80164E12E
:1041600070E00E94E322EB01BE01872D0E94CD1F6B
:104170007C0197FF09C00F3F1007B1F3C4010E94F3
:10418000DB110817190780F7E501CA0CDB1CCC15F9
:10419000DD0511F0F7FE09C084E98093BC00C7017A
:1041A000CDB7DEB7EDE00C941823FE018491B80181
:1041B0000E9425207C012196EACFB0E0A0E0E3EE4A
:1041C000F0E20C94FB22682E762E5A0169010E94BF
:1041D000EA114C01C1E0D0E00431110558F0C5E00E
:1041E000D0E00F3F100731F0C80164E170E00E9499
:1041F000E322EB01BE01862D0E94CD1F7C0197FFBB
:104200001DC00F3F1007B1F3C4010E94DB11081756
:10421000190780F784E98093BC00C701CDB7DEB7EA
:10422000EEE00C941723B80189910E9425207C01AF
:10423000CC16DD0679F3F7FEF6CFECCFB801872D6B
:104240000E9425207C01E501CA0CDB1CF1CF8EE128
:104250004A9B02C08150E1F74A9BFECF08955A98CD
:1042600080E28A95F1F75A9A0895FC013BE03A956D
:10427000F1F798E020E080E031E040E14A95F1F785
:10428000880F4A9B02C08160232742E04A95F1F7DC
:10429000000040E14A95F1F7915079F790E19A9545
:1042A000F1F799B132E03A95F1F7000040E14A9513
:1042B000F1F792FB992790F992272081920F908332
:1042C0000895A1E0B0E0E7E6F1E20C94032319823F
:1042D0008C017C01E60EF11C0E151F0541F481E0F6
:1042E0009981911180E02196E6E00C941F230E94B1
:1042F0002721CE0101960E943521F80181938F017B
:10430000EBCF529A5A9A089552985A9AEA9AE9E645
:10431000F0E080818F7C808308956150770B91E07D
:1043200001C0990F6A95EAF720E031E0911108C0C9
:10433000222391F05A9A80E28A95F1F75A980895CB
:10434000492F482339F05A9A232740E24A95F1F73A
:104350009695ECCF5A98F9CF5A98EDCFFF920F93DC
:104360001F93CF93DF93EC018C01060F111DC01733
:10437000D10729F4CDB7DEB7E5E00C942023F990FE
:104380000E942F2168E08F2D0E948D21F0CF1F9277
:104390000F920FB60F9211240F931F932F933F93F9
:1043A0004F935F936F937F938F939F93AF93BF933D
:1043B000EF93FF93CF93DF930F92CDB7DEB71982C0
:1043C0000E942721CE0101960E943521082F0695D3
:1043D00006950695282F22952570902F9570290F08
:1043E000922F937026952695920F98279770898122
:1043F000982B09F05CC0083008F059C080E18A951C
:10440000F1F75A9A529A82E08A95F1F700C05A98C9
:1044100088E0089F80011124D801A050BF4F169654
:10442000ED91FC9117973097A9F06091550170912B
:10443000560114962D913C911597260F371F119612
:104440008D919C911297680F791F13964C91139739
:104450008C910995F801E050FF4F6381662351F07C
:10446000209155013091560184819581820F931FCF
:104470000E94AE210E942F2180E18A95F1F75A987F
:1044800052985A9A80E18A95F1F7F801E050FF4F6F
:104490006081662351F02091550130915601818150
:1044A0009281820F931F0E9461210E9427210F9009
:1044B000DF91CF91FF91EF91BF91AF919F918F913C
:1044C0007F916F915F914F913F912F911F910F912C
:1044D0000F900FBE0F901F9018950F931F93CF93BF
:1044E000DF93EC0108970CF04CC0F894529A5A985C
:1044F00085E08A95F1F700009C2F969595708C2F9A
:104500008570980F892F83709695969523E0CC0F30
:10451000DD1F2A95E1F7980F8E01092B0E942F21AC
:1045200000C068E0802F0E948D2180E18A95F1F71C
:1045300052985A9A4A9B1EC087E090E04A991CC044
:10454000FE01E050FF4F63816623F9F02091550191
:104550003091560184819581820F931F0E946121C1
:10456000811113C0529A5A9A7894DF91CF911F917A
:104570000F91089500C0DECF019729F4529A5A9AFC
:10458000789480E0F2CF00C0D9CF0E94272180E24A
:104590008A95F1F75A98529A80E18A95F1F7C050BE
:1045A000DF4F6881662351F020915501309156010B
:1045B00089819A81820F931F0E94AE210E942F2130
:1045C000789481E0D2CFAA1BBB1B51E107C0AA1F80
:1045D000BB1FA617B70710F0A61BB70B881F991FA4
:1045E0005A95A9F780959095BC01CD0108952F9219
:1045F0003F924F925F926F927F928F929F92AF9273
:10460000BF92CF92DF92EF92FF920F931F93CF93BF
:10461000DF93CDB7DEB7CA1BDB0B0FB6F894DEBF56
:104620000FBECDBF09942A88398848885F846E847C
:104630007D848C849B84AA84B984C884DF80EE80C6
:10464000FD800C811B81AA81B981CE0FD11D0FB6CF
:10465000F894DEBF0FBECDBFED01089597FB072E86
:1046600016F4009407D077FD09D00E94E32207FCDE
:1046700005D03EF4909581959F4F08957095619572
:104680007F4F0895EE0FFF1F0590F491E02D0994E0
:10469000002E083090F0982F872F762F652F542FFB
:1046A000432F322F22270850F4CF220F331F441FED
:1046B000551F661F771F881F991F0A95B2F7002D97
:1046C000089597FD1094002E083098F00850232F7D
:1046D000342F452F562F672F782F892F912DF4CF08
:1046E000159497958795779567955795479537953D
:1046F00027950A95AAF71124002D0895FB01DC01E6
:1047000004C08D910190801921F441505040C8F7A8
:10471000881B990B0895FB01DC0102C001900D92EA
:1047200041505040D8F70895F999FECF92BD81BD10
:10473000F89A992780B50895A6E1B0E044E050E0EA
:104740000C94DE23A8E1B0E042E050E00C94DE23BC
:10475000DC01A40FB51F4150504048F0CB01840F3D
:10476000951F2E910E94B92341505040D0F70895D3
:10477000262FF999FECF92BD81BDF89A019700B41A
:10478000021639F01FBA20BD0FB6F894FA9AF99ABA
:104790000FBE08950396272F0E94B9230E94B823C5
:1047A000252F0E94B923242F0C94B9230196272F7B
:1047B0000E94B9230C94B823DC01CB01FC01F999C8
:1047C000FECF06C0F2BDE1BDF89A319600B40D925D
:1047D00041505040B8F70895F894FFCF190E410E9C
:1047E000C70F410EC70F740E950EC70F7F0F8C0FAA
:1047F0009212961274128E129A129E12A212FE1227
:1048000073130613D012D4120A13D8120E131A13EC
:10481000E4126C13E8121E13EC1222134A13F01266
:1048200026135113F6122C133413DC121213E01258
:104830001613FA12301340135A136A13CA120213D2
:104840007A13A014A014D814D8140015001500155C
:10485000001580150816171617168313AC13B1131D
:10486000B613BB13C013C513CA13CF13D413D91374
:104870000000000100000000000000050100000031
:104880000000000106000000000000080700000012
:10489000000000000000C204040F0000000000003F
:1048A0000B1300000000000001D9038C08CA03CCE0
:1048B00003CB0300480048480021007F220003F595
:1048C0009400000100D9016697C63435F6F73133FC
:1048D000323600FF0100010000FFFF00000100016F
:0C48E000FF00000100081018181008006C
:00000001FF
