:100000000C9430020C944D020C944D020C943E2141
:100010000C944D020C944D020C944D020C944D0224
:100020000C944D020C944D020C9496100C945210AA
:100030000C94501B0C944D020C944D020C944D02E8
:100040000C944D020C944D020C944D020C944D02F4
:100050000C944D020C946E110C944D020C944D02B4
:100060000C944D020C944D020C944D020C944D02D4
:100070000C944D020C944D020C944D020C944D02C4
:100080000C944D020C944D020C944D020C944D02B4
:100090000C944D020C944D020C944D020C944D02A4
:1000A0000C944D020C944D020C944D02165C1E00F3
:1000B0001F002000210022002B0014001A0008005D
:1000C00015001700E00004001600070009000A00F0
:1000D000E1001D001B000600190005000000E20001
:1000E000E30001512C004C00165C2700260025007F
:1000F000240023003100130012000C0018001C0023
:10010000340033000F000E000D000B00E5003871C5
:1001100037003600100011000000E200E700025135
:1001200028002A003A003B003C003D003E003F0012
:100130000100010034002F003000010001000351D4
:1001400033022F023002240201003802380031004D
:1001500031022502000001000100010028002A00F0
:100160004500440043004200410040002B000000D5
:100170004D004B004E004A00280000004F00520086
:1001800051005000010038023702360231022502C8
:100190000000E60001000100010030003A003B00D1
:1001A0003C003D003E003F000100310035022302CB
:1001B00034003500010033002D002E022E002D02E8
:1001C00001001E021F022002210222020000010083
:1001D000010001000100010045004400430042000D
:1001E000410040002B004C00300230002F002F0255
:1001F00039002900330227022602240201003802B6
:1002000037023602310225020000E600010001003B
:100210002C004C0000000000000000000000000066
:1002200000000000000000000000000000000100CD
:1002300000000000000000000000000000000000BE
:1002400000000000000001000100010001004C005E
:1002500000002102220237003600230231022E0064
:100260002600250024002E0024022D002300220059
:100270002100540000002E0220001F001E00250255
:10028000000027002700270001002A0000DA028171
:10029000FFD9F1DB20A4A62EAF00A0C000A1C800AA
:1002A000AED580A81FD300408D14200000010101AD
:1002B0000101010101010202020202020202020323
:1002C00003030303030303040404040404040505F3
:1002D00005050506060606060707070707080808B6
:1002E00008090909090A0A0A0B0B0B0C0C0C0D0D65
:1002F0000D0E0E0E0F0F0F101011111112121313FD
:100300001414151516161717181819191A1A1B1B75
:100310001C1D1D1E1E1F20202122222324242526D1
:1003200026272829292A2B2C2D2D2E2F3031323209
:10033000333435363738393A3B3C3D3E3F40414215
:10034000434445464748494A4C4D4E4F50515354FB
:10035000555658595A5B5D5E5F61626465666869AF
:100360006B6C6D6F7072737577787A7B7D7E80822F
:10037000838587888A8C8E8F91939596989A9C9E78
:10038000A0A2A3A5A7A9ABADAFB1B3B5B7BABCBE88
:10039000C0C2C4C6C9CBCDCFD1D4D6D8DBDDDFE255
:1003A000E4E7E9EBEEF0F3F5F8FAFDFF00AF00AE9D
:1003B00005010906A101050719E029E71500250136
:1003C00095087501810295017508810105071900DD
:1003D00029FF150026FF00950675088100050819FC
:1003E000012905950575019102950175039101C0DB
:1003F00009022200010100A0FA0904000001030122
:1004000001000921110100012240000705810308B4
:100410000001120100020000000851FC5900000117
:10042000010200011C034C0069006C0079003500DA
:10043000380047006C006F00770045006E006300D5
:10044000000018034F0052005600490053004500B9
:10045000560041004E0053002B0000000403090425
:1004600011241FBECFEFDAE0DEBFCDBF11E0A0E068
:10047000B1E0EAE6F6E402C005900D92A437B107B8
:10048000D9F725E0A4E7B1E001C01D92A338B20777
:10049000E1F70E94771B0C941D230C940000982F09
:1004A0009093E900891779F05091EC002091ED00CC
:1004B0004091F00021FD0AC09F5F973089F780933B
:1004C000E90081E00895562F40E022E03091EB00F2
:1004D0003E7F3093EB003091ED003D7F3093ED0097
:1004E0003091EB0031603093EB005093EC0020939F
:1004F000ED004093F0002091EE0027FDDDCF80E07D
:100500000895E8EDF0E080818E7F80831092E20014
:100510001092DA001092E100A0EEB0E08C918160C0
:100520008C9380818F77808319BCA7EDB0E08C918C
:100530008E7F8C9380818F7E8083109269050895D1
:10054000B0E0A0E0E6EAF2E00C947822C8EDD0E05A
:1005500088818F7E8883E7EDF0E0808181608083F1
:1005600084E082BF81E08093690588818E7F8883E3
:1005700002EE10E0F80110821092DA0081EEC82E2F
:10058000D12CF601108288818F77888388818068DA
:10059000888388818F7D888319BC1092760510929C
:1005A0007705109275051092740590EEE92EF12CE6
:1005B000F70180818B7F808388818160888360E000
:1005C00080E00E944F02F60180818E7F8083F801D7
:1005D000808181608083808188608083F701808151
:1005E0008E7F8083888180618883CDB7DEB7E8E025
:1005F0000C9494222091E4003091E50095E6A90145
:100600002091EC00822F817020FF06C08091E800CD
:1006100080FF06C080E008952091E80022FD1AC006
:1006200080917605882389F0853089F08091EB00F0
:1006300085FD0FC02091E4003091E500421753077B
:10064000F9F29150E1F684E0089582E0089583E0A4
:10065000089581E00895EF92FF920F931F93CF9337
:100660007C010E94FA02C82F811119C008E010E035
:100670008091E80085FD0BC08091E8008E77809323
:10068000E8000E94FA02882399F3C82F08C0F701F6
:1006900081917F018093F1000150110949F78C2F5E
:1006A000CF911F910F91FF90EF9008958091780561
:1006B00087FF13C08091E80082FF06C08091E800A8
:1006C0008B778093E80004C0809176058111F2CF8A
:1006D0000895809176058823D9F38091E80080FF02
:1006E000F8CF8091E8008E77ECCFFC0180917E05F9
:1006F00090917F0586179707A0F06115710529F481
:100700009091E8009E779093E80090E06115710564
:1007100051F4911108C08091E80082FF34C080E05C
:100720000895BC01F2CF809176058823C1F1853010
:10073000C1F18091E80083FD30C08091E80082FD26
:10074000EACF8091E80080FFE1CF8091F300209113
:10075000F200382F6115710519F02830310558F075
:1007600091E02830310509F090E02091E8002E77E3
:100770002093E800CBCF81918093F1006150710903
:100780002F5F3F4FE7CF80917605882341F085307A
:1007900041F08091E80083FFBECF81E0089582E0C0
:1007A000089583E008950895089508950895809127
:1007B0006B0508952FB7F8946091650570916605F3
:1007C00080916705909168052FBF08959C01FC01F9
:1007D00032969FEF80E04191461751F09F3F19F408
:1007E000411101C0982F8F5F8630A9F79F3F09F410
:1007F0000895290F311D97FD3A95F90162830895F7
:10080000FC01680F791F8FEF91E32191822728E087
:1008100030E087FF09C0880F892721503109C9F7C7
:10082000E617F70791F70895880FF7CFFA018111BE
:1008300001C0FB010995089580915705982F9E7F6F
:1008400071F4809157058170826080935705809183
:100850005A05893718F088E780935A05089584303F
:1008600080F7F5CF80E00895F894E82FE295EF70D7
:10087000F0E031A1282F2F7081E090E001C0880FB7
:100880002A95EAF7982F9095932391A392A1892B0B
:1008900082A3789408959091300292FF06C0282F89
:1008A00028712830F9F4877F846093FF06C0282FD1
:1008B00028712831F1F4877E84612091310220FF74
:1008C00006C0382F38713830D9F4877F816021FF16
:1008D00006C0282F28712831D1F4877E816194FDCC
:1008E000877E0895282F24712430F9F68B7F886045
:1008F000DCCF282F2471243101F78B7E8861DDCF76
:10090000382F3171313019F78E7F8860E0CF282F72
:100910002171213121F78E7E8861E1CF972F7A30C6
:10092000A8F4663098F470E026E0929F600D711D87
:100930001124FB019CE3899FE00DF11D1124EE0FB2
:10094000FF1FE455FF4F85919491089580E090E05A
:100950000895CF93DF93EC018238910589F1E0F59A
:100960008133910509F499C028F58932910509F47C
:1009700089C08A9709F498C0C11523E5D20708F009
:10098000B3C0C11532E5D30708F00FC1C11540E26D
:10099000D40708F097C0C11581E0D80758F5C53ACB
:1009A000D10508F088C0C430D10520F5C130D1058B
:1009B00009F145C08533910509F45FC0C997E1F697
:1009C00080913002837009F025C18091310283FF4C
:1009D00011C0C9E2D0E00EC0833E910599F170F4D8
:1009E000803E910501F1823E910531F68091300201
:1009F00082FD21C0CE01DF91CF910895863E910501
:100A000061F1873E910571F1843E910509F0B4CF03
:100A10008091310281FFEECF80913002C7EED0E0AD
:100A200084FD0DC0E7CF8091300280FD33C09091EE
:100A3000310290FFDFCFC3EED0E084FFDBCFD0E008
:100A4000C0E0D8CF8091300282FDE1C090913102A8
:100A500090FDE0C084FFCECFF2CF8091300283FDC5
:100A6000DDCFC8CF8091300283FDD7C09091310295
:100A700091FFF0CFC4EED0E0BDCF8091300285FF72
:100A8000B9CFA7CF8091300285FDCAC080913102D5
:100A900083FFB0CFC9E3D0E0ADCF8091300286FFB5
:100AA000A9CFCAE2D0E0A6CF8091300286FFA2CFC4
:100AB000C1E3D0E09FCFCE01815E9109079708F492
:100AC00099CFBDCFC11521E5D20708F069C0C11586
:100AD00030E5D30708F050C0C11540E4D40708F44E
:100AE000AECFDF70D06A86CFC11586E5D807F0F4A7
:100AF000C11525E5D20708F071C0C11534E5D3074B
:100B000008F067C0CE018370992721E030E002C071
:100B1000220F331F8A95E2F7C695C69540E2C49F1F
:100B2000E0011124C22BD32BDA6864CFC1154AE54A
:100B3000D40778F4C11589E5D80708F05AC0C11563
:100B400028E5D20708F47BCFDC2FCC27C06FD06A12
:100B500051CFCE0190568115904208F070CF8D2F65
:100B60008F710E944B0490E0982F882788279F71EF
:100B70009C012C2BE9013BC0CE018370992721E019
:100B800030E002C0220F331F8A95E2F7C695C69562
:100B900040E2C49FE0011124C22BD32BDD682ACF91
:100BA000DC2FCC27C16FD06A25CFCE018370992767
:100BB00021E030E002C0220F331F8A95E2F7C6958C
:100BC000C69580E2C89FE0011124C22BD32BDC68BC
:100BD00011CFDC2FCC27C46FD06A0CCF8C2F0E9492
:100BE0004B04C82FD0E0DC2FCC27CC27DF71D0629C
:100BF00001CF8C2F8F700E944B0434E0D695C7959F
:100C00003A95E1F7CF709C2FEC01D069F3CEC2EE9C
:100C1000D0E0F0CEC0EED0E0EDCEC6EED0E0EACE31
:100C2000C5E3D0E0E7CE0E94DA0308958091E601A3
:100C300081111092E601089580959091E501982325
:100C40009093E50108958091DA019091A90198139C
:100C500001C008958F5F8770FACFB0E0A0E0E3E3B2
:100C6000F6E00C9477227C0100912E0210912F0265
:100C70008091E7019091E801082B192BCFE0D0E09B
:100C8000CC24C394D12CBC2EC6010C2E02C0880FDC
:100C9000991F0A94E2F780239123892B49F4219725
:100CA00090F7B12C8B2DCDB7DEB7E9E00C949322F1
:100CB000B7018C2F0E948E040E94A904019779F33A
:100CC000F1CFCF93DF93EC010E942D06BE010E946D
:100CD0008E040E94A904DF91CF9108959A3078F58F
:100CE000863068F5E82FF0E086E0989FE00DF11D72
:100CF00011249E2F977083E0F695E7958A95E1F78A
:100D0000EE0FFF1FEE0FFF1FED57FE4F50E040E0CC
:100D100080E0219130E0092E02C0369527950A9493
:100D2000E2F721703327042E01C0220F0A94EAF75C
:100D3000822B4F5F5F4F4430510559F7089580E093
:100D400008959A3098F5863088F5E82FF0E086E02F
:100D5000989FE00DF11D11248E2F877041E001C096
:100D6000440F8A95EAF783E0F695E7958A95E1F7CF
:100D7000EE0FFF1FEE0FFF1FED57FE4F30E020E09C
:100D800070E05191DF011197CB01022E02C09695C0
:100D900087950A94E2F781708195852784238527BA
:100DA0008C932F5F3F4F2430310559F70895FC0194
:100DB00083819481892B29F08081918189238F3FC0
:100DC00051F480E00895843FE1F717C0883EA8F011
:100DD000813FB9F712C0808191810E94610692958E
:100DE0009F70963099F358F4925F9F70923048F755
:100DF000803F19F040F7883E20F781E008959A5F20
:100E0000F4CFCF93DF93EC0181E08093E9008FEF83
:100E10009091E800815095FD06C095ED9A95F1F707
:100E200000008111F5CF8091E80085FF14C050E0EB
:100E300040E068E070E0CE010E942B038091E80062
:100E40008E778093E80088E0FE01ACE6B5E0019083
:100E50000D928A95E1F7DF91CF9108956091470156
:100E60008091570580FF20C08091460143E0849F18
:100E7000C001112481589B4F849A21B32F7E31B336
:100E800030615FB7F894FC01649FE00DF11D1124FF
:100E9000BF0168177907D1F45FBF8FE594E0019730
:100EA000F1F700C000000895809148019091490138
:100EB00023E0829FF0011124E158FB4F8917A0F62F
:100EC0001182108212828F5F3396F8CFFC0141911C
:100ED000CF01E8E031BB000000C047FF21BB440F59
:100EE000000000C000C000C021BB00C0EA9591F71F
:100EF000D0CFB0E0A0E0EFE7F7E00C9476227C01E1
:100F00005B016A0180911D0201E010E08A3010F45B
:100F10000AE010E0C1E0D0E0B501C701F601099593
:100F2000811104C021960C171D072CF4CDB7DEB734
:100F3000EAE00C949222CC9F9001CD9F300D300DB1
:100F4000112490E080E045E34A95F1F70000019616
:100F500082179307C1F7E0CF8091F301811110C090
:100F60008091D80080618093D8008AE18A95F1F75A
:100F700000C08091D90080FF0AC081E08093F30116
:100F800081E09091F301913009F080E0089582E0D2
:100F90008093F3010E94810210927605F1CF0E94A6
:100FA000AC07882359F0E0916205F0916305309712
:100FB00029F00190F081E02D0995089580E00895D1
:100FC000B0E0A0E0E6EEF7E00C9478226C017B0143
:100FD00064E670E088E70E94B81FEC0197FD12C03C
:100FE00010E000E0F601E00FF11F849164E670E08C
:100FF0000E942420EC01892B29F40F5F1F4F0E154E
:101000001F0581F70E949A20CE01CDB7DEB7E8E038
:101010000C9494228091600590916105911103C018
:1010200091E089270895882369F062E070E08EEAF4
:1010300093E00E94E007892B19F0809160050895E4
:101040001092600580916005EBCFCF93C091600551
:10105000809161058823D1F00E94DA03605A7541BE
:101060008F4F9F4F60935C0570935D0580935E0585
:1010700090935F05C11108C062E070E08CEA93E0D4
:101080000E94E007892B29F0C09160058C2FCF9139
:10109000089581E080936005F7CFCF92DF92EF92C1
:1010A000FF926B017C010E941C04B701A60188E03D
:1010B00090E00E94FB22FF90EF90DF90CF90089588
:1010C000B0E0A0E0E6E6F8E00C947422182FC62FFA
:1010D000D42F822E0091570500FF4CC0E02FE695DB
:1010E000F0E0EF58FE4F808180937C04802F8E7F4C
:1010F0008230E9F4E42F493708F0E8E7F0E0E455FE
:10110000FD4FC1113CC02491F22FE22F00FF0FC010
:10111000809148019091490133E0839FD0011124CF
:10112000A158BB4F891708F49FC00E942E078091D9
:101130005805811308C0809159058C1304C0809113
:101140005A058D1729F080917E04826080937E0479
:1011500010935805C0935905D0935A05882051F033
:1011600060915705709158058091590590915A05E5
:101170000E944D08CDB7DEB7ECE00C949022EC2E27
:10118000F12CE4919E2ECE2ED12C26E0129FC00190
:1011900011242FEF30E0B9010E945A22812F90E0F4
:1011A000880F991FF5E5F69FA001F79F500D1124B8
:1011B000841B950BB82EBB0CB80EA9014E195F0904
:1011C0004C9DC0014D9D900D5C9D900D1124F92FFB
:1011D000CB9DA0011124452F5527D901A41BB50B88
:1011E000AC9DA001AD9D500DBC9D500D1124D901A9
:1011F000AB19B1095D01AE9CD001AF9CB00DBE9C96
:10120000B00D1124AB2FBB272A1B3B0B2C9DD0010B
:101210002D9DB00D3C9DB00D11242B2F623071051A
:10122000A1F050F46115710509F470CF61307105BA
:1012300081F0292FF52F6ACF6430710569F080F0B5
:101240006630710509F462CFF4CF2E2FE92FFB2F02
:101250005DCF2E2FE52F5ACF292FFE2FEB2F56CF04
:10126000E92FF92D252F52CF1196EC9311972C933E
:101270001296FC9312978F5F139654CFE7E5F5E033
:10128000438121E1421B08F440E021E06281818139
:101290000E9460080895E7E5F5E0438121E1420FEF
:1012A00008F44FEF21E0628181810E946008089577
:1012B000E7E5F5E0628121E1621B08F460E021E0EE
:1012C000438181810E9460080895E7E5F5E062812D
:1012D00021E1620F08F46FEF21E0438181810E94D8
:1012E00060080895E7E5F5E0818121E043816281AE
:1012F00088500E9460080895E7E5F5E0818121E0CB
:1013000043816281885F0E946008089580915B0537
:10131000882319F0815080935B0560915705709187
:1013200058058091590590915A050E944D080895DD
:1013300080915B05833018F48F5F80935B0560912B
:101340005705709158058091590590915A050E9452
:101350004D0808958091570580FF1EC081708260FE
:101360008093570580917E04816080937E0466237C
:1013700051F06091570570915805809159059091F1
:101380005A050E944D0820E040915A056091590588
:10139000809158050E9460080895809157058695B0
:1013A000815009F481E061E00E94AA09089561E09A
:1013B00081E00E94AA090895E7E5F5E083E08083D3
:1013C00011828FEF828388E783831482ACE7B4E0D5
:1013D00012968C911297836012968C936081718122
:1013E000828193810E944D080895CF9384E090E01C
:1013F0000E94D522C82F82E290E00E94D522982F29
:101400008C2FCF910895A8E0B0E0E9E0FAE00C94C9
:101410007E2285E0E7E5F5E0DE01119601900D9270
:101420008A95E1F780917C0490917D04A0917E04DF
:101430008E839F83A88728854091190250911A02B4
:1014400060911B0270911C023FB7F8948091650572
:1014500090916605A0916705B09168053FBF841B18
:10146000950BA60BB70B84369105A105B10510F4B9
:10147000222319F18091290190912A018B5F9D4FC0
:101480004091280150E04930510510F048E050E00B
:10149000BE016F5F7F4F0E94CC2285E090E00E94EA
:1014A000E421882369F00E94DA03609319027093A3
:1014B0001A0280931B0290931C0210927E0481E01A
:1014C0002896E2E00C949A22A4E0B0E0EAE6FAE082
:1014D0000C947C224091010250910202609103021F
:1014E000709104022FB7F89480916505909166057C
:1014F000A0916705B09168052FBF841B950BA60BC3
:10150000B70B11E084369105A105B10590F10E9459
:10151000AC07882399F10E94DA036E5F7F4F8F4FEB
:101520009F4F69837A838B839C8380912101909163
:1015300022018B5F9D4F4091200150E045305105C5
:1015400010F044E050E0BE016F5F7F4F0E94CC225C
:1015500084E090E00E94E421182F882351F00E943B
:10156000DA03609301027093020280930302909366
:101570000402812F2496E4E00C9498220E94DA035E
:1015800000911E0210911F02209120023091210231
:10159000600F711F821F931FC0CF4F925F927F9287
:1015A0008F929F92AF92BF92CF92DF92EF92FF9273
:1015B0000F931F93CF93DF930F92CDB7DEB7C62E55
:1015C0004A015901482E880F5508C2010E94E421A2
:1015D000782E882309F480C0C20133E0880F991F58
:1015E0003A95E1F7FC01E050FF4F438150E041158F
:1015F000510511F041E050E080509F4FFC016481A3
:1016000075816B5F7D4FCE0101960E94CC22F40163
:1016100040815181628173812FB7F8948091650573
:1016200090916605A0916705B09168052FBF841B56
:10163000950BA60BB70B84369105A105B10540F4B7
:10164000B701C8010E9400049981891709F444C0B8
:101650000C2C000CDD08C6010E94E421782E8111BB
:1016600013C0712C872D0F90DF91CF911F910F9197
:10167000FF90EF90DF90CF90BF90AF909F908F90B2
:101680007F905F904F900895C60123E0880F991FC7
:101690002A95E1F7FC01E050FF4F438150E0E4164A
:1016A000F50608F4A70180509F4FFC016481758105
:1016B0006B5F7D4FC5010E94CC22B701C8010E941B
:1016C000000499818913CDCF0E94DA03F40160836D
:1016D000718382839383C6CFA701B801C5010E949D
:1016E000CC22C0CFA1E0B0E0E8E7FBE00C947A2286
:1016F000EE24E394F12C0CE012E09E012F5F3F4FAB
:101700004DEF51E063E082E00E94CD0A182F88235C
:1017100069F04091330250913402DE01119690E05D
:1017200020E0941308C021110E941306812F2196F6
:10173000E6E00C9496228D91E52FE90FF0E0E45B52
:10174000FD4F3081831B382F131644F0382F87FD4F
:1017500030E0831B811108C09F5FE3CF31502081AF
:101760002F5F2083212FF0CF8F5F20812150208396
:10177000212FF0CFA5E0B0E0E0ECFBE00C94782264
:101780006B0185E0E82EF12C06E012E09E012F5F50
:101790003F4F49EF51E061E080E00E94CD0A88238D
:1017A00049F095E0FE013196A4EFB1E001900D9271
:1017B0009A95E1F795E0E4EFF1E0D60101900D9202
:1017C0009A95E1F72596E8E00C9494228091E50142
:1017D0009091E401892B809376019091E601992301
:1017E00091F0892B8093760120E088E791E0FC015D
:1017F0003191CF0131112F5FF1E08E379F07B9F79B
:1018000021110E94160648E050E06CED71E086E779
:1018100091E00E94BF22892BA9F088E0E6E7F1E081
:10182000ACEDB1E001900D928A95E1F7E09162058F
:10183000F0916305309731F00280F381E02D86E767
:1018400091E0099508951092E501E8E7F1E086E05E
:10185000DF011D928A95E9F71092E4010E94E60BE0
:101860000895AAE2B0E0E7E3FCE00C947D2288E76B
:1018700095E02091F100FC012193CF01F5E0803843
:101880009F07B9F780917905833009F470C0B8F4E7
:10189000813009F447C0823009F4B1C08091E8007A
:1018A00083FF64C280917805909179059A3008F0A1
:1018B0005DC2E92FF0E0E15EFC4D0C94B9228A3064
:1018C00009F48CC08B3009F46FC0893039F78091EE
:1018D0007805813219F780917C0590917D05892BDF
:1018E000E9F68091E800877F8093E8008091E80026
:1018F00082FF38C09091F3008091F200029731F49A
:101900008091F100813011F0863021F48091F10056
:1019100080936B058091E8008B778093E8000E94AC
:101920005603BCCF80917805813A09F0B7CF8091FA
:10193000E800877F8093E80080917C0590917D0589
:10194000892B61F468E08CE695E070E00E947503F5
:101950008091E8008B778093E800A0CF60E090E072
:1019600080E0F3CF809176058111C0CF97CF809131
:101970007805813A09F092CF80917C0590917D05A0
:10198000892B09F08BCF8091E800877F8093E80056
:101990008091E80080FFFCCF80914B018093F100A3
:1019A0008091E8008E77B9CF80917805813209F077
:1019B00075CF80917C0590917D05892B09F06ECFC4
:1019C0008091E800877F8093E8000E945603809111
:1019D0007A0580934B010E94230C60CF809178059B
:1019E000813209F05BCF8091E800877F8093E80027
:1019F0000E94560380917B0580936A054FCF8091AA
:101A00007805813A09F04ACF8091E800877F80937A
:101A1000E8008091E80080FFFCCF80916A05BECF8E
:101A2000803899F0823809F0A1C180917C058F70CF
:101A3000873008F09BC18093E9008091EB0085FB23
:101A4000882780F91092E90006C080917405909172
:101A50007505911182609091E800977F9093E8005E
:101A60008093F1001092F1008091E8008E777AC1A6
:101A7000882309F468C1823009F078C180917A0521
:101A800081116BC180917C058F702FEF280F26305C
:101A900008F06CC18093E9002091EB0020FF5DC14C
:101AA000933031F48091EB0080628093EB0055C15C
:101AB0009091EB0090619093EB0021E030E001C049
:101AC000220F8A95EAF72093EA001092EA008091AB
:101AD000EB008860EACF811149C110917A051F7728
:101AE0008091E3008078812B8093E3008091E8006F
:101AF000877F8093E8000E9456038091E80080FF72
:101B0000FCCF8091E30080688093E30082E01111B4
:101B100083E0809376052AC18058823008F026C180
:101B200080917A0590917B058C3D23E09207A1F589
:101B300083E08A838AE289834FB7F894DE011396A3
:101B400020E03EE051E2E32FF0E050935700E491B3
:101B500020FF03C0E295EF703F5FEF708E2F90E0A3
:101B6000EA30C0F0C7968D939D932F5F243159F7CB
:101B70004FBF8091E800877F8093E8006AE270E0C1
:101B8000CE0101960E9475038091E8008B778093C7
:101B9000E800ECC0C096E7CF40917C0550917D05F0
:101BA000292F33272330310509F43FC078F5213040
:101BB000310509F466C082E290E0E0EFF3E0223004
:101BC000310509F0D3C02091E800277F2093E80079
:101BD00020917E0530917F058217930708F49C01C0
:101BE00040E02115310509F051C041114FC08091ED
:101BF000E80082FDC9CF80917605882329F28530DF
:101C000019F28091E80083FFF2CFBECF2132310577
:101C100081F12232310509F0A9C0452B09F0A6C097
:101C200080E490E0E0EBF3E0CECF9927813091059E
:101C3000C1F0009759F0029709F098C0E4E2F4E08F
:101C4000E4918E2F90E0E4E2F4E007C0ECE5F4E0EC
:101C5000E4918E2F90E0ECE5F4E0009709F0B3CF2B
:101C600085C0E2E4F4E0E4918E2F90E0E2E4F4E059
:101C7000F4CF452B09F07AC089E090E0E2E0F4E08F
:101C8000A2CF82E190E0E2E1F4E09DCF8091760581
:101C9000882309F479CF853009F476CF8091E80064
:101CA00083FD72CF8091E80082FDA1CF8091E80092
:101CB00080FF97CF9091F3008091F20021153105BC
:101CC00019F08830910550F041E0089709F040E0A4
:101CD0008091E8008E778093E80083CF4491409311
:101CE000F1003196215031090196E8CF8038F1F5A5
:101CF0008091E800877F8093E8008091770580934A
:101D0000F100B2CE811132C010917A05123070F517
:101D10008091E800877F8093E800109377050E9408
:101D20005603112311F084E005C08091E30087FD84
:101D3000FACF81E08093760561EC81E00E944F024A
:101D40008091760513C080917A05813079F481E025
:101D5000933009F080E0809375051092E90080913E
:101D6000E800877F8093E8000E9456038091E80096
:101D700083FF0AC08091E800877F8093E80080910C
:101D8000EB0080628093EB00AA96E3E00C9499222A
:101D90000E94230C2FEF84E39CE021508040904070
:101DA000E1F700C0000088E19AE00FB6F894A8952A
:101DB000809360000FBE90936000FFCF90932F023E
:101DC00080932E021092E4010E94E60B089521E018
:101DD00030E002C0220F331F8A95E2F7209530953C
:101DE00080912E0290912F02822393230E94DE0E77
:101DF00008959091DB01809589238093DB01282F42
:101E0000277091F4282F082E000C330B921713061D
:101E100059F09091310292FF07C08595859585957F
:101E20000E94E70E1092DB01089521E030E002C02D
:101E3000220F331F8A95E2F780912E0290912F0294
:101E4000822B932B0E94DE0E08959093E8018093DD
:101E5000E7011092E4010E94E60B0895882321F027
:101E60000E941C060E94E60B0895882339F0909189
:101E7000E501982B9093E5010E94E60B08958823D5
:101E8000E1F19CEF980F913A80F4E8E7F1E02EE75A
:101E900031E09191891303C0DF0111971C922E1735
:101EA0003F07B9F70E94E60B089590E2980F98302B
:101EB00050F4877091E001C0990F8A95EAF7892F55
:101EC0000E941C06EFCF9BE5980F9330B8F48091E9
:101ED0007F0190918001892B81F0109280011092F6
:101EE0007F01E0916205F0916305309731F0068043
:101EF000F781E02D90E080E009950895885A8731B8
:101F0000E0F78091810190918201892BB1F31092C9
:101F1000820110928101E0916205F0916305309792
:101F200061F30084F185E02DE5CFCF93C82F88239E
:101F3000A9F08CEF8C0F813A00F5E8E7F1E0DF01C2
:101F40008D91C81769F081E0AE37B807C9F76C2FDB
:101F500086E791E00E94E6030E94E60BCF91089588
:101F60008191C81303C0DF0111971C9281E0EE3705
:101F7000F807B1F70E94E60BEACF80E28C0F8830B9
:101F800068F7C77021E030E001C0220FCA95EAF778
:101F90008091E501822B8093E501DECF68EE7EEF34
:101FA00090E080E00E94072360E082E090E00E94E1
:101FB000E92260E083E090E00E94E9221092E801CB
:101FC0001092E70160E084E090E00E94E92264E082
:101FD00082E290E00E94E92260E085E090E00E94C9
:101FE000E92260E086E090E00E94E9226FEF87E05E
:101FF00090E00E94E92240E050E0BA0188E090E0E1
:102000000E94FB2260E08DE090E00E94E92240E027
:1020100050E0BA0188E190E00E94FB2260E087E195
:1020200090E00E94E92240E050E0BA018CE190E0AB
:102030000E94FB2270E060E080E290E00E940723B3
:1020400040E050E0BA0188E190E00E94FB2240E0CD
:1020500050E0BA018FE090E00E94FB2240E050E0A7
:10206000BA0183E190E00E94FB220895CF93C091D2
:102070003102C2FB992790F9981791F080FBC2F9C1
:10208000C09331026091300284E090E00E94E92226
:102090006C2F82E290E00E94E92282E00E94F90E19
:1020A000CF9108951F920F920FB60F9211242F9384
:1020B0003F934F935F936F937F938F939F93AF93D0
:1020C000BF93CF93DF93EF93FF93D091E900DF703D
:1020D0008091EC00C82FC17080FDC0E81092E9002B
:1020E0008091F000877F8093F00078940E94310CFB
:1020F0001092E9008091F00088608093F000CD2B71
:10210000CF70C093E900FF91EF91DF91CF91BF9124
:10211000AF919F918F917F916F915F914F913F917F
:102120002F910F900FBE0F901F9018951F920F9236
:102130000FB60F9211242F933F934F935F936F939A
:102140007F938F939F93AF93BF93EF93FF93809170
:10215000E10082FF09C08091E20082FF05C080910A
:10216000E1008B7F8093E1008091DA0080FF24C042
:102170008091D80080FF20C08091DA008E7F80930C
:10218000DA008091D90080FF9CC080E189BD82E1A6
:1021900089BD09B400FEFDCF81E080937605809172
:1021A0006905811109C00E9481020E94A0028091EC
:1021B000E20084608093E2008091E10080FF17C01C
:1021C0008091E20080FF13C08091E2008E7F8093B7
:1021D000E2008091E20080618093E2008091D8006B
:1021E00080628093D80019BC85E080937605809149
:1021F000E10084FF2BC08091E20084FF27C080E1D2
:1022000089BD82E189BD89B5982F917080FFFBCF90
:102210008091D8008F7D8093D8008091E1008F7EDF
:102220008093E1008091E2008F7E8093E2008091B4
:10223000E20081608093E20080917705882309F4B1
:1022400046C084E080937605809176058091E10018
:1022500083FF26C08091E20083FF22C08091E100CD
:10226000877F8093E10082E0809376051092770566
:102270008091E1008E7F8093E1008091E2008E7F6B
:102280008093E2008091E20080618093E20060E050
:1022900080E00E944F028091F00088608093F000FF
:1022A000FF91EF91BF91AF919F918F917F916F912E
:1022B0005F914F913F912F910F900FBE0F901F9004
:1022C000189519BC109276051092690575CF80910A
:1022D000E30087FD93E090937605B6CF78941F9244
:1022E0001FB61F9211248F939F93AF93BF9380913A
:1022F000650590916605A0916705B0916805019606
:10230000A11DB11D8093650590936605A093670597
:10231000B0936805BF91AF919F918F911F901FBEA1
:102320001F9018959C014FB7F89480916505909186
:102330006605A0916705B09168054FBF821B930B9E
:1023400008952FB7F8948091650590916605A09146
:102350006705B09168052FBF08950F931F93CF9322
:10236000DF93C62FD42F022FFC0182818823A9F08E
:10237000609382050E94A11190938105809380054E
:10238000C77081E001C0880FCA95EAF70E94350F37
:10239000DF91CF911F910F9108958091820568136D
:1023A00035C080918005909181050E949211883CF2
:1023B000910560F510E21D0FCD17B9F080E28C0F8A
:1023C000883040F4C77081E001C0880FCA95EAF7F1
:1023D0000E942E0F183048F481E09D2F977001C0A5
:1023E000880F9A95EAF70E94350F802F0E94950F6B
:1023F000802F0E943F0F183058F6D77081E001C03F
:10240000880FDA95EAF70E942E0FC2CFC77081E0DD
:1024100001C0880FCA95EAF7F6CFA5E0B0E0E3E186
:10242000F2E10C9474227C01FC0183819481892B5C
:1024300031F08081918189238F3F09F081C42596F5
:10244000ECE00C9490220E942D06182F682F8981B1
:102450009A810E94A10669817A81812F0E948E044F
:102460008C01843FFCE59F0709F483C018F5893D82
:102470009C4509F47AC00A3D8CE5180709F489C027
:10248000083D9CE5190709F526E241EE61EEC7011A
:102490000E94AD118091DB01877089F2F701828182
:1024A000882369F28091310282FFC9CF82E00E94C5
:1024B000F90EC5CF863FECE59E0709F462C008F42B
:1024C0005CC0873F9C4509F460C0F7018281882386
:1024D00009F447C4109282050430FDE51F0708F097
:1024E0005BC00B3F2CE5120730F4C80182509C45BD
:1024F000449708F05CC00E94F509909331028093E4
:1025000030020231ECE51E0709F45CC108F0A8C0F6
:1025100009302CE5120709F433C108F072C0053008
:102520008CE5180709F41CC108F05EC00330ECE527
:102530001E0709F40DC108F00FC1809130028160BF
:1025400002302CE5120709F488C060913002109126
:10255000310284E090E00E94E922612F82E290E063
:102560000E94E9220E94230C95CF27E245EE65EEFA
:102570008ECF26E241EE60EE8ACF27E245EE64EE92
:1025800086CF26E241EE62EE82CF27E245EE66EE8E
:102590007ECF28E241E0EBCF063A3DE5130709F490
:1025A000AACFE0F402369DE5190709F4A4CF06315D
:1025B0008CE5180709F057C48091E5018A7A91E00B
:1025C00009F490E090937E0169E2811165E386E76A
:1025D00091E00E94E6030E94E60B5CCFC8018E5A90
:1025E0009D45039720F787CF8091300280620730A6
:1025F0003CE5130791F108F4BFC08091300280647C
:102600002CC00D309CE5190709F4C4C090F48091EA
:1026100030028E7F0B30FCE51F07F9F0809130020D
:102620008C600C302CE51207C0F0809130028D7F59
:1026300014C00F303CE5130709F4BCC008F4AEC069
:1026400000319CE5190709F4B9C0809130028F7BF5
:102650000131ECE51E0709F078CF8093300275CF89
:102660000115FDE51F0709F4B7C0A8F50B3F3CE5D0
:10267000130709F479C0C0F404319CE5190709F483
:10268000B9C008F4A5C00531FCE51F0709F05DCF0E
:102690008091300282FB992790F921E0922790FBEC
:1026A00082F990FB83F9D9CF0D3F2CE5120709F48D
:1026B00079C008F45DC00E3F8CE5180709F476C0B8
:1026C0008091310283600F3F9CE5190709F03DCFEF
:1026D000809331023ACF0236EDE51E0709F495C02A
:1026E00090F402302DE5120709F48DC008F478C08B
:1026F00060E003308DE5180709F027CF8EE090E009
:102700000E94E92222CF0E3A9DE51907E9F060F414
:1027100090913002892F8E7F90FF8160063AFDE50F
:102720001F0709F49ACF11CF0F3A2DE5120771F167
:10273000003B3DE5130709F008CF90913102892F46
:10274000877F93FF8860C4CF809131028860C0CFBB
:1027500080913002826081CF8091300284607DCF91
:1027600080913002886079CF809131028160B0CF52
:10277000809131028260ACCF8091300280616DCF58
:102780000E94230C80913002806867CF80913102D3
:10279000877F9ECF809130028B7F5FCF8091300208
:1027A000877F5BCF809131028E7F92CF8091310203
:1027B0008D7F8ECF809130028F7E4FCF80913002FF
:1027C0008F7D4BCF0E94230C809130028F7745CFB5
:1027D00080913002837F41CF809131028C7F78CF0E
:1027E00080913102982F909591708E7F892B90FB6C
:1027F00081F96ECF0E94230C90913002892F97FBB4
:1028000087F980582ACF61E079CF90913002892FE3
:102810008F7E94FF806121CF80917E0181110FC056
:1028200089E2E8E7F1E02EE731E09191891303C0F6
:10283000DF0111971C922E173F07B9F7CCCE85E325
:10284000F0CF81608093570561E086950E94AA09C8
:1028500021CE4DEC59E067ED79E00E9416041ACEC6
:1028600047ED59E06DEC79E0F8CF42E759E06CE7CD
:1028700079E0F3CF4EE359E06BE479E0EECF61E02D
:1028800081E0E4CF0E94230C2FEF34E38CE0215051
:1028900030408040E1F700C0000087E797E7909361
:1028A00001088093000888E19AE00FB6F894A89593
:1028B000809360000FBE90936000FFCF8091310243
:1028C00082FB882780F991E089270E943610F70162
:1028D000828100811181882309F445C0C8010E94CA
:1028E0002D06D82E682FC8010E94A106B8018D2D93
:1028F0000E948E040E94A9048C01882EF701C280D8
:10290000B580B2943FE0B3228091DB018770C1F0C3
:10291000AC2CCC20B1F0812F807F803421F080E27C
:10292000800F883068F08091310282FF09C082E018
:102930000E94F90E8091DB018770AA24A394811173
:10294000A12C912E92942FE09222FBE0F91508F42D
:1029500076C0E92DF0E0E75DFC4D0C94B92281E0F2
:10296000B4CF80E0B2CFC8010E946E06D82EBECF91
:10297000212F2F70D22E107F19F0D29490EFD922F0
:10298000CC20B9F0DD2069F080E2800F883010F0B3
:10299000811009C08091E501D82AD092E5010E94FA
:1029A000E60B802F4AC08091E401D82AD092E4013E
:1029B000F6CF802F0E943F0FDD2009F440C0005E5B
:1029C000083010F0811004C08D2D0E941C0606C036
:1029D000D0948091E401D822D092E4010E94E60BC9
:1029E0002EC0312F3F70D32E107F103219F0D294A9
:1029F00080EFD822882089F081E0881609F477C01A
:102A0000CC2009F481C0BB2009F477C0F70185818F
:102A100080FFC7CF8F70858370C02091310222FD67
:102A200043C0CC20D9F1DD2039F08091E501D82ACE
:102A3000D092E5010E94E60B80E00E94950FE92DFF
:102A4000E850FF0B349710F40E94CF07AA20A9F09A
:102A50008091DB0180FD11C0F7011282859585957B
:102A600085950E94150FC7010E940D128091DB0110
:102A70008595859585950E94E70E85E0F701DE0135
:102A8000119601900D928A95E1F709811A81C8018A
:102A90000E946E06B8010E948E04D1CC80E00E9494
:102AA0003F0FDD2061F290CFCC20A1F09091E601A4
:102AB0008D2D892BB11003C00E94350FC0CFE1E0EE
:102AC000BE12FACF22FFBBCF891709F4B8CF80938B
:102AD000E601B5CFB11006C00E9416068D2D0E94EA
:102AE0002E0FADCFF1E0BF1609F4A9CFF5CFCC2062
:102AF00031F025E02B1508F4A2CF8D2DDDCF34E089
:102B00003B1508F49CCFEACFBB2041F3F9E38F12C9
:102B100010C12FEF37EE83E0215030408040E1F7C5
:102B200000C0000006C1812F837009F03FC0C110B2
:102B300086CF402F429546954770440F440F802F13
:102B40008F7090E0042E02C0880F991F0A94E2F75C
:102B500030E020E004FF09C02FE030E002C0220F87
:102B6000331F4A95E2F72095309516951695137008
:102B7000123099F078F44091E7015091E80111305A
:102B800039F0822B932B842395230E94250F57CF56
:102B9000842B952B822B932BF8CF822B932B209178
:102BA000E7013091E80182279327EFCF8695CC206B
:102BB00011F0812F8170882309F441CF402F429575
:102BC00046954770440F440F802F8F7090E0042E7D
:102BD00002C0880F991F0A94E2F730E020E004FF5A
:102BE00009C02FE030E002C0220F331F4A95E2F700
:102BF00020953095169516951370123099F078F44B
:102C000040912E0250912F02113039F0822B932BDC
:102C1000842395230E94DE0E12CF842B952B822BCA
:102C2000932BF8CF822B932B20912E0230912F02E1
:102C300082279327EFCF1F70CC2029F0812F0E948D
:102C4000150F802F39CF802F0E942E0F812F0E94C9
:102C5000E70EF5CE802F92EF891699F1981570F056
:102C6000E0EF8E16D1F0F1EF8F1691F0CC2009F441
:102C70005BC0B11096CE812F8F7127C023EF8216D3
:102C800039F134EF8312F2CF8091310282FD2EC0F0
:102C9000812F8F71CC20D9F218C0CC2069F084E04C
:102CA0008B1508F4CCCE1F7181E090E002C0880F34
:102CB000991F1A95E2F7B8CF95E09B1508F4BFCE9F
:102CC000F2CF812F8F71C110C2CF0E94150FB7CEE6
:102CD00090E080E0CC2009F49DCF1F7181E090E06E
:102CE00002C0880F991F1A95E2F794CFCC2089F083
:102CF0001F71812F0E94150F8091310282FF07C042
:102D0000E8E01E9FC001112483608093DB01812FC6
:102D1000DCCF81E00E94F90EF1E0FB1508F08FCEC8
:102D200082E00E94F90E8BCEBB2039F0893309F482
:102D3000F0CE802F0E943F0F82CE812F8F7187CFE0
:102D400085E0DE01119601900D928A95E1F7F70179
:102D5000228189819A81211176CB0E946E06182FDB
:102D60007ACB0631FCE51F0709F456CD8091E501C9
:102D700082720A3C2CE5120709F47CCD08F04BC0A6
:102D8000063C9CE5190709F470CD70F5043CFCE5A0
:102D90001F0709F45ECD08F063CD033C3CE5130743
:102DA00009F095CD8091570580FF4BCD8E7F8093A4
:102DB000570560915705709158058091590590917C
:102DC0005A050E944D0880917E04816080937E04A4
:102DD0009FEFE0E7F2E09150E040F040E1F700C003
:102DE00000000E942E0756CB48E559E065E679E0E1
:102DF000083C9CE5190709F430CD4CE759E062E73F
:102E000079E0093CECE51E0708F427CD45E659E0DA
:102E100068E579E022CD0E3CFCE51F0709F42FCDD3
:102E2000B8F446E859E068E979E00C3C3CE5130762
:102E300009F413CD4BE459E06EE379E00D3C9CE5D9
:102E4000190708F40ACD48E959E066E879E005CDAC
:102E5000073DECE51E0708F41DCB0E35FDE51F0709
:102E600009F418CB34CD0B352DE5120709F477CDD5
:102E700068F401158CE5180709F404CD0F3D1C45D5
:102E800009F025CD0E94CE0F0E94C80E0D35EDE54C
:102E90001E0709F413CD08F464CD083A1D45A1F3CB
:102EA00016CD1F93CF93DF938091A801807F09F007
:102EB00049C08091A501882309F444C08091DA01BA
:102EC000D091A9016091A3017091A401A091A601E4
:102ED000B091A701C62FC72316E0D81799F190E04B
:102EE000109711F0CF3F19F401968770F6CF189F15
:102EF0009001199F300D1124F901E655FE4F4181D3
:102F00004713F2CF40814613EFCF42814111ECCFFE
:102F1000438154814A1B5B0B483C510528F7809143
:102F2000A8018F7080618093A801F901E155FE4FDF
:102F300080818F708061808383EA91E00E940D120E
:102F40000E942306DF91CF911F910895A1E1B0E087
:102F5000ECEAF7E10C9476228C0185E0F801DE01C1
:102F60001D9601900D928A95E1F7F801E28083EABF
:102F7000A82E81E0B82E6091A6017091A70161157D
:102F8000710509F426C19091A3014091A401892FF4
:102F900084238F3F09F41DC120813181C380D480F7
:102FA000F090A501F601E61BF70BFF2009F4DCC049
:102FB0008091A801582F507FE83CF10508F09FC090
:102FC00051116BC0FE2C431314C0921312C0E110B8
:102FD00010C08F7080618093A801C5010E940D12FE
:102FE0008091A801F80185838F2D6196EAE00C9409
:102FF0009222C114D10429F0822F83238F3F09F03C
:1030000003C180E0F82FF170DF2E80FF3CC080917B
:10301000DA014091A90156E0841315C02D873E873F
:103020008D859E850E946106292F22952F70223062
:10303000F0F0243018F59F70F1F0F8019581907F41
:10304000D1F4D12C1EC090E0589FF001599FF00D93
:103050001124E655FE4F6181361306C060812613A8
:1030600003C06281E6120FC001968770D5CF9F70B2
:1030700011F0882331F3805E883018F3C8010E9474
:103080000D12FD2CB1CFEE2009F4AECF8091A80136
:1030900081608093A801F12CA7CF431306C092133F
:1030A00004C0F801EE2009F479C0C8010E94D706D7
:1030B000882309F1EE20F9F08091A801803270F0A8
:1030C0002091A3013091A40138872F831986DB86D4
:1030D000CA868C87CE0107960E940D1286E0F80101
:1030E000A3EAB1E001900D928A95E1F70E94511791
:1030F000FF24F39479CFC8010E940D12F9CF51112A
:103100000AC083EA91E00E940D1286E0F501119257
:103110008A95E9F7C0CF43130FC092130DC0E11099
:103120000BC0F8018583C8010E940D1286E0F501ED
:1031300011928A95E9F758CFC8010E94D7068823D3
:10314000D1F2EE20C1F28091A801803238F22091B4
:10315000A3013091A4013A8329831B82DD82CC82B2
:103160008E83CE010196B8CFE83CF105F8F6FE2C2F
:10317000EE2009F243131FC092131DC08091A801D5
:1031800080FD10C0982F907F69F0F8018583903FF3
:1031900031F0982F907F905F8F70892B8583C801C5
:1031A0000E940D1286E0F801A3EAB1E001900D92B1
:1031B0008A95E1F719CFC8010E94D70681118ECFF9
:1031C0008091A80181608093A801C8010E940D121E
:1031D0000BCFEE2009F48FCFC8010E94D706F82E3E
:1031E000882309F488CF86E0F801A3EAB1E00190D2
:1031F0000D928A95E1F78091A3019091A4010E941C
:1032000061060E945117F0CE81E08E25FBCEA7E12A
:10321000B0E0EDE0F9E10C947D224B8B5C8B6D8B83
:103220007E8B8F8B61111092E4011A8A198A85E0D6
:10323000FE017396DE011D9601900D928A95E1F7CD
:1032400086E0FE013D96DE01179601900D928A956B
:10325000E1F7CE0107960E94A617811112C086E001
:10326000FE013796DE01119601900D928A95E1F7E5
:103270008A859B85892B29F088859F8189238F3FAB
:1032800081F516E08091DA019091A901891317C0A8
:103290006796E3E00C94992296E0929FD001939F69
:1032A000B00D1124A655BE4FFE01319601900D922E
:1032B0009A95E1F78093A9010E942306E2CF819FAE
:1032C000C001112486559E4F0E94A617882301F342
:1032D0008091DA0190E00196877099278093DA0156
:1032E000D1CF2091A90130E0C901019687709927BB
:1032F0004091DA014817190679F60E94230C1092C2
:10330000A9011092DA0186E0E3EAF1E0DF011D9203
:103310008A95E9F7B6CFAFE0B0E0E1E9F9E10C94C6
:1033200073228E010F5F1F4F8AE0D8011D928A958C
:10333000E9F78EE4C82E81E0D82EF12CE12CAA24E6
:10334000A394B12C29E5822E21E0922EF6018191E1
:103350006F018F3F09F442C0F894E82FE295EF70B7
:10336000F0E021A18F70A50102C0440F551F8A957E
:10337000E2F7CA01922F982B91A392A180958923FD
:1033800082A3789400C0E3E5F1E0712C31E0219153
:103390002F3F09F46BC0A22FA295AF70B0E09096BA
:1033A0008C9190E02F7002C0959587952A95E2F751
:1033B00080FD5CC0832F782A330F8E169F0639F765
:1033C000F601319780818F3F11F00E94340450EA5A
:1033D0005A95F1F7F801EE0DFF1D70828FEFE81A94
:1033E000F80A95E0E916F10409F0B0CF4AE050E0A0
:1033F000B80182E292E00E94BF22009741F02AE0E9
:10340000F801A2E2B2E001900D922A95E1F7009155
:103410002D02892B69F181E08093EB010E94A111BB
:103420009093EA018093E9018091E9019091EA018A
:103430000E949211059700F110E0095C1D4F45E0D4
:1034400050E062E272E0C8010E94BF22D12C892BB9
:1034500051F085E0E2E2F2E0D80101900D928A9508
:10346000E1F7DD24D3941092EB0107C080E0A3CFF5
:103470008091EB018111D8CFD12C0E94AC07C82ECE
:10348000E0912D02DE011B967D01882309F47AC0AC
:1034900085E01D928A95E9F70E2F10E0095C1D4F1B
:1034A00080911D028A30D8F54AEB5BE0B701C80174
:1034B0000E947907882309F454C042E75BE0B70112
:1034C000C8010E947907882309F44BC044E65AE0FA
:1034D000B701C8010E947907882309F442C043E07C
:1034E0005AE0B701C8010E9479078823D1F11092F0
:1034F0001D0280912C0290E045E050E0B701895C0C
:103500009D4F0E94BF2221E02093F201892BE1F41C
:10351000C12C8C2D8D292F96EDE00C948F2280915B
:10352000EC019091ED010E949211843F914008F0CE
:10353000BBCF8091F201882359F385E0F701119206
:103540008A95E9F71092F201A0912C02B0E0A95CF3
:10355000BD4F85E0FE013B9601900D928A95E1F703
:10356000D8CF80911D028F3F31F08F5F80931D0275
:103570008A3008F4BECF0E94A1119093ED01809390
:10358000EC01D7CFF0E0E95CFD4F85E0A6E0B2E0CA
:1035900001900D928A95E1F765E070E086E092E097
:1035A0000E940004809305024091510250E0609116
:1035B000500270E0645B7D4FC7010E94CC228B8576
:1035C00080930C0261E070E0C7010E9400048093C8
:1035D0000B0280900D0290900E02A0900F02B0900E
:1035E00010028091EE019091EF01A091F001B09155
:1035F000F10188169906AA06BB06D1F08092EE0169
:103600009092EF01A092F001B092F1010E94AC07FC
:1036100081110EC00E94DA03861A970AA80AB90A15
:1036200080921E0290921F02A0922002B09221026C
:1036300080911802882309F46CCF80FF0DC080911F
:1036400011029091570580FF17C091609093570524
:1036500060E086950E94AA098091180281FF09C046
:1036600020E04091140260911302809112020E94A6
:103670006008109218024DCF9E7F9093570580915D
:103680007E04816080937E04FFEF20E742E0F150EA
:1036900020404040E1F700C000000E942E07DCCF30
:1036A0001F921FB61F9211248F939F93AF93BF93C6
:1036B00080916405811113C0809165059091660524
:1036C000A0916705B09168054196A11DB11D809339
:1036D000650590936605A0936705B0936805BF9153
:1036E000AF919F918F911F901FBE1F901895CDB7DE
:1036F000DEB72C970FB6F894DEBF0FBECDBF85B7EF
:10370000806885BF85B7806885BF84B7877F84BFA1
:103710000FB6F894A895809160008861809360004E
:10372000109260000FBE80E890E00FB6F89480938E
:103730006100909361000FBE82E394E09093750165
:10374000809374010E9481020E94A0028091E20095
:1037500084608093E2007894809176058823A1F0BC
:103760001091E9001F709091EC00892F817090FDFD
:1037700080E8182B1092E9008091E80083FD0E94F8
:10378000310C1F701093E90082E084BD93E095BD79
:103790009AEF97BD80936E0010921E0210921F0246
:1037A00010922002109221020E94AC0780933001F7
:1037B00080913001882309F43AC11092460184E2D5
:1037C000809347010E94AC0781110E94F8208091EC
:1037D00030018091300195E0811190E090932D02AD
:1037E00085E0891B80932C020EE411E0D8018D91B5
:1037F0008D018F3F11F00E943404B1E003351B07A7
:10380000A9F703E511E0A9E5EA2EA1E0FA2EF801F7
:1038100081918F018F3F11F00E943404E016F10670
:10382000B1F78AE0E7E3F2E0DF01282F1D922A9545
:10383000E9F7E2E2F2E0DF011D928A95E9F790E014
:1038400080E00E94E322883E9E4F11F00E94CE0F3E
:1038500082E090E00E94D522809341020E94F50907
:10386000909331028093300283E090E00E94D52251
:1038700090E00E94250F1092750480E88093540216
:103880000E94B21F6DE070E08FE992E00E94E007B5
:10389000892BC9F58091750463E070E081FDCBC090
:1038A0008CE992E00E94E007892B69F56DE070E0F9
:1038B0008CE892E00E94E007892B29F50E94DA0348
:1038C000605A75418F4F9F4F60935C0570935D0503
:1038D00080935E0590935F05E5E7F2E080E092E07B
:1038E000DF019C011D9221503040E1F78FEF9FEFE7
:1038F000909378048093770481E0809361058093AE
:1039000060051092760480913202811139C090E0F6
:1039100080E00E94E322883E9E4F21F00E94CE0F5D
:103920000E94DC0988E090E00E94DD226093570548
:10393000709358058093590590935A0580917E04A1
:10394000836080937E046E7F71F40E94DC0988E0BE
:1039500090E00E94DD226093570570935805809394
:10396000590590935A050E941C048091570580FFC9
:1039700004C060E086950E94AA0981E0809332022B
:103980009091300181E0982790935002A82FA91BB5
:10399000A0933402909130018093510290913001B4
:1039A0008093330280913001811106C084E98093B5
:1039B0003E0185EF80933D0120913E01E22FE2958B
:1039C000EF70F0E061A12F7081E090E0AC0101C0E8
:1039D000440F2A95EAF7342F3095362331A322A1DC
:1039E000242B22A320913D01E22FE295EF70F0E01D
:1039F00031A12F7001C0880F2A95EAF7982F909572
:103A0000932391A392A1892B82A38FE891E0019740
:103A1000F1F700C000001091510262E572E04DE341
:103A200051E08EE3E82E81E0F82EFB012FC084E206
:103A300080934601C5CE89E992E034CFD7012D911C
:103A40007D01822F82958F7090E0DC0190968C91A1
:103A500090E02F7002C0959587952A95E2F78170C6
:103A6000DA019D91AD01292F22952F7030E0D90107
:103A700090962C9130E09F7002C0359527959A95CD
:103A8000E2F790E020FD92E0892B81938E2F861B38
:103A90008117A0F20E94AC07811102C00E94FB2096
:103AA00081E391E09093630580936205F0E46F2ECB
:103AB0008091760500E112E1853009F487C00E940B
:103AC0008B1972E4E72E72E0F72EE7E3CE2EE2E0E8
:103AD000DE2E2CE432E0D601F70191918D912E1764
:103AE0003F0709F47DC09817C1F30E94AC07882EE8
:103AF00010E0D6010D916D01F70191907F019016B4
:103B000029F1B12CAA24A3949026892D8A21B1F001
:103B10008820A1F0BE821F8391E0802F8A2109F4C2
:103B200090E098870E94A1118160782F9A878987F9
:103B30004E815F8168858A850E940719B394AA0C1B
:103B4000F6E0BF12E2CFF701319700831F5F1A3012
:103B500081F60E94DA03EE24E39463C08091760537
:103B6000843029F10E940A0810926405E8E1F0E02F
:103B70000FB6F894A895E09360000FBE60926000C5
:103B800083B7817F846083BF83B7816083BF78946C
:103B9000889583B78E7F83BF0FB6F894A8958091E0
:103BA0006000886180936000109260000FBE809179
:103BB0007505882359F00E948B19E7E3F2E08191A3
:103BC0008111BAC122E0E134F207C9F7809176058C
:103BD000853009F4C3CF0E94230C0E94CF076FCF1A
:103BE000981383CF0E94A1118C018091350290918E
:103BF000360208171907A1F08FEF89838A831B8289
:103C00000E94A1118160782F9D838C8349815A8104
:103C10006B818D810E940719109336020093350243
:103C2000E12C0E94AC0790905102809050022EE44B
:103C300032E05DE3C52E51E0D52E6EE3A62E61E0A5
:103C4000B62E02E512E040E0F12C49114DC0F11012
:103C50000E941306809161058823A9F1809179045F
:103C600090917A040E949211C29730F00E94A111A3
:103C700090937A04809379042091770430917804AA
:103C80002115310539F08091760461E070E08823D8
:103C900009F488C0809160058823A9F00E94DA03A6
:103CA00000915C0510915D0520915E0530915F05E6
:103CB000601B710B820B930B6F3F7F4F8F4F9F47A2
:103CC00010F40E940A08E11001C0F1100E942508BA
:103CD0000E94CF0790917B04891709F4E9CE809365
:103CE0007B040E94DA03E4CED5018D915D01E82FBB
:103CF000E295EF70F0E0E0A1F0E08F7002C0F59582
:103D0000E7958A95E2F7E170D6015D916D01A52FE7
:103D1000A295AF70B0E090968C9190E05F7002C079
:103D2000959587955A95E2F790E080FD92E09E2B5D
:103D3000D801ED918D015E2F5370951721F1EE0F93
:103D4000EE0FE92B1197EC93942F980DEF70F0E0A4
:103D5000E75AFE4F5081F9018081850F80838430BE
:103D6000B4F0E92FF0E0E45BFD4F90819F5F90831A
:103D7000E1E0082E000C990B64E070E00E94A5229F
:103D8000D9018C93FE2A4F5F2F5F3F4F5ECFE0E05B
:103D90008D3F7CF7E92FF0E0E45BFD4F908191507F
:103DA000E6CF8F5F082F10E02B01082E02C0440CD5
:103DB000551C0A94E2F7A90144215521452B89F3AA
:103DC0009091750490FD44C08295880F8076809311
:103DD0004101980136952795369527952093440102
:103DE000815E809342011092450124E630E047E075
:103DF00050E06FE371E088E70E945220892B09F0C0
:103E000049CFA80125E0440F551F2A95E1F780917D
:103E1000750480FD2BC04B585D4F04E610E020E296
:103E200030E060E488E70E947320892B09F032CFEC
:103E30000E942508C201809590954090770450908B
:103E4000780448225922509278044092770422CF75
:103E5000880F880F880F8093410110924401895F79
:103E60008093420183E080934501BFCFE5E5F2E016
:103E700080E2DF011D928A95E9F7EDE6F1E0FC872B
:103E8000EB8709E611E097E0A92E99249394AB857E
:103E9000BC852D91BC87AB87F80121908F01240E42
:103EA000352E311CC1018B589D4F1C01E22FF0E0D3
:103EB000EB5AFD4F30E020E07A2C721AB92C022E1A
:103EC00001C0BB0C0A94EAF7610190E0D6018D9124
:103ED0006D018B21672D691B6770862E062E000CE5
:103EE000770BB82F01C0BB0F8A94EAF78B2E719520
:103EF000619571096770772701C086956A95EAF721
:103F0000882A8081882A80829F5F9830F9F62F5F07
:103F10003F4F31962830310579F6E1E7F1E02B8506
:103F20003C85E217F30709F0B2CF04E610E020E287
:103F300030E045E552E075CF09BD19BD09B400FE7A
:103F4000FDCF8091D8008F7D8093D8008091E000D4
:103F500082608093E0008091E00081FDFCCF0E94B0
:103F6000230C34CE1092B9008CE08093B8000895F1
:103F7000B0E0A0E0EEEBFFE10C947522B82EEB016F
:103F80000E94A1116C01EE24E394F12CC431D105FF
:103F900060F025E0E22EF12CCF3FDC0731F0CE01BE
:103FA00064E170E00E945A227B0184EAA82E94E822
:103FB000992E1092BC00A092BC000E94A1118C010D
:103FC0008091BC0087FF0DC08091B900887F883048
:103FD000F9F08091B900887F8031D1F00FEF1FEFA9
:103FE00008C0C8010E949211E816F90648F70EEFC2
:103FF0001FEFCF3FDC07E9F2C6010E949211C817FC
:10400000D907B8F6C801CDB7DEB7EBE00C94912222
:10401000B092BB009092BC000E94A1118C018091D3
:10402000BC0087FF0AC08091B900887F883111F0F9
:104030008034A1F610E000E0E5CFC8010E949211A3
:10404000E816F90660F7D3CF0F931F93CF93DF9352
:10405000EB018093BB0084E88093BC000E94A11117
:104060008C018091BC0087FF11C02091B900287F8E
:1040700081E090E0283211F490E080E09195819504
:104080009109DF91CF911F910F910895CF3FDC07E8
:1040900041F3C8010E949211C817D90710F78EEF9B
:1040A0009FEFEFCFB0E0A0E0E8E5F0E20C947822DB
:1040B0006B018A017901B9010E94B81FE6010C0D5C
:1040C0001D1DC017D10711F097FF08C024E92093E8
:1040D000BC00CDB7DEB7E8E00C949422B70189911B
:1040E0000E942420EECFB0E0A0E0E9E7F0E20C94DB
:1040F0007822C62F6A017901B8010E94B81F97FD86
:104100000CC0B8018C2F0E942420E601EC0CFD1C91
:10411000CE15DF0511F097FF08C024E92093BC00FD
:10412000CDB7DEB7E8E00C949422B80189910E94E3
:104130002420EECF84E98093BC0008958EE14A9B51
:1041400002C08150E1F74A9BFECF08955A9880E261
:104150008A95F1F75A9A0895FC013BE03A95F1F7F8
:1041600098E020E080E031E040E14A95F1F7880FE7
:104170004A9B02C08160232742E04A95F1F7000084
:1041800040E14A95F1F7915079F790E19A95F1F76E
:1041900099B132E03A95F1F7000040E14A95F1F724
:1041A00092FB992790F992272081920F908308958E
:1041B000A1E0B0E0EEEDF0E20C947A2219828C01DD
:1041C0007C01E60EF11C0E151F0541F481E099817A
:1041D000911180E02196E6E00C9496220E949E20A8
:1041E000CE0101960E94AC20F80181938F01EBCFA4
:1041F000529A5A9A089552985A9AEA9AE9E6F0E041
:1042000080818F7C808308956150770B91E001C09D
:10421000990F6A95EAF720E031E0911108C0222356
:1042200091F05A9A80E28A95F1F75A980895492FA9
:10423000482339F05A9A232740E24A95F1F7969598
:10424000ECCF5A98F9CF5A98EDCFFF920F931F9366
:10425000CF93DF93EC018C01060F111DC017D1071E
:1042600029F4CDB7DEB7E5E00C949722F9900E94CF
:10427000A62068E08F2D0E940421F0CF1F920F929C
:104280000FB60F9211240F931F932F933F934F93C9
:104290005F936F937F938F939F93AF93BF93EF93AE
:1042A000FF93CF93DF930F92CDB7DEB719820E94B1
:1042B0009E20CE0101960E94AC20082F06950695FF
:1042C0000695282F22952570902F9570290F922FF3
:1042D000937026952695920F982797708981982B31
:1042E00009F05CC0073008F059C080E18A95F1F709
:1042F0005A9A529A82E08A95F1F700C05A9888E05B
:10430000089F80011124D801A050BF4F1696ED914F
:10431000FC9117973097A9F060914C0170914D0175
:1043200014962D913C911597260F371F11968D915C
:104330009C911297680F791F13964C9113978C914B
:104340000995F801E050FF4F6381662351F02091F9
:104350004C0130914D0184819581820F931F0E9401
:1043600025210E94A62080E18A95F1F75A9852985B
:104370005A9A80E18A95F1F7F801E050FF4F608189
:10438000662351F020914C0130914D018181928141
:10439000820F931F0E94D8200E949E200F90DF91D1
:1043A000CF91FF91EF91BF91AF919F918F917F91AD
:1043B0006F915F914F913F912F911F910F910F90AE
:1043C0000FBE0F901F9018950F931F93CF93DF93FD
:1043D000EC0107970CF04CC0F894529A5A9885E07B
:1043E0008A95F1F700009C2F969595708C2F85701B
:1043F000980F892F83709695969523E0CC0FDD1F3B
:104400002A95E1F7980F8E01092B0E94A62000C083
:1044100068E0802F0E94042180E18A95F1F752988C
:104420005A9A4A9B1EC087E090E04A991CC0FE0140
:10443000E050FF4F63816623F9F020914C013091E9
:104440004D0184819581820F931F0E94D820811194
:1044500013C0529A5A9A7894DF91CF911F910F917D
:10446000089500C0DECF019729F4529A5A9A7894A1
:1044700080E0F2CF00C0D9CF0E949E2080E28A95D2
:10448000F1F75A98529A80E18A95F1F7C050DF4FC0
:104490006881662351F020914C0130914D01898152
:1044A0009A81820F931F0E9425210E94A620789452
:1044B00081E0D2CFAA1BBB1B51E107C0AA1FBB1FC3
:1044C000A617B70710F0A61BB70B881F991F5A95A0
:1044D000A9F780959095BC01CD0108952F923F9248
:1044E0004F925F926F927F928F929F92AF92BF9204
:1044F000CF92DF92EF92FF920F931F93CF93DF93B0
:10450000CDB7DEB7CA1BDB0B0FB6F894DEBF0FBE0C
:10451000CDBF09942A88398848885F846E847D8459
:104520008C849B84AA84B984C884DF80EE80FD805B
:104530000C811B81AA81B981CE0FD11D0FB6F894D1
:10454000DEBF0FBECDBFED01089597FB072E16F419
:10455000009407D077FD09D00E945A2207FC05D0AD
:104560003EF4909581959F4F0895709561957F4F8A
:104570000895EE0FFF1F0590F491E02D0994FB01C3
:10458000DC0104C08D910190801921F4415050400C
:10459000C8F7881B990B0895FB01DC0102C001904C
:1045A0000D9241505040D8F70895F999FECF92BD31
:1045B00081BDF89A992780B50895A6E1B0E044E05E
:1045C00050E00C940F23A8E1B0E042E050E00C94DE
:1045D0000F23262FF999FECF92BD81BDF89A01973E
:1045E00000B4021639F01FBA20BD0FB6F894FA9A3B
:1045F000F99A0FBE08950396272F0E94EA220E947F
:10460000E922252F0E94EA22242F0C94EA22019607
:10461000272F0E94EA220C94E922DC01CB01FC0145
:10462000F999FECF06C0F2BDE1BDF89A319600B40B
:104630000D9241505040B8F70895F894FFCF100DF7
:10464000380DB60E380DB60E6B0D8C0DB60E760EFF
:10465000820EB814B814F114F1141F151F151F158C
:0A4660001F1593151B162A162A16C3
:10466A000000000100000000000000050100000039
:10467A000000000106000000000000010700000021
:10468A000408000000000000080C00000000000000
:10469A0001D7030107D603D403D503D30394F50046
:1046AA0021007F220003004800484801050266975E
:1046BA00C63435F6F73133323600FF010001000007
:1046CA00FFFF0000010001FF000008101818100881
:0446DA0000000100DB
:00000001FF
