:100000000C9433020C9450020C9450020C949221E4
:100010000C9450020C9450020C9450020C94500218
:100020000C9450020C9450020C94CD100C94891036
:100030000C94E31B0C9450020C9450020C9450024C
:100040000C9450020C9450020C9450020C945002E8
:100050000C9450020C94A5110C9450020C94500274
:100060000C9450020C9450020C9450020C945002C8
:100070000C9450020C9450020C9450020C945002B8
:100080000C9450020C9450020C9450020C945002A8
:100090000C9450020C9450020C9450020C94500298
:1000A0000C9450020C9450020C9450024C001E0010
:1000B0001F002000210022002B0014001A0008005D
:1000C00015001721290004001600070009000A0086
:1000D00000001D001B0006001900050000000000C4
:1000E000E30021522C22E0002A00270026002500F0
:1000F000240023003100130012000C0018001C24FF
:10010000340033000F000E000D000B00000038001B
:10011000370036001000110000000000E7002252F6
:100120002832E4003A003B003C003D003E003F0026
:100130000100010034002F003000010001002352B3
:1001400033022F023002240200003802380031004E
:100150003102250200000000010001002800E0003B
:100160004500440043004200410040002B002A00AB
:100170004D004B004E004A0049004C004F00520019
:1001800051005000000038023702360231022502C9
:10019000000000000100010001002A003A003B00BD
:1001A0003C003D003E003F000100310035022302CB
:1001B00034003500010033002D002E022E002D02E8
:1001C00000001E021F022002210222020000000085
:1001D0000100010001004C004500440043004200C2
:1001E00041004000E6004C00300230002F002F029A
:1001F00039002900330227022602240200003802B7
:100200003702360231022502000000000100010021
:100210002C00E400000000000000000000000000CE
:1002200000000000000000000000000000000100CD
:1002300000000000000000000000000000000000BE
:1002400000000000000000000100010001004C005F
:1002500000002102220237003600230231022E0064
:100260002600250024002E0024022D002300220059
:100270002100540000002E0220001F001E00250255
:10028000000000002700270001002A0000DA028198
:10029000FFD9F1DB20A4A62EAF00A0C0D30000A19F
:1002A000C8D30000AED580A81F408D1420000001E7
:1002B0000101010101010101020202020202020226
:1002C00002030303030303030304040404040404F8
:1002D00005050505050606060606070707070708BC
:1002E000080808090909090A0A0A0B0B0B0C0C0C6F
:1002F0000D0D0D0E0E0E0F0F0F1010111111121209
:1003000013131414151516161717181819191A1A85
:100310001B1B1C1D1D1E1E1F2020212222232424E6
:10032000252626272829292A2B2C2D2D2E2F303122
:100330003232333435363738393A3B3C3D3E3F4034
:100340004142434445464748494A4C4D4E4F50511F
:100350005354555658595A5B5D5E5F6162646566D9
:1003600068696B6C6D6F7072737577787A7B7D7E60
:100370008082838587888A8C8E8F91939596989AB0
:100380009C9EA0A2A3A5A7A9ABADAFB1B3B5B7BAC8
:10039000BCBEC0C2C4C6C9CBCDCFD1D4D6D8DBDD9C
:1003A000DFE2E4E7E9EBEEF0F3F5F8FAFDFF00AF8A
:1003B00000AE05010906A101050719E029E71500AE
:1003C00025019508750181029501750881010507D0
:1003D000190029FF150026FF009506750881000504
:1003E000081901290515002501950575019102954A
:1003F0000175039101C009022200010100A0FA0960
:10040000040000010301010009211101000122443F
:100410000007058103080001120100020000000826
:1004200051FC59000001010200011C034C0069004D
:100430006C0079003500380047006C006F007700D1
:1004400045006E006300000018034F005200560084
:10045000490053004500560041004E0053002B0058
:1004600000000403090411241FBECFEFDAE0DEBF51
:10047000CDBF11E0A0E0B1E0EAE1F8E402C00590F0
:100480000D92AA37B107D9F725E0AAE7B1E001C07C
:100490001D92A33AB207E1F70E940A1C0C94B723FD
:1004A0000C940000482F20919F059091660557E01D
:1004B000291302C080E0089530E0529FF001539F5D
:1004C000F00D1124E959FA4F8181681306C080812B
:1004D000481303C085818111EECF2F5F3F4F2770F6
:1004E000E7CF982F9093E900891779F05091EC00AD
:1004F0002091ED004091F00021FD0AC09F5F9730F0
:1005000089F78093E90081E00895562F40E022E0CA
:100510003091EB003E7F3093EB003091ED003D7F5A
:100520003093ED003091EB0031603093EB0050934D
:10053000EC002093ED004093F0002091EE0027FDA9
:10054000DDCF80E00895E8EDF0E080818E7F80834C
:100550001092E2001092DA001092E100A0EEB0E0FA
:100560008C9181608C9380818F77808319BCA7EDFB
:10057000B0E08C918E7F8C9380818F7E80831092EF
:100580004F050895B0E0A0E0E8ECF2E00C94CC2236
:10059000C8EDD0E088818F7E8883E7EDF0E0808130
:1005A0008160808384E082BF81E080934F058881F1
:1005B0008E7F888302EE10E0F80110821092DA003C
:1005C00081EEC82ED12CF601108288818F77888326
:1005D00088818068888388818F7D888319BC109288
:1005E000650510925C0510925B0510925A0590EE1D
:1005F000E92EF12CF70180818B7F808388818160D7
:10060000888360E080E00E947102F60180818E7F25
:100610008083F8018081816080838081886080830D
:10062000F70180818E7F8083888180618883CDB748
:10063000DEB7E8E00C94E8222091E4003091E50078
:1006400095E6A9012091EC00822F817020FF06C061
:100650008091E80080FF06C080E008952091E800C6
:1006600022FD1AC080916505882389F0853089F0C4
:100670008091EB0085FD0FC02091E4003091E500F2
:1006800042175307F9F29150E1F684E0089582E0B1
:10069000089583E0089581E0089580915D0587FFC6
:1006A00013C08091E80082FF06C08091E8008B773C
:1006B0008093E80004C0809165058111F2CF089510
:1006C000809165058823D9F38091E80080FFF8CFF9
:1006D0008091E8008E77ECCFFC01809163059091CA
:1006E000640586179707A0F06115710529F49091AC
:1006F000E8009E779093E80090E06115710551F451
:10070000911108C08091E80082FF34C080E0089514
:10071000BC01F2CF809165058823C1F18530C1F11C
:100720008091E80083FD30C08091E80082FDEACF2F
:100730008091E80080FFE1CF8091F3002091F200EA
:10074000382F6115710519F02830310558F091E006
:100750002830310509F090E02091E8002E772093B1
:10076000E800CBCF81918093F100615071092F5F38
:100770003F4FE7CF80916505882341F0853041F0F8
:100780008091E80083FFBECF81E0089582E0089564
:1007900083E008950895089508958091510508957E
:1007A0002FB7F89460914B0570914C0580914D05E1
:1007B00090914E052FBF08959C01FC0132969FEF4A
:1007C00080E04191461751F09F3F19F4411101C05B
:1007D000982F8F5F8630A9F79F3F09F40895290F5E
:1007E000311D97FD3A95F901628308958091460580
:1007F000882359F0E0914805F0914905309729F098
:100800000190F081E02D0995089580E00895FC01A4
:10081000680F791F8FEF91E32191822728E030E064
:1008200087FF09C0880F892721503109C9F7E617CA
:10083000F70791F70895880FF7CF90E06623A1F0AE
:10084000805B9E4FFC0120812F3F89F0E22FE295D3
:10085000EF70F0E080A190E02F7002C09595879531
:100860002A95E2F781700895815B9E4FEBCF80E07F
:10087000089590E06623E9F0805B9E4FFC01808143
:100880008F3FB1F0E82FE295EF70F0E041A18F705B
:1008900021E030E0B90102C0660F771F8A95E2F7C8
:1008A000CB01962F9095942391A392A1892B82A39B
:1008B0000895815B9E4FE2CF90914005E92FF0E0D3
:1008C000209141052150330B23703327E217F307A2
:1008D000A9F0EE5BFA4F282F2F7780818078822B4A
:1008E00060FB87F980839F5F9370909340058091B0
:1008F0003E058F5F80933E0581E0089580E0089576
:10090000FA01811101C0FB0109950895609144012C
:100910008091090380FF0CC070E08091430123E0C7
:10092000829FC00111248F5C9D4F0E949C080895F6
:10093000809145019091460123E0829FF0011124AE
:10094000EF5CFD4F891740F71182108212828F5F92
:100950003396F8CF80910903982F9C7F71F4809192
:100960000903837084608093090380910C038937A5
:1009700018F088E780930C030895883080F7F5CF4E
:1009800080E0089581E080932C020895F894E82F88
:10099000E295EF70F0E031A1282F2F7081E090E018
:1009A00001C0880F2A95EAF7982F9095932391A379
:1009B00092A1892B82A3789408950F931F9380911D
:1009C0004605882329F00E94D0031F910F910895B6
:1009D0000E94D0030091FA011091FB012091FC01CB
:1009E0003091FD01600F711F821F931FEECF909118
:1009F0000E0292FF10C041E0282F2471243009F02C
:100A000040E031E0282F2871283009F030E043170A
:100A100011F02CE0822793FF10C041E0282F2471B1
:100A2000243109F040E031E0282F2871283109F005
:100A300030E0431711F02CE0822730910F0230FF95
:100A400010C051E0282F2171213009F050E041E021
:100A5000282F2871283009F040E0541711F029E0C0
:100A6000822731FF10C041E0282F2171213109F088
:100A700040E031E0282F2871283109F030E0431799
:100A800011F029E0822794FD877E08958238910530
:100A9000B9F1B0F48133910509F47DC048F489328D
:100AA000910509F46DC08A32910509F47BC008955F
:100AB0008533910509F45FC08933910509F10895E3
:100AC000833E9105D9F138F4803E910529F1823EAB
:100AD000910579F10895863E9105D9F1873E9105FA
:100AE00009F43EC0843E910541F520910F0221FF9B
:100AF00024C080910E0284FD19C087EE90E0089515
:100B000020910E02237009F05AC020910F0223FF9A
:100B100014C089E290E0089520910E0220FD38C0B3
:100B200030910F0230FF09C024FF43C090E080E005
:100B3000089520910E0222FDF7CF089520910E0214
:100B400022FD3AC030910F0230FD39C024FFF5CFAD
:100B5000EDCF20910E0223FFF0CF24FDE7CFCDCFC4
:100B600020910E0223FD2EC030910F0231FFEECFF7
:100B700084EE90E0089520910E0225FFDECFC9CFCC
:100B800020910E0225FD21C020910F0223FFD5CF19
:100B900089E390E0D2CF20910E0226FFCECF8AE2E9
:100BA00090E0089520910E0226FFC7CF81E390E0E8
:100BB000089583EE90E0089582EE90E0089580EE2F
:100BC00090E0089586EE90E0089585E390E0089522
:100BD000972F7A30B8F46630A8F48430B0F470E01F
:100BE00026E0929F600D711D1124FB019CE3899FFB
:100BF000E00DF11D1124EE0FFF1FE455FF4F85910D
:100C00009491089580E090E0089581E0FCCF1F93D7
:100C1000CF93DF930E944605EC01C11582E5D8070A
:100C200008F03FC0C11590E5D90708F0C2C0C83E22
:100C3000D105C0F4C03ED10580F4C53AD10548F4D1
:100C4000C430D10550F4C130D10539F0D0E0C0E056
:100C500004C0CD3CD105D0F3D065CE01DF91CF915A
:100C60001F910895C11580E4D80708F053C0C1153D
:100C700090E2D90708F0B7C0C11581E0D80730F37A
:100C80008D2F0E94F704182FCE0199270E94460548
:100C9000C12FD0E0DC2FCC27CC27DF71C82BD92B7C
:100CA000DCCFC03892E5D907A8F4C03682E5D80772
:100CB00008F063C0C03492E5D90708F049C0C032DB
:100CC00082E5D80788F1CF71D0E0DC2FCC27C16F47
:100CD000D06AC3CFC03C92E5D90780F48C2F8F71C6
:100CE000C03AD24508F45EC00E94F704C82FD0E095
:100CF000DC2FCC27CC27DF71D062AFCFC03E82E59E
:100D0000D80708F0A3CFDC2FCC27CC27DF71C06F2A
:100D1000D06AA3CFCE0199270E944605CC27DF7069
:100D2000C82BD92BD06A99CF2C2F2695269590E2E7
:100D3000299F900111248C2F8370C1E0D0E002C064
:100D4000CC0FDD1F8A95E2F7C22BD32BDD6885CF50
:100D50002C2F26952695277080E2289F900111243C
:100D60008C2F8370C1E0D0E002C0CC0FDD1F8A95CC
:100D7000E2F7C22BD32BDC6870CF2C2F269526955B
:100D8000277090E2299F900111248C2F8370C1E07D
:100D9000D0E002C0CC0FDD1F8A95E2F7C22BD32B27
:100DA000DA685BCFC82FD0E0DC2FCC27C46FD06AC5
:100DB00054CF8C2F8F710E94F70455E0D695C795BC
:100DC0005A95E1F7CF70D0E0DC2FCC27282F30E008
:100DD00084FF05C044E0220F331F4A95E1F7C22B80
:100DE000D32BD0693ACF8D2F8F710E94F704182F23
:100DF000CE0199270E944605C12FD0E0DC2FCC27D9
:100E0000CC27DF71C82BD92B77CF80959091B80173
:100E100098239093B801089580919F05909166055D
:100E2000981301C008958F5F8770FACFB0E0A0E0FB
:100E3000ECE1F7E00C94CB227C0100910C021091C4
:100E40000D0280910A0290910B02082B192BCFE022
:100E5000D0E0CC24C394D12CBC2EC6010C2E02C0F1
:100E6000880F991F0A94E2F780239123892B49F474
:100E7000219790F7B12C8B2DCDB7DEB7E9E00C941C
:100E8000E722B7018C2F0E94E8050E940706019710
:100E900079F3F1CFCF93DF93EC010E941607BE01E7
:100EA0000E94E8050E940706DF91CF9108959A30CD
:100EB00078F5863068F5E82FF0E086E0989FE00D41
:100EC000F11D11249E2F977083E0F695E7958A9582
:100ED000E1F7EE0FFF1FEE0FFF1FEA57FE4F50E046
:100EE00040E080E0219130E0092E02C03695279540
:100EF0000A94E2F721703327042E01C0220F0A94CE
:100F0000EAF7822B4F5F5F4F4430510559F7089540
:100F100080E008959A3098F5863088F5E82FF0E063
:100F200086E0989FE00DF11D11248E2F877041E01F
:100F300001C0440F8A95EAF783E0F695E7958A9514
:100F4000E1F7EE0FFF1FEE0FFF1FEA57FE4F30E0F5
:100F500020E070E05191DF011197CB01022E02C019
:100F6000969587950A94E2F7817081958527842369
:100F700085278C932F5F3F4F2430310559F7089513
:100F800090930D0280930C02089521E030E002C09E
:100F9000220F331F8A95E2F72095309580910C023D
:100FA00090910D02822393230E94C007089590918F
:100FB000AD01809589238093AD01282F277069F4B6
:100FC000891759F090910F0292FF07C08695869578
:100FD00086950E94C5071092AD01089521E030E08A
:100FE00002C0220F331F8A95E2F780910C02909184
:100FF0000D02822B932B0E94C007089590930B0241
:1010000080930A020895FC0124812223C1F080818B
:1010100091810E944A0792959F70963091F058F402
:10102000925F9F70923058F4803F19F030F4883E00
:1010300030F481E008959A5FF4CF843FD1F380E0EB
:101040000895883EB0F3813FD1F7F3CFA6E0B0E03A
:10105000ECE2F8E00C94D12249835A8349815A8109
:101060009923A1F0222391F0CA010E941607182F9C
:10107000682F89819A810E948A0769817A81812FEC
:101080000E94E8052696E3E00C94ED22CA010E9436
:101090005707182FF2CF0F931F93CF93DF938C0135
:1010A00080916505843059F581E08093E9008FEFE8
:1010B0009091E800815095FD06C095ED9A95F1F765
:1010C00000008111F5CF8091E80085FF18C00E94D3
:1010D0001C0381110FC0C8E0D0E08091E80085FDBD
:1010E00013C08091E8008E778093E8000E941C0373
:1010F000882399F38091E8008E778093E800DF9150
:10110000CF911F910F910895F80181918F018093E4
:10111000F100219711F7EECFCF93DF93EC010E94FE
:101120004B0888E0FE01A2E5B5E001900D928A959A
:10113000E1F7DF91CF910895849A41B34F7E51B387
:101140005061EFB7F8949B01220F331F260F371F12
:10115000280F391F2817390741F4EFBF8FE594E0B6
:101160000197F1F700C000000895DC016D91CD01F9
:1011700078E051BB000000C067FF41BB660F000074
:1011800000C000C000C041BB00C07A9591F7E2CF1B
:10119000B0E0A0E0EEECF8E00C94CA227C015B0128
:1011A0006A018091F90101E010E08A3010F40AE050
:1011B00010E0C1E0D0E0B501C701F6010995811149
:1011C00004C021960C171D072CF4CDB7DEB7EAE05A
:1011D0000C94E622CC9F9001CD9F300D300D112450
:1011E00090E080E045E34A95F1F700000196821710
:1011F0009307C1F7E0CFAB0124E630E0BC0188E7FC
:101200000E94622021E0892B09F020E0822F0895BE
:1012100080913A0590913D05911103C091E0892795
:101220000895882369F062E070E080EB93E00E940B
:10123000FB08811103C080913A05089510923A0588
:1012400080913A05EBCFCF93C0913A0580913D054F
:101250008823D1F00E94D003605A75418F4F9F4F71
:101260006093360570933705809338059093390560
:10127000C11108C062E070E08EEA93E00E94FB08B2
:10128000811105C0C0913A058C2FCF91089581E05E
:1012900080933A05F7CFB0E0A0E0E1E5F9E00C94E7
:1012A000C82249015A016B017C010E94AA048401F1
:1012B000A4016A2D7B2D88E090E00E949523940183
:1012C0004A2D5B2DB601C70100E20E942E23622F3A
:1012D00084E290E00E948323CDB7DEB7ECE00C946B
:1012E000E422B0E0A0E0E7E7F9E00C94C822182F70
:1012F000C62FD42F822E0091090300FF51C0809188
:101300000A03811308C080910B03861304C08091E7
:101310000C03841729F080913002826080933002A0
:10132000E02FE695E695F0E0E159FE4F808180934D
:101330002E02802F8C7F8430E9F4ED2FD93708F00E
:10134000E8E7F0E0E255FD4FC1112FC02491F22FE4
:10135000E22F00FF0FC0809145019091460133E0DC
:10136000839FD0011124AF5CBD4F891708F492C050
:101370000E94860410930A03C0930B03D0930C03BE
:10138000882071F02091090360910D0370910E0384
:10139000312FAE0180910F03909110030E944B09F1
:1013A000CDB7DEB7ECE00C94E422EC2EF12CE49106
:1013B0009E2ECE2ED12C26E0129FC00111242FEF9D
:1013C00030E0B9010E94AE22812F90E0880F991F72
:1013D000F5E5F69FA001F79F500D1124841B950B96
:1013E000B82EBB0CB80EA9014E195F094C9DC00167
:1013F0004D9D900D5C9D900D1124F92FCB9DA0016A
:101400001124452F5527D901A41BB50BAC9DA00174
:10141000AD9D500DBC9D500D1124D901AB19B109E2
:101420005D01AE9CD001AF9CB00DBE9CB00D1124EF
:10143000AB2FBB272A1B3B0B2C9DD0012D9DB00D44
:101440003C9DB00D11242B2F62307105A1F050F49A
:101450006115710509F47DCF6130710581F0292F87
:10146000F52F77CF6430710569F080F06630710533
:1014700009F46FCFF4CF2E2FE92FFB2F6ACF2E2F39
:10148000E52F67CF292FFE2FEB2F63CFE92FF92D03
:10149000252F5FCF1196EC9311972C931296FC9306
:1014A00012978F5F139661CFE9E0F3E0438121E16A
:1014B000421B08F440E021E0628181810E947109B1
:1014C0000895E9E0F3E0438121E1420F08F44FEF92
:1014D00021E0628181810E9471090895E9E0F3E0D1
:1014E000628121E1621B08F460E021E04381818197
:1014F0000E9471090895E9E0F3E0628121E1620F41
:1015000008F46FEF21E0438181810E947109089501
:10151000E9E0F3E0818121E04381628188500E940B
:1015200071090895E9E0F3E0818121E0438162815E
:10153000885F0E947109089580910D03882319F036
:10154000815080930D032091090330910A0340914B
:101550000B0350910C0360910D0370910E03809169
:101560000F03909110030E944B09089580910D0381
:10157000833018F48F5F80930D032091090330911D
:101580000A0340910B0350910C0360910D0370917D
:101590000E0380910F03909110030E944B09089550
:1015A0002091090320FF24C02370246020930903A5
:1015B00080913002816080933002662381F0309107
:1015C0000A0340910B0350910C0360910D0370913D
:1015D0000E0380910F03909110030E944B0920E0AD
:1015E00040910C0360910B0380910A030E947109E2
:1015F00008958091090386958695815009F481E0CC
:1016000061E00E94D00A089561E081E00E94D00A62
:10161000089590910F0292FB222720F9281779F064
:1016200080FB92F990930F0260910E0270910F026D
:1016300084E090E00E94A12382E00E94D7070895F1
:10164000ABE0B0E0E6E2FBE00C94D22288E0E9E017
:10165000F3E0DE01119601900D928A95E1F78091F9
:101660002E0290912F02A091300289879A87AB8732
:101670002B854091F5015091F6016091F701709131
:10168000F8013FB7F89480914B0590914C05A091DB
:101690004D05B0914E053FBF841B950BA60BB70BB4
:1016A00084369105A105B10510F4222319F180912A
:1016B00031019091320189529E4F4091300150E0AA
:1016C0004C30510510F04BE050E0BE016F5F7F4F92
:1016D0000E94562386E090E00E943822882369F019
:1016E0000E94D0036093F5017093F6018093F70197
:1016F0009093F8011092300281E02B96E2E00C9476
:10170000EE22A4E0B0E0E7E8FBE00C94D1224091A7
:10171000D3015091D4016091D5017091D6012FB7BA
:10172000F89480914B0590914C05A0914D05B09196
:101730004E052FBF841B950BA60BB70B11E084360B
:101740009105A105B10570F10E94DD046E5F7F4F28
:101750008F4F9F4F69837A838B839C83809129016C
:1017600090912A0189529E4F4091280150E04530C6
:10177000510510F044E050E0BE016F5F7F4F0E94C2
:10178000562385E090E00E943822182F882351F0DC
:101790000E94D0036093D3017093D4018093D5014C
:1017A0009093D601812F2496E3E00C94ED224F9282
:1017B0005F927F928F929F92AF92BF92CF92DF9271
:1017C000EF92FF920F931F93CF93DF930F92CDB7BA
:1017D000DEB7C62E4A015901482E880F5508C201AE
:1017E0000E943822782E882309F480C0C20133E099
:1017F000880F991F3A95E1F7FC01E050FF4F4381B4
:1018000050E04115510511F041E050E080509F4FEC
:10181000FC016481758169527E4FCE0101960E9460
:101820005623F40140815181628173812FB7F8946E
:1018300080914B0590914C05A0914D05B0914E05BE
:101840002FBF841B950BA60BB70B84369105A10502
:10185000B10540F4B701C8010E94070499818917B6
:1018600009F444C00C2C000CDD08C6010E9438228B
:10187000782E811113C0712C872D0F90DF91CF919D
:101880001F910F91FF90EF90DF90CF90BF90AF909E
:101890009F908F907F905F904F900895C60123E0B6
:1018A000880F991F2A95E1F7FC01E050FF4F438113
:1018B00050E0E416F50608F4A70180509F4FFC01A4
:1018C0006481758169527E4FC5010E945623B7011C
:1018D000C8010E94070499818913CDCF0E94D003CB
:1018E000F4016083718382839383C6CFA701B8011B
:1018F000C5010E945623C0CFA8E0B0E0E2E8FCE0BA
:101900000C94CE2288E0E82EF12C0EED11E09E0121
:101910002F5F3F4F4FEC51E063E082E00E94D70B16
:10192000082F882389F19091DD018091CE019817CD
:1019300059F110E09091E1018091E0018917F1F0F7
:10194000E92FF0E0E552FE4F878187FB662760F9BB
:101950009F5F93709093E1019091DF019F5F90935F
:10196000DF018F770E945C04182F8111E3CF84E0A0
:1019700090E00E943822012F082302C01111F7CFF6
:101980008091DD018093CE01802F2896E6E00C94B3
:10199000EA22A5E0B0E0EFECFCE00C94CC226B0175
:1019A00085E0E82EF12C08ED11E09E012F5F3F4FFE
:1019B0004AEC51E061E080E00E94D70B882349F0B7
:1019C00095E0FE013196A5ECB1E001900D929A955B
:1019D000E1F795E0E5ECF1E0D60101900D929A95E2
:1019E000E1F72596E8E00C94E8222091B801809177
:1019F000AF01282B8091AE01882381F0282B30E0A5
:101A00008EE791E0FC014191CF0141113F5FF1E090
:101A100084389F07B9F731111092AE0120937C01F1
:101A200048E050E060EB71E08CE791E00E944923D0
:101A3000892BA9F088E0ECE7F1E0A0EBB1E00190A0
:101A40000D928A95E1F7E0914805F09149053097AC
:101A500031F00280F381E02D8CE791E00995089543
:101A60001092B801EEE7F1E086E0DF011D928A9561
:101A7000E9F71092AF010E94F50C0895AAE2B0E0D8
:101A8000E4E4FDE00C94D1228DE595E02091F10095
:101A9000FC012193CF01F5E085369F07B9F78091CE
:101AA0005E05833009F470C0B8F4813009F447C092
:101AB000823009F4B1C08091E80083FF64C2809154
:101AC0005D0590915E059A3008F05DC2E92FF0E067
:101AD000E754FC4D0C940D238A3009F48CC08B30F4
:101AE00009F46FC0893039F780915D05813219F7AB
:101AF0008091610590916205892BE9F68091E8005B
:101B0000877F8093E8008091E80082FF38C0909141
:101B1000F3008091F200029731F48091F10081305E
:101B200011F0863021F48091F1008093510580916D
:101B3000E8008B778093E8000E944D03BCCF809132
:101B40005D05813A09F0B7CF8091E800877F8093E7
:101B5000E8008091610590916205892B61F468E04D
:101B600082E595E070E00E946C038091E8008B773D
:101B70008093E800A0CF60E090E080E0F3CF809118
:101B800065058111C0CF97CF80915D05813A09F03D
:101B900092CF8091610590916205892B09F08BCFDE
:101BA0008091E800877F8093E8008091E80080FFC3
:101BB000FCCF809151018093F1008091E8008E77F5
:101BC000B9CF80915D05813209F075CF80916105B3
:101BD00090916205892B09F06ECF8091E800877F94
:101BE0008093E8000E944D0380915F05809351012E
:101BF0000E94300D60CF80915D05813209F05BCF8E
:101C00008091E800877F8093E8000E944D038091D7
:101C10006005809350054FCF80915D05813A09F0B2
:101C20004ACF8091E800877F8093E8008091E800A8
:101C300080FFFCCF80915005BECF803899F082386C
:101C400009F0A1C1809161058F70873008F09BC1B8
:101C50008093E9008091EB0085FB882780F9109242
:101C6000E90006C080915A0590915B059111826050
:101C70009091E800977F9093E8008093F100109294
:101C8000F1008091E8008E777AC1882309F468C159
:101C9000823009F078C180915F0581116BC180911C
:101CA00061058F702FEF280F263008F06CC18093EC
:101CB000E9002091EB0020FF5DC1933031F4809169
:101CC000EB0080628093EB0055C19091EB00906136
:101CD0009093EB0021E030E001C0220F8A95EAF7F3
:101CE0002093EA001092EA008091EB008860EACF2E
:101CF000811149C110915F051F778091E3008078C1
:101D0000812B8093E3008091E800877F8093E80037
:101D10000E944D038091E80080FFFCCF8091E3009A
:101D200080688093E30082E0111183E08093650571
:101D30002AC18058823008F026C180915F059091B9
:101D400060058C3D23E09207A1F583E08A838AE257
:101D500089834FB7F894DE01139620E03EE051E20C
:101D6000E32FF0E050935700E49120FF03C0E29589
:101D7000EF703F5FEF708E2F90E0EA30C0F0C796B3
:101D80008D939D932F5F243159F74FBF8091E800C9
:101D9000877F8093E8006AE270E0CE0101960E949E
:101DA0006C038091E8008B778093E800ECC0C096CC
:101DB000E7CF4091610550916205292F33272330E9
:101DC000310509F43FC078F52130310509F466C0CA
:101DD00082E290E0E6EFF3E02230310509F0D3C073
:101DE0002091E800277F2093E8002091630530913F
:101DF00064058217930708F49C0140E02115310522
:101E000009F051C041114FC08091E80082FDC9CF57
:101E100080916505882329F2853019F28091E800C8
:101E200083FFF2CFBECF2132310581F1223231055D
:101E300009F0A9C0452B09F0A6C084E490E0E2EBCC
:101E4000F3E0CECF992781309105C1F0009759F08A
:101E5000029709F098C0EAE2F4E0E4918E2F90E056
:101E6000EAE2F4E007C0E2E6F4E0E4918E2F90E0CD
:101E7000E2E6F4E0009709F0B3CF85C0E8E4F4E0CF
:101E8000E4918E2F90E0E8E4F4E0F4CF452B09F0E4
:101E90007AC089E090E0E8E0F4E0A2CF82E190E04F
:101EA000E8E1F4E09DCF80916505882309F479CFBE
:101EB000853009F476CF8091E80083FD72CF809160
:101EC000E80082FDA1CF8091E80080FF97CF90913C
:101ED000F3008091F2002115310519F08830910549
:101EE00050F041E0089709F040E08091E8008E77DB
:101EF0008093E80083CF44914093F10031962150C4
:101F000031090196E8CF8038F1F58091E800877FAC
:101F10008093E80080915C058093F100B2CE81113E
:101F200032C010915F05123070F58091E800877F14
:101F30008093E80010935C050E944D03112311F07B
:101F400084E005C08091E30087FDFACF81E08093B3
:101F5000650561EC81E00E9471028091650513C006
:101F600080915F05813079F481E0933009F080E061
:101F700080935B051092E9008091E800877F809351
:101F8000E8000E944D038091E80083FF0AC0809121
:101F9000E800877F8093E8008091EB008062809367
:101FA000EB00AA96E3E00C94ED220E94300D2FEF97
:101FB00084E39CE0215080409040E1F700C00000A5
:101FC00088E19AE00FB6F894A895809360000FBE60
:101FD00090936000FFCF882321F00E9405070E94A4
:101FE000F50C0895882339F09091B801982B9093BF
:101FF000B8010E94F50C0895882391F09CEF980F8A
:10200000913A78F4EEE7F1E09191891303C0DF0192
:1020100011971C9291E0E438F907B1F70E94F50C92
:10202000089590E2980F9830D8F7877091E001C03A
:10203000990F8A95EAF7892F0E940507EFCFCF9372
:10204000C82F8823A9F08CEF8C0F813A00F5EEE7BA
:10205000F1E0DF018D91C81769F081E0A438B8077D
:10206000C9F76C2F8CE791E00E94DC030E94F50C0D
:10207000CF9108958191C81303C0DF0111971C927D
:1020800081E0E438F807B1F70E94F50CEACF80E26E
:102090008C0F883068F7C77021E030E001C0220F54
:1020A000CA95EAF78091B801822B8093B801DECF00
:1020B00080E09091410520914005291749F1E92FD1
:1020C000F0E0EE5BFA4F20819F5F937090934105A3
:1020D00080913F058F5F80933F0527FD0BC08BE408
:1020E0000E941F108FE39CE90197F1F700C00000E8
:1020F0008BE40AC08EE40E941F108FE39CE90197D5
:10210000F1F700C000008EE40E94FC0F81E0D1CF07
:1021100008951F920F920FB60F9211242F933F93A1
:102120004F935F936F937F938F939F93AF93BF93DF
:10213000CF93DF93EF93FF93D091E900DF7080910D
:10214000EC00C82FC17080FDC0E81092E9008091BA
:10215000F000877F8093F00078940E943E0D1092EB
:10216000E9008091F00088608093F000CD2BCF7063
:10217000C093E900FF91EF91DF91CF91BF91AF91B3
:102180009F918F917F916F915F914F913F912F918F
:102190000F900FBE0F901F9018951F920F920FB6C1
:1021A0000F9211242F933F934F935F936F937F93DD
:1021B0008F939F93AF93BF93EF93FF938091E10031
:1021C00082FF09C08091E20082FF05C08091E1009A
:1021D0008B7F8093E1008091DA0080FF24C08091A2
:1021E000D80080FF20C08091DA008E7F8093DA00D3
:1021F0008091D90080FF9CC080E189BD82E189BDCA
:1022000009B400FEFDCF81E08093650580914F0504
:10221000811109C00E94A3020E94C2028091E200C3
:1022200084608093E2008091E10080FF17C080917C
:10223000E20080FF13C08091E2008E7F8093E20075
:102240008091E20080618093E2008091D8008062FA
:102250008093D80019BC85E0809365058091E100EA
:1022600084FF2BC08091E20084FF27C080E189BDFC
:1022700082E189BD89B5982F917080FFFBCF809155
:10228000D8008F7D8093D8008091E1008F7E80936D
:10229000E1008091E2008F7E8093E2008091E20075
:1022A00081608093E20080915C05882309F446C038
:1022B00084E080936505809165058091E10083FF4E
:1022C00026C08091E20083FF22C08091E100877FD9
:1022D0008093E10082E08093650510925C05809117
:1022E000E1008E7F8093E1008091E2008E7F8093F9
:1022F000E2008091E20080618093E20060E080E093
:102300000E9471028091F00088608093F000FF913C
:10231000EF91BF91AF919F918F917F916F915F915D
:102320004F913F912F910F900FBE0F901F901895D6
:1023300019BC1092650510924F0575CF8091E3008E
:1023400087FD93E090936505B6CF78941F921FB6F2
:102350001F9211248F939F93AF93BF9380914B054E
:1023600090914C05A0914D05B0914E050196A11D8F
:10237000B11D80934B0590934C05A0934D05B093F0
:102380004E05BF91AF919F918F911F901FBE1F90DF
:1023900018959C014FB7F89480914B0590914C058E
:1023A000A0914D05B0914E054FBF821B930B089530
:1023B0002FB7F89480914B0590914C05A0914D0555
:1023C000B0914E052FBF08950F931F93CF93DF93C6
:1023D000C62FD42F022FFC0185818823A9F060939A
:1023E000A2050E94D8119093A1058093A005C77003
:1023F00081E001C0880FCA95EAF70E94F20FDF91D1
:10240000CF911F910F9108958091A205681335C057
:102410008091A0059091A1050E94C911883C910569
:1024200060F510E21D0FCD17B9F080E28C0F8830F7
:1024300040F4C77081E001C0880FCA95EAF70E9496
:10244000EB0F183048F481E09D2F977001C0880F82
:102450009A95EAF70E94F20F802F0E941F10802F9A
:102460000E94FC0F183058F6D77081E001C0880F29
:10247000DA95EAF70E94EB0FC2CFC77081E001C086
:10248000880FCA95EAF7F6CFB0E0A0E0EAE4F2E1FF
:102490000C94CA228C01FC018481882341F121E043
:1024A000408151816281738195810E942608EC01EF
:1024B000FC01E851FC47E730F105A8F5ED53FC4D70
:1024C0000C940D2326E241EE61EEC8010E94E41156
:1024D0008091AD01877059F0F8018581882339F02A
:1024E00080910F0282FF03C082E00E94D707CDB720
:1024F000DEB7EAE00C94E62227E245EE65EEE5CF92
:1025000026E241EE60EEE1CF27E245EE64EEDDCF5C
:1025100026E241EE62EED9CF27E245EE66EED5CF58
:1025200028E241E0EBCFF8018581882309F4BBC3A1
:102530001092A205CE019057839708F09EC384E0C5
:1025400090E00E946D2390930F0280930E02FE0193
:10255000E150F047E232F10520F4E653FC4D0C94D3
:102560000D2380910E02816080930E0295C08091B0
:102570000F02886080930F028FC080910E028260EC
:10258000F3CF80910E028460EFCF80910E028860BD
:10259000EBCF80910F028160EDCF80910F028260BE
:1025A000E9CF80910E028061DFCF80910E028062C0
:1025B000DBCF80910E028064D7CF0E94300D8091D6
:1025C0000E028068D1CF80910E028C60CDCF8091B9
:1025D0000F028360CFCF80910E028E7FC5CF809196
:1025E0000F02877FC7CF80910E028D7FBDCF809174
:1025F0000E028B7FB9CF80910E02877FB5CF80917D
:102600000F028E7FB7CF80910F028D7FB3CF809165
:102610000E028F7EA9CF80910E028F7DA5CF809173
:102620000E028F7BA1CF0E94300D80910E028F771A
:102630009BCF80910E02837F97CF80910F028C7F7A
:1026400099CF80910E0282FB992790F921E0922781
:1026500090FB82F990FB83F987CF80910F02982F2E
:10266000909591708E7F892B90FB81F983CF90910B
:102670000E02892F8F7B96FF806476CF0E94300DEB
:1026800090910E02892F97FB87F980586DCF61E0FA
:102690008EE090E00E94832360910E0270910F0201
:1026A00084E090E00E94A1230E94300D11CF60E0F1
:1026B000EFCF90910E02892F8F7E94FF806154CFCF
:1026C00090910E02892F8E7F90FF81604DCF909167
:1026D0000F02892F877F93FF88604CCF85E3ECC280
:1026E0008091090380FF1CC0282F2E7F20930903AF
:1026F00030910A0340910B0350910C0360910D033C
:1027000070910E0380910F03909110030E944B096A
:10271000809130028160809330020E948604D8CE7E
:1027200081608093090361E0869586950E94D00AB6
:10273000CFCE49EF5AE064E07BE00E948004C8CE2F
:1027400044E05BE069EF7AE0F8CF48E85AE062E9FC
:102750007AE0F3CF42E95AE068E87AE0EECF4EE65D
:102760005AE06BE77AE0E9CF4BE75AE06EE67AE0B1
:10277000E4CF44E55AE061E67AE0DFCF41E65AE093
:1027800064E57AE0DACF4CE95AE066EB7AE0D5CF3F
:1027900046EB5AE06CE97AE0D0CF61E081E0C6CF49
:1027A0000E94300DFFEF24E33CE0F1502040304028
:1027B000E1F700C0000087E797E790930108809356
:1027C000000888E19AE00FB6F894A895809360001D
:1027D0000FBE90936000FFCF6FEF7FEF90E080E03F
:1027E0000E94A1230E94D50F80910F0282FB8827AF
:1027F00080F991E089270E94090BF8018581C08149
:10280000D181882309F44DC0CE010E941607F82E0D
:10281000682FCE010E948A07BE018F2D0E94E80515
:102820000E940706F82EC92FA82EF801C580B68091
:10283000B2949FE0B9228091AD01877009F1EC2C30
:10284000CC20F9F08C2F807F803469F080E28F0DEE
:102850008830B0F08C2F807E803229F4F1E0FF15B3
:1028600078F4BB2069F080910F0282FF09C082E0FA
:102870000E94D7078091AD018770EE24E394811107
:10288000E12CDC2ED2948FE0D8222BE02D1508F419
:102890006AC0ED2DF0E0E451FC4D0C940D2380E076
:1028A000AACFCE010E945707F82EB6CFDC2FDF70DB
:1028B000C07F11F0D295D07FCC20B9F0DD2369F034
:1028C00080E28F0D883010F0A11009C08091B8010E
:1028D000D82BD093B8010E94F50C8F2D42C0809167
:1028E000AF01D82BD093AF01F6CF8F2D0E94FC0FF4
:1028F000DD23C9F180E28F0D883010F0A11004C0F3
:102900008D2F0E94050706C0D0958091AF01D82376
:10291000D093AF010E94F50C26C0DC2FDF70C07F82
:10292000C03211F0D295D07FAA2059F031E0A31621
:1029300009F478C0CC2009F484C0BB2009F446C057
:10294000CCCF80910F0282FD3DC0CC20A9F1DD23C8
:1029500039F08091B801D82BD093B8010E94F50CC2
:1029600080E00E941F10ED2DE850FF0B349710F40B
:102970000E94F603EE20A9F08091AD0180FD11C008
:10298000F80115828695869586950E94EE07C80106
:102990000E9444128091AD018695869586950E948D
:1029A000C50720E0F80140815181628173818481F3
:1029B00095810E9426089BCD80E00E94FC0FDD23BC
:1029C00091F29ECFCC20A1F0B11004C08D2F0E94B7
:1029D000F20FC9CF81E0B812C6CF8091AE019D2F12
:1029E0009823D91709F4BFCFD82BD093AE01BBCF12
:1029F000B110B9CF8D2F0E94EB0F9091AE018D2FAA
:102A0000892329F08D2F809589238093AE018091B1
:102A100085019D2F982309F4A6CFD095D823D09374
:102A20008501A1CFCC2029F095E09B1508F49BCF20
:102A3000CDCFE4E0EB1508F496CF8D2F0E94EB0F7D
:102A400092CFBB20D1F3F9E3AF1210C12FEF37EED5
:102A500083E0215030408040E1F700C0000006C113
:102A60008C2F837009F03FC0C1107DCF4F2D429550
:102A700046954770440F440F2F2D2F7030E0042EE1
:102A800002C0220F331F0A94E2F790E080E0F4FEC8
:102A900009C08FE090E002C0880F991F4A95E2F7C5
:102AA00080959095C695C695C370C23099F078F41C
:102AB00040910A0250910B02C13039F0822B932BC6
:102AC000842395230E94FE074ECF242B352B822B87
:102AD000932BF8CF822B932B20910A0230910B027B
:102AE00082279327EFCF8695CC2011F08C2F817011
:102AF000882309F438CF4F2D429546954770440FEF
:102B0000440F2F2D2F7030E0042E02C0220F331FF0
:102B10000A94E2F790E080E0F4FE09C08FE090E0D4
:102B200002C0880F991F4A95E2F780959095C69547
:102B3000C695C370C23099F078F440910C02509160
:102B40000D02C13039F0822B932B842395230E94F0
:102B5000C00709CF242B352B822B932BF8CF822B48
:102B6000932B20910C0230910D0282279327EFCFF7
:102B7000CF70CC2029F08C2F0E94EE078F2D27CF0D
:102B80008F2D0E94EB0F8C2F0E94C507ECCE8F2D4E
:102B900092EFA91699F19A1570F0E0EFAE16D1F008
:102BA000F1EFAF1691F0CC2009F45BC0B11095CED7
:102BB0008C2F8F7127C023EFA21639F134EFA312A7
:102BC000F2CF80910F0282FD2EC08C2F8F71CC200E
:102BD000D9F218C0CC2069F084E08B1508F4C3CE7C
:102BE000CF7181E090E002C0880F991FCA95E2F78B
:102BF000B8CF95E09B1508F4B6CEF2CF8C2F8F712D
:102C0000C110C2CF0E94EE07AECE90E080E0CC2093
:102C100009F49DCFCF7181E090E002C0880F991F29
:102C2000CA95E2F794CFCC2089F0CF718C2F0E9407
:102C3000EE0780910F0282FF07C0E8E0CE9FC0013F
:102C4000112483608093AD018C2FDCCF81E00E9442
:102C5000D707F1E0FB1508F086CE82E00E94D70787
:102C600082CEBB2039F0893309F4F0CE8F2D0E943B
:102C7000FC0F79CE8C2F8F7187CFC631FCE7DF0731
:102C800049F58091B8018A7A91E009F490E0909337
:102C9000840169E2811165E38CE791E00E94DC0325
:102CA0000E94F50C15CCC6312CE7D20799F580911E
:102CB0008401811113CD89E2EEE7F1E024E831E0EF
:102CC0009191891303C0DF0111971C922E173F07C2
:102CD000B9F7E6CFC3303CE7D30709F47DCD50F414
:102CE000C1159CE7D90709F45BCDC130DC4709F475
:102CF00079CD83CDCB35FCE7DF0709F4D0CDCC35DA
:102D00002CE7D20709F470CDCA35DC4709F075CD40
:102D100081E071CD8091B8018272FE01E052F847E6
:102D2000E531F10508F069CDE850FC4D0C940D2318
:102D3000CF93DF938091AC01807F09F04DC08091EB
:102D4000AB01882309F448C0E0919F0550916605C6
:102D5000C091A701D091A6016091A8017091A9012D
:102D600047E05E17C9F18E2F90E0E49FF001112437
:102D7000E959FA4F2481222391F1489FF001499F9C
:102D8000F00D1124DF01A959BA4F11962C9111971A
:102D90002C1325C02C912D1322C015962C9115971C
:102DA00021111DC012962D913C91261B370B283CFA
:102DB0003105A8F48091AC018F7080618093AC01E3
:102DC000E359FA4F80818F708061808386EA91E0B9
:102DD0000E9444120E940C07DF91CF910895FC01DC
:102DE0003196E770BECFA4E1B0E0E9EFF6E10C94D4
:102DF000C8228C0186E0F801DE011F9601900D9239
:102E00008A95E1F7F8018481E58096EAA92E91E0A0
:102E1000B92E9091AA01911128C0882319F1EE20B2
:102E2000F1F0C8010E940308F82E8823C1F087E062
:102E3000F801D50101900D928A95E1F78091AA01E0
:102E4000813031F48091A6019091A7010E944A0738
:102E50000E9498168F2D6496ECE00C94E422C80131
:102E60000E944412FF24F394F5CFD080C180828069
:102E70009380F090AB012091A8013091A901A401A9
:102E8000421B530BFF2009F4D9C0483C510508F000
:102E900092C08823F9F29091A7018091AC01282F6C
:102EA000207F09F056C0C91214C09091A601D91212
:102EB00010C0E11048C08F7080618093AC0186EA39
:102EC00091E00E9444128091AC01F8018683F12CBC
:102ED000C1CFE11038C06C2D8D2D0E9452026C2D97
:102EE0008D2D0E945202E82E8111F1CFDF86C88A13
:102EF0008F8598890E944A07292F22952F702430A8
:102F000058F49F70223088F0992399F0F801968147
:102F1000907F79F4FE2C9ECF2A5F2F70223068F0CC
:102F2000C8010E944412EF2CF5CF992311F0882399
:102F300089F3805E883070F3F3CF803F58F3815F70
:102F4000833070F7E7CF8091AC0181608093AC0152
:102F5000BECFC91207C09091A601D91203C0EE20BE
:102F600009F48DC0C8010E940308882309F477CFB3
:102F7000EE2009F474CF8091AC01803288F020916A
:102F8000A6013091A701398728879B868A86909170
:102F9000AA019C871D868E87CE0108960E94441246
:102FA00087E0F801A6EAB1E001900D928A95E1F779
:102FB0000E94981657CF9091AC01292F207F51F491
:102FC00086EA91E00E94441287E0F50111928A9509
:102FD000E9F77DCF882309F43DCF8091A7018C11BB
:102FE00010C08091A601D8120CC0E1100AC09683CF
:102FF000C8010E94441287E0F50111928A95E9F711
:1030000029CFC8010E940308882309F428CFEE20A5
:1030100009F425CF8091AC01803210F22091A601F5
:103020003091A7013A8329839C828B829091AA01D7
:103030009D831E828F83CE010196B0CF483C5105FF
:10304000D0F6882309F40ECFFE2CEE2009F407CF2A
:103050008091A7018C1120C08091A601D8121CC0BC
:103060008091AC0180FD0FC0982F907F61F0868326
:10307000903F31F0982F907F905F8F70892B8683DF
:10308000C8010E94441287E0F801A6EAB1E001906D
:103090000D928A95E1F7DECEC8010E9403088111E6
:1030A0007FCF8091AC0181608093AC01C8010E9408
:1030B0004412D0CEABE1B0E0E0E6F8E10C94D022CF
:1030C0004E8B5F8B688F798F8A8F9B8F192F911111
:1030D0001092AF011D8A86E0FE017696DE011F96F2
:1030E00001900D928A95E1F70A8D002341F021E0CD
:1030F0004F85588969897A89C8010E9426080B8BF7
:103100001C8B87E0FE013F96DE01189601900D9220
:103110008A95E1F7CE0108960E94F31681112AC024
:1031200087E0FE013896DE01119601900D928A9596
:10313000E1F78C858823F1F02091660530E0C90124
:1031400001968770992740919F0548171906E9F065
:1031500097E0929FD001939FB00D1124A959BA4FC7
:10316000FE01319601900D929A95E1F780936605E4
:103170000E940C0717E080919F05909166058913C6
:1031800012C06B96E4E00C94EC220E94300D109279
:10319000660510929F0587E0E6EAF1E0DF011D92E7
:1031A0008A95E9F7E7CF819FC001112489599A4F89
:1031B0000E94F316882329F380919F0590E00196E1
:1031C0008770992780939F05D6CF2F923F925F9269
:1031D0006F927F928F929F92AF92BF92CF92DF9227
:1031E000EF92FF920F931F93CF93DF9380913D0552
:1031F000882369F180913B0590913C050E94C9119B
:10320000C29730F00E94D81190933C0580933B0503
:103210008091340590913505892B59F580913A05B7
:103220008823A9F00E94D00300913605109137053C
:103230002091380530913905601B710B820B930B7F
:103240006F3F7F4F8F4F9F4710F40E940809DF9117
:10325000CF911F910F91FF90EF90DF90CF90BF9093
:10326000AF909F908F907F906F905F903F902F9046
:103270000895809133058111D1CF0E9423092091B7
:103280003405309135052115310541F280E041E0EA
:1032900050E0082F10E01A01082E02C0220C331C47
:1032A0000A94E2F7B10162237323672B11F48F5F55
:1032B000F0CF9091320590FF95C0880F880F880F4E
:1032C00080934A0110924D01895F80934B0183E006
:1032D00080934E0124E630E047E050E068E471E07E
:1032E00088E70E941E20892B09F098CFA80125E0CD
:1032F000440F551F2A95E1F78091320580FF84C065
:10330000E2E1F3E080E2DF011D928A95E9F7A5E7AB
:10331000B1E001E711E089E7C82E81E0D82E97E0FF
:10332000592E772473948D91E80129918E01240FF1
:10333000352F311D2E5C3C4FE82FF0E0EE5EFC4F48
:1033400090E080E0652C681A872C082E01C0880C5C
:103350000A94EAF77901A12CE701B9907E01B8201F
:10336000662D6A196770962E062E000C770BDB2DE2
:1033700001C0DD0F9A94EAF7719561957109677044
:10338000772701C0B6946A95EAF7BD2A6081962E28
:103390009B289082A39468E0A612DECF0196319616
:1033A0008830910579F6CA16DB0609F0BCCF04E631
:1033B00010E020E230E042E153E060E488E70E9460
:1033C000A820892B09F02ACFE101C095D0958091E2
:1033D000340590913505C823D923D0933505C09382
:1033E00034051CCF8295880F807680934A0198011E
:1033F000369527953695279520934D01815E8093CC
:103400004B0120934E0166CF4E5C5C4F04E610E00A
:1034100020E230E0D2CFA5E1B0E0E1E1FAE10C94A6
:10342000C7228E01045F1F4F8AE0F80111928A952E
:10343000E9F784E5C82E81E0D82EF12CE12CAA24EE
:10344000A394B12C2FE5822E21E0922EF6018191DA
:103450006F018F3F09F442C0F894E82FE295EF70B6
:10346000F0E021A18F70A50102C0440F551F8A957D
:10347000E2F7CA01922F982B91A392A180958923FC
:1034800082A3789400C0E9E5F1E0712C31E021914C
:103490002F3F09F49CC0A22FA295AF70B0E0909688
:1034A0008C9190E02F7002C0959587952A95E2F750
:1034B00080FD8DC0832F782A330F8E169F0639F733
:1034C000F601319780818F3F11F00E94C60450EAC7
:1034D0005A95F1F7F801EE0DFF1D70828FEFE81A93
:1034E000F80A95E0E916F10409F0B0CF4AE050E09F
:1034F000B8018EEF91E00E944923009741F02AE045
:10350000F801AEEFB1E001900D922A95E1F700913C
:10351000090210E00F5E1D4F892B09F45AC081E0AB
:103520008093BD010E94D8119093BC018093BB0190
:10353000D12CC0904605FE0131967F0185E0CC205C
:1035400009F49DC011928A95E9F78091F9018A30BA
:1035500008F063C049EC5CE0B701C8010E94C808EC
:10356000882309F47BC04CE75CE0B701C8010E94E6
:10357000C808882309F472C041E85BE0B701C801BC
:103580000E94C808882309F469C040E25BE0B701E3
:10359000C8010E94C808882309F460C01092F9018C
:1035A0008091080290E045E050E0B7018F5E9D4FAA
:1035B0000E94492321E02093C401892B09F042C0D5
:1035C000C12C8C2D8D296596EDE00C94E32280E0D2
:1035D00072CFD090BD01DD2009F4AACF8091BB014C
:1035E0009091BC010E94C911059708F4A1CF45E054
:1035F00050E06EEF71E0C8010E944923892B59F019
:1036000085E0EEEFF1E0D80101900D928A95E1F7A7
:103610001092BD018ECFD12CFBCF8091BE01909135
:10362000BF010E94C911843F914008F093CF80915F
:10363000C401882329F285E0F70111928A95E9F700
:103640001092C401A0910802B0E0AF5EBD4F85E0CA
:10365000F70101900D928A95E1F7B3CF8091F901BE
:103660008F3F31F08F5F8093F9018A3008F498CF53
:103670000E94D8119093BF018093BE01D8CFF8016A
:10368000A8EDB1E001900D928A95E1F765E070E058
:1036900088ED91E00E9407048093D70188E0EEE373
:1036A000F5E0AEEDB1E001900D928A95E1F768E0AA
:1036B00070E08EED91E00E9407048093DD01809020
:1036C000E6019090E701A090E801B090E9018091B7
:1036D000C0019091C101A091C201B091C3018816AF
:1036E0009906AA06BB06B1F08092C0019092C10172
:1036F000A092C201B092C3010E94D003861A970A19
:10370000A80AB90A8092FA019092FB01A092FC01EA
:10371000B092FD018BE0EAEEF1E0D70101900D924D
:103720008A95E1F72981822F869586950A81FB800B
:10373000EC801B851092F401112309F442CF10FF95
:103740000AC09091090320FF0FC091609093090374
:1037500060E00E94D00A11FF34CF20E04E2D6F2D83
:10376000802F0E9471092DCF9E7F90930903809135
:1037700030028160809330020E948604ECCFA6E084
:10378000B0E0E5ECFBE10C94D0220E94D8118C0152
:103790008091B9019091BA018017910781F0198247
:1037A0001A820E94D811682F49815A81792F80E0AE
:1037B00090E00E945A181093BA010093B90126961E
:1037C000E4E00C94EC221F921FB61F9211248F93F9
:1037D0009F93AF93BF9380914A05811113C080914D
:1037E0004B0590914C05A0914D05B0914E05419629
:1037F000A11DB11D80934B0590934C05A0934D05E1
:10380000B0934E05BF91AF919F918F911F901FBEB6
:103810001F901895CDB7DEB728970FB6F894DEBF86
:103820000FBECDBF85B7806885BF85B7806885BF6F
:1038300084B7877F84BF0FB6F894A8958091600005
:10384000886180936000109260000FBE80E890E075
:103850000FB6F89480936100909361000FBE80ECE6
:1038600094E090937B0180937A010E94A3020E94CE
:10387000C2028091E20084608093E200789480919B
:1038800065058823A1F01091E9001F709091EC006C
:10389000892F817090FD80E8182B1092E9008091AB
:1038A000E80083FD0E943E0D1F701093E90082E046
:1038B00084BD93E095BD9AEF97BD80936E00109202
:1038C000FA011092FB011092FC011092FD0180910F
:1038D000D80080618093D8002AE12A95F1F700C0D2
:1038E0008091D900182F117080FD04C00E94A3029E
:1038F0001092650510934605109347051093380103
:10390000112309F428C21092430184E280934401F8
:103910000E944C21EEE3F5E088E0DF011D928A95DC
:10392000E9F78091380191E08927809328028091FE
:10393000380190932B0280913801809138018111D8
:1039400006C084E980934F0185EF8093500160E0C9
:1039500080E00E94390461E080E00E943904EFE8D1
:10396000F1E03197F1F700C0000010E080912B02E8
:10397000181708F4F6C1809138018091380195E05C
:10398000811190E09093090285E0891B80930802E1
:1039900004E511E0D8018D918D018F3F11F00E9457
:1039A000C604B1E009351B07A9F709E511E0F801E4
:1039B00081918F018F3F11F00E94C604F1E00F3515
:1039C0001F07A9F78AE0E1E1F2E0DF01282F1D924D
:1039D0002A95E9F7EEEFF1E0DF011D928A95E9F70C
:1039E00090E080E00E946D23863E9E4F09F466C001
:1039F00066EE7EEF90E080E00E94A12360E082E02E
:103A000090E00E94832381E090E090930B028093EA
:103A10000A0261E083E090E00E94832360E074E1A9
:103A200084E090E00E94A12360E086E090E00E94A4
:103A3000832360E087E090E00E94832340E050E031
:103A4000BA0188E090E00E94952360E084E290E073
:103A50000E94832360E087E190E00E94832360E07E
:103A60008CE090E00E94832360E08DE090E00E9473
:103A7000832319821A821B821C821D821E821F824E
:103A8000188648E050E068E170E0CE0101960E949F
:103A9000732340E050E0BA0180E290E00E94952359
:103AA00040E050E0BA018FE090E00E94952340E0B2
:103AB00050E0BA0183E190E00E94952382E090E01B
:103AC0000E945F2380931B0284E090E00E946D239C
:103AD00090930F0280930E0283E090E00E945F2398
:103AE00090E00E94FE071092320580E88093110357
:103AF0000E94EA1F6BE070E083EA92E00E94FB08FC
:103B00008823C9F18091320565E070E081FD3BC1F9
:103B10008EE992E00E94FB08882369F16DE070E075
:103B20008CE892E00E94FB08882329F10E94D003D0
:103B3000605A75418F4F9F4F6093360570933705DC
:103B40008093380590933905E2E3F3E080E092E05A
:103B5000DF019C011D9221503040E1F78FEF9FEF74
:103B6000909335058093340581E080933D058093E3
:103B70003A051092330580911002811182C088E0CD
:103B800090E00E9467234B015C0184E290E00E9478
:103B90005F23282F30E040E050E060E070E080E0FC
:103BA00090E000E20E941323282939294A295B2941
:103BB0002093090330930A0340930B0350930C03A3
:103BC00060930D0370930E0380930F039093100383
:103BD000309130023360309330022C7F09F043C0C3
:103BE00025E02093090310920A032FEF20930B0383
:103BF00028E720930C0310920D0325E030E04FEFEF
:103C000058E760E00E944B0988E090E00E9467233B
:103C10006B017C0184E290E00E945F23282F30E05A
:103C200040E050E060E070E080E090E00E9413230C
:103C3000B22FA32FF42FE52F5B0197018601BC293A
:103C4000A12BFE29E32BB0930903A0930A03F09361
:103C50000B03E0930C0360930D03B0920E0380936B
:103C60000F03909310030E94AA048091090380FF20
:103C700005C060E0869586950E94D00A81E0809319
:103C8000100280914605811102C00E944F2189E3F4
:103C900091E0909349058093480598E1C92ED12C75
:103CA0002BE1A22E22E0B22E34E0832E912C8091C3
:103CB000650500E112E1853009F49EC00E940B1AEF
:103CC0000CE112E081E1E82E82E0F82ED701F80144
:103CD00091918D9122E0E632F20709F497C098178E
:103CE000B9F320904605712CD7016D907D01F80144
:103CF00031908F01361431F1512C442443943624F1
:103D0000832D8421B9F02220A9F059827A820E9461
:103D1000D8119C838B83F1E0FD8391E0842D862173
:103D200009F490E09E8349815A816B817C818D8169
:103D30000E945A185394440C26E05212E1CFF80125
:103D40003197608273943AE07312CECF0E94DD0403
:103D50007724739460C084E280934301809344018C
:103D6000D9CD60E0812F0E941D04082F61E0812FD2
:103D70000E941D04E12FF0E0E75DFD4F880F802BCE
:103D800080831F5FF3CD89E992E0C4CE8091650501
:103D9000843021F10E94080910924A0530E40FB6E0
:103DA000F894A895C09260000FBE3093600083B76E
:103DB000817F846083BF83B7816083BF7894889557
:103DC00083B78E7F83BF0FB6F894A895809160006B
:103DD000886180936000109260000FBE80915B0547
:103DE000882351F00E940B1AE1E1F2E081918111E8
:103DF00089C0AE16BF06D1F780916505853009F4FC
:103E0000C5CF0E94300D0E94F60358CF981369CF9A
:103E10000E94BF1B712CE0904605EE2019F00E9415
:103E20005810E82E80912C02882351F010922C0219
:103E3000809140058093410580913E0580933F0528
:103E4000F12C80912B02F81688F08091460588238A
:103E500019F00E945810E82AEE2009F443C00E948D
:103E6000DD040E94E5180E94230940C061E08F2D07
:103E70000E941D04182F60E08F2D0E941D04E12F69
:103E8000EE0F8E2B0F2D10E0D801A75DBD4FEC91EA
:103E90009E2F9370891721F1EE0FEE0FE82BEC9314
:103EA000809128028F0DEF70F0E0E15AFE4F0A5D1D
:103EB0001D4F6080D8019C91690E6C92B3E060E068
:103EC000B61524F0EDEF6E161CF461E00E945C0460
:103ED000862D660C990BB4010E94F922D8018C93AF
:103EE000F394AFCF0E94E5187110BDCF0E94F60386
:103EF00090912D02891709F4DACE80932D020E9449
:103F0000D003D5CE09BD19BD09B400FEFDCF809107
:103F1000D8008F7D8093D8008091E00082608093EC
:103F2000E0008091E00081FDFCCF0E94300D64CF65
:103F3000EF92FF920F931F93CF93DF93182FEB0114
:103F40001092BC0084EA8093BC000E94D8117C01CE
:103F50008091BC0087FF27C08091B900887F88309E
:103F600029F08091B900887F803189F51093BB00DA
:103F700084E88093BC000E94D8118C018091BC0021
:103F800087FF1EC02091B900287F90E080E0283193
:103F900091F081E090E0203411F490E080E0919580
:103FA0008195910908C0C7010E94C911C817D90796
:103FB00078F68EEF9FEFCDB7DEB7E6E00C94EA22FD
:103FC000C8010E94C911C817D907C0F6F2CF8FEFF8
:103FD0009FEFF1CF1092B9008CE08093B800089564
:103FE0000F931F93CF93DF93EB018093BB0084E883
:103FF0008093BC000E94D8118C018091BC0087FF87
:1040000011C02091B900287F81E090E0283211F49E
:1040100090E080E0919581959109DF91CF911F917A
:104020000F910895CF3FDC0741F3C8010E94C911E9
:10403000C817D90710F78EEF9FEFEFCFB0E0A0E0E1
:10404000E4E2F0E20C94C722782E5B016A01890158
:104050000E94D8114C01C1E0D0E00431110558F0A4
:10406000C5E0D0E00F3F100731F0C80164E170E017
:104070000E94AE22EB01BE01872D0E94981F7C0199
:1040800097FF09C00F3F1007B1F3C4010E94C91187
:104090000817190780F7E501CA0CDB1CCC15DD05F4
:1040A00011F0F7FE09C084E98093BC00C701CDB7C9
:1040B000DEB7EDE00C94E322B80189910E94F01F75
:1040C0007C01ECCFB0E0A0E0E8E6F0E20C94C7227F
:1040D000782E5B016A0189010E94D8114C01C1E070
:1040E000D0E00431110558F0C5E0D0E00F3F1007D3
:1040F00031F0C80164E170E00E94AE22EB01BE0124
:10410000872D0E94981F7C0197FF09C00F3F100761
:10411000B1F3C4010E94C9110817190780F7E5011E
:10412000CA0CDB1CCC15DD0511F0F7FE09C084E9D3
:104130008093BC00C701CDB7DEB7EDE00C94E3225D
:10414000FE018491B8010E94F01F7C012196EACF04
:10415000B0E0A0E0EEEAF0E20C94C622682E762EE3
:104160005A0169010E94D8114C01C1E0D0E004312C
:10417000110558F0C5E0D0E00F3F100731F0C8013D
:1041800064E170E00E94AE22EB01BE01862D0E9428
:10419000981F7C0197FF1DC00F3F1007B1F3C401AA
:1041A0000E94C9110817190780F784E98093BC00A1
:1041B000C701CDB7DEB7EEE00C94E222B8018991D9
:1041C0000E94F01F7C01CC16DD0679F3F7FEF6CFD6
:1041D000ECCFB801872D0E94F01F7C01E501CA0CCD
:1041E000DB1CF1CF8EE14A9B02C08150E1F74A9B74
:1041F000FECF08955A9880E28A95F1F75A9A089569
:10420000FC013BE03A95F1F798E020E080E031E0F6
:1042100040E14A95F1F7880F4A9B02C0816023274D
:1042200042E04A95F1F7000040E14A95F1F79150DC
:1042300079F790E19A95F1F799B132E03A95F1F773
:10424000000040E14A95F1F792FB992790F99227F7
:104250002081920F90830895A1E0B0E0E2E3F1E2C3
:104260000C94CE2219828C017C01E60EF11C0E15F5
:104270001F0541F481E09981911180E02196E6E0EB
:104280000C94EA220E94F220CE0101960E940021A5
:10429000F80181938F01EBCF529A5A9A0895529860
:1042A0005A9AEA9AE9E6F0E080818F7C808308954B
:1042B0006150770B91E001C0990F6A95EAF720E011
:1042C00031E0911108C0222391F05A9A80E28A9538
:1042D000F1F75A980895492F482339F05A9A23271D
:1042E00040E24A95F1F79695ECCF5A98F9CF5A9853
:1042F000EDCFFF920F931F93CF93DF93EC018C01CF
:10430000060F111DC017D10729F4CDB7DEB7E5E0C0
:104310000C94EB22F9900E94FA2068E08F2D0E9405
:104320005821F0CF1F920F920FB60F9211240F93C6
:104330001F932F933F934F935F936F937F938F932D
:104340009F93AF93BF93EF93FF93CF93DF930F921E
:10435000CDB7DEB719820E94F220CE0101960E94ED
:104360000021082F069506950695282F2295257081
:10437000902F9570290F922F937026952695920F66
:10438000982797708981982B09F05CC0083008F055
:1043900059C080E18A95F1F75A9A529A82E08A953B
:1043A000F1F700C05A9888E0089F80011124D801D5
:1043B000A050BF4F1696ED91FC9117973097A9F03A
:1043C000609152017091530114962D913C91159773
:1043D000260F371F11968D919C911297680F791FA8
:1043E00013964C9113978C910995F801E050FF4F6B
:1043F0006381662351F020915201309153018481F1
:104400009581820F931F0E9479210E94FA2080E1FA
:104410008A95F1F75A9852985A9A80E18A95F1F75D
:10442000F801E050FF4F6081662351F02091520166
:104430003091530181819281820F931F0E942C2120
:104440000E94F2200F90DF91CF91FF91EF91BF91E9
:10445000AF919F918F917F916F915F914F913F911C
:104460002F911F910F910F900FBE0F901F901895D5
:104470000F931F93CF93DF93EC0108970CF04CC080
:10448000F894529A5A9885E08A95F1F700009C2F8B
:10449000969595708C2F8570980F892F83709695BF
:1044A000969523E0CC0FDD1F2A95E1F7980F8E013A
:1044B000092B0E94FA2000C068E0802F0E9458213A
:1044C00080E18A95F1F752985A9A4A9B1EC087E07C
:1044D00090E04A991CC0FE01E050FF4F63816623C3
:1044E000F9F0209152013091530184819581820F1E
:1044F000931F0E942C21811113C0529A5A9A7894CA
:10450000DF91CF911F910F91089500C0DECF0197E9
:1045100029F4529A5A9A789480E0F2CF00C0D9CF09
:104520000E94F22080E28A95F1F75A98529A80E12F
:104530008A95F1F7C050DF4F6881662351F02091D2
:1045400052013091530189819A81820F931F0E94F9
:1045500079210E94FA20789481E0D2CFAA1BBB1B5C
:1045600051E107C0AA1FBB1FA617B70710F0A61B73
:10457000B70B881F991F5A95A9F780959095BC0194
:10458000CD0108952F923F924F925F926F927F924A
:104590008F929F92AF92BF92CF92DF92EF92FF9253
:1045A0000F931F93CF93DF93CDB7DEB7CA1BDB0BFF
:1045B0000FB6F894DEBF0FBECDBF09942A883988A4
:1045C00048885F846E847D848C849B84AA84B984AB
:1045D000C884DF80EE80FD800C811B81AA81B981B7
:1045E000CE0FD11D0FB6F894DEBF0FBECDBFED01CB
:1045F000089597FB072E16F4009407D077FD09D095
:104600000E94AE2207FC05D03EF4909581959F4F05
:104610000895709561957F4F0895EE0FFF1F0590E7
:10462000F491E02D0994002E083090F0982F872FF8
:10463000762F652F542F432F322F22270850F4CF87
:10464000220F331F441F551F661F771F881F991F96
:104650000A95B2F7002D089597FD1094002E0830AA
:1046600098F00850232F342F452F562F672F782F7F
:10467000892F912DF4CF1594979587957795679508
:1046800057954795379527950A95AAF71124002D38
:104690000895FB01DC0104C08D910190801921F483
:1046A00041505040C8F7881B990B0895FB01DC016D
:1046B00002C001900D9241505040D8F70895F999E9
:1046C000FECF92BD81BDF89A992780B50895A6E1E5
:1046D000B0E044E050E00C94A923A8E1B0E042E04F
:1046E00050E00C94A923DC01A40FB51F41505040A9
:1046F00048F0CB01840F951F2E910E9484234150D6
:104700005040D0F70895262FF999FECF92BD81BD74
:10471000F89A019700B4021639F01FBA20BD0FB6FF
:10472000F894FA9AF99A0FBE08950396272F0E94DB
:1047300084230E948323252F0E948423242F0C94FA
:1047400084230196272F0E9484230C948323DC0169
:10475000CB01FC01F999FECF06C0F2BDE1BDF89A8C
:10476000319600B40D9241505040B8F70895F89436
:10477000FFCF1D0E450EC30F450EC30F780E990EC9
:10478000C30F830F8F0F8012841262127C12881263
:104790008C129012EB126013F312BD12C112F712B9
:1047A000C512FB120713D1125913D5120B13D912CC
:1047B0000F133713DD1213133E13E31219132113D2
:1047C000C912FF12CD120313E7121D132D13471345
:1047D0005713B712EF126713561456148D148D1415
:1047E000B314B314B314B3143015B815C715C715E3
:1047F00070139913A013A513AA13AF13B413B9130D
:10480000BE13C313C813CD1368126812681268125E
:0A481000681268126812681268123C
:10481A000000000100000000000000050100000087
:10482A000000000106000000000000080700000068
:10483A00000000000000C204040F00000000000095
:10484A000B1300000000000001CD038C08CA03CC42
:10485A0003CB0300480048480021007F220003F5EB
:10486A009401D7016697C63435F6F73133323600EC
:10487A00FF0100010000FFFF0000010001FF00002E
:0A488A0001000810181810080000C3
:00000001FF
